{
	"contracts/auctionride.sol": {
		"AuctionRide": {
			"abi": [
				{
					"anonymous": false,
					"inputs": [
						{
							"indexed": true,
							"internalType": "address",
							"name": "tokenOwner",
							"type": "address"
						},
						{
							"indexed": true,
							"internalType": "address",
							"name": "spender",
							"type": "address"
						},
						{
							"indexed": false,
							"internalType": "uint256",
							"name": "tokens",
							"type": "uint256"
						}
					],
					"name": "Approval",
					"type": "event"
				},
				{
					"anonymous": false,
					"inputs": [
						{
							"indexed": true,
							"internalType": "address",
							"name": "previousOwner",
							"type": "address"
						},
						{
							"indexed": true,
							"internalType": "address",
							"name": "newOwner",
							"type": "address"
						}
					],
					"name": "OwnershipTransferred",
					"type": "event"
				},
				{
					"anonymous": false,
					"inputs": [
						{
							"indexed": true,
							"internalType": "address",
							"name": "from",
							"type": "address"
						},
						{
							"indexed": true,
							"internalType": "address",
							"name": "to",
							"type": "address"
						},
						{
							"indexed": false,
							"internalType": "uint256",
							"name": "tokens",
							"type": "uint256"
						}
					],
					"name": "Transfer",
					"type": "event"
				},
				{
					"inputs": [
						{
							"internalType": "address",
							"name": "owner",
							"type": "address"
						},
						{
							"internalType": "address",
							"name": "delegate",
							"type": "address"
						}
					],
					"name": "allowanceOf",
					"outputs": [
						{
							"internalType": "uint256",
							"name": "",
							"type": "uint256"
						}
					],
					"stateMutability": "view",
					"type": "function"
				},
				{
					"inputs": [
						{
							"internalType": "address",
							"name": "delegate",
							"type": "address"
						},
						{
							"internalType": "uint256",
							"name": "numTokens",
							"type": "uint256"
						}
					],
					"name": "approve",
					"outputs": [
						{
							"internalType": "bool",
							"name": "",
							"type": "bool"
						}
					],
					"stateMutability": "nonpayable",
					"type": "function"
				},
				{
					"inputs": [
						{
							"internalType": "address",
							"name": "tokenOwner",
							"type": "address"
						}
					],
					"name": "balanceOf",
					"outputs": [
						{
							"internalType": "uint256",
							"name": "",
							"type": "uint256"
						}
					],
					"stateMutability": "view",
					"type": "function"
				},
				{
					"inputs": [
						{
							"internalType": "uint256",
							"name": "rideCount",
							"type": "uint256"
						},
						{
							"internalType": "uint256",
							"name": "bidamt",
							"type": "uint256"
						}
					],
					"name": "bid",
					"outputs": [],
					"stateMutability": "nonpayable",
					"type": "function"
				},
				{
					"inputs": [],
					"name": "decimals",
					"outputs": [
						{
							"internalType": "uint8",
							"name": "",
							"type": "uint8"
						}
					],
					"stateMutability": "view",
					"type": "function"
				},
				{
					"inputs": [
						{
							"internalType": "uint256[]",
							"name": "rideIds",
							"type": "uint256[]"
						}
					],
					"name": "getAllRides",
					"outputs": [
						{
							"components": [
								{
									"internalType": "uint256",
									"name": "id",
									"type": "uint256"
								},
								{
									"internalType": "uint256",
									"name": "latestHighestBid",
									"type": "uint256"
								},
								{
									"components": [
										{
											"internalType": "address",
											"name": "customer",
											"type": "address"
										},
										{
											"internalType": "address",
											"name": "driver",
											"type": "address"
										}
									],
									"internalType": "struct AuctionRide.USERS",
									"name": "users",
									"type": "tuple"
								},
								{
									"components": [
										{
											"internalType": "bool",
											"name": "isCancelled",
											"type": "bool"
										},
										{
											"internalType": "bool",
											"name": "isComplete",
											"type": "bool"
										},
										{
											"internalType": "bool",
											"name": "isConfirmed",
											"type": "bool"
										},
										{
											"internalType": "bool",
											"name": "isAuctionGoingOn",
											"type": "bool"
										},
										{
											"internalType": "enum AuctionRide.appUser",
											"name": "wasCancelledBy",
											"type": "uint8"
										}
									],
									"internalType": "struct AuctionRide.STATUS",
									"name": "status",
									"type": "tuple"
								},
								{
									"components": [
										{
											"internalType": "string",
											"name": "pickup",
											"type": "string"
										},
										{
											"internalType": "string",
											"name": "destination",
											"type": "string"
										},
										{
											"internalType": "uint256",
											"name": "distance",
											"type": "uint256"
										},
										{
											"internalType": "uint256",
											"name": "price",
											"type": "uint256"
										}
									],
									"internalType": "struct AuctionRide.RIDE_DETAILS",
									"name": "ride",
									"type": "tuple"
								},
								{
									"components": [
										{
											"internalType": "string",
											"name": "vehicle_no",
											"type": "string"
										},
										{
											"internalType": "string",
											"name": "RC",
											"type": "string"
										},
										{
											"internalType": "string",
											"name": "vehicle_images",
											"type": "string"
										},
										{
											"internalType": "enum Vehicle.VEHICLE_TYPE",
											"name": "vehicle_type",
											"type": "uint8"
										},
										{
											"internalType": "address",
											"name": "driver",
											"type": "address"
										}
									],
									"internalType": "struct Vehicle.VEHICLE_INFO",
									"name": "vehicle",
									"type": "tuple"
								},
								{
									"internalType": "uint256",
									"name": "timeOfPosting",
									"type": "uint256"
								},
								{
									"internalType": "uint256",
									"name": "secondsUntilAuctionEnds",
									"type": "uint256"
								}
							],
							"internalType": "struct AuctionRide.RIDE[]",
							"name": "",
							"type": "tuple[]"
						}
					],
					"stateMutability": "view",
					"type": "function"
				},
				{
					"inputs": [
						{
							"internalType": "uint256",
							"name": "_rideId",
							"type": "uint256"
						}
					],
					"name": "getRide",
					"outputs": [
						{
							"components": [
								{
									"internalType": "uint256",
									"name": "id",
									"type": "uint256"
								},
								{
									"internalType": "uint256",
									"name": "latestHighestBid",
									"type": "uint256"
								},
								{
									"components": [
										{
											"internalType": "address",
											"name": "customer",
											"type": "address"
										},
										{
											"internalType": "address",
											"name": "driver",
											"type": "address"
										}
									],
									"internalType": "struct AuctionRide.USERS",
									"name": "users",
									"type": "tuple"
								},
								{
									"components": [
										{
											"internalType": "bool",
											"name": "isCancelled",
											"type": "bool"
										},
										{
											"internalType": "bool",
											"name": "isComplete",
											"type": "bool"
										},
										{
											"internalType": "bool",
											"name": "isConfirmed",
											"type": "bool"
										},
										{
											"internalType": "bool",
											"name": "isAuctionGoingOn",
											"type": "bool"
										},
										{
											"internalType": "enum AuctionRide.appUser",
											"name": "wasCancelledBy",
											"type": "uint8"
										}
									],
									"internalType": "struct AuctionRide.STATUS",
									"name": "status",
									"type": "tuple"
								},
								{
									"components": [
										{
											"internalType": "string",
											"name": "pickup",
											"type": "string"
										},
										{
											"internalType": "string",
											"name": "destination",
											"type": "string"
										},
										{
											"internalType": "uint256",
											"name": "distance",
											"type": "uint256"
										},
										{
											"internalType": "uint256",
											"name": "price",
											"type": "uint256"
										}
									],
									"internalType": "struct AuctionRide.RIDE_DETAILS",
									"name": "ride",
									"type": "tuple"
								},
								{
									"components": [
										{
											"internalType": "string",
											"name": "vehicle_no",
											"type": "string"
										},
										{
											"internalType": "string",
											"name": "RC",
											"type": "string"
										},
										{
											"internalType": "string",
											"name": "vehicle_images",
											"type": "string"
										},
										{
											"internalType": "enum Vehicle.VEHICLE_TYPE",
											"name": "vehicle_type",
											"type": "uint8"
										},
										{
											"internalType": "address",
											"name": "driver",
											"type": "address"
										}
									],
									"internalType": "struct Vehicle.VEHICLE_INFO",
									"name": "vehicle",
									"type": "tuple"
								},
								{
									"internalType": "uint256",
									"name": "timeOfPosting",
									"type": "uint256"
								},
								{
									"internalType": "uint256",
									"name": "secondsUntilAuctionEnds",
									"type": "uint256"
								}
							],
							"internalType": "struct AuctionRide.RIDE",
							"name": "",
							"type": "tuple"
						}
					],
					"stateMutability": "view",
					"type": "function"
				},
				{
					"inputs": [],
					"name": "name",
					"outputs": [
						{
							"internalType": "string",
							"name": "",
							"type": "string"
						}
					],
					"stateMutability": "view",
					"type": "function"
				},
				{
					"inputs": [],
					"name": "owner",
					"outputs": [
						{
							"internalType": "address",
							"name": "",
							"type": "address"
						}
					],
					"stateMutability": "view",
					"type": "function"
				},
				{
					"inputs": [
						{
							"internalType": "uint256",
							"name": "_secondsUntilAuctionEnds",
							"type": "uint256"
						}
					],
					"name": "publishRide",
					"outputs": [],
					"stateMutability": "nonpayable",
					"type": "function"
				},
				{
					"inputs": [],
					"name": "renounceOwnership",
					"outputs": [],
					"stateMutability": "nonpayable",
					"type": "function"
				},
				{
					"inputs": [
						{
							"internalType": "uint256",
							"name": "rideCount",
							"type": "uint256"
						},
						{
							"internalType": "uint256",
							"name": "_seconds",
							"type": "uint256"
						}
					],
					"name": "startAuction",
					"outputs": [],
					"stateMutability": "nonpayable",
					"type": "function"
				},
				{
					"inputs": [],
					"name": "symbol",
					"outputs": [
						{
							"internalType": "string",
							"name": "",
							"type": "string"
						}
					],
					"stateMutability": "view",
					"type": "function"
				},
				{
					"inputs": [
						{
							"internalType": "address",
							"name": "receiver",
							"type": "address"
						},
						{
							"internalType": "uint256",
							"name": "numTokens",
							"type": "uint256"
						}
					],
					"name": "transfer",
					"outputs": [
						{
							"internalType": "bool",
							"name": "",
							"type": "bool"
						}
					],
					"stateMutability": "nonpayable",
					"type": "function"
				},
				{
					"inputs": [
						{
							"internalType": "address",
							"name": "owner",
							"type": "address"
						},
						{
							"internalType": "address",
							"name": "buyer",
							"type": "address"
						},
						{
							"internalType": "uint256",
							"name": "numTokens",
							"type": "uint256"
						}
					],
					"name": "transferFrom",
					"outputs": [
						{
							"internalType": "bool",
							"name": "",
							"type": "bool"
						}
					],
					"stateMutability": "nonpayable",
					"type": "function"
				},
				{
					"inputs": [
						{
							"internalType": "address",
							"name": "newOwner",
							"type": "address"
						}
					],
					"name": "transferOwnership",
					"outputs": [],
					"stateMutability": "nonpayable",
					"type": "function"
				}
			],
			"devdoc": {
				"kind": "dev",
				"methods": {
					"owner()": {
						"details": "Returns the address of the current owner."
					},
					"renounceOwnership()": {
						"details": "Leaves the contract without owner. It will not be possible to call `onlyOwner` functions anymore. Can only be called by the current owner. NOTE: Renouncing ownership will leave the contract without an owner, thereby removing any functionality that is only available to the owner."
					},
					"transferOwnership(address)": {
						"details": "Transfers ownership of the contract to a new account (`newOwner`). Can only be called by the current owner."
					}
				},
				"version": 1
			},
			"evm": {
				"assembly": "    /* \"contracts/auctionride.sol\":199:3590  contract AuctionRide is Ownable, Vehicle, BerriesERC20(50000) {\r... */\n  mstore(0x40, 0x80)\n    /* \"contracts/auctionride.sol\":288:289  0 */\n  0x00\n    /* \"contracts/auctionride.sol\":270:289  uint256 rideCount=0 */\n  0x05\n  sstore\n    /* \"contracts/auctionride.sol\":199:3590  contract AuctionRide is Ownable, Vehicle, BerriesERC20(50000) {\r... */\n  callvalue\n  dup1\n  iszero\n  tag_1\n  jumpi\n  0x00\n  dup1\n  revert\ntag_1:\n  pop\n    /* \"contracts/auctionride.sol\":254:259  50000 */\n  0xc350\n    /* \"@openzeppelin/contracts/access/Ownable.sol\":936:968  _transferOwnership(_msgSender()) */\n  tag_5\n    /* \"@openzeppelin/contracts/access/Ownable.sol\":955:967  _msgSender() */\n  tag_6\n    /* \"@openzeppelin/contracts/access/Ownable.sol\":955:965  _msgSender */\n  shl(0x20, tag_7)\n    /* \"@openzeppelin/contracts/access/Ownable.sol\":955:967  _msgSender() */\n  0x20\n  shr\n  jump\t// in\ntag_6:\n    /* \"@openzeppelin/contracts/access/Ownable.sol\":936:954  _transferOwnership */\n  shl(0x20, tag_8)\n    /* \"@openzeppelin/contracts/access/Ownable.sol\":936:968  _transferOwnership(_msgSender()) */\n  0x20\n  shr\n  jump\t// in\ntag_5:\n    /* \"contracts/TOKENX.sol\":664:669  total */\n  dup1\n    /* \"contracts/TOKENX.sol\":649:661  totalSupply_ */\n  0x04\n    /* \"contracts/TOKENX.sol\":649:669  totalSupply_ = total */\n  dup2\n  swap1\n  sstore\n  pop\n    /* \"contracts/TOKENX.sol\":702:714  totalSupply_ */\n  sload(0x04)\n    /* \"contracts/TOKENX.sol\":679:687  balances */\n  0x02\n    /* \"contracts/TOKENX.sol\":679:699  balances[msg.sender] */\n  0x00\n    /* \"contracts/TOKENX.sol\":688:698  msg.sender */\n  caller\n    /* \"contracts/TOKENX.sol\":679:699  balances[msg.sender] */\n  0xffffffffffffffffffffffffffffffffffffffff\n  and\n  0xffffffffffffffffffffffffffffffffffffffff\n  and\n  dup2\n  mstore\n  0x20\n  add\n  swap1\n  dup2\n  mstore\n  0x20\n  add\n  0x00\n  keccak256\n    /* \"contracts/TOKENX.sol\":679:714  balances[msg.sender] = totalSupply_ */\n  dup2\n  swap1\n  sstore\n  pop\n    /* \"contracts/TOKENX.sol\":612:721  constructor(uint256 total) {... */\n  pop\n    /* \"contracts/auctionride.sol\":199:3590  contract AuctionRide is Ownable, Vehicle, BerriesERC20(50000) {\r... */\n  jump(tag_10)\n    /* \"@openzeppelin/contracts/utils/Context.sol\":640:736  function _msgSender() internal view virtual returns (address) {... */\ntag_7:\n    /* \"@openzeppelin/contracts/utils/Context.sol\":693:700  address */\n  0x00\n    /* \"@openzeppelin/contracts/utils/Context.sol\":719:729  msg.sender */\n  caller\n    /* \"@openzeppelin/contracts/utils/Context.sol\":712:729  return msg.sender */\n  swap1\n  pop\n    /* \"@openzeppelin/contracts/utils/Context.sol\":640:736  function _msgSender() internal view virtual returns (address) {... */\n  swap1\n  jump\t// out\n    /* \"@openzeppelin/contracts/access/Ownable.sol\":2433:2620  function _transferOwnership(address newOwner) internal virtual {... */\ntag_8:\n    /* \"@openzeppelin/contracts/access/Ownable.sol\":2506:2522  address oldOwner */\n  0x00\n    /* \"@openzeppelin/contracts/access/Ownable.sol\":2525:2531  _owner */\n  dup1\n  0x00\n  swap1\n  sload\n  swap1\n  0x0100\n  exp\n  swap1\n  div\n  0xffffffffffffffffffffffffffffffffffffffff\n  and\n    /* \"@openzeppelin/contracts/access/Ownable.sol\":2506:2531  address oldOwner = _owner */\n  swap1\n  pop\n    /* \"@openzeppelin/contracts/access/Ownable.sol\":2550:2558  newOwner */\n  dup2\n    /* \"@openzeppelin/contracts/access/Ownable.sol\":2541:2547  _owner */\n  0x00\n  dup1\n    /* \"@openzeppelin/contracts/access/Ownable.sol\":2541:2558  _owner = newOwner */\n  0x0100\n  exp\n  dup2\n  sload\n  dup2\n  0xffffffffffffffffffffffffffffffffffffffff\n  mul\n  not\n  and\n  swap1\n  dup4\n  0xffffffffffffffffffffffffffffffffffffffff\n  and\n  mul\n  or\n  swap1\n  sstore\n  pop\n    /* \"@openzeppelin/contracts/access/Ownable.sol\":2604:2612  newOwner */\n  dup2\n    /* \"@openzeppelin/contracts/access/Ownable.sol\":2573:2613  OwnershipTransferred(oldOwner, newOwner) */\n  0xffffffffffffffffffffffffffffffffffffffff\n  and\n    /* \"@openzeppelin/contracts/access/Ownable.sol\":2594:2602  oldOwner */\n  dup2\n    /* \"@openzeppelin/contracts/access/Ownable.sol\":2573:2613  OwnershipTransferred(oldOwner, newOwner) */\n  0xffffffffffffffffffffffffffffffffffffffff\n  and\n  0x8be0079c531659141344cd1fd0a4f28419497f9722a3daafe3b4186f6b6457e0\n  mload(0x40)\n  mload(0x40)\n  dup1\n  swap2\n  sub\n  swap1\n  log3\n    /* \"@openzeppelin/contracts/access/Ownable.sol\":2433:2620  function _transferOwnership(address newOwner) internal virtual {... */\n  pop\n  pop\n  jump\t// out\n    /* \"contracts/auctionride.sol\":199:3590  contract AuctionRide is Ownable, Vehicle, BerriesERC20(50000) {\r... */\ntag_10:\n  dataSize(sub_0)\n  dup1\n  dataOffset(sub_0)\n  0x00\n  codecopy\n  0x00\n  return\nstop\n\nsub_0: assembly {\n        /* \"contracts/auctionride.sol\":199:3590  contract AuctionRide is Ownable, Vehicle, BerriesERC20(50000) {\r... */\n      mstore(0x40, 0x80)\n      callvalue\n      dup1\n      iszero\n      tag_1\n      jumpi\n      0x00\n      dup1\n      revert\n    tag_1:\n      pop\n      jumpi(tag_2, lt(calldatasize, 0x04))\n      shr(0xe0, calldataload(0x00))\n      dup1\n      0x70a08231\n      gt\n      tag_19\n      jumpi\n      dup1\n      0x8da5cb5b\n      gt\n      tag_20\n      jumpi\n      dup1\n      0x8da5cb5b\n      eq\n      tag_15\n      jumpi\n      dup1\n      0x95d89b41\n      eq\n      tag_16\n      jumpi\n      dup1\n      0xa9059cbb\n      eq\n      tag_17\n      jumpi\n      dup1\n      0xf2fde38b\n      eq\n      tag_18\n      jumpi\n      jump(tag_2)\n    tag_20:\n      dup1\n      0x70a08231\n      eq\n      tag_11\n      jumpi\n      dup1\n      0x715018a6\n      eq\n      tag_12\n      jumpi\n      dup1\n      0x7aa9d3bb\n      eq\n      tag_13\n      jumpi\n      dup1\n      0x7c7b0ff4\n      eq\n      tag_14\n      jumpi\n      jump(tag_2)\n    tag_19:\n      dup1\n      0x2b63681c\n      gt\n      tag_21\n      jumpi\n      dup1\n      0x2b63681c\n      eq\n      tag_7\n      jumpi\n      dup1\n      0x313ce567\n      eq\n      tag_8\n      jumpi\n      dup1\n      0x4fee13fc\n      eq\n      tag_9\n      jumpi\n      dup1\n      0x598647f8\n      eq\n      tag_10\n      jumpi\n      jump(tag_2)\n    tag_21:\n      dup1\n      0x06fdde03\n      eq\n      tag_3\n      jumpi\n      dup1\n      0x095ea7b3\n      eq\n      tag_4\n      jumpi\n      dup1\n      0x1a46ec82\n      eq\n      tag_5\n      jumpi\n      dup1\n      0x23b872dd\n      eq\n      tag_6\n      jumpi\n    tag_2:\n      0x00\n      dup1\n      revert\n        /* \"contracts/TOKENX.sol\":320:359  string public constant name = \"Berries\" */\n    tag_3:\n      tag_22\n      tag_23\n      jump\t// in\n    tag_22:\n      mload(0x40)\n      tag_24\n      swap2\n      swap1\n      tag_25\n      jump\t// in\n    tag_24:\n      mload(0x40)\n      dup1\n      swap2\n      sub\n      swap1\n      return\n        /* \"contracts/TOKENX.sol\":1378:1609  function approve(address delegate, uint256 numTokens)... */\n    tag_4:\n      tag_26\n      0x04\n      dup1\n      calldatasize\n      sub\n      dup2\n      add\n      swap1\n      tag_27\n      swap2\n      swap1\n      tag_28\n      jump\t// in\n    tag_27:\n      tag_29\n      jump\t// in\n    tag_26:\n      mload(0x40)\n      tag_30\n      swap2\n      swap1\n      tag_31\n      jump\t// in\n    tag_30:\n      mload(0x40)\n      dup1\n      swap2\n      sub\n      swap1\n      return\n        /* \"contracts/TOKENX.sol\":866:1026  function allowanceOf(address owner, address delegate)... */\n    tag_5:\n      tag_32\n      0x04\n      dup1\n      calldatasize\n      sub\n      dup2\n      add\n      swap1\n      tag_33\n      swap2\n      swap1\n      tag_34\n      jump\t// in\n    tag_33:\n      tag_35\n      jump\t// in\n    tag_32:\n      mload(0x40)\n      tag_36\n      swap2\n      swap1\n      tag_37\n      jump\t// in\n    tag_36:\n      mload(0x40)\n      dup1\n      swap2\n      sub\n      swap1\n      return\n        /* \"contracts/TOKENX.sol\":1615:2044  function transferFrom(... */\n    tag_6:\n      tag_38\n      0x04\n      dup1\n      calldatasize\n      sub\n      dup2\n      add\n      swap1\n      tag_39\n      swap2\n      swap1\n      tag_40\n      jump\t// in\n    tag_39:\n      tag_41\n      jump\t// in\n    tag_38:\n      mload(0x40)\n      tag_42\n      swap2\n      swap1\n      tag_31\n      jump\t// in\n    tag_42:\n      mload(0x40)\n      dup1\n      swap2\n      sub\n      swap1\n      return\n        /* \"contracts/auctionride.sol\":2523:3068  function publishRide(uint256 _secondsUntilAuctionEnds)\r... */\n    tag_7:\n      tag_43\n      0x04\n      dup1\n      calldatasize\n      sub\n      dup2\n      add\n      swap1\n      tag_44\n      swap2\n      swap1\n      tag_45\n      jump\t// in\n    tag_44:\n      tag_46\n      jump\t// in\n    tag_43:\n      stop\n        /* \"contracts/TOKENX.sol\":409:444  uint8 public constant decimals = 18 */\n    tag_8:\n      tag_47\n      tag_48\n      jump\t// in\n    tag_47:\n      mload(0x40)\n      tag_49\n      swap2\n      swap1\n      tag_50\n      jump\t// in\n    tag_49:\n      mload(0x40)\n      dup1\n      swap2\n      sub\n      swap1\n      return\n        /* \"contracts/auctionride.sol\":1125:1592  function startAuction(uint256 rideCount, uint256 _seconds) public {\r... */\n    tag_9:\n      tag_51\n      0x04\n      dup1\n      calldatasize\n      sub\n      dup2\n      add\n      swap1\n      tag_52\n      swap2\n      swap1\n      tag_53\n      jump\t// in\n    tag_52:\n      tag_54\n      jump\t// in\n    tag_51:\n      stop\n        /* \"contracts/auctionride.sol\":1600:2210  function bid(uint256  rideCount, uint256 bidamt) public {\r... */\n    tag_10:\n      tag_55\n      0x04\n      dup1\n      calldatasize\n      sub\n      dup2\n      add\n      swap1\n      tag_56\n      swap2\n      swap1\n      tag_53\n      jump\t// in\n    tag_56:\n      tag_57\n      jump\t// in\n    tag_55:\n      stop\n        /* \"contracts/TOKENX.sol\":747:860  function balanceOf(address tokenOwner) public view returns (uint256) {... */\n    tag_11:\n      tag_58\n      0x04\n      dup1\n      calldatasize\n      sub\n      dup2\n      add\n      swap1\n      tag_59\n      swap2\n      swap1\n      tag_60\n      jump\t// in\n    tag_59:\n      tag_61\n      jump\t// in\n    tag_58:\n      mload(0x40)\n      tag_62\n      swap2\n      swap1\n      tag_37\n      jump\t// in\n    tag_62:\n      mload(0x40)\n      dup1\n      swap2\n      sub\n      swap1\n      return\n        /* \"@openzeppelin/contracts/access/Ownable.sol\":1831:1932  function renounceOwnership() public virtual onlyOwner {... */\n    tag_12:\n      tag_63\n      tag_64\n      jump\t// in\n    tag_63:\n      stop\n        /* \"contracts/auctionride.sol\":3076:3468  function getAllRides(uint256[] memory rideIds)\r... */\n    tag_13:\n      tag_65\n      0x04\n      dup1\n      calldatasize\n      sub\n      dup2\n      add\n      swap1\n      tag_66\n      swap2\n      swap1\n      tag_67\n      jump\t// in\n    tag_66:\n      tag_68\n      jump\t// in\n    tag_65:\n      mload(0x40)\n      tag_69\n      swap2\n      swap1\n      tag_70\n      jump\t// in\n    tag_69:\n      mload(0x40)\n      dup1\n      swap2\n      sub\n      swap1\n      return\n        /* \"contracts/auctionride.sol\":3476:3585  function getRide(uint256 _rideId) public view returns (RIDE memory) {\r... */\n    tag_14:\n      tag_71\n      0x04\n      dup1\n      calldatasize\n      sub\n      dup2\n      add\n      swap1\n      tag_72\n      swap2\n      swap1\n      tag_45\n      jump\t// in\n    tag_72:\n      tag_73\n      jump\t// in\n    tag_71:\n      mload(0x40)\n      tag_74\n      swap2\n      swap1\n      tag_75\n      jump\t// in\n    tag_74:\n      mload(0x40)\n      dup1\n      swap2\n      sub\n      swap1\n      return\n        /* \"@openzeppelin/contracts/access/Ownable.sol\":1201:1286  function owner() public view virtual returns (address) {... */\n    tag_15:\n      tag_76\n      tag_77\n      jump\t// in\n    tag_76:\n      mload(0x40)\n      tag_78\n      swap2\n      swap1\n      tag_79\n      jump\t// in\n    tag_78:\n      mload(0x40)\n      dup1\n      swap2\n      sub\n      swap1\n      return\n        /* \"contracts/TOKENX.sol\":365:403  string public constant symbol = \"BERY\" */\n    tag_16:\n      tag_80\n      tag_81\n      jump\t// in\n    tag_80:\n      mload(0x40)\n      tag_82\n      swap2\n      swap1\n      tag_25\n      jump\t// in\n    tag_82:\n      mload(0x40)\n      dup1\n      swap2\n      sub\n      swap1\n      return\n        /* \"contracts/TOKENX.sol\":1055:1372  function transfer(address receiver, uint256 numTokens)... */\n    tag_17:\n      tag_83\n      0x04\n      dup1\n      calldatasize\n      sub\n      dup2\n      add\n      swap1\n      tag_84\n      swap2\n      swap1\n      tag_28\n      jump\t// in\n    tag_84:\n      tag_85\n      jump\t// in\n    tag_83:\n      mload(0x40)\n      tag_86\n      swap2\n      swap1\n      tag_31\n      jump\t// in\n    tag_86:\n      mload(0x40)\n      dup1\n      swap2\n      sub\n      swap1\n      return\n        /* \"@openzeppelin/contracts/access/Ownable.sol\":2081:2279  function transferOwnership(address newOwner) public virtual onlyOwner {... */\n    tag_18:\n      tag_87\n      0x04\n      dup1\n      calldatasize\n      sub\n      dup2\n      add\n      swap1\n      tag_88\n      swap2\n      swap1\n      tag_60\n      jump\t// in\n    tag_88:\n      tag_89\n      jump\t// in\n    tag_87:\n      stop\n        /* \"contracts/TOKENX.sol\":320:359  string public constant name = \"Berries\" */\n    tag_23:\n      mload(0x40)\n      dup1\n      0x40\n      add\n      0x40\n      mstore\n      dup1\n      0x07\n      dup2\n      mstore\n      0x20\n      add\n      0x4265727269657300000000000000000000000000000000000000000000000000\n      dup2\n      mstore\n      pop\n      dup2\n      jump\t// out\n        /* \"contracts/TOKENX.sol\":1378:1609  function approve(address delegate, uint256 numTokens)... */\n    tag_29:\n        /* \"contracts/TOKENX.sol\":1464:1468  bool */\n      0x00\n        /* \"contracts/TOKENX.sol\":1516:1525  numTokens */\n      dup2\n        /* \"contracts/TOKENX.sol\":1484:1491  allowed */\n      0x03\n        /* \"contracts/TOKENX.sol\":1484:1503  allowed[msg.sender] */\n      0x00\n        /* \"contracts/TOKENX.sol\":1492:1502  msg.sender */\n      caller\n        /* \"contracts/TOKENX.sol\":1484:1503  allowed[msg.sender] */\n      0xffffffffffffffffffffffffffffffffffffffff\n      and\n      0xffffffffffffffffffffffffffffffffffffffff\n      and\n      dup2\n      mstore\n      0x20\n      add\n      swap1\n      dup2\n      mstore\n      0x20\n      add\n      0x00\n      keccak256\n        /* \"contracts/TOKENX.sol\":1484:1513  allowed[msg.sender][delegate] */\n      0x00\n        /* \"contracts/TOKENX.sol\":1504:1512  delegate */\n      dup6\n        /* \"contracts/TOKENX.sol\":1484:1513  allowed[msg.sender][delegate] */\n      0xffffffffffffffffffffffffffffffffffffffff\n      and\n      0xffffffffffffffffffffffffffffffffffffffff\n      and\n      dup2\n      mstore\n      0x20\n      add\n      swap1\n      dup2\n      mstore\n      0x20\n      add\n      0x00\n      keccak256\n        /* \"contracts/TOKENX.sol\":1484:1525  allowed[msg.sender][delegate] = numTokens */\n      dup2\n      swap1\n      sstore\n      pop\n        /* \"contracts/TOKENX.sol\":1561:1569  delegate */\n      dup3\n        /* \"contracts/TOKENX.sol\":1540:1581  Approval(msg.sender, delegate, numTokens) */\n      0xffffffffffffffffffffffffffffffffffffffff\n      and\n        /* \"contracts/TOKENX.sol\":1549:1559  msg.sender */\n      caller\n        /* \"contracts/TOKENX.sol\":1540:1581  Approval(msg.sender, delegate, numTokens) */\n      0xffffffffffffffffffffffffffffffffffffffff\n      and\n      0x8c5be1e5ebec7d5bd14f71427d1e84f3dd0314c0f7b2291e5b200ac8c7c3b925\n        /* \"contracts/TOKENX.sol\":1571:1580  numTokens */\n      dup5\n        /* \"contracts/TOKENX.sol\":1540:1581  Approval(msg.sender, delegate, numTokens) */\n      mload(0x40)\n      tag_91\n      swap2\n      swap1\n      tag_37\n      jump\t// in\n    tag_91:\n      mload(0x40)\n      dup1\n      swap2\n      sub\n      swap1\n      log3\n        /* \"contracts/TOKENX.sol\":1598:1602  true */\n      0x01\n        /* \"contracts/TOKENX.sol\":1591:1602  return true */\n      swap1\n      pop\n        /* \"contracts/TOKENX.sol\":1378:1609  function approve(address delegate, uint256 numTokens)... */\n      swap3\n      swap2\n      pop\n      pop\n      jump\t// out\n        /* \"contracts/TOKENX.sol\":866:1026  function allowanceOf(address owner, address delegate)... */\n    tag_35:\n        /* \"contracts/TOKENX.sol\":965:972  uint256 */\n      0x00\n        /* \"contracts/TOKENX.sol\":995:1002  allowed */\n      0x03\n        /* \"contracts/TOKENX.sol\":995:1009  allowed[owner] */\n      0x00\n        /* \"contracts/TOKENX.sol\":1003:1008  owner */\n      dup5\n        /* \"contracts/TOKENX.sol\":995:1009  allowed[owner] */\n      0xffffffffffffffffffffffffffffffffffffffff\n      and\n      0xffffffffffffffffffffffffffffffffffffffff\n      and\n      dup2\n      mstore\n      0x20\n      add\n      swap1\n      dup2\n      mstore\n      0x20\n      add\n      0x00\n      keccak256\n        /* \"contracts/TOKENX.sol\":995:1019  allowed[owner][delegate] */\n      0x00\n        /* \"contracts/TOKENX.sol\":1010:1018  delegate */\n      dup4\n        /* \"contracts/TOKENX.sol\":995:1019  allowed[owner][delegate] */\n      0xffffffffffffffffffffffffffffffffffffffff\n      and\n      0xffffffffffffffffffffffffffffffffffffffff\n      and\n      dup2\n      mstore\n      0x20\n      add\n      swap1\n      dup2\n      mstore\n      0x20\n      add\n      0x00\n      keccak256\n      sload\n        /* \"contracts/TOKENX.sol\":988:1019  return allowed[owner][delegate] */\n      swap1\n      pop\n        /* \"contracts/TOKENX.sol\":866:1026  function allowanceOf(address owner, address delegate)... */\n      swap3\n      swap2\n      pop\n      pop\n      jump\t// out\n        /* \"contracts/TOKENX.sol\":1615:2044  function transferFrom(... */\n    tag_41:\n        /* \"contracts/TOKENX.sol\":1732:1736  bool */\n      0x00\n        /* \"contracts/TOKENX.sol\":1769:1777  balances */\n      0x02\n        /* \"contracts/TOKENX.sol\":1769:1784  balances[owner] */\n      0x00\n        /* \"contracts/TOKENX.sol\":1778:1783  owner */\n      dup6\n        /* \"contracts/TOKENX.sol\":1769:1784  balances[owner] */\n      0xffffffffffffffffffffffffffffffffffffffff\n      and\n      0xffffffffffffffffffffffffffffffffffffffff\n      and\n      dup2\n      mstore\n      0x20\n      add\n      swap1\n      dup2\n      mstore\n      0x20\n      add\n      0x00\n      keccak256\n      sload\n        /* \"contracts/TOKENX.sol\":1756:1765  numTokens */\n      dup3\n        /* \"contracts/TOKENX.sol\":1756:1784  numTokens <= balances[owner] */\n      gt\n      iszero\n        /* \"contracts/TOKENX.sol\":1748:1785  require(numTokens <= balances[owner]) */\n      tag_94\n      jumpi\n      0x00\n      dup1\n      revert\n    tag_94:\n        /* \"contracts/TOKENX.sol\":1816:1823  allowed */\n      0x03\n        /* \"contracts/TOKENX.sol\":1816:1830  allowed[owner] */\n      0x00\n        /* \"contracts/TOKENX.sol\":1824:1829  owner */\n      dup6\n        /* \"contracts/TOKENX.sol\":1816:1830  allowed[owner] */\n      0xffffffffffffffffffffffffffffffffffffffff\n      and\n      0xffffffffffffffffffffffffffffffffffffffff\n      and\n      dup2\n      mstore\n      0x20\n      add\n      swap1\n      dup2\n      mstore\n      0x20\n      add\n      0x00\n      keccak256\n        /* \"contracts/TOKENX.sol\":1816:1842  allowed[owner][msg.sender] */\n      0x00\n        /* \"contracts/TOKENX.sol\":1831:1841  msg.sender */\n      caller\n        /* \"contracts/TOKENX.sol\":1816:1842  allowed[owner][msg.sender] */\n      0xffffffffffffffffffffffffffffffffffffffff\n      and\n      0xffffffffffffffffffffffffffffffffffffffff\n      and\n      dup2\n      mstore\n      0x20\n      add\n      swap1\n      dup2\n      mstore\n      0x20\n      add\n      0x00\n      keccak256\n      sload\n        /* \"contracts/TOKENX.sol\":1803:1812  numTokens */\n      dup3\n        /* \"contracts/TOKENX.sol\":1803:1842  numTokens <= allowed[owner][msg.sender] */\n      gt\n      iszero\n        /* \"contracts/TOKENX.sol\":1795:1843  require(numTokens <= allowed[owner][msg.sender]) */\n      tag_95\n      jumpi\n      0x00\n      dup1\n      revert\n    tag_95:\n        /* \"contracts/TOKENX.sol\":1872:1881  numTokens */\n      dup2\n        /* \"contracts/TOKENX.sol\":1853:1861  balances */\n      0x02\n        /* \"contracts/TOKENX.sol\":1853:1868  balances[owner] */\n      0x00\n        /* \"contracts/TOKENX.sol\":1862:1867  owner */\n      dup7\n        /* \"contracts/TOKENX.sol\":1853:1868  balances[owner] */\n      0xffffffffffffffffffffffffffffffffffffffff\n      and\n      0xffffffffffffffffffffffffffffffffffffffff\n      and\n      dup2\n      mstore\n      0x20\n      add\n      swap1\n      dup2\n      mstore\n      0x20\n      add\n      0x00\n      keccak256\n      0x00\n        /* \"contracts/TOKENX.sol\":1853:1881  balances[owner] -= numTokens */\n      dup3\n      dup3\n      sload\n      tag_96\n      swap2\n      swap1\n      tag_97\n      jump\t// in\n    tag_96:\n      swap3\n      pop\n      pop\n      dup2\n      swap1\n      sstore\n      pop\n        /* \"contracts/TOKENX.sol\":1921:1930  numTokens */\n      dup2\n        /* \"contracts/TOKENX.sol\":1891:1898  allowed */\n      0x03\n        /* \"contracts/TOKENX.sol\":1891:1905  allowed[owner] */\n      0x00\n        /* \"contracts/TOKENX.sol\":1899:1904  owner */\n      dup7\n        /* \"contracts/TOKENX.sol\":1891:1905  allowed[owner] */\n      0xffffffffffffffffffffffffffffffffffffffff\n      and\n      0xffffffffffffffffffffffffffffffffffffffff\n      and\n      dup2\n      mstore\n      0x20\n      add\n      swap1\n      dup2\n      mstore\n      0x20\n      add\n      0x00\n      keccak256\n        /* \"contracts/TOKENX.sol\":1891:1917  allowed[owner][msg.sender] */\n      0x00\n        /* \"contracts/TOKENX.sol\":1906:1916  msg.sender */\n      caller\n        /* \"contracts/TOKENX.sol\":1891:1917  allowed[owner][msg.sender] */\n      0xffffffffffffffffffffffffffffffffffffffff\n      and\n      0xffffffffffffffffffffffffffffffffffffffff\n      and\n      dup2\n      mstore\n      0x20\n      add\n      swap1\n      dup2\n      mstore\n      0x20\n      add\n      0x00\n      keccak256\n      0x00\n        /* \"contracts/TOKENX.sol\":1891:1930  allowed[owner][msg.sender] -= numTokens */\n      dup3\n      dup3\n      sload\n      tag_98\n      swap2\n      swap1\n      tag_97\n      jump\t// in\n    tag_98:\n      swap3\n      pop\n      pop\n      dup2\n      swap1\n      sstore\n      pop\n        /* \"contracts/TOKENX.sol\":1959:1968  numTokens */\n      dup2\n        /* \"contracts/TOKENX.sol\":1940:1948  balances */\n      0x02\n        /* \"contracts/TOKENX.sol\":1940:1955  balances[buyer] */\n      0x00\n        /* \"contracts/TOKENX.sol\":1949:1954  buyer */\n      dup6\n        /* \"contracts/TOKENX.sol\":1940:1955  balances[buyer] */\n      0xffffffffffffffffffffffffffffffffffffffff\n      and\n      0xffffffffffffffffffffffffffffffffffffffff\n      and\n      dup2\n      mstore\n      0x20\n      add\n      swap1\n      dup2\n      mstore\n      0x20\n      add\n      0x00\n      keccak256\n      0x00\n        /* \"contracts/TOKENX.sol\":1940:1968  balances[buyer] += numTokens */\n      dup3\n      dup3\n      sload\n      tag_99\n      swap2\n      swap1\n      tag_100\n      jump\t// in\n    tag_99:\n      swap3\n      pop\n      pop\n      dup2\n      swap1\n      sstore\n      pop\n        /* \"contracts/TOKENX.sol\":1999:2004  buyer */\n      dup3\n        /* \"contracts/TOKENX.sol\":1983:2016  Transfer(owner, buyer, numTokens) */\n      0xffffffffffffffffffffffffffffffffffffffff\n      and\n        /* \"contracts/TOKENX.sol\":1992:1997  owner */\n      dup5\n        /* \"contracts/TOKENX.sol\":1983:2016  Transfer(owner, buyer, numTokens) */\n      0xffffffffffffffffffffffffffffffffffffffff\n      and\n      0xddf252ad1be2c89b69c2b068fc378daa952ba7f163c4a11628f55a4df523b3ef\n        /* \"contracts/TOKENX.sol\":2006:2015  numTokens */\n      dup5\n        /* \"contracts/TOKENX.sol\":1983:2016  Transfer(owner, buyer, numTokens) */\n      mload(0x40)\n      tag_101\n      swap2\n      swap1\n      tag_37\n      jump\t// in\n    tag_101:\n      mload(0x40)\n      dup1\n      swap2\n      sub\n      swap1\n      log3\n        /* \"contracts/TOKENX.sol\":2033:2037  true */\n      0x01\n        /* \"contracts/TOKENX.sol\":2026:2037  return true */\n      swap1\n      pop\n        /* \"contracts/TOKENX.sol\":1615:2044  function transferFrom(... */\n      swap4\n      swap3\n      pop\n      pop\n      pop\n      jump\t// out\n        /* \"contracts/auctionride.sol\":2523:3068  function publishRide(uint256 _secondsUntilAuctionEnds)\r... */\n    tag_46:\n        /* \"contracts/auctionride.sol\":2610:2619  rideCount */\n      0x05\n      0x00\n        /* \"contracts/auctionride.sol\":2610:2621  rideCount++ */\n      dup2\n      sload\n      dup1\n      swap3\n      swap2\n      swap1\n      tag_103\n      swap1\n      tag_104\n      jump\t// in\n    tag_103:\n      swap2\n      swap1\n      pop\n      sstore\n      pop\n        /* \"contracts/auctionride.sol\":2655:2664  rideCount */\n      sload(0x05)\n        /* \"contracts/auctionride.sol\":2632:2638  _rides */\n      0x06\n        /* \"contracts/auctionride.sol\":2632:2649  _rides[rideCount] */\n      0x00\n        /* \"contracts/auctionride.sol\":2639:2648  rideCount */\n      sload(0x05)\n        /* \"contracts/auctionride.sol\":2632:2649  _rides[rideCount] */\n      dup2\n      mstore\n      0x20\n      add\n      swap1\n      dup2\n      mstore\n      0x20\n      add\n      0x00\n      keccak256\n        /* \"contracts/auctionride.sol\":2632:2652  _rides[rideCount].id */\n      0x00\n      add\n        /* \"contracts/auctionride.sol\":2632:2664  _rides[rideCount].id = rideCount */\n      dup2\n      swap1\n      sstore\n      pop\n        /* \"contracts/auctionride.sol\":2710:2711  0 */\n      0x00\n        /* \"contracts/auctionride.sol\":2675:2681  _rides */\n      0x06\n        /* \"contracts/auctionride.sol\":2675:2692  _rides[rideCount] */\n      0x00\n        /* \"contracts/auctionride.sol\":2682:2691  rideCount */\n      sload(0x05)\n        /* \"contracts/auctionride.sol\":2675:2692  _rides[rideCount] */\n      dup2\n      mstore\n      0x20\n      add\n      swap1\n      dup2\n      mstore\n      0x20\n      add\n      0x00\n      keccak256\n        /* \"contracts/auctionride.sol\":2675:2709  _rides[rideCount].latestHighestBid */\n      0x01\n      add\n        /* \"contracts/auctionride.sol\":2675:2711  _rides[rideCount].latestHighestBid=0 */\n      dup2\n      swap1\n      sstore\n      pop\n        /* \"contracts/auctionride.sol\":2755:2765  msg.sender */\n      caller\n        /* \"contracts/auctionride.sol\":2722:2728  _rides */\n      0x06\n        /* \"contracts/auctionride.sol\":2722:2739  _rides[rideCount] */\n      0x00\n        /* \"contracts/auctionride.sol\":2729:2738  rideCount */\n      sload(0x05)\n        /* \"contracts/auctionride.sol\":2722:2739  _rides[rideCount] */\n      dup2\n      mstore\n      0x20\n      add\n      swap1\n      dup2\n      mstore\n      0x20\n      add\n      0x00\n      keccak256\n        /* \"contracts/auctionride.sol\":2722:2745  _rides[rideCount].users */\n      0x02\n      add\n        /* \"contracts/auctionride.sol\":2722:2752  _rides[rideCount].users.driver */\n      0x01\n      add\n      0x00\n        /* \"contracts/auctionride.sol\":2722:2765  _rides[rideCount].users.driver = msg.sender */\n      0x0100\n      exp\n      dup2\n      sload\n      dup2\n      0xffffffffffffffffffffffffffffffffffffffff\n      mul\n      not\n      and\n      swap1\n      dup4\n      0xffffffffffffffffffffffffffffffffffffffff\n      and\n      mul\n      or\n      swap1\n      sstore\n      pop\n        /* \"contracts/auctionride.sol\":2820:2824  true */\n      0x01\n        /* \"contracts/auctionride.sol\":2776:2782  _rides */\n      0x06\n        /* \"contracts/auctionride.sol\":2776:2793  _rides[rideCount] */\n      0x00\n        /* \"contracts/auctionride.sol\":2783:2792  rideCount */\n      sload(0x05)\n        /* \"contracts/auctionride.sol\":2776:2793  _rides[rideCount] */\n      dup2\n      mstore\n      0x20\n      add\n      swap1\n      dup2\n      mstore\n      0x20\n      add\n      0x00\n      keccak256\n        /* \"contracts/auctionride.sol\":2776:2800  _rides[rideCount].status */\n      0x04\n      add\n        /* \"contracts/auctionride.sol\":2776:2817  _rides[rideCount].status.isAuctionGoingOn */\n      0x00\n      add\n      0x03\n        /* \"contracts/auctionride.sol\":2776:2824  _rides[rideCount].status.isAuctionGoingOn = true */\n      0x0100\n      exp\n      dup2\n      sload\n      dup2\n      0xff\n      mul\n      not\n      and\n      swap1\n      dup4\n      iszero\n      iszero\n      mul\n      or\n      swap1\n      sstore\n      pop\n        /* \"contracts/auctionride.sol\":2966:2981  block.timestamp */\n      timestamp\n        /* \"contracts/auctionride.sol\":2932:2938  _rides */\n      0x06\n        /* \"contracts/auctionride.sol\":2932:2949  _rides[rideCount] */\n      0x00\n        /* \"contracts/auctionride.sol\":2939:2948  rideCount */\n      sload(0x05)\n        /* \"contracts/auctionride.sol\":2932:2949  _rides[rideCount] */\n      dup2\n      mstore\n      0x20\n      add\n      swap1\n      dup2\n      mstore\n      0x20\n      add\n      0x00\n      keccak256\n        /* \"contracts/auctionride.sol\":2932:2963  _rides[rideCount].timeOfPosting */\n      0x0d\n      add\n        /* \"contracts/auctionride.sol\":2932:2981  _rides[rideCount].timeOfPosting = block.timestamp */\n      dup2\n      swap1\n      sstore\n      pop\n        /* \"contracts/auctionride.sol\":3036:3060  _secondsUntilAuctionEnds */\n      dup1\n        /* \"contracts/auctionride.sol\":2992:2998  _rides */\n      0x06\n        /* \"contracts/auctionride.sol\":2992:3009  _rides[rideCount] */\n      0x00\n        /* \"contracts/auctionride.sol\":2999:3008  rideCount */\n      sload(0x05)\n        /* \"contracts/auctionride.sol\":2992:3009  _rides[rideCount] */\n      dup2\n      mstore\n      0x20\n      add\n      swap1\n      dup2\n      mstore\n      0x20\n      add\n      0x00\n      keccak256\n        /* \"contracts/auctionride.sol\":2992:3033  _rides[rideCount].secondsUntilAuctionEnds */\n      0x0e\n      add\n        /* \"contracts/auctionride.sol\":2992:3060  _rides[rideCount].secondsUntilAuctionEnds = _secondsUntilAuctionEnds */\n      dup2\n      swap1\n      sstore\n      pop\n        /* \"contracts/auctionride.sol\":2523:3068  function publishRide(uint256 _secondsUntilAuctionEnds)\r... */\n      pop\n      jump\t// out\n        /* \"contracts/TOKENX.sol\":409:444  uint8 public constant decimals = 18 */\n    tag_48:\n        /* \"contracts/TOKENX.sol\":442:444  18 */\n      0x12\n        /* \"contracts/TOKENX.sol\":409:444  uint8 public constant decimals = 18 */\n      dup2\n      jump\t// out\n        /* \"contracts/auctionride.sol\":1125:1592  function startAuction(uint256 rideCount, uint256 _seconds) public {\r... */\n    tag_54:\n        /* \"contracts/auctionride.sol\":1224:1230  _rides */\n      0x06\n        /* \"contracts/auctionride.sol\":1224:1241  _rides[rideCount] */\n      0x00\n        /* \"contracts/auctionride.sol\":1231:1240  rideCount */\n      dup4\n        /* \"contracts/auctionride.sol\":1224:1241  _rides[rideCount] */\n      dup2\n      mstore\n      0x20\n      add\n      swap1\n      dup2\n      mstore\n      0x20\n      add\n      0x00\n      keccak256\n        /* \"contracts/auctionride.sol\":1224:1247  _rides[rideCount].users */\n      0x02\n      add\n        /* \"contracts/auctionride.sol\":1224:1254  _rides[rideCount].users.driver */\n      0x01\n      add\n      0x00\n      swap1\n      sload\n      swap1\n      0x0100\n      exp\n      swap1\n      div\n      0xffffffffffffffffffffffffffffffffffffffff\n      and\n        /* \"contracts/auctionride.sol\":1210:1254  msg.sender == _rides[rideCount].users.driver */\n      0xffffffffffffffffffffffffffffffffffffffff\n      and\n        /* \"contracts/auctionride.sol\":1210:1220  msg.sender */\n      caller\n        /* \"contracts/auctionride.sol\":1210:1254  msg.sender == _rides[rideCount].users.driver */\n      0xffffffffffffffffffffffffffffffffffffffff\n      and\n      eq\n        /* \"contracts/auctionride.sol\":1202:1294  require(msg.sender == _rides[rideCount].users.driver, \"Only Drivers can start the auction!\") */\n      tag_106\n      jumpi\n      mload(0x40)\n      0x08c379a000000000000000000000000000000000000000000000000000000000\n      dup2\n      mstore\n      0x04\n      add\n      tag_107\n      swap1\n      tag_108\n      jump\t// in\n    tag_107:\n      mload(0x40)\n      dup1\n      swap2\n      sub\n      swap1\n      revert\n    tag_106:\n        /* \"contracts/auctionride.sol\":1358:1362  true */\n      0x01\n        /* \"contracts/auctionride.sol\":1313:1362  _rides[rideCount].status.isAuctionGoingOn != true */\n      iszero\n      iszero\n        /* \"contracts/auctionride.sol\":1313:1319  _rides */\n      0x06\n        /* \"contracts/auctionride.sol\":1313:1330  _rides[rideCount] */\n      0x00\n        /* \"contracts/auctionride.sol\":1320:1329  rideCount */\n      dup5\n        /* \"contracts/auctionride.sol\":1313:1330  _rides[rideCount] */\n      dup2\n      mstore\n      0x20\n      add\n      swap1\n      dup2\n      mstore\n      0x20\n      add\n      0x00\n      keccak256\n        /* \"contracts/auctionride.sol\":1313:1337  _rides[rideCount].status */\n      0x04\n      add\n        /* \"contracts/auctionride.sol\":1313:1354  _rides[rideCount].status.isAuctionGoingOn */\n      0x00\n      add\n      0x03\n      swap1\n      sload\n      swap1\n      0x0100\n      exp\n      swap1\n      div\n      0xff\n      and\n        /* \"contracts/auctionride.sol\":1313:1362  _rides[rideCount].status.isAuctionGoingOn != true */\n      iszero\n      iszero\n      eq\n      iszero\n        /* \"contracts/auctionride.sol\":1305:1402  require(_rides[rideCount].status.isAuctionGoingOn != true, \"Auction has already started before!\") */\n      tag_109\n      jumpi\n      mload(0x40)\n      0x08c379a000000000000000000000000000000000000000000000000000000000\n      dup2\n      mstore\n      0x04\n      add\n      tag_110\n      swap1\n      tag_111\n      jump\t// in\n    tag_110:\n      mload(0x40)\n      dup1\n      swap2\n      sub\n      swap1\n      revert\n    tag_109:\n        /* \"contracts/auctionride.sol\":1457:1461  true */\n      0x01\n        /* \"contracts/auctionride.sol\":1413:1419  _rides */\n      0x06\n        /* \"contracts/auctionride.sol\":1413:1430  _rides[rideCount] */\n      0x00\n        /* \"contracts/auctionride.sol\":1420:1429  rideCount */\n      dup5\n        /* \"contracts/auctionride.sol\":1413:1430  _rides[rideCount] */\n      dup2\n      mstore\n      0x20\n      add\n      swap1\n      dup2\n      mstore\n      0x20\n      add\n      0x00\n      keccak256\n        /* \"contracts/auctionride.sol\":1413:1437  _rides[rideCount].status */\n      0x04\n      add\n        /* \"contracts/auctionride.sol\":1413:1454  _rides[rideCount].status.isAuctionGoingOn */\n      0x00\n      add\n      0x03\n        /* \"contracts/auctionride.sol\":1413:1461  _rides[rideCount].status.isAuctionGoingOn = true */\n      0x0100\n      exp\n      dup2\n      sload\n      dup2\n      0xff\n      mul\n      not\n      and\n      swap1\n      dup4\n      iszero\n      iszero\n      mul\n      or\n      swap1\n      sstore\n      pop\n        /* \"contracts/auctionride.sol\":1506:1521  block.timestamp */\n      timestamp\n        /* \"contracts/auctionride.sol\":1472:1478  _rides */\n      0x06\n        /* \"contracts/auctionride.sol\":1472:1489  _rides[rideCount] */\n      0x00\n        /* \"contracts/auctionride.sol\":1479:1488  rideCount */\n      dup5\n        /* \"contracts/auctionride.sol\":1472:1489  _rides[rideCount] */\n      dup2\n      mstore\n      0x20\n      add\n      swap1\n      dup2\n      mstore\n      0x20\n      add\n      0x00\n      keccak256\n        /* \"contracts/auctionride.sol\":1472:1503  _rides[rideCount].timeOfPosting */\n      0x0d\n      add\n        /* \"contracts/auctionride.sol\":1472:1521  _rides[rideCount].timeOfPosting = block.timestamp */\n      dup2\n      swap1\n      sstore\n      pop\n        /* \"contracts/auctionride.sol\":1576:1584  _seconds */\n      dup1\n        /* \"contracts/auctionride.sol\":1532:1538  _rides */\n      0x06\n        /* \"contracts/auctionride.sol\":1532:1549  _rides[rideCount] */\n      0x00\n        /* \"contracts/auctionride.sol\":1539:1548  rideCount */\n      dup5\n        /* \"contracts/auctionride.sol\":1532:1549  _rides[rideCount] */\n      dup2\n      mstore\n      0x20\n      add\n      swap1\n      dup2\n      mstore\n      0x20\n      add\n      0x00\n      keccak256\n        /* \"contracts/auctionride.sol\":1532:1573  _rides[rideCount].secondsUntilAuctionEnds */\n      0x0e\n      add\n        /* \"contracts/auctionride.sol\":1532:1584  _rides[rideCount].secondsUntilAuctionEnds = _seconds */\n      dup2\n      swap1\n      sstore\n      pop\n        /* \"contracts/auctionride.sol\":1125:1592  function startAuction(uint256 rideCount, uint256 _seconds) public {\r... */\n      pop\n      pop\n      jump\t// out\n        /* \"contracts/auctionride.sol\":1600:2210  function bid(uint256  rideCount, uint256 bidamt) public {\r... */\n    tag_57:\n        /* \"contracts/auctionride.sol\":1667:1691  checkValidity(rideCount) */\n      tag_113\n        /* \"contracts/auctionride.sol\":1681:1690  rideCount */\n      dup3\n        /* \"contracts/auctionride.sol\":1667:1680  checkValidity */\n      tag_114\n        /* \"contracts/auctionride.sol\":1667:1691  checkValidity(rideCount) */\n      jump\t// in\n    tag_113:\n        /* \"contracts/auctionride.sol\":1755:1759  true */\n      0x01\n        /* \"contracts/auctionride.sol\":1710:1759  _rides[rideCount].status.isAuctionGoingOn == true */\n      iszero\n      iszero\n        /* \"contracts/auctionride.sol\":1710:1716  _rides */\n      0x06\n        /* \"contracts/auctionride.sol\":1710:1727  _rides[rideCount] */\n      0x00\n        /* \"contracts/auctionride.sol\":1717:1726  rideCount */\n      dup5\n        /* \"contracts/auctionride.sol\":1710:1727  _rides[rideCount] */\n      dup2\n      mstore\n      0x20\n      add\n      swap1\n      dup2\n      mstore\n      0x20\n      add\n      0x00\n      keccak256\n        /* \"contracts/auctionride.sol\":1710:1734  _rides[rideCount].status */\n      0x04\n      add\n        /* \"contracts/auctionride.sol\":1710:1751  _rides[rideCount].status.isAuctionGoingOn */\n      0x00\n      add\n      0x03\n      swap1\n      sload\n      swap1\n      0x0100\n      exp\n      swap1\n      div\n      0xff\n      and\n        /* \"contracts/auctionride.sol\":1710:1759  _rides[rideCount].status.isAuctionGoingOn == true */\n      iszero\n      iszero\n      eq\n        /* \"contracts/auctionride.sol\":1702:1793  require(_rides[rideCount].status.isAuctionGoingOn == true, \"Auction has already finished!\") */\n      tag_115\n      jumpi\n      mload(0x40)\n      0x08c379a000000000000000000000000000000000000000000000000000000000\n      dup2\n      mstore\n      0x04\n      add\n      tag_116\n      swap1\n      tag_117\n      jump\t// in\n    tag_116:\n      mload(0x40)\n      dup1\n      swap2\n      sub\n      swap1\n      revert\n    tag_115:\n        /* \"contracts/auctionride.sol\":1826:1832  _rides */\n      0x06\n        /* \"contracts/auctionride.sol\":1826:1843  _rides[rideCount] */\n      0x00\n        /* \"contracts/auctionride.sol\":1833:1842  rideCount */\n      dup4\n        /* \"contracts/auctionride.sol\":1826:1843  _rides[rideCount] */\n      dup2\n      mstore\n      0x20\n      add\n      swap1\n      dup2\n      mstore\n      0x20\n      add\n      0x00\n      keccak256\n        /* \"contracts/auctionride.sol\":1826:1849  _rides[rideCount].users */\n      0x02\n      add\n        /* \"contracts/auctionride.sol\":1826:1856  _rides[rideCount].users.driver */\n      0x01\n      add\n      0x00\n      swap1\n      sload\n      swap1\n      0x0100\n      exp\n      swap1\n      div\n      0xffffffffffffffffffffffffffffffffffffffff\n      and\n        /* \"contracts/auctionride.sol\":1812:1856  msg.sender != _rides[rideCount].users.driver */\n      0xffffffffffffffffffffffffffffffffffffffff\n      and\n        /* \"contracts/auctionride.sol\":1812:1822  msg.sender */\n      caller\n        /* \"contracts/auctionride.sol\":1812:1856  msg.sender != _rides[rideCount].users.driver */\n      0xffffffffffffffffffffffffffffffffffffffff\n      and\n      eq\n      iszero\n        /* \"contracts/auctionride.sol\":1804:1901  require(msg.sender != _rides[rideCount].users.driver, \"Drivers cannot bid in their own auction!\") */\n      tag_118\n      jumpi\n      mload(0x40)\n      0x08c379a000000000000000000000000000000000000000000000000000000000\n      dup2\n      mstore\n      0x04\n      add\n      tag_119\n      swap1\n      tag_120\n      jump\t// in\n    tag_119:\n      mload(0x40)\n      dup1\n      swap2\n      sub\n      swap1\n      revert\n    tag_118:\n        /* \"contracts/auctionride.sol\":1929:1950  balanceOf(msg.sender) */\n      tag_121\n        /* \"contracts/auctionride.sol\":1939:1949  msg.sender */\n      caller\n        /* \"contracts/auctionride.sol\":1929:1938  balanceOf */\n      tag_61\n        /* \"contracts/auctionride.sol\":1929:1950  balanceOf(msg.sender) */\n      jump\t// in\n    tag_121:\n        /* \"contracts/auctionride.sol\":1920:1926  bidamt */\n      dup2\n        /* \"contracts/auctionride.sol\":1920:1950  bidamt < balanceOf(msg.sender) */\n      lt\n        /* \"contracts/auctionride.sol\":1912:1981  require(bidamt < balanceOf(msg.sender), \"Not enough balance to bid!\") */\n      tag_122\n      jumpi\n      mload(0x40)\n      0x08c379a000000000000000000000000000000000000000000000000000000000\n      dup2\n      mstore\n      0x04\n      add\n      tag_123\n      swap1\n      tag_124\n      jump\t// in\n    tag_123:\n      mload(0x40)\n      dup1\n      swap2\n      sub\n      swap1\n      revert\n    tag_122:\n        /* \"contracts/auctionride.sol\":2009:2015  _rides */\n      0x06\n        /* \"contracts/auctionride.sol\":2009:2026  _rides[rideCount] */\n      0x00\n        /* \"contracts/auctionride.sol\":2016:2025  rideCount */\n      dup4\n        /* \"contracts/auctionride.sol\":2009:2026  _rides[rideCount] */\n      dup2\n      mstore\n      0x20\n      add\n      swap1\n      dup2\n      mstore\n      0x20\n      add\n      0x00\n      keccak256\n        /* \"contracts/auctionride.sol\":2009:2043  _rides[rideCount].latestHighestBid */\n      0x01\n      add\n      sload\n        /* \"contracts/auctionride.sol\":2000:2006  bidamt */\n      dup2\n        /* \"contracts/auctionride.sol\":2000:2043  bidamt > _rides[rideCount].latestHighestBid */\n      gt\n        /* \"contracts/auctionride.sol\":1992:2092  require(bidamt > _rides[rideCount].latestHighestBid, \"Bid higher than the previous highest bidder!\") */\n      tag_125\n      jumpi\n      mload(0x40)\n      0x08c379a000000000000000000000000000000000000000000000000000000000\n      dup2\n      mstore\n      0x04\n      add\n      tag_126\n      swap1\n      tag_127\n      jump\t// in\n    tag_126:\n      mload(0x40)\n      dup1\n      swap2\n      sub\n      swap1\n      revert\n    tag_125:\n        /* \"contracts/auctionride.sol\":2140:2146  bidamt */\n      dup1\n        /* \"contracts/auctionride.sol\":2103:2109  _rides */\n      0x06\n        /* \"contracts/auctionride.sol\":2103:2120  _rides[rideCount] */\n      0x00\n        /* \"contracts/auctionride.sol\":2110:2119  rideCount */\n      dup5\n        /* \"contracts/auctionride.sol\":2103:2120  _rides[rideCount] */\n      dup2\n      mstore\n      0x20\n      add\n      swap1\n      dup2\n      mstore\n      0x20\n      add\n      0x00\n      keccak256\n        /* \"contracts/auctionride.sol\":2103:2137  _rides[rideCount].latestHighestBid */\n      0x01\n      add\n        /* \"contracts/auctionride.sol\":2103:2146  _rides[rideCount].latestHighestBid = bidamt */\n      dup2\n      swap1\n      sstore\n      pop\n        /* \"contracts/auctionride.sol\":2192:2202  msg.sender */\n      caller\n        /* \"contracts/auctionride.sol\":2157:2163  _rides */\n      0x06\n        /* \"contracts/auctionride.sol\":2157:2174  _rides[rideCount] */\n      0x00\n        /* \"contracts/auctionride.sol\":2164:2173  rideCount */\n      dup5\n        /* \"contracts/auctionride.sol\":2157:2174  _rides[rideCount] */\n      dup2\n      mstore\n      0x20\n      add\n      swap1\n      dup2\n      mstore\n      0x20\n      add\n      0x00\n      keccak256\n        /* \"contracts/auctionride.sol\":2157:2180  _rides[rideCount].users */\n      0x02\n      add\n        /* \"contracts/auctionride.sol\":2157:2189  _rides[rideCount].users.customer */\n      0x00\n      add\n      0x00\n        /* \"contracts/auctionride.sol\":2157:2202  _rides[rideCount].users.customer = msg.sender */\n      0x0100\n      exp\n      dup2\n      sload\n      dup2\n      0xffffffffffffffffffffffffffffffffffffffff\n      mul\n      not\n      and\n      swap1\n      dup4\n      0xffffffffffffffffffffffffffffffffffffffff\n      and\n      mul\n      or\n      swap1\n      sstore\n      pop\n        /* \"contracts/auctionride.sol\":1600:2210  function bid(uint256  rideCount, uint256 bidamt) public {\r... */\n      pop\n      pop\n      jump\t// out\n        /* \"contracts/TOKENX.sol\":747:860  function balanceOf(address tokenOwner) public view returns (uint256) {... */\n    tag_61:\n        /* \"contracts/TOKENX.sol\":807:814  uint256 */\n      0x00\n        /* \"contracts/TOKENX.sol\":833:841  balances */\n      0x02\n        /* \"contracts/TOKENX.sol\":833:853  balances[tokenOwner] */\n      0x00\n        /* \"contracts/TOKENX.sol\":842:852  tokenOwner */\n      dup4\n        /* \"contracts/TOKENX.sol\":833:853  balances[tokenOwner] */\n      0xffffffffffffffffffffffffffffffffffffffff\n      and\n      0xffffffffffffffffffffffffffffffffffffffff\n      and\n      dup2\n      mstore\n      0x20\n      add\n      swap1\n      dup2\n      mstore\n      0x20\n      add\n      0x00\n      keccak256\n      sload\n        /* \"contracts/TOKENX.sol\":826:853  return balances[tokenOwner] */\n      swap1\n      pop\n        /* \"contracts/TOKENX.sol\":747:860  function balanceOf(address tokenOwner) public view returns (uint256) {... */\n      swap2\n      swap1\n      pop\n      jump\t// out\n        /* \"@openzeppelin/contracts/access/Ownable.sol\":1831:1932  function renounceOwnership() public virtual onlyOwner {... */\n    tag_64:\n        /* \"@openzeppelin/contracts/access/Ownable.sol\":1094:1107  _checkOwner() */\n      tag_130\n        /* \"@openzeppelin/contracts/access/Ownable.sol\":1094:1105  _checkOwner */\n      tag_131\n        /* \"@openzeppelin/contracts/access/Ownable.sol\":1094:1107  _checkOwner() */\n      jump\t// in\n    tag_130:\n        /* \"@openzeppelin/contracts/access/Ownable.sol\":1895:1925  _transferOwnership(address(0)) */\n      tag_133\n        /* \"@openzeppelin/contracts/access/Ownable.sol\":1922:1923  0 */\n      0x00\n        /* \"@openzeppelin/contracts/access/Ownable.sol\":1895:1913  _transferOwnership */\n      tag_134\n        /* \"@openzeppelin/contracts/access/Ownable.sol\":1895:1925  _transferOwnership(address(0)) */\n      jump\t// in\n    tag_133:\n        /* \"@openzeppelin/contracts/access/Ownable.sol\":1831:1932  function renounceOwnership() public virtual onlyOwner {... */\n      jump\t// out\n        /* \"contracts/auctionride.sol\":3076:3468  function getAllRides(uint256[] memory rideIds)\r... */\n    tag_68:\n        /* \"contracts/auctionride.sol\":3171:3184  RIDE[] memory */\n      0x60\n        /* \"contracts/auctionride.sol\":3202:3224  RIDE[] memory allRides */\n      dup1\n        /* \"contracts/auctionride.sol\":3235:3248  uint256 count */\n      0x00\n        /* \"contracts/auctionride.sol\":3270:3279  uint256 i */\n      dup1\n        /* \"contracts/auctionride.sol\":3265:3433  for (uint256 i = 0; i < rideIds.length; i++) {\r... */\n    tag_136:\n        /* \"contracts/auctionride.sol\":3289:3296  rideIds */\n      dup5\n        /* \"contracts/auctionride.sol\":3289:3303  rideIds.length */\n      mload\n        /* \"contracts/auctionride.sol\":3285:3286  i */\n      dup2\n        /* \"contracts/auctionride.sol\":3285:3303  i < rideIds.length */\n      lt\n        /* \"contracts/auctionride.sol\":3265:3433  for (uint256 i = 0; i < rideIds.length; i++) {\r... */\n      iszero\n      tag_137\n      jumpi\n        /* \"contracts/auctionride.sol\":3325:3339  uint256 rideId */\n      0x00\n        /* \"contracts/auctionride.sol\":3342:3349  rideIds */\n      dup6\n        /* \"contracts/auctionride.sol\":3350:3351  i */\n      dup3\n        /* \"contracts/auctionride.sol\":3342:3352  rideIds[i] */\n      dup2\n      mload\n      dup2\n      lt\n      tag_139\n      jumpi\n      mstore(0x00, 0x4e487b7100000000000000000000000000000000000000000000000000000000)\n      mstore(0x04, 0x32)\n      revert(0x00, 0x24)\n    tag_139:\n      0x20\n      mul\n      0x20\n      add\n      add\n      mload\n        /* \"contracts/auctionride.sol\":3325:3352  uint256 rideId = rideIds[i] */\n      swap1\n      pop\n        /* \"contracts/auctionride.sol\":3385:3391  _rides */\n      0x06\n        /* \"contracts/auctionride.sol\":3385:3399  _rides[rideId] */\n      0x00\n        /* \"contracts/auctionride.sol\":3392:3398  rideId */\n      dup3\n        /* \"contracts/auctionride.sol\":3385:3399  _rides[rideId] */\n      dup2\n      mstore\n      0x20\n      add\n      swap1\n      dup2\n      mstore\n      0x20\n      add\n      0x00\n      keccak256\n        /* \"contracts/auctionride.sol\":3367:3399  allRides[count] = _rides[rideId] */\n      mload(0x40)\n      dup1\n      0x0100\n      add\n      0x40\n      mstore\n      swap1\n      dup2\n      0x00\n      dup3\n      add\n      sload\n      dup2\n      mstore\n      0x20\n      add\n      0x01\n      dup3\n      add\n      sload\n      dup2\n      mstore\n      0x20\n      add\n      0x02\n      dup3\n      add\n      mload(0x40)\n      dup1\n      0x40\n      add\n      0x40\n      mstore\n      swap1\n      dup2\n      0x00\n      dup3\n      add\n      0x00\n      swap1\n      sload\n      swap1\n      0x0100\n      exp\n      swap1\n      div\n      0xffffffffffffffffffffffffffffffffffffffff\n      and\n      0xffffffffffffffffffffffffffffffffffffffff\n      and\n      0xffffffffffffffffffffffffffffffffffffffff\n      and\n      dup2\n      mstore\n      0x20\n      add\n      0x01\n      dup3\n      add\n      0x00\n      swap1\n      sload\n      swap1\n      0x0100\n      exp\n      swap1\n      div\n      0xffffffffffffffffffffffffffffffffffffffff\n      and\n      0xffffffffffffffffffffffffffffffffffffffff\n      and\n      0xffffffffffffffffffffffffffffffffffffffff\n      and\n      dup2\n      mstore\n      pop\n      pop\n      dup2\n      mstore\n      0x20\n      add\n      0x04\n      dup3\n      add\n      mload(0x40)\n      dup1\n      0xa0\n      add\n      0x40\n      mstore\n      swap1\n      dup2\n      0x00\n      dup3\n      add\n      0x00\n      swap1\n      sload\n      swap1\n      0x0100\n      exp\n      swap1\n      div\n      0xff\n      and\n      iszero\n      iszero\n      iszero\n      iszero\n      dup2\n      mstore\n      0x20\n      add\n      0x00\n      dup3\n      add\n      0x01\n      swap1\n      sload\n      swap1\n      0x0100\n      exp\n      swap1\n      div\n      0xff\n      and\n      iszero\n      iszero\n      iszero\n      iszero\n      dup2\n      mstore\n      0x20\n      add\n      0x00\n      dup3\n      add\n      0x02\n      swap1\n      sload\n      swap1\n      0x0100\n      exp\n      swap1\n      div\n      0xff\n      and\n      iszero\n      iszero\n      iszero\n      iszero\n      dup2\n      mstore\n      0x20\n      add\n      0x00\n      dup3\n      add\n      0x03\n      swap1\n      sload\n      swap1\n      0x0100\n      exp\n      swap1\n      div\n      0xff\n      and\n      iszero\n      iszero\n      iszero\n      iszero\n      dup2\n      mstore\n      0x20\n      add\n      0x00\n      dup3\n      add\n      0x04\n      swap1\n      sload\n      swap1\n      0x0100\n      exp\n      swap1\n      div\n      0xff\n      and\n      0x02\n      dup2\n      gt\n      iszero\n      tag_140\n      jumpi\n      mstore(0x00, 0x4e487b7100000000000000000000000000000000000000000000000000000000)\n      mstore(0x04, 0x21)\n      revert(0x00, 0x24)\n    tag_140:\n      0x02\n      dup2\n      gt\n      iszero\n      tag_141\n      jumpi\n      mstore(0x00, 0x4e487b7100000000000000000000000000000000000000000000000000000000)\n      mstore(0x04, 0x21)\n      revert(0x00, 0x24)\n    tag_141:\n      dup2\n      mstore\n      pop\n      pop\n      dup2\n      mstore\n      0x20\n      add\n      0x05\n      dup3\n      add\n      mload(0x40)\n      dup1\n      0x80\n      add\n      0x40\n      mstore\n      swap1\n      dup2\n      0x00\n      dup3\n      add\n      dup1\n      sload\n      tag_142\n      swap1\n      tag_143\n      jump\t// in\n    tag_142:\n      dup1\n      0x1f\n      add\n      0x20\n      dup1\n      swap2\n      div\n      mul\n      0x20\n      add\n      mload(0x40)\n      swap1\n      dup2\n      add\n      0x40\n      mstore\n      dup1\n      swap3\n      swap2\n      swap1\n      dup2\n      dup2\n      mstore\n      0x20\n      add\n      dup3\n      dup1\n      sload\n      tag_144\n      swap1\n      tag_143\n      jump\t// in\n    tag_144:\n      dup1\n      iszero\n      tag_145\n      jumpi\n      dup1\n      0x1f\n      lt\n      tag_146\n      jumpi\n      0x0100\n      dup1\n      dup4\n      sload\n      div\n      mul\n      dup4\n      mstore\n      swap2\n      0x20\n      add\n      swap2\n      jump(tag_145)\n    tag_146:\n      dup3\n      add\n      swap2\n      swap1\n      0x00\n      mstore\n      keccak256(0x00, 0x20)\n      swap1\n    tag_147:\n      dup2\n      sload\n      dup2\n      mstore\n      swap1\n      0x01\n      add\n      swap1\n      0x20\n      add\n      dup1\n      dup4\n      gt\n      tag_147\n      jumpi\n      dup3\n      swap1\n      sub\n      0x1f\n      and\n      dup3\n      add\n      swap2\n    tag_145:\n      pop\n      pop\n      pop\n      pop\n      pop\n      dup2\n      mstore\n      0x20\n      add\n      0x01\n      dup3\n      add\n      dup1\n      sload\n      tag_148\n      swap1\n      tag_143\n      jump\t// in\n    tag_148:\n      dup1\n      0x1f\n      add\n      0x20\n      dup1\n      swap2\n      div\n      mul\n      0x20\n      add\n      mload(0x40)\n      swap1\n      dup2\n      add\n      0x40\n      mstore\n      dup1\n      swap3\n      swap2\n      swap1\n      dup2\n      dup2\n      mstore\n      0x20\n      add\n      dup3\n      dup1\n      sload\n      tag_149\n      swap1\n      tag_143\n      jump\t// in\n    tag_149:\n      dup1\n      iszero\n      tag_150\n      jumpi\n      dup1\n      0x1f\n      lt\n      tag_151\n      jumpi\n      0x0100\n      dup1\n      dup4\n      sload\n      div\n      mul\n      dup4\n      mstore\n      swap2\n      0x20\n      add\n      swap2\n      jump(tag_150)\n    tag_151:\n      dup3\n      add\n      swap2\n      swap1\n      0x00\n      mstore\n      keccak256(0x00, 0x20)\n      swap1\n    tag_152:\n      dup2\n      sload\n      dup2\n      mstore\n      swap1\n      0x01\n      add\n      swap1\n      0x20\n      add\n      dup1\n      dup4\n      gt\n      tag_152\n      jumpi\n      dup3\n      swap1\n      sub\n      0x1f\n      and\n      dup3\n      add\n      swap2\n    tag_150:\n      pop\n      pop\n      pop\n      pop\n      pop\n      dup2\n      mstore\n      0x20\n      add\n      0x02\n      dup3\n      add\n      sload\n      dup2\n      mstore\n      0x20\n      add\n      0x03\n      dup3\n      add\n      sload\n      dup2\n      mstore\n      pop\n      pop\n      dup2\n      mstore\n      0x20\n      add\n      0x09\n      dup3\n      add\n      mload(0x40)\n      dup1\n      0xa0\n      add\n      0x40\n      mstore\n      swap1\n      dup2\n      0x00\n      dup3\n      add\n      dup1\n      sload\n      tag_153\n      swap1\n      tag_143\n      jump\t// in\n    tag_153:\n      dup1\n      0x1f\n      add\n      0x20\n      dup1\n      swap2\n      div\n      mul\n      0x20\n      add\n      mload(0x40)\n      swap1\n      dup2\n      add\n      0x40\n      mstore\n      dup1\n      swap3\n      swap2\n      swap1\n      dup2\n      dup2\n      mstore\n      0x20\n      add\n      dup3\n      dup1\n      sload\n      tag_154\n      swap1\n      tag_143\n      jump\t// in\n    tag_154:\n      dup1\n      iszero\n      tag_155\n      jumpi\n      dup1\n      0x1f\n      lt\n      tag_156\n      jumpi\n      0x0100\n      dup1\n      dup4\n      sload\n      div\n      mul\n      dup4\n      mstore\n      swap2\n      0x20\n      add\n      swap2\n      jump(tag_155)\n    tag_156:\n      dup3\n      add\n      swap2\n      swap1\n      0x00\n      mstore\n      keccak256(0x00, 0x20)\n      swap1\n    tag_157:\n      dup2\n      sload\n      dup2\n      mstore\n      swap1\n      0x01\n      add\n      swap1\n      0x20\n      add\n      dup1\n      dup4\n      gt\n      tag_157\n      jumpi\n      dup3\n      swap1\n      sub\n      0x1f\n      and\n      dup3\n      add\n      swap2\n    tag_155:\n      pop\n      pop\n      pop\n      pop\n      pop\n      dup2\n      mstore\n      0x20\n      add\n      0x01\n      dup3\n      add\n      dup1\n      sload\n      tag_158\n      swap1\n      tag_143\n      jump\t// in\n    tag_158:\n      dup1\n      0x1f\n      add\n      0x20\n      dup1\n      swap2\n      div\n      mul\n      0x20\n      add\n      mload(0x40)\n      swap1\n      dup2\n      add\n      0x40\n      mstore\n      dup1\n      swap3\n      swap2\n      swap1\n      dup2\n      dup2\n      mstore\n      0x20\n      add\n      dup3\n      dup1\n      sload\n      tag_159\n      swap1\n      tag_143\n      jump\t// in\n    tag_159:\n      dup1\n      iszero\n      tag_160\n      jumpi\n      dup1\n      0x1f\n      lt\n      tag_161\n      jumpi\n      0x0100\n      dup1\n      dup4\n      sload\n      div\n      mul\n      dup4\n      mstore\n      swap2\n      0x20\n      add\n      swap2\n      jump(tag_160)\n    tag_161:\n      dup3\n      add\n      swap2\n      swap1\n      0x00\n      mstore\n      keccak256(0x00, 0x20)\n      swap1\n    tag_162:\n      dup2\n      sload\n      dup2\n      mstore\n      swap1\n      0x01\n      add\n      swap1\n      0x20\n      add\n      dup1\n      dup4\n      gt\n      tag_162\n      jumpi\n      dup3\n      swap1\n      sub\n      0x1f\n      and\n      dup3\n      add\n      swap2\n    tag_160:\n      pop\n      pop\n      pop\n      pop\n      pop\n      dup2\n      mstore\n      0x20\n      add\n      0x02\n      dup3\n      add\n      dup1\n      sload\n      tag_163\n      swap1\n      tag_143\n      jump\t// in\n    tag_163:\n      dup1\n      0x1f\n      add\n      0x20\n      dup1\n      swap2\n      div\n      mul\n      0x20\n      add\n      mload(0x40)\n      swap1\n      dup2\n      add\n      0x40\n      mstore\n      dup1\n      swap3\n      swap2\n      swap1\n      dup2\n      dup2\n      mstore\n      0x20\n      add\n      dup3\n      dup1\n      sload\n      tag_164\n      swap1\n      tag_143\n      jump\t// in\n    tag_164:\n      dup1\n      iszero\n      tag_165\n      jumpi\n      dup1\n      0x1f\n      lt\n      tag_166\n      jumpi\n      0x0100\n      dup1\n      dup4\n      sload\n      div\n      mul\n      dup4\n      mstore\n      swap2\n      0x20\n      add\n      swap2\n      jump(tag_165)\n    tag_166:\n      dup3\n      add\n      swap2\n      swap1\n      0x00\n      mstore\n      keccak256(0x00, 0x20)\n      swap1\n    tag_167:\n      dup2\n      sload\n      dup2\n      mstore\n      swap1\n      0x01\n      add\n      swap1\n      0x20\n      add\n      dup1\n      dup4\n      gt\n      tag_167\n      jumpi\n      dup3\n      swap1\n      sub\n      0x1f\n      and\n      dup3\n      add\n      swap2\n    tag_165:\n      pop\n      pop\n      pop\n      pop\n      pop\n      dup2\n      mstore\n      0x20\n      add\n      0x03\n      dup3\n      add\n      0x00\n      swap1\n      sload\n      swap1\n      0x0100\n      exp\n      swap1\n      div\n      0xff\n      and\n      0x03\n      dup2\n      gt\n      iszero\n      tag_168\n      jumpi\n      mstore(0x00, 0x4e487b7100000000000000000000000000000000000000000000000000000000)\n      mstore(0x04, 0x21)\n      revert(0x00, 0x24)\n    tag_168:\n      0x03\n      dup2\n      gt\n      iszero\n      tag_169\n      jumpi\n      mstore(0x00, 0x4e487b7100000000000000000000000000000000000000000000000000000000)\n      mstore(0x04, 0x21)\n      revert(0x00, 0x24)\n    tag_169:\n      dup2\n      mstore\n      0x20\n      add\n      0x03\n      dup3\n      add\n      0x01\n      swap1\n      sload\n      swap1\n      0x0100\n      exp\n      swap1\n      div\n      0xffffffffffffffffffffffffffffffffffffffff\n      and\n      0xffffffffffffffffffffffffffffffffffffffff\n      and\n      0xffffffffffffffffffffffffffffffffffffffff\n      and\n      dup2\n      mstore\n      pop\n      pop\n      dup2\n      mstore\n      0x20\n      add\n      0x0d\n      dup3\n      add\n      sload\n      dup2\n      mstore\n      0x20\n      add\n      0x0e\n      dup3\n      add\n      sload\n      dup2\n      mstore\n      pop\n      pop\n        /* \"contracts/auctionride.sol\":3367:3375  allRides */\n      dup5\n        /* \"contracts/auctionride.sol\":3376:3381  count */\n      dup5\n        /* \"contracts/auctionride.sol\":3367:3382  allRides[count] */\n      dup2\n      mload\n      dup2\n      lt\n      tag_170\n      jumpi\n      mstore(0x00, 0x4e487b7100000000000000000000000000000000000000000000000000000000)\n      mstore(0x04, 0x32)\n      revert(0x00, 0x24)\n    tag_170:\n      0x20\n      mul\n      0x20\n      add\n      add\n        /* \"contracts/auctionride.sol\":3367:3399  allRides[count] = _rides[rideId] */\n      dup2\n      swap1\n      mstore\n      pop\n        /* \"contracts/auctionride.sol\":3414:3421  count++ */\n      dup3\n      dup1\n      tag_171\n      swap1\n      tag_104\n      jump\t// in\n    tag_171:\n      swap4\n      pop\n      pop\n        /* \"contracts/auctionride.sol\":3265:3433  for (uint256 i = 0; i < rideIds.length; i++) {\r... */\n      pop\n        /* \"contracts/auctionride.sol\":3305:3308  i++ */\n      dup1\n      dup1\n      tag_172\n      swap1\n      tag_104\n      jump\t// in\n    tag_172:\n      swap2\n      pop\n      pop\n        /* \"contracts/auctionride.sol\":3265:3433  for (uint256 i = 0; i < rideIds.length; i++) {\r... */\n      jump(tag_136)\n    tag_137:\n      pop\n        /* \"contracts/auctionride.sol\":3452:3460  allRides */\n      dup2\n        /* \"contracts/auctionride.sol\":3445:3460  return allRides */\n      swap3\n      pop\n      pop\n      pop\n        /* \"contracts/auctionride.sol\":3076:3468  function getAllRides(uint256[] memory rideIds)\r... */\n      swap2\n      swap1\n      pop\n      jump\t// out\n        /* \"contracts/auctionride.sol\":3476:3585  function getRide(uint256 _rideId) public view returns (RIDE memory) {\r... */\n    tag_73:\n        /* \"contracts/auctionride.sol\":3531:3542  RIDE memory */\n      tag_173\n      tag_174\n      jump\t// in\n    tag_173:\n        /* \"contracts/auctionride.sol\":3562:3568  _rides */\n      0x06\n        /* \"contracts/auctionride.sol\":3562:3577  _rides[_rideId] */\n      0x00\n        /* \"contracts/auctionride.sol\":3569:3576  _rideId */\n      dup4\n        /* \"contracts/auctionride.sol\":3562:3577  _rides[_rideId] */\n      dup2\n      mstore\n      0x20\n      add\n      swap1\n      dup2\n      mstore\n      0x20\n      add\n      0x00\n      keccak256\n        /* \"contracts/auctionride.sol\":3555:3577  return _rides[_rideId] */\n      mload(0x40)\n      dup1\n      0x0100\n      add\n      0x40\n      mstore\n      swap1\n      dup2\n      0x00\n      dup3\n      add\n      sload\n      dup2\n      mstore\n      0x20\n      add\n      0x01\n      dup3\n      add\n      sload\n      dup2\n      mstore\n      0x20\n      add\n      0x02\n      dup3\n      add\n      mload(0x40)\n      dup1\n      0x40\n      add\n      0x40\n      mstore\n      swap1\n      dup2\n      0x00\n      dup3\n      add\n      0x00\n      swap1\n      sload\n      swap1\n      0x0100\n      exp\n      swap1\n      div\n      0xffffffffffffffffffffffffffffffffffffffff\n      and\n      0xffffffffffffffffffffffffffffffffffffffff\n      and\n      0xffffffffffffffffffffffffffffffffffffffff\n      and\n      dup2\n      mstore\n      0x20\n      add\n      0x01\n      dup3\n      add\n      0x00\n      swap1\n      sload\n      swap1\n      0x0100\n      exp\n      swap1\n      div\n      0xffffffffffffffffffffffffffffffffffffffff\n      and\n      0xffffffffffffffffffffffffffffffffffffffff\n      and\n      0xffffffffffffffffffffffffffffffffffffffff\n      and\n      dup2\n      mstore\n      pop\n      pop\n      dup2\n      mstore\n      0x20\n      add\n      0x04\n      dup3\n      add\n      mload(0x40)\n      dup1\n      0xa0\n      add\n      0x40\n      mstore\n      swap1\n      dup2\n      0x00\n      dup3\n      add\n      0x00\n      swap1\n      sload\n      swap1\n      0x0100\n      exp\n      swap1\n      div\n      0xff\n      and\n      iszero\n      iszero\n      iszero\n      iszero\n      dup2\n      mstore\n      0x20\n      add\n      0x00\n      dup3\n      add\n      0x01\n      swap1\n      sload\n      swap1\n      0x0100\n      exp\n      swap1\n      div\n      0xff\n      and\n      iszero\n      iszero\n      iszero\n      iszero\n      dup2\n      mstore\n      0x20\n      add\n      0x00\n      dup3\n      add\n      0x02\n      swap1\n      sload\n      swap1\n      0x0100\n      exp\n      swap1\n      div\n      0xff\n      and\n      iszero\n      iszero\n      iszero\n      iszero\n      dup2\n      mstore\n      0x20\n      add\n      0x00\n      dup3\n      add\n      0x03\n      swap1\n      sload\n      swap1\n      0x0100\n      exp\n      swap1\n      div\n      0xff\n      and\n      iszero\n      iszero\n      iszero\n      iszero\n      dup2\n      mstore\n      0x20\n      add\n      0x00\n      dup3\n      add\n      0x04\n      swap1\n      sload\n      swap1\n      0x0100\n      exp\n      swap1\n      div\n      0xff\n      and\n      0x02\n      dup2\n      gt\n      iszero\n      tag_176\n      jumpi\n      mstore(0x00, 0x4e487b7100000000000000000000000000000000000000000000000000000000)\n      mstore(0x04, 0x21)\n      revert(0x00, 0x24)\n    tag_176:\n      0x02\n      dup2\n      gt\n      iszero\n      tag_177\n      jumpi\n      mstore(0x00, 0x4e487b7100000000000000000000000000000000000000000000000000000000)\n      mstore(0x04, 0x21)\n      revert(0x00, 0x24)\n    tag_177:\n      dup2\n      mstore\n      pop\n      pop\n      dup2\n      mstore\n      0x20\n      add\n      0x05\n      dup3\n      add\n      mload(0x40)\n      dup1\n      0x80\n      add\n      0x40\n      mstore\n      swap1\n      dup2\n      0x00\n      dup3\n      add\n      dup1\n      sload\n      tag_178\n      swap1\n      tag_143\n      jump\t// in\n    tag_178:\n      dup1\n      0x1f\n      add\n      0x20\n      dup1\n      swap2\n      div\n      mul\n      0x20\n      add\n      mload(0x40)\n      swap1\n      dup2\n      add\n      0x40\n      mstore\n      dup1\n      swap3\n      swap2\n      swap1\n      dup2\n      dup2\n      mstore\n      0x20\n      add\n      dup3\n      dup1\n      sload\n      tag_179\n      swap1\n      tag_143\n      jump\t// in\n    tag_179:\n      dup1\n      iszero\n      tag_180\n      jumpi\n      dup1\n      0x1f\n      lt\n      tag_181\n      jumpi\n      0x0100\n      dup1\n      dup4\n      sload\n      div\n      mul\n      dup4\n      mstore\n      swap2\n      0x20\n      add\n      swap2\n      jump(tag_180)\n    tag_181:\n      dup3\n      add\n      swap2\n      swap1\n      0x00\n      mstore\n      keccak256(0x00, 0x20)\n      swap1\n    tag_182:\n      dup2\n      sload\n      dup2\n      mstore\n      swap1\n      0x01\n      add\n      swap1\n      0x20\n      add\n      dup1\n      dup4\n      gt\n      tag_182\n      jumpi\n      dup3\n      swap1\n      sub\n      0x1f\n      and\n      dup3\n      add\n      swap2\n    tag_180:\n      pop\n      pop\n      pop\n      pop\n      pop\n      dup2\n      mstore\n      0x20\n      add\n      0x01\n      dup3\n      add\n      dup1\n      sload\n      tag_183\n      swap1\n      tag_143\n      jump\t// in\n    tag_183:\n      dup1\n      0x1f\n      add\n      0x20\n      dup1\n      swap2\n      div\n      mul\n      0x20\n      add\n      mload(0x40)\n      swap1\n      dup2\n      add\n      0x40\n      mstore\n      dup1\n      swap3\n      swap2\n      swap1\n      dup2\n      dup2\n      mstore\n      0x20\n      add\n      dup3\n      dup1\n      sload\n      tag_184\n      swap1\n      tag_143\n      jump\t// in\n    tag_184:\n      dup1\n      iszero\n      tag_185\n      jumpi\n      dup1\n      0x1f\n      lt\n      tag_186\n      jumpi\n      0x0100\n      dup1\n      dup4\n      sload\n      div\n      mul\n      dup4\n      mstore\n      swap2\n      0x20\n      add\n      swap2\n      jump(tag_185)\n    tag_186:\n      dup3\n      add\n      swap2\n      swap1\n      0x00\n      mstore\n      keccak256(0x00, 0x20)\n      swap1\n    tag_187:\n      dup2\n      sload\n      dup2\n      mstore\n      swap1\n      0x01\n      add\n      swap1\n      0x20\n      add\n      dup1\n      dup4\n      gt\n      tag_187\n      jumpi\n      dup3\n      swap1\n      sub\n      0x1f\n      and\n      dup3\n      add\n      swap2\n    tag_185:\n      pop\n      pop\n      pop\n      pop\n      pop\n      dup2\n      mstore\n      0x20\n      add\n      0x02\n      dup3\n      add\n      sload\n      dup2\n      mstore\n      0x20\n      add\n      0x03\n      dup3\n      add\n      sload\n      dup2\n      mstore\n      pop\n      pop\n      dup2\n      mstore\n      0x20\n      add\n      0x09\n      dup3\n      add\n      mload(0x40)\n      dup1\n      0xa0\n      add\n      0x40\n      mstore\n      swap1\n      dup2\n      0x00\n      dup3\n      add\n      dup1\n      sload\n      tag_188\n      swap1\n      tag_143\n      jump\t// in\n    tag_188:\n      dup1\n      0x1f\n      add\n      0x20\n      dup1\n      swap2\n      div\n      mul\n      0x20\n      add\n      mload(0x40)\n      swap1\n      dup2\n      add\n      0x40\n      mstore\n      dup1\n      swap3\n      swap2\n      swap1\n      dup2\n      dup2\n      mstore\n      0x20\n      add\n      dup3\n      dup1\n      sload\n      tag_189\n      swap1\n      tag_143\n      jump\t// in\n    tag_189:\n      dup1\n      iszero\n      tag_190\n      jumpi\n      dup1\n      0x1f\n      lt\n      tag_191\n      jumpi\n      0x0100\n      dup1\n      dup4\n      sload\n      div\n      mul\n      dup4\n      mstore\n      swap2\n      0x20\n      add\n      swap2\n      jump(tag_190)\n    tag_191:\n      dup3\n      add\n      swap2\n      swap1\n      0x00\n      mstore\n      keccak256(0x00, 0x20)\n      swap1\n    tag_192:\n      dup2\n      sload\n      dup2\n      mstore\n      swap1\n      0x01\n      add\n      swap1\n      0x20\n      add\n      dup1\n      dup4\n      gt\n      tag_192\n      jumpi\n      dup3\n      swap1\n      sub\n      0x1f\n      and\n      dup3\n      add\n      swap2\n    tag_190:\n      pop\n      pop\n      pop\n      pop\n      pop\n      dup2\n      mstore\n      0x20\n      add\n      0x01\n      dup3\n      add\n      dup1\n      sload\n      tag_193\n      swap1\n      tag_143\n      jump\t// in\n    tag_193:\n      dup1\n      0x1f\n      add\n      0x20\n      dup1\n      swap2\n      div\n      mul\n      0x20\n      add\n      mload(0x40)\n      swap1\n      dup2\n      add\n      0x40\n      mstore\n      dup1\n      swap3\n      swap2\n      swap1\n      dup2\n      dup2\n      mstore\n      0x20\n      add\n      dup3\n      dup1\n      sload\n      tag_194\n      swap1\n      tag_143\n      jump\t// in\n    tag_194:\n      dup1\n      iszero\n      tag_195\n      jumpi\n      dup1\n      0x1f\n      lt\n      tag_196\n      jumpi\n      0x0100\n      dup1\n      dup4\n      sload\n      div\n      mul\n      dup4\n      mstore\n      swap2\n      0x20\n      add\n      swap2\n      jump(tag_195)\n    tag_196:\n      dup3\n      add\n      swap2\n      swap1\n      0x00\n      mstore\n      keccak256(0x00, 0x20)\n      swap1\n    tag_197:\n      dup2\n      sload\n      dup2\n      mstore\n      swap1\n      0x01\n      add\n      swap1\n      0x20\n      add\n      dup1\n      dup4\n      gt\n      tag_197\n      jumpi\n      dup3\n      swap1\n      sub\n      0x1f\n      and\n      dup3\n      add\n      swap2\n    tag_195:\n      pop\n      pop\n      pop\n      pop\n      pop\n      dup2\n      mstore\n      0x20\n      add\n      0x02\n      dup3\n      add\n      dup1\n      sload\n      tag_198\n      swap1\n      tag_143\n      jump\t// in\n    tag_198:\n      dup1\n      0x1f\n      add\n      0x20\n      dup1\n      swap2\n      div\n      mul\n      0x20\n      add\n      mload(0x40)\n      swap1\n      dup2\n      add\n      0x40\n      mstore\n      dup1\n      swap3\n      swap2\n      swap1\n      dup2\n      dup2\n      mstore\n      0x20\n      add\n      dup3\n      dup1\n      sload\n      tag_199\n      swap1\n      tag_143\n      jump\t// in\n    tag_199:\n      dup1\n      iszero\n      tag_200\n      jumpi\n      dup1\n      0x1f\n      lt\n      tag_201\n      jumpi\n      0x0100\n      dup1\n      dup4\n      sload\n      div\n      mul\n      dup4\n      mstore\n      swap2\n      0x20\n      add\n      swap2\n      jump(tag_200)\n    tag_201:\n      dup3\n      add\n      swap2\n      swap1\n      0x00\n      mstore\n      keccak256(0x00, 0x20)\n      swap1\n    tag_202:\n      dup2\n      sload\n      dup2\n      mstore\n      swap1\n      0x01\n      add\n      swap1\n      0x20\n      add\n      dup1\n      dup4\n      gt\n      tag_202\n      jumpi\n      dup3\n      swap1\n      sub\n      0x1f\n      and\n      dup3\n      add\n      swap2\n    tag_200:\n      pop\n      pop\n      pop\n      pop\n      pop\n      dup2\n      mstore\n      0x20\n      add\n      0x03\n      dup3\n      add\n      0x00\n      swap1\n      sload\n      swap1\n      0x0100\n      exp\n      swap1\n      div\n      0xff\n      and\n      0x03\n      dup2\n      gt\n      iszero\n      tag_203\n      jumpi\n      mstore(0x00, 0x4e487b7100000000000000000000000000000000000000000000000000000000)\n      mstore(0x04, 0x21)\n      revert(0x00, 0x24)\n    tag_203:\n      0x03\n      dup2\n      gt\n      iszero\n      tag_204\n      jumpi\n      mstore(0x00, 0x4e487b7100000000000000000000000000000000000000000000000000000000)\n      mstore(0x04, 0x21)\n      revert(0x00, 0x24)\n    tag_204:\n      dup2\n      mstore\n      0x20\n      add\n      0x03\n      dup3\n      add\n      0x01\n      swap1\n      sload\n      swap1\n      0x0100\n      exp\n      swap1\n      div\n      0xffffffffffffffffffffffffffffffffffffffff\n      and\n      0xffffffffffffffffffffffffffffffffffffffff\n      and\n      0xffffffffffffffffffffffffffffffffffffffff\n      and\n      dup2\n      mstore\n      pop\n      pop\n      dup2\n      mstore\n      0x20\n      add\n      0x0d\n      dup3\n      add\n      sload\n      dup2\n      mstore\n      0x20\n      add\n      0x0e\n      dup3\n      add\n      sload\n      dup2\n      mstore\n      pop\n      pop\n      swap1\n      pop\n        /* \"contracts/auctionride.sol\":3476:3585  function getRide(uint256 _rideId) public view returns (RIDE memory) {\r... */\n      swap2\n      swap1\n      pop\n      jump\t// out\n        /* \"@openzeppelin/contracts/access/Ownable.sol\":1201:1286  function owner() public view virtual returns (address) {... */\n    tag_77:\n        /* \"@openzeppelin/contracts/access/Ownable.sol\":1247:1254  address */\n      0x00\n        /* \"@openzeppelin/contracts/access/Ownable.sol\":1273:1279  _owner */\n      dup1\n      0x00\n      swap1\n      sload\n      swap1\n      0x0100\n      exp\n      swap1\n      div\n      0xffffffffffffffffffffffffffffffffffffffff\n      and\n        /* \"@openzeppelin/contracts/access/Ownable.sol\":1266:1279  return _owner */\n      swap1\n      pop\n        /* \"@openzeppelin/contracts/access/Ownable.sol\":1201:1286  function owner() public view virtual returns (address) {... */\n      swap1\n      jump\t// out\n        /* \"contracts/TOKENX.sol\":365:403  string public constant symbol = \"BERY\" */\n    tag_81:\n      mload(0x40)\n      dup1\n      0x40\n      add\n      0x40\n      mstore\n      dup1\n      0x04\n      dup2\n      mstore\n      0x20\n      add\n      0x4245525900000000000000000000000000000000000000000000000000000000\n      dup2\n      mstore\n      pop\n      dup2\n      jump\t// out\n        /* \"contracts/TOKENX.sol\":1055:1372  function transfer(address receiver, uint256 numTokens)... */\n    tag_85:\n        /* \"contracts/TOKENX.sol\":1142:1146  bool */\n      0x00\n        /* \"contracts/TOKENX.sol\":1183:1191  balances */\n      0x02\n        /* \"contracts/TOKENX.sol\":1183:1203  balances[msg.sender] */\n      0x00\n        /* \"contracts/TOKENX.sol\":1192:1202  msg.sender */\n      caller\n        /* \"contracts/TOKENX.sol\":1183:1203  balances[msg.sender] */\n      0xffffffffffffffffffffffffffffffffffffffff\n      and\n      0xffffffffffffffffffffffffffffffffffffffff\n      and\n      dup2\n      mstore\n      0x20\n      add\n      swap1\n      dup2\n      mstore\n      0x20\n      add\n      0x00\n      keccak256\n      sload\n        /* \"contracts/TOKENX.sol\":1170:1179  numTokens */\n      dup3\n        /* \"contracts/TOKENX.sol\":1170:1203  numTokens <= balances[msg.sender] */\n      gt\n      iszero\n        /* \"contracts/TOKENX.sol\":1162:1204  require(numTokens <= balances[msg.sender]) */\n      tag_207\n      jumpi\n      0x00\n      dup1\n      revert\n    tag_207:\n        /* \"contracts/TOKENX.sol\":1238:1247  numTokens */\n      dup2\n        /* \"contracts/TOKENX.sol\":1214:1222  balances */\n      0x02\n        /* \"contracts/TOKENX.sol\":1214:1234  balances[msg.sender] */\n      0x00\n        /* \"contracts/TOKENX.sol\":1223:1233  msg.sender */\n      caller\n        /* \"contracts/TOKENX.sol\":1214:1234  balances[msg.sender] */\n      0xffffffffffffffffffffffffffffffffffffffff\n      and\n      0xffffffffffffffffffffffffffffffffffffffff\n      and\n      dup2\n      mstore\n      0x20\n      add\n      swap1\n      dup2\n      mstore\n      0x20\n      add\n      0x00\n      keccak256\n      0x00\n        /* \"contracts/TOKENX.sol\":1214:1247  balances[msg.sender] -= numTokens */\n      dup3\n      dup3\n      sload\n      tag_208\n      swap2\n      swap1\n      tag_97\n      jump\t// in\n    tag_208:\n      swap3\n      pop\n      pop\n      dup2\n      swap1\n      sstore\n      pop\n        /* \"contracts/TOKENX.sol\":1279:1288  numTokens */\n      dup2\n        /* \"contracts/TOKENX.sol\":1257:1265  balances */\n      0x02\n        /* \"contracts/TOKENX.sol\":1257:1275  balances[receiver] */\n      0x00\n        /* \"contracts/TOKENX.sol\":1266:1274  receiver */\n      dup6\n        /* \"contracts/TOKENX.sol\":1257:1275  balances[receiver] */\n      0xffffffffffffffffffffffffffffffffffffffff\n      and\n      0xffffffffffffffffffffffffffffffffffffffff\n      and\n      dup2\n      mstore\n      0x20\n      add\n      swap1\n      dup2\n      mstore\n      0x20\n      add\n      0x00\n      keccak256\n      0x00\n        /* \"contracts/TOKENX.sol\":1257:1288  balances[receiver] += numTokens */\n      dup3\n      dup3\n      sload\n      tag_209\n      swap2\n      swap1\n      tag_100\n      jump\t// in\n    tag_209:\n      swap3\n      pop\n      pop\n      dup2\n      swap1\n      sstore\n      pop\n        /* \"contracts/TOKENX.sol\":1324:1332  receiver */\n      dup3\n        /* \"contracts/TOKENX.sol\":1303:1344  Transfer(msg.sender, receiver, numTokens) */\n      0xffffffffffffffffffffffffffffffffffffffff\n      and\n        /* \"contracts/TOKENX.sol\":1312:1322  msg.sender */\n      caller\n        /* \"contracts/TOKENX.sol\":1303:1344  Transfer(msg.sender, receiver, numTokens) */\n      0xffffffffffffffffffffffffffffffffffffffff\n      and\n      0xddf252ad1be2c89b69c2b068fc378daa952ba7f163c4a11628f55a4df523b3ef\n        /* \"contracts/TOKENX.sol\":1334:1343  numTokens */\n      dup5\n        /* \"contracts/TOKENX.sol\":1303:1344  Transfer(msg.sender, receiver, numTokens) */\n      mload(0x40)\n      tag_210\n      swap2\n      swap1\n      tag_37\n      jump\t// in\n    tag_210:\n      mload(0x40)\n      dup1\n      swap2\n      sub\n      swap1\n      log3\n        /* \"contracts/TOKENX.sol\":1361:1365  true */\n      0x01\n        /* \"contracts/TOKENX.sol\":1354:1365  return true */\n      swap1\n      pop\n        /* \"contracts/TOKENX.sol\":1055:1372  function transfer(address receiver, uint256 numTokens)... */\n      swap3\n      swap2\n      pop\n      pop\n      jump\t// out\n        /* \"@openzeppelin/contracts/access/Ownable.sol\":2081:2279  function transferOwnership(address newOwner) public virtual onlyOwner {... */\n    tag_89:\n        /* \"@openzeppelin/contracts/access/Ownable.sol\":1094:1107  _checkOwner() */\n      tag_212\n        /* \"@openzeppelin/contracts/access/Ownable.sol\":1094:1105  _checkOwner */\n      tag_131\n        /* \"@openzeppelin/contracts/access/Ownable.sol\":1094:1107  _checkOwner() */\n      jump\t// in\n    tag_212:\n        /* \"@openzeppelin/contracts/access/Ownable.sol\":2189:2190  0 */\n      0x00\n        /* \"@openzeppelin/contracts/access/Ownable.sol\":2169:2191  newOwner != address(0) */\n      0xffffffffffffffffffffffffffffffffffffffff\n      and\n        /* \"@openzeppelin/contracts/access/Ownable.sol\":2169:2177  newOwner */\n      dup2\n        /* \"@openzeppelin/contracts/access/Ownable.sol\":2169:2191  newOwner != address(0) */\n      0xffffffffffffffffffffffffffffffffffffffff\n      and\n      eq\n      iszero\n        /* \"@openzeppelin/contracts/access/Ownable.sol\":2161:2234  require(newOwner != address(0), \"Ownable: new owner is the zero address\") */\n      tag_214\n      jumpi\n      mload(0x40)\n      0x08c379a000000000000000000000000000000000000000000000000000000000\n      dup2\n      mstore\n      0x04\n      add\n      tag_215\n      swap1\n      tag_216\n      jump\t// in\n    tag_215:\n      mload(0x40)\n      dup1\n      swap2\n      sub\n      swap1\n      revert\n    tag_214:\n        /* \"@openzeppelin/contracts/access/Ownable.sol\":2244:2272  _transferOwnership(newOwner) */\n      tag_217\n        /* \"@openzeppelin/contracts/access/Ownable.sol\":2263:2271  newOwner */\n      dup2\n        /* \"@openzeppelin/contracts/access/Ownable.sol\":2244:2262  _transferOwnership */\n      tag_134\n        /* \"@openzeppelin/contracts/access/Ownable.sol\":2244:2272  _transferOwnership(newOwner) */\n      jump\t// in\n    tag_217:\n        /* \"@openzeppelin/contracts/access/Ownable.sol\":2081:2279  function transferOwnership(address newOwner) public virtual onlyOwner {... */\n      pop\n      jump\t// out\n        /* \"contracts/auctionride.sol\":2218:2517  function checkValidity (uint256 rideCount) private {\r... */\n    tag_114:\n        /* \"contracts/auctionride.sol\":2329:2333  true */\n      0x01\n        /* \"contracts/auctionride.sol\":2284:2333  _rides[rideCount].status.isAuctionGoingOn == true */\n      iszero\n      iszero\n        /* \"contracts/auctionride.sol\":2284:2290  _rides */\n      0x06\n        /* \"contracts/auctionride.sol\":2284:2301  _rides[rideCount] */\n      0x00\n        /* \"contracts/auctionride.sol\":2291:2300  rideCount */\n      dup4\n        /* \"contracts/auctionride.sol\":2284:2301  _rides[rideCount] */\n      dup2\n      mstore\n      0x20\n      add\n      swap1\n      dup2\n      mstore\n      0x20\n      add\n      0x00\n      keccak256\n        /* \"contracts/auctionride.sol\":2284:2308  _rides[rideCount].status */\n      0x04\n      add\n        /* \"contracts/auctionride.sol\":2284:2325  _rides[rideCount].status.isAuctionGoingOn */\n      0x00\n      add\n      0x03\n      swap1\n      sload\n      swap1\n      0x0100\n      exp\n      swap1\n      div\n      0xff\n      and\n        /* \"contracts/auctionride.sol\":2284:2333  _rides[rideCount].status.isAuctionGoingOn == true */\n      iszero\n      iszero\n      eq\n        /* \"contracts/auctionride.sol\":2283:2433  (_rides[rideCount].status.isAuctionGoingOn == true) && (_rides[rideCount].timeOfPosting + _rides[rideCount].secondsUntilAuctionEnds < block.timestamp) */\n      dup1\n      iszero\n      tag_219\n      jumpi\n      pop\n        /* \"contracts/auctionride.sol\":2417:2432  block.timestamp */\n      timestamp\n        /* \"contracts/auctionride.sol\":2373:2379  _rides */\n      0x06\n        /* \"contracts/auctionride.sol\":2373:2390  _rides[rideCount] */\n      0x00\n        /* \"contracts/auctionride.sol\":2380:2389  rideCount */\n      dup4\n        /* \"contracts/auctionride.sol\":2373:2390  _rides[rideCount] */\n      dup2\n      mstore\n      0x20\n      add\n      swap1\n      dup2\n      mstore\n      0x20\n      add\n      0x00\n      keccak256\n        /* \"contracts/auctionride.sol\":2373:2414  _rides[rideCount].secondsUntilAuctionEnds */\n      0x0e\n      add\n      sload\n        /* \"contracts/auctionride.sol\":2339:2345  _rides */\n      0x06\n        /* \"contracts/auctionride.sol\":2339:2356  _rides[rideCount] */\n      0x00\n        /* \"contracts/auctionride.sol\":2346:2355  rideCount */\n      dup5\n        /* \"contracts/auctionride.sol\":2339:2356  _rides[rideCount] */\n      dup2\n      mstore\n      0x20\n      add\n      swap1\n      dup2\n      mstore\n      0x20\n      add\n      0x00\n      keccak256\n        /* \"contracts/auctionride.sol\":2339:2370  _rides[rideCount].timeOfPosting */\n      0x0d\n      add\n      sload\n        /* \"contracts/auctionride.sol\":2339:2414  _rides[rideCount].timeOfPosting + _rides[rideCount].secondsUntilAuctionEnds */\n      tag_220\n      swap2\n      swap1\n      tag_100\n      jump\t// in\n    tag_220:\n        /* \"contracts/auctionride.sol\":2339:2432  _rides[rideCount].timeOfPosting + _rides[rideCount].secondsUntilAuctionEnds < block.timestamp */\n      lt\n        /* \"contracts/auctionride.sol\":2283:2433  (_rides[rideCount].status.isAuctionGoingOn == true) && (_rides[rideCount].timeOfPosting + _rides[rideCount].secondsUntilAuctionEnds < block.timestamp) */\n    tag_219:\n        /* \"contracts/auctionride.sol\":2280:2510  if((_rides[rideCount].status.isAuctionGoingOn == true) && (_rides[rideCount].timeOfPosting + _rides[rideCount].secondsUntilAuctionEnds < block.timestamp)){\r... */\n      iszero\n      tag_221\n      jumpi\n        /* \"contracts/auctionride.sol\":2493:2498  false */\n      0x00\n        /* \"contracts/auctionride.sol\":2449:2455  _rides */\n      0x06\n        /* \"contracts/auctionride.sol\":2449:2466  _rides[rideCount] */\n      0x00\n        /* \"contracts/auctionride.sol\":2456:2465  rideCount */\n      dup4\n        /* \"contracts/auctionride.sol\":2449:2466  _rides[rideCount] */\n      dup2\n      mstore\n      0x20\n      add\n      swap1\n      dup2\n      mstore\n      0x20\n      add\n      0x00\n      keccak256\n        /* \"contracts/auctionride.sol\":2449:2473  _rides[rideCount].status */\n      0x04\n      add\n        /* \"contracts/auctionride.sol\":2449:2490  _rides[rideCount].status.isAuctionGoingOn */\n      0x00\n      add\n      0x03\n        /* \"contracts/auctionride.sol\":2449:2498  _rides[rideCount].status.isAuctionGoingOn = false */\n      0x0100\n      exp\n      dup2\n      sload\n      dup2\n      0xff\n      mul\n      not\n      and\n      swap1\n      dup4\n      iszero\n      iszero\n      mul\n      or\n      swap1\n      sstore\n      pop\n        /* \"contracts/auctionride.sol\":2280:2510  if((_rides[rideCount].status.isAuctionGoingOn == true) && (_rides[rideCount].timeOfPosting + _rides[rideCount].secondsUntilAuctionEnds < block.timestamp)){\r... */\n    tag_221:\n        /* \"contracts/auctionride.sol\":2218:2517  function checkValidity (uint256 rideCount) private {\r... */\n      pop\n      jump\t// out\n        /* \"@openzeppelin/contracts/access/Ownable.sol\":1359:1489  function _checkOwner() internal view virtual {... */\n    tag_131:\n        /* \"@openzeppelin/contracts/access/Ownable.sol\":1433:1445  _msgSender() */\n      tag_223\n        /* \"@openzeppelin/contracts/access/Ownable.sol\":1433:1443  _msgSender */\n      tag_224\n        /* \"@openzeppelin/contracts/access/Ownable.sol\":1433:1445  _msgSender() */\n      jump\t// in\n    tag_223:\n        /* \"@openzeppelin/contracts/access/Ownable.sol\":1422:1445  owner() == _msgSender() */\n      0xffffffffffffffffffffffffffffffffffffffff\n      and\n        /* \"@openzeppelin/contracts/access/Ownable.sol\":1422:1429  owner() */\n      tag_225\n        /* \"@openzeppelin/contracts/access/Ownable.sol\":1422:1427  owner */\n      tag_77\n        /* \"@openzeppelin/contracts/access/Ownable.sol\":1422:1429  owner() */\n      jump\t// in\n    tag_225:\n        /* \"@openzeppelin/contracts/access/Ownable.sol\":1422:1445  owner() == _msgSender() */\n      0xffffffffffffffffffffffffffffffffffffffff\n      and\n      eq\n        /* \"@openzeppelin/contracts/access/Ownable.sol\":1414:1482  require(owner() == _msgSender(), \"Ownable: caller is not the owner\") */\n      tag_226\n      jumpi\n      mload(0x40)\n      0x08c379a000000000000000000000000000000000000000000000000000000000\n      dup2\n      mstore\n      0x04\n      add\n      tag_227\n      swap1\n      tag_228\n      jump\t// in\n    tag_227:\n      mload(0x40)\n      dup1\n      swap2\n      sub\n      swap1\n      revert\n    tag_226:\n        /* \"@openzeppelin/contracts/access/Ownable.sol\":1359:1489  function _checkOwner() internal view virtual {... */\n      jump\t// out\n        /* \"@openzeppelin/contracts/access/Ownable.sol\":2433:2620  function _transferOwnership(address newOwner) internal virtual {... */\n    tag_134:\n        /* \"@openzeppelin/contracts/access/Ownable.sol\":2506:2522  address oldOwner */\n      0x00\n        /* \"@openzeppelin/contracts/access/Ownable.sol\":2525:2531  _owner */\n      dup1\n      0x00\n      swap1\n      sload\n      swap1\n      0x0100\n      exp\n      swap1\n      div\n      0xffffffffffffffffffffffffffffffffffffffff\n      and\n        /* \"@openzeppelin/contracts/access/Ownable.sol\":2506:2531  address oldOwner = _owner */\n      swap1\n      pop\n        /* \"@openzeppelin/contracts/access/Ownable.sol\":2550:2558  newOwner */\n      dup2\n        /* \"@openzeppelin/contracts/access/Ownable.sol\":2541:2547  _owner */\n      0x00\n      dup1\n        /* \"@openzeppelin/contracts/access/Ownable.sol\":2541:2558  _owner = newOwner */\n      0x0100\n      exp\n      dup2\n      sload\n      dup2\n      0xffffffffffffffffffffffffffffffffffffffff\n      mul\n      not\n      and\n      swap1\n      dup4\n      0xffffffffffffffffffffffffffffffffffffffff\n      and\n      mul\n      or\n      swap1\n      sstore\n      pop\n        /* \"@openzeppelin/contracts/access/Ownable.sol\":2604:2612  newOwner */\n      dup2\n        /* \"@openzeppelin/contracts/access/Ownable.sol\":2573:2613  OwnershipTransferred(oldOwner, newOwner) */\n      0xffffffffffffffffffffffffffffffffffffffff\n      and\n        /* \"@openzeppelin/contracts/access/Ownable.sol\":2594:2602  oldOwner */\n      dup2\n        /* \"@openzeppelin/contracts/access/Ownable.sol\":2573:2613  OwnershipTransferred(oldOwner, newOwner) */\n      0xffffffffffffffffffffffffffffffffffffffff\n      and\n      0x8be0079c531659141344cd1fd0a4f28419497f9722a3daafe3b4186f6b6457e0\n      mload(0x40)\n      mload(0x40)\n      dup1\n      swap2\n      sub\n      swap1\n      log3\n        /* \"@openzeppelin/contracts/access/Ownable.sol\":2433:2620  function _transferOwnership(address newOwner) internal virtual {... */\n      pop\n      pop\n      jump\t// out\n        /* \"@openzeppelin/contracts/utils/Context.sol\":640:736  function _msgSender() internal view virtual returns (address) {... */\n    tag_224:\n        /* \"@openzeppelin/contracts/utils/Context.sol\":693:700  address */\n      0x00\n        /* \"@openzeppelin/contracts/utils/Context.sol\":719:729  msg.sender */\n      caller\n        /* \"@openzeppelin/contracts/utils/Context.sol\":712:729  return msg.sender */\n      swap1\n      pop\n        /* \"@openzeppelin/contracts/utils/Context.sol\":640:736  function _msgSender() internal view virtual returns (address) {... */\n      swap1\n      jump\t// out\n    tag_174:\n      mload(0x40)\n      dup1\n      0x0100\n      add\n      0x40\n      mstore\n      dup1\n      0x00\n      dup2\n      mstore\n      0x20\n      add\n      0x00\n      dup2\n      mstore\n      0x20\n      add\n      tag_231\n      tag_232\n      jump\t// in\n    tag_231:\n      dup2\n      mstore\n      0x20\n      add\n      tag_233\n      tag_234\n      jump\t// in\n    tag_233:\n      dup2\n      mstore\n      0x20\n      add\n      tag_235\n      tag_236\n      jump\t// in\n    tag_235:\n      dup2\n      mstore\n      0x20\n      add\n      tag_237\n      tag_238\n      jump\t// in\n    tag_237:\n      dup2\n      mstore\n      0x20\n      add\n      0x00\n      dup2\n      mstore\n      0x20\n      add\n      0x00\n      dup2\n      mstore\n      pop\n      swap1\n      jump\t// out\n    tag_232:\n      mload(0x40)\n      dup1\n      0x40\n      add\n      0x40\n      mstore\n      dup1\n      and(0xffffffffffffffffffffffffffffffffffffffff, 0x00)\n      dup2\n      mstore\n      0x20\n      add\n      and(0xffffffffffffffffffffffffffffffffffffffff, 0x00)\n      dup2\n      mstore\n      pop\n      swap1\n      jump\t// out\n    tag_234:\n      mload(0x40)\n      dup1\n      0xa0\n      add\n      0x40\n      mstore\n      dup1\n      iszero(iszero(0x00))\n      dup2\n      mstore\n      0x20\n      add\n      iszero(iszero(0x00))\n      dup2\n      mstore\n      0x20\n      add\n      iszero(iszero(0x00))\n      dup2\n      mstore\n      0x20\n      add\n      iszero(iszero(0x00))\n      dup2\n      mstore\n      0x20\n      add\n      0x00\n      0x02\n      dup2\n      gt\n      iszero\n      tag_239\n      jumpi\n      mstore(0x00, 0x4e487b7100000000000000000000000000000000000000000000000000000000)\n      mstore(0x04, 0x21)\n      revert(0x00, 0x24)\n    tag_239:\n      dup2\n      mstore\n      pop\n      swap1\n      jump\t// out\n    tag_236:\n      mload(0x40)\n      dup1\n      0x80\n      add\n      0x40\n      mstore\n      dup1\n      0x60\n      dup2\n      mstore\n      0x20\n      add\n      0x60\n      dup2\n      mstore\n      0x20\n      add\n      0x00\n      dup2\n      mstore\n      0x20\n      add\n      0x00\n      dup2\n      mstore\n      pop\n      swap1\n      jump\t// out\n    tag_238:\n      mload(0x40)\n      dup1\n      0xa0\n      add\n      0x40\n      mstore\n      dup1\n      0x60\n      dup2\n      mstore\n      0x20\n      add\n      0x60\n      dup2\n      mstore\n      0x20\n      add\n      0x60\n      dup2\n      mstore\n      0x20\n      add\n      0x00\n      0x03\n      dup2\n      gt\n      iszero\n      tag_240\n      jumpi\n      mstore(0x00, 0x4e487b7100000000000000000000000000000000000000000000000000000000)\n      mstore(0x04, 0x21)\n      revert(0x00, 0x24)\n    tag_240:\n      dup2\n      mstore\n      0x20\n      add\n      and(0xffffffffffffffffffffffffffffffffffffffff, 0x00)\n      dup2\n      mstore\n      pop\n      swap1\n      jump\t// out\n        /* \"#utility.yul\":24:646   */\n    tag_242:\n      0x00\n        /* \"#utility.yul\":145:225   */\n      tag_244\n        /* \"#utility.yul\":160:224   */\n      tag_245\n        /* \"#utility.yul\":217:223   */\n      dup5\n        /* \"#utility.yul\":160:224   */\n      tag_246\n      jump\t// in\n    tag_245:\n        /* \"#utility.yul\":145:225   */\n      tag_247\n      jump\t// in\n    tag_244:\n        /* \"#utility.yul\":136:225   */\n      swap1\n      pop\n        /* \"#utility.yul\":245:250   */\n      dup1\n        /* \"#utility.yul\":273:279   */\n      dup4\n        /* \"#utility.yul\":266:271   */\n      dup3\n        /* \"#utility.yul\":259:280   */\n      mstore\n        /* \"#utility.yul\":299:303   */\n      0x20\n        /* \"#utility.yul\":292:297   */\n      dup3\n        /* \"#utility.yul\":288:304   */\n      add\n        /* \"#utility.yul\":281:304   */\n      swap1\n      pop\n        /* \"#utility.yul\":324:330   */\n      dup3\n        /* \"#utility.yul\":374:377   */\n      dup6\n        /* \"#utility.yul\":366:370   */\n      0x20\n        /* \"#utility.yul\":358:364   */\n      dup7\n        /* \"#utility.yul\":354:371   */\n      mul\n        /* \"#utility.yul\":349:352   */\n      dup3\n        /* \"#utility.yul\":345:372   */\n      add\n        /* \"#utility.yul\":342:378   */\n      gt\n        /* \"#utility.yul\":339:341   */\n      iszero\n      tag_248\n      jumpi\n        /* \"#utility.yul\":391:392   */\n      0x00\n        /* \"#utility.yul\":388:389   */\n      dup1\n        /* \"#utility.yul\":381:393   */\n      revert\n        /* \"#utility.yul\":339:341   */\n    tag_248:\n        /* \"#utility.yul\":419:420   */\n      0x00\n        /* \"#utility.yul\":404:640   */\n    tag_249:\n        /* \"#utility.yul\":429:435   */\n      dup6\n        /* \"#utility.yul\":426:427   */\n      dup2\n        /* \"#utility.yul\":423:436   */\n      lt\n        /* \"#utility.yul\":404:640   */\n      iszero\n      tag_251\n      jumpi\n        /* \"#utility.yul\":496:499   */\n      dup2\n        /* \"#utility.yul\":524:561   */\n      tag_252\n        /* \"#utility.yul\":557:560   */\n      dup9\n        /* \"#utility.yul\":545:555   */\n      dup3\n        /* \"#utility.yul\":524:561   */\n      tag_253\n      jump\t// in\n    tag_252:\n        /* \"#utility.yul\":519:522   */\n      dup5\n        /* \"#utility.yul\":512:562   */\n      mstore\n        /* \"#utility.yul\":591:595   */\n      0x20\n        /* \"#utility.yul\":586:589   */\n      dup5\n        /* \"#utility.yul\":582:596   */\n      add\n        /* \"#utility.yul\":575:596   */\n      swap4\n      pop\n        /* \"#utility.yul\":625:629   */\n      0x20\n        /* \"#utility.yul\":620:623   */\n      dup4\n        /* \"#utility.yul\":616:630   */\n      add\n        /* \"#utility.yul\":609:630   */\n      swap3\n      pop\n        /* \"#utility.yul\":464:640   */\n      pop\n        /* \"#utility.yul\":451:452   */\n      0x01\n        /* \"#utility.yul\":448:449   */\n      dup2\n        /* \"#utility.yul\":444:453   */\n      add\n        /* \"#utility.yul\":439:453   */\n      swap1\n      pop\n        /* \"#utility.yul\":404:640   */\n      jump(tag_249)\n    tag_251:\n        /* \"#utility.yul\":408:422   */\n      pop\n        /* \"#utility.yul\":126:646   */\n      pop\n      pop\n      swap4\n      swap3\n      pop\n      pop\n      pop\n      jump\t// out\n        /* \"#utility.yul\":652:791   */\n    tag_254:\n      0x00\n        /* \"#utility.yul\":736:742   */\n      dup2\n        /* \"#utility.yul\":723:743   */\n      calldataload\n        /* \"#utility.yul\":714:743   */\n      swap1\n      pop\n        /* \"#utility.yul\":752:785   */\n      tag_256\n        /* \"#utility.yul\":779:784   */\n      dup2\n        /* \"#utility.yul\":752:785   */\n      tag_257\n      jump\t// in\n    tag_256:\n        /* \"#utility.yul\":704:791   */\n      swap3\n      swap2\n      pop\n      pop\n      jump\t// out\n        /* \"#utility.yul\":814:1117   */\n    tag_258:\n      0x00\n        /* \"#utility.yul\":934:937   */\n      dup3\n        /* \"#utility.yul\":927:931   */\n      0x1f\n        /* \"#utility.yul\":919:925   */\n      dup4\n        /* \"#utility.yul\":915:932   */\n      add\n        /* \"#utility.yul\":911:938   */\n      slt\n        /* \"#utility.yul\":901:903   */\n      tag_260\n      jumpi\n        /* \"#utility.yul\":952:953   */\n      0x00\n        /* \"#utility.yul\":949:950   */\n      dup1\n        /* \"#utility.yul\":942:954   */\n      revert\n        /* \"#utility.yul\":901:903   */\n    tag_260:\n        /* \"#utility.yul\":992:998   */\n      dup2\n        /* \"#utility.yul\":979:999   */\n      calldataload\n        /* \"#utility.yul\":1017:1111   */\n      tag_261\n        /* \"#utility.yul\":1107:1110   */\n      dup5\n        /* \"#utility.yul\":1099:1105   */\n      dup3\n        /* \"#utility.yul\":1092:1096   */\n      0x20\n        /* \"#utility.yul\":1084:1090   */\n      dup7\n        /* \"#utility.yul\":1080:1097   */\n      add\n        /* \"#utility.yul\":1017:1111   */\n      tag_242\n      jump\t// in\n    tag_261:\n        /* \"#utility.yul\":1008:1111   */\n      swap2\n      pop\n        /* \"#utility.yul\":891:1117   */\n      pop\n      swap3\n      swap2\n      pop\n      pop\n      jump\t// out\n        /* \"#utility.yul\":1123:1262   */\n    tag_253:\n      0x00\n        /* \"#utility.yul\":1207:1213   */\n      dup2\n        /* \"#utility.yul\":1194:1214   */\n      calldataload\n        /* \"#utility.yul\":1185:1214   */\n      swap1\n      pop\n        /* \"#utility.yul\":1223:1256   */\n      tag_263\n        /* \"#utility.yul\":1250:1255   */\n      dup2\n        /* \"#utility.yul\":1223:1256   */\n      tag_264\n      jump\t// in\n    tag_263:\n        /* \"#utility.yul\":1175:1262   */\n      swap3\n      swap2\n      pop\n      pop\n      jump\t// out\n        /* \"#utility.yul\":1268:1530   */\n    tag_60:\n      0x00\n        /* \"#utility.yul\":1376:1378   */\n      0x20\n        /* \"#utility.yul\":1364:1373   */\n      dup3\n        /* \"#utility.yul\":1355:1362   */\n      dup5\n        /* \"#utility.yul\":1351:1374   */\n      sub\n        /* \"#utility.yul\":1347:1379   */\n      slt\n        /* \"#utility.yul\":1344:1346   */\n      iszero\n      tag_266\n      jumpi\n        /* \"#utility.yul\":1392:1393   */\n      0x00\n        /* \"#utility.yul\":1389:1390   */\n      dup1\n        /* \"#utility.yul\":1382:1394   */\n      revert\n        /* \"#utility.yul\":1344:1346   */\n    tag_266:\n        /* \"#utility.yul\":1435:1436   */\n      0x00\n        /* \"#utility.yul\":1460:1513   */\n      tag_267\n        /* \"#utility.yul\":1505:1512   */\n      dup5\n        /* \"#utility.yul\":1496:1502   */\n      dup3\n        /* \"#utility.yul\":1485:1494   */\n      dup6\n        /* \"#utility.yul\":1481:1503   */\n      add\n        /* \"#utility.yul\":1460:1513   */\n      tag_254\n      jump\t// in\n    tag_267:\n        /* \"#utility.yul\":1450:1513   */\n      swap2\n      pop\n        /* \"#utility.yul\":1406:1523   */\n      pop\n        /* \"#utility.yul\":1334:1530   */\n      swap3\n      swap2\n      pop\n      pop\n      jump\t// out\n        /* \"#utility.yul\":1536:1943   */\n    tag_34:\n      0x00\n      dup1\n        /* \"#utility.yul\":1661:1663   */\n      0x40\n        /* \"#utility.yul\":1649:1658   */\n      dup4\n        /* \"#utility.yul\":1640:1647   */\n      dup6\n        /* \"#utility.yul\":1636:1659   */\n      sub\n        /* \"#utility.yul\":1632:1664   */\n      slt\n        /* \"#utility.yul\":1629:1631   */\n      iszero\n      tag_269\n      jumpi\n        /* \"#utility.yul\":1677:1678   */\n      0x00\n        /* \"#utility.yul\":1674:1675   */\n      dup1\n        /* \"#utility.yul\":1667:1679   */\n      revert\n        /* \"#utility.yul\":1629:1631   */\n    tag_269:\n        /* \"#utility.yul\":1720:1721   */\n      0x00\n        /* \"#utility.yul\":1745:1798   */\n      tag_270\n        /* \"#utility.yul\":1790:1797   */\n      dup6\n        /* \"#utility.yul\":1781:1787   */\n      dup3\n        /* \"#utility.yul\":1770:1779   */\n      dup7\n        /* \"#utility.yul\":1766:1788   */\n      add\n        /* \"#utility.yul\":1745:1798   */\n      tag_254\n      jump\t// in\n    tag_270:\n        /* \"#utility.yul\":1735:1798   */\n      swap3\n      pop\n        /* \"#utility.yul\":1691:1808   */\n      pop\n        /* \"#utility.yul\":1847:1849   */\n      0x20\n        /* \"#utility.yul\":1873:1926   */\n      tag_271\n        /* \"#utility.yul\":1918:1925   */\n      dup6\n        /* \"#utility.yul\":1909:1915   */\n      dup3\n        /* \"#utility.yul\":1898:1907   */\n      dup7\n        /* \"#utility.yul\":1894:1916   */\n      add\n        /* \"#utility.yul\":1873:1926   */\n      tag_254\n      jump\t// in\n    tag_271:\n        /* \"#utility.yul\":1863:1926   */\n      swap2\n      pop\n        /* \"#utility.yul\":1818:1936   */\n      pop\n        /* \"#utility.yul\":1619:1943   */\n      swap3\n      pop\n      swap3\n      swap1\n      pop\n      jump\t// out\n        /* \"#utility.yul\":1949:2501   */\n    tag_40:\n      0x00\n      dup1\n      0x00\n        /* \"#utility.yul\":2091:2093   */\n      0x60\n        /* \"#utility.yul\":2079:2088   */\n      dup5\n        /* \"#utility.yul\":2070:2077   */\n      dup7\n        /* \"#utility.yul\":2066:2089   */\n      sub\n        /* \"#utility.yul\":2062:2094   */\n      slt\n        /* \"#utility.yul\":2059:2061   */\n      iszero\n      tag_273\n      jumpi\n        /* \"#utility.yul\":2107:2108   */\n      0x00\n        /* \"#utility.yul\":2104:2105   */\n      dup1\n        /* \"#utility.yul\":2097:2109   */\n      revert\n        /* \"#utility.yul\":2059:2061   */\n    tag_273:\n        /* \"#utility.yul\":2150:2151   */\n      0x00\n        /* \"#utility.yul\":2175:2228   */\n      tag_274\n        /* \"#utility.yul\":2220:2227   */\n      dup7\n        /* \"#utility.yul\":2211:2217   */\n      dup3\n        /* \"#utility.yul\":2200:2209   */\n      dup8\n        /* \"#utility.yul\":2196:2218   */\n      add\n        /* \"#utility.yul\":2175:2228   */\n      tag_254\n      jump\t// in\n    tag_274:\n        /* \"#utility.yul\":2165:2228   */\n      swap4\n      pop\n        /* \"#utility.yul\":2121:2238   */\n      pop\n        /* \"#utility.yul\":2277:2279   */\n      0x20\n        /* \"#utility.yul\":2303:2356   */\n      tag_275\n        /* \"#utility.yul\":2348:2355   */\n      dup7\n        /* \"#utility.yul\":2339:2345   */\n      dup3\n        /* \"#utility.yul\":2328:2337   */\n      dup8\n        /* \"#utility.yul\":2324:2346   */\n      add\n        /* \"#utility.yul\":2303:2356   */\n      tag_254\n      jump\t// in\n    tag_275:\n        /* \"#utility.yul\":2293:2356   */\n      swap3\n      pop\n        /* \"#utility.yul\":2248:2366   */\n      pop\n        /* \"#utility.yul\":2405:2407   */\n      0x40\n        /* \"#utility.yul\":2431:2484   */\n      tag_276\n        /* \"#utility.yul\":2476:2483   */\n      dup7\n        /* \"#utility.yul\":2467:2473   */\n      dup3\n        /* \"#utility.yul\":2456:2465   */\n      dup8\n        /* \"#utility.yul\":2452:2474   */\n      add\n        /* \"#utility.yul\":2431:2484   */\n      tag_253\n      jump\t// in\n    tag_276:\n        /* \"#utility.yul\":2421:2484   */\n      swap2\n      pop\n        /* \"#utility.yul\":2376:2494   */\n      pop\n        /* \"#utility.yul\":2049:2501   */\n      swap3\n      pop\n      swap3\n      pop\n      swap3\n      jump\t// out\n        /* \"#utility.yul\":2507:2914   */\n    tag_28:\n      0x00\n      dup1\n        /* \"#utility.yul\":2632:2634   */\n      0x40\n        /* \"#utility.yul\":2620:2629   */\n      dup4\n        /* \"#utility.yul\":2611:2618   */\n      dup6\n        /* \"#utility.yul\":2607:2630   */\n      sub\n        /* \"#utility.yul\":2603:2635   */\n      slt\n        /* \"#utility.yul\":2600:2602   */\n      iszero\n      tag_278\n      jumpi\n        /* \"#utility.yul\":2648:2649   */\n      0x00\n        /* \"#utility.yul\":2645:2646   */\n      dup1\n        /* \"#utility.yul\":2638:2650   */\n      revert\n        /* \"#utility.yul\":2600:2602   */\n    tag_278:\n        /* \"#utility.yul\":2691:2692   */\n      0x00\n        /* \"#utility.yul\":2716:2769   */\n      tag_279\n        /* \"#utility.yul\":2761:2768   */\n      dup6\n        /* \"#utility.yul\":2752:2758   */\n      dup3\n        /* \"#utility.yul\":2741:2750   */\n      dup7\n        /* \"#utility.yul\":2737:2759   */\n      add\n        /* \"#utility.yul\":2716:2769   */\n      tag_254\n      jump\t// in\n    tag_279:\n        /* \"#utility.yul\":2706:2769   */\n      swap3\n      pop\n        /* \"#utility.yul\":2662:2779   */\n      pop\n        /* \"#utility.yul\":2818:2820   */\n      0x20\n        /* \"#utility.yul\":2844:2897   */\n      tag_280\n        /* \"#utility.yul\":2889:2896   */\n      dup6\n        /* \"#utility.yul\":2880:2886   */\n      dup3\n        /* \"#utility.yul\":2869:2878   */\n      dup7\n        /* \"#utility.yul\":2865:2887   */\n      add\n        /* \"#utility.yul\":2844:2897   */\n      tag_253\n      jump\t// in\n    tag_280:\n        /* \"#utility.yul\":2834:2897   */\n      swap2\n      pop\n        /* \"#utility.yul\":2789:2907   */\n      pop\n        /* \"#utility.yul\":2590:2914   */\n      swap3\n      pop\n      swap3\n      swap1\n      pop\n      jump\t// out\n        /* \"#utility.yul\":2920:3325   */\n    tag_67:\n      0x00\n        /* \"#utility.yul\":3053:3055   */\n      0x20\n        /* \"#utility.yul\":3041:3050   */\n      dup3\n        /* \"#utility.yul\":3032:3039   */\n      dup5\n        /* \"#utility.yul\":3028:3051   */\n      sub\n        /* \"#utility.yul\":3024:3056   */\n      slt\n        /* \"#utility.yul\":3021:3023   */\n      iszero\n      tag_282\n      jumpi\n        /* \"#utility.yul\":3069:3070   */\n      0x00\n        /* \"#utility.yul\":3066:3067   */\n      dup1\n        /* \"#utility.yul\":3059:3071   */\n      revert\n        /* \"#utility.yul\":3021:3023   */\n    tag_282:\n        /* \"#utility.yul\":3140:3141   */\n      0x00\n        /* \"#utility.yul\":3129:3138   */\n      dup3\n        /* \"#utility.yul\":3125:3142   */\n      add\n        /* \"#utility.yul\":3112:3143   */\n      calldataload\n        /* \"#utility.yul\":3170:3188   */\n      0xffffffffffffffff\n        /* \"#utility.yul\":3162:3168   */\n      dup2\n        /* \"#utility.yul\":3159:3189   */\n      gt\n        /* \"#utility.yul\":3156:3158   */\n      iszero\n      tag_283\n      jumpi\n        /* \"#utility.yul\":3202:3203   */\n      0x00\n        /* \"#utility.yul\":3199:3200   */\n      dup1\n        /* \"#utility.yul\":3192:3204   */\n      revert\n        /* \"#utility.yul\":3156:3158   */\n    tag_283:\n        /* \"#utility.yul\":3230:3308   */\n      tag_284\n        /* \"#utility.yul\":3300:3307   */\n      dup5\n        /* \"#utility.yul\":3291:3297   */\n      dup3\n        /* \"#utility.yul\":3280:3289   */\n      dup6\n        /* \"#utility.yul\":3276:3298   */\n      add\n        /* \"#utility.yul\":3230:3308   */\n      tag_258\n      jump\t// in\n    tag_284:\n        /* \"#utility.yul\":3220:3308   */\n      swap2\n      pop\n        /* \"#utility.yul\":3083:3318   */\n      pop\n        /* \"#utility.yul\":3011:3325   */\n      swap3\n      swap2\n      pop\n      pop\n      jump\t// out\n        /* \"#utility.yul\":3331:3593   */\n    tag_45:\n      0x00\n        /* \"#utility.yul\":3439:3441   */\n      0x20\n        /* \"#utility.yul\":3427:3436   */\n      dup3\n        /* \"#utility.yul\":3418:3425   */\n      dup5\n        /* \"#utility.yul\":3414:3437   */\n      sub\n        /* \"#utility.yul\":3410:3442   */\n      slt\n        /* \"#utility.yul\":3407:3409   */\n      iszero\n      tag_286\n      jumpi\n        /* \"#utility.yul\":3455:3456   */\n      0x00\n        /* \"#utility.yul\":3452:3453   */\n      dup1\n        /* \"#utility.yul\":3445:3457   */\n      revert\n        /* \"#utility.yul\":3407:3409   */\n    tag_286:\n        /* \"#utility.yul\":3498:3499   */\n      0x00\n        /* \"#utility.yul\":3523:3576   */\n      tag_287\n        /* \"#utility.yul\":3568:3575   */\n      dup5\n        /* \"#utility.yul\":3559:3565   */\n      dup3\n        /* \"#utility.yul\":3548:3557   */\n      dup6\n        /* \"#utility.yul\":3544:3566   */\n      add\n        /* \"#utility.yul\":3523:3576   */\n      tag_253\n      jump\t// in\n    tag_287:\n        /* \"#utility.yul\":3513:3576   */\n      swap2\n      pop\n        /* \"#utility.yul\":3469:3586   */\n      pop\n        /* \"#utility.yul\":3397:3593   */\n      swap3\n      swap2\n      pop\n      pop\n      jump\t// out\n        /* \"#utility.yul\":3599:4006   */\n    tag_53:\n      0x00\n      dup1\n        /* \"#utility.yul\":3724:3726   */\n      0x40\n        /* \"#utility.yul\":3712:3721   */\n      dup4\n        /* \"#utility.yul\":3703:3710   */\n      dup6\n        /* \"#utility.yul\":3699:3722   */\n      sub\n        /* \"#utility.yul\":3695:3727   */\n      slt\n        /* \"#utility.yul\":3692:3694   */\n      iszero\n      tag_289\n      jumpi\n        /* \"#utility.yul\":3740:3741   */\n      0x00\n        /* \"#utility.yul\":3737:3738   */\n      dup1\n        /* \"#utility.yul\":3730:3742   */\n      revert\n        /* \"#utility.yul\":3692:3694   */\n    tag_289:\n        /* \"#utility.yul\":3783:3784   */\n      0x00\n        /* \"#utility.yul\":3808:3861   */\n      tag_290\n        /* \"#utility.yul\":3853:3860   */\n      dup6\n        /* \"#utility.yul\":3844:3850   */\n      dup3\n        /* \"#utility.yul\":3833:3842   */\n      dup7\n        /* \"#utility.yul\":3829:3851   */\n      add\n        /* \"#utility.yul\":3808:3861   */\n      tag_253\n      jump\t// in\n    tag_290:\n        /* \"#utility.yul\":3798:3861   */\n      swap3\n      pop\n        /* \"#utility.yul\":3754:3871   */\n      pop\n        /* \"#utility.yul\":3910:3912   */\n      0x20\n        /* \"#utility.yul\":3936:3989   */\n      tag_291\n        /* \"#utility.yul\":3981:3988   */\n      dup6\n        /* \"#utility.yul\":3972:3978   */\n      dup3\n        /* \"#utility.yul\":3961:3970   */\n      dup7\n        /* \"#utility.yul\":3957:3979   */\n      add\n        /* \"#utility.yul\":3936:3989   */\n      tag_253\n      jump\t// in\n    tag_291:\n        /* \"#utility.yul\":3926:3989   */\n      swap2\n      pop\n        /* \"#utility.yul\":3881:3999   */\n      pop\n        /* \"#utility.yul\":3682:4006   */\n      swap3\n      pop\n      swap3\n      swap1\n      pop\n      jump\t// out\n        /* \"#utility.yul\":4012:4252   */\n    tag_292:\n      0x00\n        /* \"#utility.yul\":4158:4246   */\n      tag_294\n        /* \"#utility.yul\":4242:4245   */\n      dup4\n        /* \"#utility.yul\":4234:4240   */\n      dup4\n        /* \"#utility.yul\":4158:4246   */\n      tag_295\n      jump\t// in\n    tag_294:\n        /* \"#utility.yul\":4144:4246   */\n      swap1\n      pop\n        /* \"#utility.yul\":4134:4252   */\n      swap3\n      swap2\n      pop\n      pop\n      jump\t// out\n        /* \"#utility.yul\":4258:4366   */\n    tag_296:\n        /* \"#utility.yul\":4335:4359   */\n      tag_298\n        /* \"#utility.yul\":4353:4358   */\n      dup2\n        /* \"#utility.yul\":4335:4359   */\n      tag_299\n      jump\t// in\n    tag_298:\n        /* \"#utility.yul\":4330:4333   */\n      dup3\n        /* \"#utility.yul\":4323:4360   */\n      mstore\n        /* \"#utility.yul\":4313:4366   */\n      pop\n      pop\n      jump\t// out\n        /* \"#utility.yul\":4372:4490   */\n    tag_300:\n        /* \"#utility.yul\":4459:4483   */\n      tag_302\n        /* \"#utility.yul\":4477:4482   */\n      dup2\n        /* \"#utility.yul\":4459:4483   */\n      tag_299\n      jump\t// in\n    tag_302:\n        /* \"#utility.yul\":4454:4457   */\n      dup3\n        /* \"#utility.yul\":4447:4484   */\n      mstore\n        /* \"#utility.yul\":4437:4490   */\n      pop\n      pop\n      jump\t// out\n        /* \"#utility.yul\":4558:5637   */\n    tag_303:\n      0x00\n        /* \"#utility.yul\":4748:4823   */\n      tag_305\n        /* \"#utility.yul\":4817:4822   */\n      dup3\n        /* \"#utility.yul\":4748:4823   */\n      tag_306\n      jump\t// in\n    tag_305:\n        /* \"#utility.yul\":4839:4946   */\n      tag_307\n        /* \"#utility.yul\":4939:4945   */\n      dup2\n        /* \"#utility.yul\":4934:4937   */\n      dup6\n        /* \"#utility.yul\":4839:4946   */\n      tag_308\n      jump\t// in\n    tag_307:\n        /* \"#utility.yul\":4832:4946   */\n      swap4\n      pop\n        /* \"#utility.yul\":4972:4975   */\n      dup4\n        /* \"#utility.yul\":5017:5021   */\n      0x20\n        /* \"#utility.yul\":5009:5015   */\n      dup3\n        /* \"#utility.yul\":5005:5022   */\n      mul\n        /* \"#utility.yul\":5000:5003   */\n      dup6\n        /* \"#utility.yul\":4996:5023   */\n      add\n        /* \"#utility.yul\":5047:5124   */\n      tag_309\n        /* \"#utility.yul\":5118:5123   */\n      dup6\n        /* \"#utility.yul\":5047:5124   */\n      tag_310\n      jump\t// in\n    tag_309:\n        /* \"#utility.yul\":5147:5154   */\n      dup1\n        /* \"#utility.yul\":5178:5179   */\n      0x00\n        /* \"#utility.yul\":5163:5592   */\n    tag_311:\n        /* \"#utility.yul\":5188:5194   */\n      dup6\n        /* \"#utility.yul\":5185:5186   */\n      dup2\n        /* \"#utility.yul\":5182:5195   */\n      lt\n        /* \"#utility.yul\":5163:5592   */\n      iszero\n      tag_313\n      jumpi\n        /* \"#utility.yul\":5259:5268   */\n      dup5\n        /* \"#utility.yul\":5253:5257   */\n      dup5\n        /* \"#utility.yul\":5249:5269   */\n      sub\n        /* \"#utility.yul\":5244:5247   */\n      dup10\n        /* \"#utility.yul\":5237:5270   */\n      mstore\n        /* \"#utility.yul\":5310:5316   */\n      dup2\n        /* \"#utility.yul\":5304:5317   */\n      mload\n        /* \"#utility.yul\":5338:5444   */\n      tag_314\n        /* \"#utility.yul\":5439:5443   */\n      dup6\n        /* \"#utility.yul\":5424:5437   */\n      dup3\n        /* \"#utility.yul\":5338:5444   */\n      tag_292\n      jump\t// in\n    tag_314:\n        /* \"#utility.yul\":5330:5444   */\n      swap5\n      pop\n        /* \"#utility.yul\":5467:5548   */\n      tag_315\n        /* \"#utility.yul\":5541:5547   */\n      dup4\n        /* \"#utility.yul\":5467:5548   */\n      tag_316\n      jump\t// in\n    tag_315:\n        /* \"#utility.yul\":5457:5548   */\n      swap3\n      pop\n        /* \"#utility.yul\":5577:5581   */\n      0x20\n        /* \"#utility.yul\":5572:5575   */\n      dup11\n        /* \"#utility.yul\":5568:5582   */\n      add\n        /* \"#utility.yul\":5561:5582   */\n      swap10\n      pop\n        /* \"#utility.yul\":5223:5592   */\n      pop\n        /* \"#utility.yul\":5210:5211   */\n      0x01\n        /* \"#utility.yul\":5207:5208   */\n      dup2\n        /* \"#utility.yul\":5203:5212   */\n      add\n        /* \"#utility.yul\":5198:5212   */\n      swap1\n      pop\n        /* \"#utility.yul\":5163:5592   */\n      jump(tag_311)\n    tag_313:\n        /* \"#utility.yul\":5167:5181   */\n      pop\n        /* \"#utility.yul\":5608:5612   */\n      dup3\n        /* \"#utility.yul\":5601:5612   */\n      swap8\n      pop\n        /* \"#utility.yul\":5628:5631   */\n      dup8\n        /* \"#utility.yul\":5621:5631   */\n      swap6\n      pop\n        /* \"#utility.yul\":4724:5637   */\n      pop\n      pop\n      pop\n      pop\n      pop\n      swap3\n      swap2\n      pop\n      pop\n      jump\t// out\n        /* \"#utility.yul\":5643:5742   */\n    tag_317:\n        /* \"#utility.yul\":5714:5735   */\n      tag_319\n        /* \"#utility.yul\":5729:5734   */\n      dup2\n        /* \"#utility.yul\":5714:5735   */\n      tag_320\n      jump\t// in\n    tag_319:\n        /* \"#utility.yul\":5709:5712   */\n      dup3\n        /* \"#utility.yul\":5702:5736   */\n      mstore\n        /* \"#utility.yul\":5692:5742   */\n      pop\n      pop\n      jump\t// out\n        /* \"#utility.yul\":5748:5857   */\n    tag_321:\n        /* \"#utility.yul\":5829:5850   */\n      tag_323\n        /* \"#utility.yul\":5844:5849   */\n      dup2\n        /* \"#utility.yul\":5829:5850   */\n      tag_320\n      jump\t// in\n    tag_323:\n        /* \"#utility.yul\":5824:5827   */\n      dup3\n        /* \"#utility.yul\":5817:5851   */\n      mstore\n        /* \"#utility.yul\":5807:5857   */\n      pop\n      pop\n      jump\t// out\n        /* \"#utility.yul\":5863:6012   */\n    tag_324:\n        /* \"#utility.yul\":5954:6005   */\n      tag_326\n        /* \"#utility.yul\":5999:6004   */\n      dup2\n        /* \"#utility.yul\":5954:6005   */\n      tag_327\n      jump\t// in\n    tag_326:\n        /* \"#utility.yul\":5949:5952   */\n      dup3\n        /* \"#utility.yul\":5942:6006   */\n      mstore\n        /* \"#utility.yul\":5932:6012   */\n      pop\n      pop\n      jump\t// out\n        /* \"#utility.yul\":6018:6157   */\n    tag_328:\n        /* \"#utility.yul\":6104:6150   */\n      tag_330\n        /* \"#utility.yul\":6144:6149   */\n      dup2\n        /* \"#utility.yul\":6104:6150   */\n      tag_331\n      jump\t// in\n    tag_330:\n        /* \"#utility.yul\":6099:6102   */\n      dup3\n        /* \"#utility.yul\":6092:6151   */\n      mstore\n        /* \"#utility.yul\":6082:6157   */\n      pop\n      pop\n      jump\t// out\n        /* \"#utility.yul\":6163:6507   */\n    tag_332:\n      0x00\n        /* \"#utility.yul\":6269:6308   */\n      tag_334\n        /* \"#utility.yul\":6302:6307   */\n      dup3\n        /* \"#utility.yul\":6269:6308   */\n      tag_335\n      jump\t// in\n    tag_334:\n        /* \"#utility.yul\":6324:6385   */\n      tag_336\n        /* \"#utility.yul\":6378:6384   */\n      dup2\n        /* \"#utility.yul\":6373:6376   */\n      dup6\n        /* \"#utility.yul\":6324:6385   */\n      tag_337\n      jump\t// in\n    tag_336:\n        /* \"#utility.yul\":6317:6385   */\n      swap4\n      pop\n        /* \"#utility.yul\":6394:6446   */\n      tag_338\n        /* \"#utility.yul\":6439:6445   */\n      dup2\n        /* \"#utility.yul\":6434:6437   */\n      dup6\n        /* \"#utility.yul\":6427:6431   */\n      0x20\n        /* \"#utility.yul\":6420:6425   */\n      dup7\n        /* \"#utility.yul\":6416:6432   */\n      add\n        /* \"#utility.yul\":6394:6446   */\n      tag_339\n      jump\t// in\n    tag_338:\n        /* \"#utility.yul\":6471:6500   */\n      tag_340\n        /* \"#utility.yul\":6493:6499   */\n      dup2\n        /* \"#utility.yul\":6471:6500   */\n      tag_341\n      jump\t// in\n    tag_340:\n        /* \"#utility.yul\":6466:6469   */\n      dup5\n        /* \"#utility.yul\":6462:6501   */\n      add\n        /* \"#utility.yul\":6455:6501   */\n      swap2\n      pop\n        /* \"#utility.yul\":6245:6507   */\n      pop\n      swap3\n      swap2\n      pop\n      pop\n      jump\t// out\n        /* \"#utility.yul\":6513:6877   */\n    tag_342:\n      0x00\n        /* \"#utility.yul\":6629:6668   */\n      tag_344\n        /* \"#utility.yul\":6662:6667   */\n      dup3\n        /* \"#utility.yul\":6629:6668   */\n      tag_335\n      jump\t// in\n    tag_344:\n        /* \"#utility.yul\":6684:6755   */\n      tag_345\n        /* \"#utility.yul\":6748:6754   */\n      dup2\n        /* \"#utility.yul\":6743:6746   */\n      dup6\n        /* \"#utility.yul\":6684:6755   */\n      tag_346\n      jump\t// in\n    tag_345:\n        /* \"#utility.yul\":6677:6755   */\n      swap4\n      pop\n        /* \"#utility.yul\":6764:6816   */\n      tag_347\n        /* \"#utility.yul\":6809:6815   */\n      dup2\n        /* \"#utility.yul\":6804:6807   */\n      dup6\n        /* \"#utility.yul\":6797:6801   */\n      0x20\n        /* \"#utility.yul\":6790:6795   */\n      dup7\n        /* \"#utility.yul\":6786:6802   */\n      add\n        /* \"#utility.yul\":6764:6816   */\n      tag_339\n      jump\t// in\n    tag_347:\n        /* \"#utility.yul\":6841:6870   */\n      tag_348\n        /* \"#utility.yul\":6863:6869   */\n      dup2\n        /* \"#utility.yul\":6841:6870   */\n      tag_341\n      jump\t// in\n    tag_348:\n        /* \"#utility.yul\":6836:6839   */\n      dup5\n        /* \"#utility.yul\":6832:6871   */\n      add\n        /* \"#utility.yul\":6825:6871   */\n      swap2\n      pop\n        /* \"#utility.yul\":6605:6877   */\n      pop\n      swap3\n      swap2\n      pop\n      pop\n      jump\t// out\n        /* \"#utility.yul\":6883:7207   */\n    tag_349:\n      0x00\n        /* \"#utility.yul\":7046:7113   */\n      tag_351\n        /* \"#utility.yul\":7110:7112   */\n      0x1a\n        /* \"#utility.yul\":7105:7108   */\n      dup4\n        /* \"#utility.yul\":7046:7113   */\n      tag_346\n      jump\t// in\n    tag_351:\n        /* \"#utility.yul\":7039:7113   */\n      swap2\n      pop\n        /* \"#utility.yul\":7143:7171   */\n      0x4e6f7420656e6f7567682062616c616e636520746f2062696421000000000000\n        /* \"#utility.yul\":7139:7140   */\n      0x00\n        /* \"#utility.yul\":7134:7137   */\n      dup4\n        /* \"#utility.yul\":7130:7141   */\n      add\n        /* \"#utility.yul\":7123:7172   */\n      mstore\n        /* \"#utility.yul\":7198:7200   */\n      0x20\n        /* \"#utility.yul\":7193:7196   */\n      dup3\n        /* \"#utility.yul\":7189:7201   */\n      add\n        /* \"#utility.yul\":7182:7201   */\n      swap1\n      pop\n        /* \"#utility.yul\":7029:7207   */\n      swap2\n      swap1\n      pop\n      jump\t// out\n        /* \"#utility.yul\":7213:7585   */\n    tag_352:\n      0x00\n        /* \"#utility.yul\":7376:7443   */\n      tag_354\n        /* \"#utility.yul\":7440:7442   */\n      0x28\n        /* \"#utility.yul\":7435:7438   */\n      dup4\n        /* \"#utility.yul\":7376:7443   */\n      tag_346\n      jump\t// in\n    tag_354:\n        /* \"#utility.yul\":7369:7443   */\n      swap2\n      pop\n        /* \"#utility.yul\":7473:7507   */\n      0x447269766572732063616e6e6f742062696420696e207468656972206f776e20\n        /* \"#utility.yul\":7469:7470   */\n      0x00\n        /* \"#utility.yul\":7464:7467   */\n      dup4\n        /* \"#utility.yul\":7460:7471   */\n      add\n        /* \"#utility.yul\":7453:7508   */\n      mstore\n        /* \"#utility.yul\":7539:7549   */\n      0x61756374696f6e21000000000000000000000000000000000000000000000000\n        /* \"#utility.yul\":7534:7536   */\n      0x20\n        /* \"#utility.yul\":7529:7532   */\n      dup4\n        /* \"#utility.yul\":7525:7537   */\n      add\n        /* \"#utility.yul\":7518:7550   */\n      mstore\n        /* \"#utility.yul\":7576:7578   */\n      0x40\n        /* \"#utility.yul\":7571:7574   */\n      dup3\n        /* \"#utility.yul\":7567:7579   */\n      add\n        /* \"#utility.yul\":7560:7579   */\n      swap1\n      pop\n        /* \"#utility.yul\":7359:7585   */\n      swap2\n      swap1\n      pop\n      jump\t// out\n        /* \"#utility.yul\":7591:7961   */\n    tag_355:\n      0x00\n        /* \"#utility.yul\":7754:7821   */\n      tag_357\n        /* \"#utility.yul\":7818:7820   */\n      0x26\n        /* \"#utility.yul\":7813:7816   */\n      dup4\n        /* \"#utility.yul\":7754:7821   */\n      tag_346\n      jump\t// in\n    tag_357:\n        /* \"#utility.yul\":7747:7821   */\n      swap2\n      pop\n        /* \"#utility.yul\":7851:7885   */\n      0x4f776e61626c653a206e6577206f776e657220697320746865207a65726f2061\n        /* \"#utility.yul\":7847:7848   */\n      0x00\n        /* \"#utility.yul\":7842:7845   */\n      dup4\n        /* \"#utility.yul\":7838:7849   */\n      add\n        /* \"#utility.yul\":7831:7886   */\n      mstore\n        /* \"#utility.yul\":7917:7925   */\n      0x6464726573730000000000000000000000000000000000000000000000000000\n        /* \"#utility.yul\":7912:7914   */\n      0x20\n        /* \"#utility.yul\":7907:7910   */\n      dup4\n        /* \"#utility.yul\":7903:7915   */\n      add\n        /* \"#utility.yul\":7896:7926   */\n      mstore\n        /* \"#utility.yul\":7952:7954   */\n      0x40\n        /* \"#utility.yul\":7947:7950   */\n      dup3\n        /* \"#utility.yul\":7943:7955   */\n      add\n        /* \"#utility.yul\":7936:7955   */\n      swap1\n      pop\n        /* \"#utility.yul\":7737:7961   */\n      swap2\n      swap1\n      pop\n      jump\t// out\n        /* \"#utility.yul\":7967:8294   */\n    tag_358:\n      0x00\n        /* \"#utility.yul\":8130:8197   */\n      tag_360\n        /* \"#utility.yul\":8194:8196   */\n      0x1d\n        /* \"#utility.yul\":8189:8192   */\n      dup4\n        /* \"#utility.yul\":8130:8197   */\n      tag_346\n      jump\t// in\n    tag_360:\n        /* \"#utility.yul\":8123:8197   */\n      swap2\n      pop\n        /* \"#utility.yul\":8227:8258   */\n      0x41756374696f6e2068617320616c72656164792066696e697368656421000000\n        /* \"#utility.yul\":8223:8224   */\n      0x00\n        /* \"#utility.yul\":8218:8221   */\n      dup4\n        /* \"#utility.yul\":8214:8225   */\n      add\n        /* \"#utility.yul\":8207:8259   */\n      mstore\n        /* \"#utility.yul\":8285:8287   */\n      0x20\n        /* \"#utility.yul\":8280:8283   */\n      dup3\n        /* \"#utility.yul\":8276:8288   */\n      add\n        /* \"#utility.yul\":8269:8288   */\n      swap1\n      pop\n        /* \"#utility.yul\":8113:8294   */\n      swap2\n      swap1\n      pop\n      jump\t// out\n        /* \"#utility.yul\":8300:8667   */\n    tag_361:\n      0x00\n        /* \"#utility.yul\":8463:8530   */\n      tag_363\n        /* \"#utility.yul\":8527:8529   */\n      0x23\n        /* \"#utility.yul\":8522:8525   */\n      dup4\n        /* \"#utility.yul\":8463:8530   */\n      tag_346\n      jump\t// in\n    tag_363:\n        /* \"#utility.yul\":8456:8530   */\n      swap2\n      pop\n        /* \"#utility.yul\":8560:8594   */\n      0x4f6e6c7920447269766572732063616e20737461727420746865206175637469\n        /* \"#utility.yul\":8556:8557   */\n      0x00\n        /* \"#utility.yul\":8551:8554   */\n      dup4\n        /* \"#utility.yul\":8547:8558   */\n      add\n        /* \"#utility.yul\":8540:8595   */\n      mstore\n        /* \"#utility.yul\":8626:8631   */\n      0x6f6e210000000000000000000000000000000000000000000000000000000000\n        /* \"#utility.yul\":8621:8623   */\n      0x20\n        /* \"#utility.yul\":8616:8619   */\n      dup4\n        /* \"#utility.yul\":8612:8624   */\n      add\n        /* \"#utility.yul\":8605:8632   */\n      mstore\n        /* \"#utility.yul\":8658:8660   */\n      0x40\n        /* \"#utility.yul\":8653:8656   */\n      dup3\n        /* \"#utility.yul\":8649:8661   */\n      add\n        /* \"#utility.yul\":8642:8661   */\n      swap1\n      pop\n        /* \"#utility.yul\":8446:8667   */\n      swap2\n      swap1\n      pop\n      jump\t// out\n        /* \"#utility.yul\":8673:9040   */\n    tag_364:\n      0x00\n        /* \"#utility.yul\":8836:8903   */\n      tag_366\n        /* \"#utility.yul\":8900:8902   */\n      0x23\n        /* \"#utility.yul\":8895:8898   */\n      dup4\n        /* \"#utility.yul\":8836:8903   */\n      tag_346\n      jump\t// in\n    tag_366:\n        /* \"#utility.yul\":8829:8903   */\n      swap2\n      pop\n        /* \"#utility.yul\":8933:8967   */\n      0x41756374696f6e2068617320616c72656164792073746172746564206265666f\n        /* \"#utility.yul\":8929:8930   */\n      0x00\n        /* \"#utility.yul\":8924:8927   */\n      dup4\n        /* \"#utility.yul\":8920:8931   */\n      add\n        /* \"#utility.yul\":8913:8968   */\n      mstore\n        /* \"#utility.yul\":8999:9004   */\n      0x7265210000000000000000000000000000000000000000000000000000000000\n        /* \"#utility.yul\":8994:8996   */\n      0x20\n        /* \"#utility.yul\":8989:8992   */\n      dup4\n        /* \"#utility.yul\":8985:8997   */\n      add\n        /* \"#utility.yul\":8978:9005   */\n      mstore\n        /* \"#utility.yul\":9031:9033   */\n      0x40\n        /* \"#utility.yul\":9026:9029   */\n      dup3\n        /* \"#utility.yul\":9022:9034   */\n      add\n        /* \"#utility.yul\":9015:9034   */\n      swap1\n      pop\n        /* \"#utility.yul\":8819:9040   */\n      swap2\n      swap1\n      pop\n      jump\t// out\n        /* \"#utility.yul\":9046:9376   */\n    tag_367:\n      0x00\n        /* \"#utility.yul\":9209:9276   */\n      tag_369\n        /* \"#utility.yul\":9273:9275   */\n      0x20\n        /* \"#utility.yul\":9268:9271   */\n      dup4\n        /* \"#utility.yul\":9209:9276   */\n      tag_346\n      jump\t// in\n    tag_369:\n        /* \"#utility.yul\":9202:9276   */\n      swap2\n      pop\n        /* \"#utility.yul\":9306:9340   */\n      0x4f776e61626c653a2063616c6c6572206973206e6f7420746865206f776e6572\n        /* \"#utility.yul\":9302:9303   */\n      0x00\n        /* \"#utility.yul\":9297:9300   */\n      dup4\n        /* \"#utility.yul\":9293:9304   */\n      add\n        /* \"#utility.yul\":9286:9341   */\n      mstore\n        /* \"#utility.yul\":9367:9369   */\n      0x20\n        /* \"#utility.yul\":9362:9365   */\n      dup3\n        /* \"#utility.yul\":9358:9370   */\n      add\n        /* \"#utility.yul\":9351:9370   */\n      swap1\n      pop\n        /* \"#utility.yul\":9192:9376   */\n      swap2\n      swap1\n      pop\n      jump\t// out\n        /* \"#utility.yul\":9382:9758   */\n    tag_370:\n      0x00\n        /* \"#utility.yul\":9545:9612   */\n      tag_372\n        /* \"#utility.yul\":9609:9611   */\n      0x2c\n        /* \"#utility.yul\":9604:9607   */\n      dup4\n        /* \"#utility.yul\":9545:9612   */\n      tag_346\n      jump\t// in\n    tag_372:\n        /* \"#utility.yul\":9538:9612   */\n      swap2\n      pop\n        /* \"#utility.yul\":9642:9676   */\n      0x42696420686967686572207468616e207468652070726576696f757320686967\n        /* \"#utility.yul\":9638:9639   */\n      0x00\n        /* \"#utility.yul\":9633:9636   */\n      dup4\n        /* \"#utility.yul\":9629:9640   */\n      add\n        /* \"#utility.yul\":9622:9677   */\n      mstore\n        /* \"#utility.yul\":9708:9722   */\n      0x6865737420626964646572210000000000000000000000000000000000000000\n        /* \"#utility.yul\":9703:9705   */\n      0x20\n        /* \"#utility.yul\":9698:9701   */\n      dup4\n        /* \"#utility.yul\":9694:9706   */\n      add\n        /* \"#utility.yul\":9687:9723   */\n      mstore\n        /* \"#utility.yul\":9749:9751   */\n      0x40\n        /* \"#utility.yul\":9744:9747   */\n      dup3\n        /* \"#utility.yul\":9740:9752   */\n      add\n        /* \"#utility.yul\":9733:9752   */\n      swap1\n      pop\n        /* \"#utility.yul\":9528:9758   */\n      swap2\n      swap1\n      pop\n      jump\t// out\n        /* \"#utility.yul\":9822:11745   */\n    tag_295:\n      0x00\n        /* \"#utility.yul\":9959:9965   */\n      0x01a0\n        /* \"#utility.yul\":9954:9957   */\n      dup4\n        /* \"#utility.yul\":9950:9966   */\n      add\n        /* \"#utility.yul\":10046:10050   */\n      0x00\n        /* \"#utility.yul\":10039:10044   */\n      dup4\n        /* \"#utility.yul\":10035:10051   */\n      add\n        /* \"#utility.yul\":10029:10052   */\n      mload\n        /* \"#utility.yul\":10065:10128   */\n      tag_374\n        /* \"#utility.yul\":10122:10126   */\n      0x00\n        /* \"#utility.yul\":10117:10120   */\n      dup7\n        /* \"#utility.yul\":10113:10127   */\n      add\n        /* \"#utility.yul\":10099:10111   */\n      dup3\n        /* \"#utility.yul\":10065:10128   */\n      tag_375\n      jump\t// in\n    tag_374:\n        /* \"#utility.yul\":9976:10138   */\n      pop\n        /* \"#utility.yul\":10232:10236   */\n      0x20\n        /* \"#utility.yul\":10225:10230   */\n      dup4\n        /* \"#utility.yul\":10221:10237   */\n      add\n        /* \"#utility.yul\":10215:10238   */\n      mload\n        /* \"#utility.yul\":10251:10314   */\n      tag_376\n        /* \"#utility.yul\":10308:10312   */\n      0x20\n        /* \"#utility.yul\":10303:10306   */\n      dup7\n        /* \"#utility.yul\":10299:10313   */\n      add\n        /* \"#utility.yul\":10285:10297   */\n      dup3\n        /* \"#utility.yul\":10251:10314   */\n      tag_375\n      jump\t// in\n    tag_376:\n        /* \"#utility.yul\":10148:10324   */\n      pop\n        /* \"#utility.yul\":10407:10411   */\n      0x40\n        /* \"#utility.yul\":10400:10405   */\n      dup4\n        /* \"#utility.yul\":10396:10412   */\n      add\n        /* \"#utility.yul\":10390:10413   */\n      mload\n        /* \"#utility.yul\":10426:10533   */\n      tag_377\n        /* \"#utility.yul\":10527:10531   */\n      0x40\n        /* \"#utility.yul\":10522:10525   */\n      dup7\n        /* \"#utility.yul\":10518:10532   */\n      add\n        /* \"#utility.yul\":10504:10516   */\n      dup3\n        /* \"#utility.yul\":10426:10533   */\n      tag_378\n      jump\t// in\n    tag_377:\n        /* \"#utility.yul\":10334:10543   */\n      pop\n        /* \"#utility.yul\":10627:10631   */\n      0x60\n        /* \"#utility.yul\":10620:10625   */\n      dup4\n        /* \"#utility.yul\":10616:10632   */\n      add\n        /* \"#utility.yul\":10610:10633   */\n      mload\n        /* \"#utility.yul\":10646:10755   */\n      tag_379\n        /* \"#utility.yul\":10749:10753   */\n      0x80\n        /* \"#utility.yul\":10744:10747   */\n      dup7\n        /* \"#utility.yul\":10740:10754   */\n      add\n        /* \"#utility.yul\":10726:10738   */\n      dup3\n        /* \"#utility.yul\":10646:10755   */\n      tag_380\n      jump\t// in\n    tag_379:\n        /* \"#utility.yul\":10553:10765   */\n      pop\n        /* \"#utility.yul\":10847:10851   */\n      0x80\n        /* \"#utility.yul\":10840:10845   */\n      dup4\n        /* \"#utility.yul\":10836:10852   */\n      add\n        /* \"#utility.yul\":10830:10853   */\n      mload\n        /* \"#utility.yul\":10902:10905   */\n      dup5\n        /* \"#utility.yul\":10896:10900   */\n      dup3\n        /* \"#utility.yul\":10892:10906   */\n      sub\n        /* \"#utility.yul\":10883:10889   */\n      0x0120\n        /* \"#utility.yul\":10878:10881   */\n      dup7\n        /* \"#utility.yul\":10874:10890   */\n      add\n        /* \"#utility.yul\":10867:10907   */\n      mstore\n        /* \"#utility.yul\":10928:11039   */\n      tag_381\n        /* \"#utility.yul\":11034:11038   */\n      dup3\n        /* \"#utility.yul\":11020:11032   */\n      dup3\n        /* \"#utility.yul\":10928:11039   */\n      tag_382\n      jump\t// in\n    tag_381:\n        /* \"#utility.yul\":10920:11039   */\n      swap2\n      pop\n        /* \"#utility.yul\":10775:11050   */\n      pop\n        /* \"#utility.yul\":11135:11139   */\n      0xa0\n        /* \"#utility.yul\":11128:11133   */\n      dup4\n        /* \"#utility.yul\":11124:11140   */\n      add\n        /* \"#utility.yul\":11118:11141   */\n      mload\n        /* \"#utility.yul\":11190:11193   */\n      dup5\n        /* \"#utility.yul\":11184:11188   */\n      dup3\n        /* \"#utility.yul\":11180:11194   */\n      sub\n        /* \"#utility.yul\":11171:11177   */\n      0x0140\n        /* \"#utility.yul\":11166:11169   */\n      dup7\n        /* \"#utility.yul\":11162:11178   */\n      add\n        /* \"#utility.yul\":11155:11195   */\n      mstore\n        /* \"#utility.yul\":11216:11327   */\n      tag_383\n        /* \"#utility.yul\":11322:11326   */\n      dup3\n        /* \"#utility.yul\":11308:11320   */\n      dup3\n        /* \"#utility.yul\":11216:11327   */\n      tag_384\n      jump\t// in\n    tag_383:\n        /* \"#utility.yul\":11208:11327   */\n      swap2\n      pop\n        /* \"#utility.yul\":11060:11338   */\n      pop\n        /* \"#utility.yul\":11429:11433   */\n      0xc0\n        /* \"#utility.yul\":11422:11427   */\n      dup4\n        /* \"#utility.yul\":11418:11434   */\n      add\n        /* \"#utility.yul\":11412:11435   */\n      mload\n        /* \"#utility.yul\":11448:11513   */\n      tag_385\n        /* \"#utility.yul\":11505:11511   */\n      0x0160\n        /* \"#utility.yul\":11500:11503   */\n      dup7\n        /* \"#utility.yul\":11496:11512   */\n      add\n        /* \"#utility.yul\":11482:11494   */\n      dup3\n        /* \"#utility.yul\":11448:11513   */\n      tag_375\n      jump\t// in\n    tag_385:\n        /* \"#utility.yul\":11348:11523   */\n      pop\n        /* \"#utility.yul\":11624:11628   */\n      0xe0\n        /* \"#utility.yul\":11617:11622   */\n      dup4\n        /* \"#utility.yul\":11613:11629   */\n      add\n        /* \"#utility.yul\":11607:11630   */\n      mload\n        /* \"#utility.yul\":11643:11708   */\n      tag_386\n        /* \"#utility.yul\":11700:11706   */\n      0x0180\n        /* \"#utility.yul\":11695:11698   */\n      dup7\n        /* \"#utility.yul\":11691:11707   */\n      add\n        /* \"#utility.yul\":11677:11689   */\n      dup3\n        /* \"#utility.yul\":11643:11708   */\n      tag_375\n      jump\t// in\n    tag_386:\n        /* \"#utility.yul\":11533:11718   */\n      pop\n        /* \"#utility.yul\":11735:11739   */\n      dup1\n        /* \"#utility.yul\":11728:11739   */\n      swap2\n      pop\n        /* \"#utility.yul\":9928:11745   */\n      pop\n      swap3\n      swap2\n      pop\n      pop\n      jump\t// out\n        /* \"#utility.yul\":11809:13742   */\n    tag_387:\n      0x00\n        /* \"#utility.yul\":11956:11962   */\n      0x01a0\n        /* \"#utility.yul\":11951:11954   */\n      dup4\n        /* \"#utility.yul\":11947:11963   */\n      add\n        /* \"#utility.yul\":12043:12047   */\n      0x00\n        /* \"#utility.yul\":12036:12041   */\n      dup4\n        /* \"#utility.yul\":12032:12048   */\n      add\n        /* \"#utility.yul\":12026:12049   */\n      mload\n        /* \"#utility.yul\":12062:12125   */\n      tag_389\n        /* \"#utility.yul\":12119:12123   */\n      0x00\n        /* \"#utility.yul\":12114:12117   */\n      dup7\n        /* \"#utility.yul\":12110:12124   */\n      add\n        /* \"#utility.yul\":12096:12108   */\n      dup3\n        /* \"#utility.yul\":12062:12125   */\n      tag_375\n      jump\t// in\n    tag_389:\n        /* \"#utility.yul\":11973:12135   */\n      pop\n        /* \"#utility.yul\":12229:12233   */\n      0x20\n        /* \"#utility.yul\":12222:12227   */\n      dup4\n        /* \"#utility.yul\":12218:12234   */\n      add\n        /* \"#utility.yul\":12212:12235   */\n      mload\n        /* \"#utility.yul\":12248:12311   */\n      tag_390\n        /* \"#utility.yul\":12305:12309   */\n      0x20\n        /* \"#utility.yul\":12300:12303   */\n      dup7\n        /* \"#utility.yul\":12296:12310   */\n      add\n        /* \"#utility.yul\":12282:12294   */\n      dup3\n        /* \"#utility.yul\":12248:12311   */\n      tag_375\n      jump\t// in\n    tag_390:\n        /* \"#utility.yul\":12145:12321   */\n      pop\n        /* \"#utility.yul\":12404:12408   */\n      0x40\n        /* \"#utility.yul\":12397:12402   */\n      dup4\n        /* \"#utility.yul\":12393:12409   */\n      add\n        /* \"#utility.yul\":12387:12410   */\n      mload\n        /* \"#utility.yul\":12423:12530   */\n      tag_391\n        /* \"#utility.yul\":12524:12528   */\n      0x40\n        /* \"#utility.yul\":12519:12522   */\n      dup7\n        /* \"#utility.yul\":12515:12529   */\n      add\n        /* \"#utility.yul\":12501:12513   */\n      dup3\n        /* \"#utility.yul\":12423:12530   */\n      tag_378\n      jump\t// in\n    tag_391:\n        /* \"#utility.yul\":12331:12540   */\n      pop\n        /* \"#utility.yul\":12624:12628   */\n      0x60\n        /* \"#utility.yul\":12617:12622   */\n      dup4\n        /* \"#utility.yul\":12613:12629   */\n      add\n        /* \"#utility.yul\":12607:12630   */\n      mload\n        /* \"#utility.yul\":12643:12752   */\n      tag_392\n        /* \"#utility.yul\":12746:12750   */\n      0x80\n        /* \"#utility.yul\":12741:12744   */\n      dup7\n        /* \"#utility.yul\":12737:12751   */\n      add\n        /* \"#utility.yul\":12723:12735   */\n      dup3\n        /* \"#utility.yul\":12643:12752   */\n      tag_380\n      jump\t// in\n    tag_392:\n        /* \"#utility.yul\":12550:12762   */\n      pop\n        /* \"#utility.yul\":12844:12848   */\n      0x80\n        /* \"#utility.yul\":12837:12842   */\n      dup4\n        /* \"#utility.yul\":12833:12849   */\n      add\n        /* \"#utility.yul\":12827:12850   */\n      mload\n        /* \"#utility.yul\":12899:12902   */\n      dup5\n        /* \"#utility.yul\":12893:12897   */\n      dup3\n        /* \"#utility.yul\":12889:12903   */\n      sub\n        /* \"#utility.yul\":12880:12886   */\n      0x0120\n        /* \"#utility.yul\":12875:12878   */\n      dup7\n        /* \"#utility.yul\":12871:12887   */\n      add\n        /* \"#utility.yul\":12864:12904   */\n      mstore\n        /* \"#utility.yul\":12925:13036   */\n      tag_393\n        /* \"#utility.yul\":13031:13035   */\n      dup3\n        /* \"#utility.yul\":13017:13029   */\n      dup3\n        /* \"#utility.yul\":12925:13036   */\n      tag_382\n      jump\t// in\n    tag_393:\n        /* \"#utility.yul\":12917:13036   */\n      swap2\n      pop\n        /* \"#utility.yul\":12772:13047   */\n      pop\n        /* \"#utility.yul\":13132:13136   */\n      0xa0\n        /* \"#utility.yul\":13125:13130   */\n      dup4\n        /* \"#utility.yul\":13121:13137   */\n      add\n        /* \"#utility.yul\":13115:13138   */\n      mload\n        /* \"#utility.yul\":13187:13190   */\n      dup5\n        /* \"#utility.yul\":13181:13185   */\n      dup3\n        /* \"#utility.yul\":13177:13191   */\n      sub\n        /* \"#utility.yul\":13168:13174   */\n      0x0140\n        /* \"#utility.yul\":13163:13166   */\n      dup7\n        /* \"#utility.yul\":13159:13175   */\n      add\n        /* \"#utility.yul\":13152:13192   */\n      mstore\n        /* \"#utility.yul\":13213:13324   */\n      tag_394\n        /* \"#utility.yul\":13319:13323   */\n      dup3\n        /* \"#utility.yul\":13305:13317   */\n      dup3\n        /* \"#utility.yul\":13213:13324   */\n      tag_384\n      jump\t// in\n    tag_394:\n        /* \"#utility.yul\":13205:13324   */\n      swap2\n      pop\n        /* \"#utility.yul\":13057:13335   */\n      pop\n        /* \"#utility.yul\":13426:13430   */\n      0xc0\n        /* \"#utility.yul\":13419:13424   */\n      dup4\n        /* \"#utility.yul\":13415:13431   */\n      add\n        /* \"#utility.yul\":13409:13432   */\n      mload\n        /* \"#utility.yul\":13445:13510   */\n      tag_395\n        /* \"#utility.yul\":13502:13508   */\n      0x0160\n        /* \"#utility.yul\":13497:13500   */\n      dup7\n        /* \"#utility.yul\":13493:13509   */\n      add\n        /* \"#utility.yul\":13479:13491   */\n      dup3\n        /* \"#utility.yul\":13445:13510   */\n      tag_375\n      jump\t// in\n    tag_395:\n        /* \"#utility.yul\":13345:13520   */\n      pop\n        /* \"#utility.yul\":13621:13625   */\n      0xe0\n        /* \"#utility.yul\":13614:13619   */\n      dup4\n        /* \"#utility.yul\":13610:13626   */\n      add\n        /* \"#utility.yul\":13604:13627   */\n      mload\n        /* \"#utility.yul\":13640:13705   */\n      tag_396\n        /* \"#utility.yul\":13697:13703   */\n      0x0180\n        /* \"#utility.yul\":13692:13695   */\n      dup7\n        /* \"#utility.yul\":13688:13704   */\n      add\n        /* \"#utility.yul\":13674:13686   */\n      dup3\n        /* \"#utility.yul\":13640:13705   */\n      tag_375\n      jump\t// in\n    tag_396:\n        /* \"#utility.yul\":13530:13715   */\n      pop\n        /* \"#utility.yul\":13732:13736   */\n      dup1\n        /* \"#utility.yul\":13725:13736   */\n      swap2\n      pop\n        /* \"#utility.yul\":11925:13742   */\n      pop\n      swap3\n      swap2\n      pop\n      pop\n      jump\t// out\n        /* \"#utility.yul\":13822:14859   */\n    tag_382:\n      0x00\n        /* \"#utility.yul\":13975:13979   */\n      0x80\n        /* \"#utility.yul\":13970:13973   */\n      dup4\n        /* \"#utility.yul\":13966:13980   */\n      add\n        /* \"#utility.yul\":14064:14068   */\n      0x00\n        /* \"#utility.yul\":14057:14062   */\n      dup4\n        /* \"#utility.yul\":14053:14069   */\n      add\n        /* \"#utility.yul\":14047:14070   */\n      mload\n        /* \"#utility.yul\":14117:14120   */\n      dup5\n        /* \"#utility.yul\":14111:14115   */\n      dup3\n        /* \"#utility.yul\":14107:14121   */\n      sub\n        /* \"#utility.yul\":14100:14104   */\n      0x00\n        /* \"#utility.yul\":14095:14098   */\n      dup7\n        /* \"#utility.yul\":14091:14105   */\n      add\n        /* \"#utility.yul\":14084:14122   */\n      mstore\n        /* \"#utility.yul\":14143:14216   */\n      tag_398\n        /* \"#utility.yul\":14211:14215   */\n      dup3\n        /* \"#utility.yul\":14197:14209   */\n      dup3\n        /* \"#utility.yul\":14143:14216   */\n      tag_332\n      jump\t// in\n    tag_398:\n        /* \"#utility.yul\":14135:14216   */\n      swap2\n      pop\n        /* \"#utility.yul\":13990:14227   */\n      pop\n        /* \"#utility.yul\":14316:14320   */\n      0x20\n        /* \"#utility.yul\":14309:14314   */\n      dup4\n        /* \"#utility.yul\":14305:14321   */\n      add\n        /* \"#utility.yul\":14299:14322   */\n      mload\n        /* \"#utility.yul\":14369:14372   */\n      dup5\n        /* \"#utility.yul\":14363:14367   */\n      dup3\n        /* \"#utility.yul\":14359:14373   */\n      sub\n        /* \"#utility.yul\":14352:14356   */\n      0x20\n        /* \"#utility.yul\":14347:14350   */\n      dup7\n        /* \"#utility.yul\":14343:14357   */\n      add\n        /* \"#utility.yul\":14336:14374   */\n      mstore\n        /* \"#utility.yul\":14395:14468   */\n      tag_399\n        /* \"#utility.yul\":14463:14467   */\n      dup3\n        /* \"#utility.yul\":14449:14461   */\n      dup3\n        /* \"#utility.yul\":14395:14468   */\n      tag_332\n      jump\t// in\n    tag_399:\n        /* \"#utility.yul\":14387:14468   */\n      swap2\n      pop\n        /* \"#utility.yul\":14237:14479   */\n      pop\n        /* \"#utility.yul\":14565:14569   */\n      0x40\n        /* \"#utility.yul\":14558:14563   */\n      dup4\n        /* \"#utility.yul\":14554:14570   */\n      add\n        /* \"#utility.yul\":14548:14571   */\n      mload\n        /* \"#utility.yul\":14584:14647   */\n      tag_400\n        /* \"#utility.yul\":14641:14645   */\n      0x40\n        /* \"#utility.yul\":14636:14639   */\n      dup7\n        /* \"#utility.yul\":14632:14646   */\n      add\n        /* \"#utility.yul\":14618:14630   */\n      dup3\n        /* \"#utility.yul\":14584:14647   */\n      tag_375\n      jump\t// in\n    tag_400:\n        /* \"#utility.yul\":14489:14657   */\n      pop\n        /* \"#utility.yul\":14740:14744   */\n      0x60\n        /* \"#utility.yul\":14733:14738   */\n      dup4\n        /* \"#utility.yul\":14729:14745   */\n      add\n        /* \"#utility.yul\":14723:14746   */\n      mload\n        /* \"#utility.yul\":14759:14822   */\n      tag_401\n        /* \"#utility.yul\":14816:14820   */\n      0x60\n        /* \"#utility.yul\":14811:14814   */\n      dup7\n        /* \"#utility.yul\":14807:14821   */\n      add\n        /* \"#utility.yul\":14793:14805   */\n      dup3\n        /* \"#utility.yul\":14759:14822   */\n      tag_375\n      jump\t// in\n    tag_401:\n        /* \"#utility.yul\":14667:14832   */\n      pop\n        /* \"#utility.yul\":14849:14853   */\n      dup1\n        /* \"#utility.yul\":14842:14853   */\n      swap2\n      pop\n        /* \"#utility.yul\":13944:14859   */\n      pop\n      swap3\n      swap2\n      pop\n      pop\n      jump\t// out\n        /* \"#utility.yul\":14927:15969   */\n    tag_380:\n        /* \"#utility.yul\":15060:15064   */\n      0xa0\n        /* \"#utility.yul\":15055:15058   */\n      dup3\n        /* \"#utility.yul\":15051:15065   */\n      add\n        /* \"#utility.yul\":15154:15158   */\n      0x00\n        /* \"#utility.yul\":15147:15152   */\n      dup3\n        /* \"#utility.yul\":15143:15159   */\n      add\n        /* \"#utility.yul\":15137:15160   */\n      mload\n        /* \"#utility.yul\":15173:15230   */\n      tag_403\n        /* \"#utility.yul\":15224:15228   */\n      0x00\n        /* \"#utility.yul\":15219:15222   */\n      dup6\n        /* \"#utility.yul\":15215:15229   */\n      add\n        /* \"#utility.yul\":15201:15213   */\n      dup3\n        /* \"#utility.yul\":15173:15230   */\n      tag_317\n      jump\t// in\n    tag_403:\n        /* \"#utility.yul\":15075:15240   */\n      pop\n        /* \"#utility.yul\":15328:15332   */\n      0x20\n        /* \"#utility.yul\":15321:15326   */\n      dup3\n        /* \"#utility.yul\":15317:15333   */\n      add\n        /* \"#utility.yul\":15311:15334   */\n      mload\n        /* \"#utility.yul\":15347:15404   */\n      tag_404\n        /* \"#utility.yul\":15398:15402   */\n      0x20\n        /* \"#utility.yul\":15393:15396   */\n      dup6\n        /* \"#utility.yul\":15389:15403   */\n      add\n        /* \"#utility.yul\":15375:15387   */\n      dup3\n        /* \"#utility.yul\":15347:15404   */\n      tag_317\n      jump\t// in\n    tag_404:\n        /* \"#utility.yul\":15250:15414   */\n      pop\n        /* \"#utility.yul\":15503:15507   */\n      0x40\n        /* \"#utility.yul\":15496:15501   */\n      dup3\n        /* \"#utility.yul\":15492:15508   */\n      add\n        /* \"#utility.yul\":15486:15509   */\n      mload\n        /* \"#utility.yul\":15522:15579   */\n      tag_405\n        /* \"#utility.yul\":15573:15577   */\n      0x40\n        /* \"#utility.yul\":15568:15571   */\n      dup6\n        /* \"#utility.yul\":15564:15578   */\n      add\n        /* \"#utility.yul\":15550:15562   */\n      dup3\n        /* \"#utility.yul\":15522:15579   */\n      tag_317\n      jump\t// in\n    tag_405:\n        /* \"#utility.yul\":15424:15589   */\n      pop\n        /* \"#utility.yul\":15683:15687   */\n      0x60\n        /* \"#utility.yul\":15676:15681   */\n      dup3\n        /* \"#utility.yul\":15672:15688   */\n      add\n        /* \"#utility.yul\":15666:15689   */\n      mload\n        /* \"#utility.yul\":15702:15759   */\n      tag_406\n        /* \"#utility.yul\":15753:15757   */\n      0x60\n        /* \"#utility.yul\":15748:15751   */\n      dup6\n        /* \"#utility.yul\":15744:15758   */\n      add\n        /* \"#utility.yul\":15730:15742   */\n      dup3\n        /* \"#utility.yul\":15702:15759   */\n      tag_317\n      jump\t// in\n    tag_406:\n        /* \"#utility.yul\":15599:15769   */\n      pop\n        /* \"#utility.yul\":15861:15865   */\n      0x80\n        /* \"#utility.yul\":15854:15859   */\n      dup3\n        /* \"#utility.yul\":15850:15866   */\n      add\n        /* \"#utility.yul\":15844:15867   */\n      mload\n        /* \"#utility.yul\":15880:15952   */\n      tag_407\n        /* \"#utility.yul\":15946:15950   */\n      0x80\n        /* \"#utility.yul\":15941:15944   */\n      dup6\n        /* \"#utility.yul\":15937:15951   */\n      add\n        /* \"#utility.yul\":15923:15935   */\n      dup3\n        /* \"#utility.yul\":15880:15952   */\n      tag_328\n      jump\t// in\n    tag_407:\n        /* \"#utility.yul\":15779:15962   */\n      pop\n        /* \"#utility.yul\":15029:15969   */\n      pop\n      pop\n      pop\n      jump\t// out\n        /* \"#utility.yul\":16035:16532   */\n    tag_378:\n        /* \"#utility.yul\":16166:16170   */\n      0x40\n        /* \"#utility.yul\":16161:16164   */\n      dup3\n        /* \"#utility.yul\":16157:16171   */\n      add\n        /* \"#utility.yul\":16257:16261   */\n      0x00\n        /* \"#utility.yul\":16250:16255   */\n      dup3\n        /* \"#utility.yul\":16246:16262   */\n      add\n        /* \"#utility.yul\":16240:16263   */\n      mload\n        /* \"#utility.yul\":16276:16339   */\n      tag_409\n        /* \"#utility.yul\":16333:16337   */\n      0x00\n        /* \"#utility.yul\":16328:16331   */\n      dup6\n        /* \"#utility.yul\":16324:16338   */\n      add\n        /* \"#utility.yul\":16310:16322   */\n      dup3\n        /* \"#utility.yul\":16276:16339   */\n      tag_296\n      jump\t// in\n    tag_409:\n        /* \"#utility.yul\":16181:16349   */\n      pop\n        /* \"#utility.yul\":16433:16437   */\n      0x20\n        /* \"#utility.yul\":16426:16431   */\n      dup3\n        /* \"#utility.yul\":16422:16438   */\n      add\n        /* \"#utility.yul\":16416:16439   */\n      mload\n        /* \"#utility.yul\":16452:16515   */\n      tag_410\n        /* \"#utility.yul\":16509:16513   */\n      0x20\n        /* \"#utility.yul\":16504:16507   */\n      dup6\n        /* \"#utility.yul\":16500:16514   */\n      add\n        /* \"#utility.yul\":16486:16498   */\n      dup3\n        /* \"#utility.yul\":16452:16515   */\n      tag_296\n      jump\t// in\n    tag_410:\n        /* \"#utility.yul\":16359:16525   */\n      pop\n        /* \"#utility.yul\":16135:16532   */\n      pop\n      pop\n      pop\n      jump\t// out\n        /* \"#utility.yul\":16604:17910   */\n    tag_384:\n      0x00\n        /* \"#utility.yul\":16757:16761   */\n      0xa0\n        /* \"#utility.yul\":16752:16755   */\n      dup4\n        /* \"#utility.yul\":16748:16762   */\n      add\n        /* \"#utility.yul\":16850:16854   */\n      0x00\n        /* \"#utility.yul\":16843:16848   */\n      dup4\n        /* \"#utility.yul\":16839:16855   */\n      add\n        /* \"#utility.yul\":16833:16856   */\n      mload\n        /* \"#utility.yul\":16903:16906   */\n      dup5\n        /* \"#utility.yul\":16897:16901   */\n      dup3\n        /* \"#utility.yul\":16893:16907   */\n      sub\n        /* \"#utility.yul\":16886:16890   */\n      0x00\n        /* \"#utility.yul\":16881:16884   */\n      dup7\n        /* \"#utility.yul\":16877:16891   */\n      add\n        /* \"#utility.yul\":16870:16908   */\n      mstore\n        /* \"#utility.yul\":16929:17002   */\n      tag_412\n        /* \"#utility.yul\":16997:17001   */\n      dup3\n        /* \"#utility.yul\":16983:16995   */\n      dup3\n        /* \"#utility.yul\":16929:17002   */\n      tag_332\n      jump\t// in\n    tag_412:\n        /* \"#utility.yul\":16921:17002   */\n      swap2\n      pop\n        /* \"#utility.yul\":16772:17013   */\n      pop\n        /* \"#utility.yul\":17093:17097   */\n      0x20\n        /* \"#utility.yul\":17086:17091   */\n      dup4\n        /* \"#utility.yul\":17082:17098   */\n      add\n        /* \"#utility.yul\":17076:17099   */\n      mload\n        /* \"#utility.yul\":17146:17149   */\n      dup5\n        /* \"#utility.yul\":17140:17144   */\n      dup3\n        /* \"#utility.yul\":17136:17150   */\n      sub\n        /* \"#utility.yul\":17129:17133   */\n      0x20\n        /* \"#utility.yul\":17124:17127   */\n      dup7\n        /* \"#utility.yul\":17120:17134   */\n      add\n        /* \"#utility.yul\":17113:17151   */\n      mstore\n        /* \"#utility.yul\":17172:17245   */\n      tag_413\n        /* \"#utility.yul\":17240:17244   */\n      dup3\n        /* \"#utility.yul\":17226:17238   */\n      dup3\n        /* \"#utility.yul\":17172:17245   */\n      tag_332\n      jump\t// in\n    tag_413:\n        /* \"#utility.yul\":17164:17245   */\n      swap2\n      pop\n        /* \"#utility.yul\":17023:17256   */\n      pop\n        /* \"#utility.yul\":17348:17352   */\n      0x40\n        /* \"#utility.yul\":17341:17346   */\n      dup4\n        /* \"#utility.yul\":17337:17353   */\n      add\n        /* \"#utility.yul\":17331:17354   */\n      mload\n        /* \"#utility.yul\":17401:17404   */\n      dup5\n        /* \"#utility.yul\":17395:17399   */\n      dup3\n        /* \"#utility.yul\":17391:17405   */\n      sub\n        /* \"#utility.yul\":17384:17388   */\n      0x40\n        /* \"#utility.yul\":17379:17382   */\n      dup7\n        /* \"#utility.yul\":17375:17389   */\n      add\n        /* \"#utility.yul\":17368:17406   */\n      mstore\n        /* \"#utility.yul\":17427:17500   */\n      tag_414\n        /* \"#utility.yul\":17495:17499   */\n      dup3\n        /* \"#utility.yul\":17481:17493   */\n      dup3\n        /* \"#utility.yul\":17427:17500   */\n      tag_332\n      jump\t// in\n    tag_414:\n        /* \"#utility.yul\":17419:17500   */\n      swap2\n      pop\n        /* \"#utility.yul\":17266:17511   */\n      pop\n        /* \"#utility.yul\":17601:17605   */\n      0x60\n        /* \"#utility.yul\":17594:17599   */\n      dup4\n        /* \"#utility.yul\":17590:17606   */\n      add\n        /* \"#utility.yul\":17584:17607   */\n      mload\n        /* \"#utility.yul\":17620:17697   */\n      tag_415\n        /* \"#utility.yul\":17691:17695   */\n      0x60\n        /* \"#utility.yul\":17686:17689   */\n      dup7\n        /* \"#utility.yul\":17682:17696   */\n      add\n        /* \"#utility.yul\":17668:17680   */\n      dup3\n        /* \"#utility.yul\":17620:17697   */\n      tag_324\n      jump\t// in\n    tag_415:\n        /* \"#utility.yul\":17521:17707   */\n      pop\n        /* \"#utility.yul\":17791:17795   */\n      0x80\n        /* \"#utility.yul\":17784:17789   */\n      dup4\n        /* \"#utility.yul\":17780:17796   */\n      add\n        /* \"#utility.yul\":17774:17797   */\n      mload\n        /* \"#utility.yul\":17810:17873   */\n      tag_416\n        /* \"#utility.yul\":17867:17871   */\n      0x80\n        /* \"#utility.yul\":17862:17865   */\n      dup7\n        /* \"#utility.yul\":17858:17872   */\n      add\n        /* \"#utility.yul\":17844:17856   */\n      dup3\n        /* \"#utility.yul\":17810:17873   */\n      tag_296\n      jump\t// in\n    tag_416:\n        /* \"#utility.yul\":17717:17883   */\n      pop\n        /* \"#utility.yul\":17900:17904   */\n      dup1\n        /* \"#utility.yul\":17893:17904   */\n      swap2\n      pop\n        /* \"#utility.yul\":16726:17910   */\n      pop\n      swap3\n      swap2\n      pop\n      pop\n      jump\t// out\n        /* \"#utility.yul\":17916:18024   */\n    tag_375:\n        /* \"#utility.yul\":17993:18017   */\n      tag_418\n        /* \"#utility.yul\":18011:18016   */\n      dup2\n        /* \"#utility.yul\":17993:18017   */\n      tag_419\n      jump\t// in\n    tag_418:\n        /* \"#utility.yul\":17988:17991   */\n      dup3\n        /* \"#utility.yul\":17981:18018   */\n      mstore\n        /* \"#utility.yul\":17971:18024   */\n      pop\n      pop\n      jump\t// out\n        /* \"#utility.yul\":18030:18148   */\n    tag_420:\n        /* \"#utility.yul\":18117:18141   */\n      tag_422\n        /* \"#utility.yul\":18135:18140   */\n      dup2\n        /* \"#utility.yul\":18117:18141   */\n      tag_419\n      jump\t// in\n    tag_422:\n        /* \"#utility.yul\":18112:18115   */\n      dup3\n        /* \"#utility.yul\":18105:18142   */\n      mstore\n        /* \"#utility.yul\":18095:18148   */\n      pop\n      pop\n      jump\t// out\n        /* \"#utility.yul\":18154:18266   */\n    tag_423:\n        /* \"#utility.yul\":18237:18259   */\n      tag_425\n        /* \"#utility.yul\":18253:18258   */\n      dup2\n        /* \"#utility.yul\":18237:18259   */\n      tag_426\n      jump\t// in\n    tag_425:\n        /* \"#utility.yul\":18232:18235   */\n      dup3\n        /* \"#utility.yul\":18225:18260   */\n      mstore\n        /* \"#utility.yul\":18215:18266   */\n      pop\n      pop\n      jump\t// out\n        /* \"#utility.yul\":18272:18494   */\n    tag_79:\n      0x00\n        /* \"#utility.yul\":18403:18405   */\n      0x20\n        /* \"#utility.yul\":18392:18401   */\n      dup3\n        /* \"#utility.yul\":18388:18406   */\n      add\n        /* \"#utility.yul\":18380:18406   */\n      swap1\n      pop\n        /* \"#utility.yul\":18416:18487   */\n      tag_428\n        /* \"#utility.yul\":18484:18485   */\n      0x00\n        /* \"#utility.yul\":18473:18482   */\n      dup4\n        /* \"#utility.yul\":18469:18486   */\n      add\n        /* \"#utility.yul\":18460:18466   */\n      dup5\n        /* \"#utility.yul\":18416:18487   */\n      tag_300\n      jump\t// in\n    tag_428:\n        /* \"#utility.yul\":18370:18494   */\n      swap3\n      swap2\n      pop\n      pop\n      jump\t// out\n        /* \"#utility.yul\":18500:18957   */\n    tag_70:\n      0x00\n        /* \"#utility.yul\":18723:18725   */\n      0x20\n        /* \"#utility.yul\":18712:18721   */\n      dup3\n        /* \"#utility.yul\":18708:18726   */\n      add\n        /* \"#utility.yul\":18700:18726   */\n      swap1\n      pop\n        /* \"#utility.yul\":18772:18781   */\n      dup2\n        /* \"#utility.yul\":18766:18770   */\n      dup2\n        /* \"#utility.yul\":18762:18782   */\n      sub\n        /* \"#utility.yul\":18758:18759   */\n      0x00\n        /* \"#utility.yul\":18747:18756   */\n      dup4\n        /* \"#utility.yul\":18743:18760   */\n      add\n        /* \"#utility.yul\":18736:18783   */\n      mstore\n        /* \"#utility.yul\":18800:18950   */\n      tag_430\n        /* \"#utility.yul\":18945:18949   */\n      dup2\n        /* \"#utility.yul\":18936:18942   */\n      dup5\n        /* \"#utility.yul\":18800:18950   */\n      tag_303\n      jump\t// in\n    tag_430:\n        /* \"#utility.yul\":18792:18950   */\n      swap1\n      pop\n        /* \"#utility.yul\":18690:18957   */\n      swap3\n      swap2\n      pop\n      pop\n      jump\t// out\n        /* \"#utility.yul\":18963:19173   */\n    tag_31:\n      0x00\n        /* \"#utility.yul\":19088:19090   */\n      0x20\n        /* \"#utility.yul\":19077:19086   */\n      dup3\n        /* \"#utility.yul\":19073:19091   */\n      add\n        /* \"#utility.yul\":19065:19091   */\n      swap1\n      pop\n        /* \"#utility.yul\":19101:19166   */\n      tag_432\n        /* \"#utility.yul\":19163:19164   */\n      0x00\n        /* \"#utility.yul\":19152:19161   */\n      dup4\n        /* \"#utility.yul\":19148:19165   */\n      add\n        /* \"#utility.yul\":19139:19145   */\n      dup5\n        /* \"#utility.yul\":19101:19166   */\n      tag_321\n      jump\t// in\n    tag_432:\n        /* \"#utility.yul\":19055:19173   */\n      swap3\n      swap2\n      pop\n      pop\n      jump\t// out\n        /* \"#utility.yul\":19179:19492   */\n    tag_25:\n      0x00\n        /* \"#utility.yul\":19330:19332   */\n      0x20\n        /* \"#utility.yul\":19319:19328   */\n      dup3\n        /* \"#utility.yul\":19315:19333   */\n      add\n        /* \"#utility.yul\":19307:19333   */\n      swap1\n      pop\n        /* \"#utility.yul\":19379:19388   */\n      dup2\n        /* \"#utility.yul\":19373:19377   */\n      dup2\n        /* \"#utility.yul\":19369:19389   */\n      sub\n        /* \"#utility.yul\":19365:19366   */\n      0x00\n        /* \"#utility.yul\":19354:19363   */\n      dup4\n        /* \"#utility.yul\":19350:19367   */\n      add\n        /* \"#utility.yul\":19343:19390   */\n      mstore\n        /* \"#utility.yul\":19407:19485   */\n      tag_434\n        /* \"#utility.yul\":19480:19484   */\n      dup2\n        /* \"#utility.yul\":19471:19477   */\n      dup5\n        /* \"#utility.yul\":19407:19485   */\n      tag_342\n      jump\t// in\n    tag_434:\n        /* \"#utility.yul\":19399:19485   */\n      swap1\n      pop\n        /* \"#utility.yul\":19297:19492   */\n      swap3\n      swap2\n      pop\n      pop\n      jump\t// out\n        /* \"#utility.yul\":19498:19917   */\n    tag_124:\n      0x00\n        /* \"#utility.yul\":19702:19704   */\n      0x20\n        /* \"#utility.yul\":19691:19700   */\n      dup3\n        /* \"#utility.yul\":19687:19705   */\n      add\n        /* \"#utility.yul\":19679:19705   */\n      swap1\n      pop\n        /* \"#utility.yul\":19751:19760   */\n      dup2\n        /* \"#utility.yul\":19745:19749   */\n      dup2\n        /* \"#utility.yul\":19741:19761   */\n      sub\n        /* \"#utility.yul\":19737:19738   */\n      0x00\n        /* \"#utility.yul\":19726:19735   */\n      dup4\n        /* \"#utility.yul\":19722:19739   */\n      add\n        /* \"#utility.yul\":19715:19762   */\n      mstore\n        /* \"#utility.yul\":19779:19910   */\n      tag_436\n        /* \"#utility.yul\":19905:19909   */\n      dup2\n        /* \"#utility.yul\":19779:19910   */\n      tag_349\n      jump\t// in\n    tag_436:\n        /* \"#utility.yul\":19771:19910   */\n      swap1\n      pop\n        /* \"#utility.yul\":19669:19917   */\n      swap2\n      swap1\n      pop\n      jump\t// out\n        /* \"#utility.yul\":19923:20342   */\n    tag_120:\n      0x00\n        /* \"#utility.yul\":20127:20129   */\n      0x20\n        /* \"#utility.yul\":20116:20125   */\n      dup3\n        /* \"#utility.yul\":20112:20130   */\n      add\n        /* \"#utility.yul\":20104:20130   */\n      swap1\n      pop\n        /* \"#utility.yul\":20176:20185   */\n      dup2\n        /* \"#utility.yul\":20170:20174   */\n      dup2\n        /* \"#utility.yul\":20166:20186   */\n      sub\n        /* \"#utility.yul\":20162:20163   */\n      0x00\n        /* \"#utility.yul\":20151:20160   */\n      dup4\n        /* \"#utility.yul\":20147:20164   */\n      add\n        /* \"#utility.yul\":20140:20187   */\n      mstore\n        /* \"#utility.yul\":20204:20335   */\n      tag_438\n        /* \"#utility.yul\":20330:20334   */\n      dup2\n        /* \"#utility.yul\":20204:20335   */\n      tag_352\n      jump\t// in\n    tag_438:\n        /* \"#utility.yul\":20196:20335   */\n      swap1\n      pop\n        /* \"#utility.yul\":20094:20342   */\n      swap2\n      swap1\n      pop\n      jump\t// out\n        /* \"#utility.yul\":20348:20767   */\n    tag_216:\n      0x00\n        /* \"#utility.yul\":20552:20554   */\n      0x20\n        /* \"#utility.yul\":20541:20550   */\n      dup3\n        /* \"#utility.yul\":20537:20555   */\n      add\n        /* \"#utility.yul\":20529:20555   */\n      swap1\n      pop\n        /* \"#utility.yul\":20601:20610   */\n      dup2\n        /* \"#utility.yul\":20595:20599   */\n      dup2\n        /* \"#utility.yul\":20591:20611   */\n      sub\n        /* \"#utility.yul\":20587:20588   */\n      0x00\n        /* \"#utility.yul\":20576:20585   */\n      dup4\n        /* \"#utility.yul\":20572:20589   */\n      add\n        /* \"#utility.yul\":20565:20612   */\n      mstore\n        /* \"#utility.yul\":20629:20760   */\n      tag_440\n        /* \"#utility.yul\":20755:20759   */\n      dup2\n        /* \"#utility.yul\":20629:20760   */\n      tag_355\n      jump\t// in\n    tag_440:\n        /* \"#utility.yul\":20621:20760   */\n      swap1\n      pop\n        /* \"#utility.yul\":20519:20767   */\n      swap2\n      swap1\n      pop\n      jump\t// out\n        /* \"#utility.yul\":20773:21192   */\n    tag_117:\n      0x00\n        /* \"#utility.yul\":20977:20979   */\n      0x20\n        /* \"#utility.yul\":20966:20975   */\n      dup3\n        /* \"#utility.yul\":20962:20980   */\n      add\n        /* \"#utility.yul\":20954:20980   */\n      swap1\n      pop\n        /* \"#utility.yul\":21026:21035   */\n      dup2\n        /* \"#utility.yul\":21020:21024   */\n      dup2\n        /* \"#utility.yul\":21016:21036   */\n      sub\n        /* \"#utility.yul\":21012:21013   */\n      0x00\n        /* \"#utility.yul\":21001:21010   */\n      dup4\n        /* \"#utility.yul\":20997:21014   */\n      add\n        /* \"#utility.yul\":20990:21037   */\n      mstore\n        /* \"#utility.yul\":21054:21185   */\n      tag_442\n        /* \"#utility.yul\":21180:21184   */\n      dup2\n        /* \"#utility.yul\":21054:21185   */\n      tag_358\n      jump\t// in\n    tag_442:\n        /* \"#utility.yul\":21046:21185   */\n      swap1\n      pop\n        /* \"#utility.yul\":20944:21192   */\n      swap2\n      swap1\n      pop\n      jump\t// out\n        /* \"#utility.yul\":21198:21617   */\n    tag_108:\n      0x00\n        /* \"#utility.yul\":21402:21404   */\n      0x20\n        /* \"#utility.yul\":21391:21400   */\n      dup3\n        /* \"#utility.yul\":21387:21405   */\n      add\n        /* \"#utility.yul\":21379:21405   */\n      swap1\n      pop\n        /* \"#utility.yul\":21451:21460   */\n      dup2\n        /* \"#utility.yul\":21445:21449   */\n      dup2\n        /* \"#utility.yul\":21441:21461   */\n      sub\n        /* \"#utility.yul\":21437:21438   */\n      0x00\n        /* \"#utility.yul\":21426:21435   */\n      dup4\n        /* \"#utility.yul\":21422:21439   */\n      add\n        /* \"#utility.yul\":21415:21462   */\n      mstore\n        /* \"#utility.yul\":21479:21610   */\n      tag_444\n        /* \"#utility.yul\":21605:21609   */\n      dup2\n        /* \"#utility.yul\":21479:21610   */\n      tag_361\n      jump\t// in\n    tag_444:\n        /* \"#utility.yul\":21471:21610   */\n      swap1\n      pop\n        /* \"#utility.yul\":21369:21617   */\n      swap2\n      swap1\n      pop\n      jump\t// out\n        /* \"#utility.yul\":21623:22042   */\n    tag_111:\n      0x00\n        /* \"#utility.yul\":21827:21829   */\n      0x20\n        /* \"#utility.yul\":21816:21825   */\n      dup3\n        /* \"#utility.yul\":21812:21830   */\n      add\n        /* \"#utility.yul\":21804:21830   */\n      swap1\n      pop\n        /* \"#utility.yul\":21876:21885   */\n      dup2\n        /* \"#utility.yul\":21870:21874   */\n      dup2\n        /* \"#utility.yul\":21866:21886   */\n      sub\n        /* \"#utility.yul\":21862:21863   */\n      0x00\n        /* \"#utility.yul\":21851:21860   */\n      dup4\n        /* \"#utility.yul\":21847:21864   */\n      add\n        /* \"#utility.yul\":21840:21887   */\n      mstore\n        /* \"#utility.yul\":21904:22035   */\n      tag_446\n        /* \"#utility.yul\":22030:22034   */\n      dup2\n        /* \"#utility.yul\":21904:22035   */\n      tag_364\n      jump\t// in\n    tag_446:\n        /* \"#utility.yul\":21896:22035   */\n      swap1\n      pop\n        /* \"#utility.yul\":21794:22042   */\n      swap2\n      swap1\n      pop\n      jump\t// out\n        /* \"#utility.yul\":22048:22467   */\n    tag_228:\n      0x00\n        /* \"#utility.yul\":22252:22254   */\n      0x20\n        /* \"#utility.yul\":22241:22250   */\n      dup3\n        /* \"#utility.yul\":22237:22255   */\n      add\n        /* \"#utility.yul\":22229:22255   */\n      swap1\n      pop\n        /* \"#utility.yul\":22301:22310   */\n      dup2\n        /* \"#utility.yul\":22295:22299   */\n      dup2\n        /* \"#utility.yul\":22291:22311   */\n      sub\n        /* \"#utility.yul\":22287:22288   */\n      0x00\n        /* \"#utility.yul\":22276:22285   */\n      dup4\n        /* \"#utility.yul\":22272:22289   */\n      add\n        /* \"#utility.yul\":22265:22312   */\n      mstore\n        /* \"#utility.yul\":22329:22460   */\n      tag_448\n        /* \"#utility.yul\":22455:22459   */\n      dup2\n        /* \"#utility.yul\":22329:22460   */\n      tag_367\n      jump\t// in\n    tag_448:\n        /* \"#utility.yul\":22321:22460   */\n      swap1\n      pop\n        /* \"#utility.yul\":22219:22467   */\n      swap2\n      swap1\n      pop\n      jump\t// out\n        /* \"#utility.yul\":22473:22892   */\n    tag_127:\n      0x00\n        /* \"#utility.yul\":22677:22679   */\n      0x20\n        /* \"#utility.yul\":22666:22675   */\n      dup3\n        /* \"#utility.yul\":22662:22680   */\n      add\n        /* \"#utility.yul\":22654:22680   */\n      swap1\n      pop\n        /* \"#utility.yul\":22726:22735   */\n      dup2\n        /* \"#utility.yul\":22720:22724   */\n      dup2\n        /* \"#utility.yul\":22716:22736   */\n      sub\n        /* \"#utility.yul\":22712:22713   */\n      0x00\n        /* \"#utility.yul\":22701:22710   */\n      dup4\n        /* \"#utility.yul\":22697:22714   */\n      add\n        /* \"#utility.yul\":22690:22737   */\n      mstore\n        /* \"#utility.yul\":22754:22885   */\n      tag_450\n        /* \"#utility.yul\":22880:22884   */\n      dup2\n        /* \"#utility.yul\":22754:22885   */\n      tag_370\n      jump\t// in\n    tag_450:\n        /* \"#utility.yul\":22746:22885   */\n      swap1\n      pop\n        /* \"#utility.yul\":22644:22892   */\n      swap2\n      swap1\n      pop\n      jump\t// out\n        /* \"#utility.yul\":22898:23255   */\n    tag_75:\n      0x00\n        /* \"#utility.yul\":23071:23073   */\n      0x20\n        /* \"#utility.yul\":23060:23069   */\n      dup3\n        /* \"#utility.yul\":23056:23074   */\n      add\n        /* \"#utility.yul\":23048:23074   */\n      swap1\n      pop\n        /* \"#utility.yul\":23120:23129   */\n      dup2\n        /* \"#utility.yul\":23114:23118   */\n      dup2\n        /* \"#utility.yul\":23110:23130   */\n      sub\n        /* \"#utility.yul\":23106:23107   */\n      0x00\n        /* \"#utility.yul\":23095:23104   */\n      dup4\n        /* \"#utility.yul\":23091:23108   */\n      add\n        /* \"#utility.yul\":23084:23131   */\n      mstore\n        /* \"#utility.yul\":23148:23248   */\n      tag_452\n        /* \"#utility.yul\":23243:23247   */\n      dup2\n        /* \"#utility.yul\":23234:23240   */\n      dup5\n        /* \"#utility.yul\":23148:23248   */\n      tag_387\n      jump\t// in\n    tag_452:\n        /* \"#utility.yul\":23140:23248   */\n      swap1\n      pop\n        /* \"#utility.yul\":23038:23255   */\n      swap3\n      swap2\n      pop\n      pop\n      jump\t// out\n        /* \"#utility.yul\":23261:23483   */\n    tag_37:\n      0x00\n        /* \"#utility.yul\":23392:23394   */\n      0x20\n        /* \"#utility.yul\":23381:23390   */\n      dup3\n        /* \"#utility.yul\":23377:23395   */\n      add\n        /* \"#utility.yul\":23369:23395   */\n      swap1\n      pop\n        /* \"#utility.yul\":23405:23476   */\n      tag_454\n        /* \"#utility.yul\":23473:23474   */\n      0x00\n        /* \"#utility.yul\":23462:23471   */\n      dup4\n        /* \"#utility.yul\":23458:23475   */\n      add\n        /* \"#utility.yul\":23449:23455   */\n      dup5\n        /* \"#utility.yul\":23405:23476   */\n      tag_420\n      jump\t// in\n    tag_454:\n        /* \"#utility.yul\":23359:23483   */\n      swap3\n      swap2\n      pop\n      pop\n      jump\t// out\n        /* \"#utility.yul\":23489:23703   */\n    tag_50:\n      0x00\n        /* \"#utility.yul\":23616:23618   */\n      0x20\n        /* \"#utility.yul\":23605:23614   */\n      dup3\n        /* \"#utility.yul\":23601:23619   */\n      add\n        /* \"#utility.yul\":23593:23619   */\n      swap1\n      pop\n        /* \"#utility.yul\":23629:23696   */\n      tag_456\n        /* \"#utility.yul\":23693:23694   */\n      0x00\n        /* \"#utility.yul\":23682:23691   */\n      dup4\n        /* \"#utility.yul\":23678:23695   */\n      add\n        /* \"#utility.yul\":23669:23675   */\n      dup5\n        /* \"#utility.yul\":23629:23696   */\n      tag_423\n      jump\t// in\n    tag_456:\n        /* \"#utility.yul\":23583:23703   */\n      swap3\n      swap2\n      pop\n      pop\n      jump\t// out\n        /* \"#utility.yul\":23709:23992   */\n    tag_247:\n      0x00\n        /* \"#utility.yul\":23775:23777   */\n      0x40\n        /* \"#utility.yul\":23769:23778   */\n      mload\n        /* \"#utility.yul\":23759:23778   */\n      swap1\n      pop\n        /* \"#utility.yul\":23817:23821   */\n      dup2\n        /* \"#utility.yul\":23809:23815   */\n      dup2\n        /* \"#utility.yul\":23805:23822   */\n      add\n        /* \"#utility.yul\":23924:23930   */\n      dup2\n        /* \"#utility.yul\":23912:23922   */\n      dup2\n        /* \"#utility.yul\":23909:23931   */\n      lt\n        /* \"#utility.yul\":23888:23906   */\n      0xffffffffffffffff\n        /* \"#utility.yul\":23876:23886   */\n      dup3\n        /* \"#utility.yul\":23873:23907   */\n      gt\n        /* \"#utility.yul\":23870:23932   */\n      or\n        /* \"#utility.yul\":23867:23869   */\n      iszero\n      tag_458\n      jumpi\n        /* \"#utility.yul\":23935:23953   */\n      tag_459\n      tag_460\n      jump\t// in\n    tag_459:\n        /* \"#utility.yul\":23867:23869   */\n    tag_458:\n        /* \"#utility.yul\":23975:23985   */\n      dup1\n        /* \"#utility.yul\":23971:23973   */\n      0x40\n        /* \"#utility.yul\":23964:23986   */\n      mstore\n        /* \"#utility.yul\":23749:23992   */\n      pop\n      swap2\n      swap1\n      pop\n      jump\t// out\n        /* \"#utility.yul\":23998:24309   */\n    tag_246:\n      0x00\n        /* \"#utility.yul\":24165:24183   */\n      0xffffffffffffffff\n        /* \"#utility.yul\":24157:24163   */\n      dup3\n        /* \"#utility.yul\":24154:24184   */\n      gt\n        /* \"#utility.yul\":24151:24153   */\n      iszero\n      tag_462\n      jumpi\n        /* \"#utility.yul\":24187:24205   */\n      tag_463\n      tag_460\n      jump\t// in\n    tag_463:\n        /* \"#utility.yul\":24151:24153   */\n    tag_462:\n        /* \"#utility.yul\":24237:24241   */\n      0x20\n        /* \"#utility.yul\":24229:24235   */\n      dup3\n        /* \"#utility.yul\":24225:24242   */\n      mul\n        /* \"#utility.yul\":24217:24242   */\n      swap1\n      pop\n        /* \"#utility.yul\":24297:24301   */\n      0x20\n        /* \"#utility.yul\":24291:24295   */\n      dup2\n        /* \"#utility.yul\":24287:24302   */\n      add\n        /* \"#utility.yul\":24279:24302   */\n      swap1\n      pop\n        /* \"#utility.yul\":24080:24309   */\n      swap2\n      swap1\n      pop\n      jump\t// out\n        /* \"#utility.yul\":24315:24468   */\n    tag_310:\n      0x00\n        /* \"#utility.yul\":24426:24429   */\n      dup2\n        /* \"#utility.yul\":24418:24429   */\n      swap1\n      pop\n        /* \"#utility.yul\":24456:24460   */\n      0x20\n        /* \"#utility.yul\":24451:24454   */\n      dup3\n        /* \"#utility.yul\":24447:24461   */\n      add\n        /* \"#utility.yul\":24439:24461   */\n      swap1\n      pop\n        /* \"#utility.yul\":24408:24468   */\n      swap2\n      swap1\n      pop\n      jump\t// out\n        /* \"#utility.yul\":24474:24609   */\n    tag_306:\n      0x00\n        /* \"#utility.yul\":24596:24601   */\n      dup2\n        /* \"#utility.yul\":24590:24602   */\n      mload\n        /* \"#utility.yul\":24580:24602   */\n      swap1\n      pop\n        /* \"#utility.yul\":24569:24609   */\n      swap2\n      swap1\n      pop\n      jump\t// out\n        /* \"#utility.yul\":24615:24714   */\n    tag_335:\n      0x00\n        /* \"#utility.yul\":24701:24706   */\n      dup2\n        /* \"#utility.yul\":24695:24707   */\n      mload\n        /* \"#utility.yul\":24685:24707   */\n      swap1\n      pop\n        /* \"#utility.yul\":24674:24714   */\n      swap2\n      swap1\n      pop\n      jump\t// out\n        /* \"#utility.yul\":24720:24854   */\n    tag_316:\n      0x00\n        /* \"#utility.yul\":24843:24847   */\n      0x20\n        /* \"#utility.yul\":24838:24841   */\n      dup3\n        /* \"#utility.yul\":24834:24848   */\n      add\n        /* \"#utility.yul\":24826:24848   */\n      swap1\n      pop\n        /* \"#utility.yul\":24816:24854   */\n      swap2\n      swap1\n      pop\n      jump\t// out\n        /* \"#utility.yul\":24860:25065   */\n    tag_308:\n      0x00\n        /* \"#utility.yul\":25014:25020   */\n      dup3\n        /* \"#utility.yul\":25009:25012   */\n      dup3\n        /* \"#utility.yul\":25002:25021   */\n      mstore\n        /* \"#utility.yul\":25054:25058   */\n      0x20\n        /* \"#utility.yul\":25049:25052   */\n      dup3\n        /* \"#utility.yul\":25045:25059   */\n      add\n        /* \"#utility.yul\":25030:25059   */\n      swap1\n      pop\n        /* \"#utility.yul\":24992:25065   */\n      swap3\n      swap2\n      pop\n      pop\n      jump\t// out\n        /* \"#utility.yul\":25071:25230   */\n    tag_337:\n      0x00\n        /* \"#utility.yul\":25179:25185   */\n      dup3\n        /* \"#utility.yul\":25174:25177   */\n      dup3\n        /* \"#utility.yul\":25167:25186   */\n      mstore\n        /* \"#utility.yul\":25219:25223   */\n      0x20\n        /* \"#utility.yul\":25214:25217   */\n      dup3\n        /* \"#utility.yul\":25210:25224   */\n      add\n        /* \"#utility.yul\":25195:25224   */\n      swap1\n      pop\n        /* \"#utility.yul\":25157:25230   */\n      swap3\n      swap2\n      pop\n      pop\n      jump\t// out\n        /* \"#utility.yul\":25236:25405   */\n    tag_346:\n      0x00\n        /* \"#utility.yul\":25354:25360   */\n      dup3\n        /* \"#utility.yul\":25349:25352   */\n      dup3\n        /* \"#utility.yul\":25342:25361   */\n      mstore\n        /* \"#utility.yul\":25394:25398   */\n      0x20\n        /* \"#utility.yul\":25389:25392   */\n      dup3\n        /* \"#utility.yul\":25385:25399   */\n      add\n        /* \"#utility.yul\":25370:25399   */\n      swap1\n      pop\n        /* \"#utility.yul\":25332:25405   */\n      swap3\n      swap2\n      pop\n      pop\n      jump\t// out\n        /* \"#utility.yul\":25411:25716   */\n    tag_100:\n      0x00\n        /* \"#utility.yul\":25470:25490   */\n      tag_472\n        /* \"#utility.yul\":25488:25489   */\n      dup3\n        /* \"#utility.yul\":25470:25490   */\n      tag_419\n      jump\t// in\n    tag_472:\n        /* \"#utility.yul\":25465:25490   */\n      swap2\n      pop\n        /* \"#utility.yul\":25504:25524   */\n      tag_473\n        /* \"#utility.yul\":25522:25523   */\n      dup4\n        /* \"#utility.yul\":25504:25524   */\n      tag_419\n      jump\t// in\n    tag_473:\n        /* \"#utility.yul\":25499:25524   */\n      swap3\n      pop\n        /* \"#utility.yul\":25658:25659   */\n      dup3\n        /* \"#utility.yul\":25590:25656   */\n      0xffffffffffffffffffffffffffffffffffffffffffffffffffffffffffffffff\n        /* \"#utility.yul\":25586:25660   */\n      sub\n        /* \"#utility.yul\":25583:25584   */\n      dup3\n        /* \"#utility.yul\":25580:25661   */\n      gt\n        /* \"#utility.yul\":25577:25579   */\n      iszero\n      tag_474\n      jumpi\n        /* \"#utility.yul\":25664:25682   */\n      tag_475\n      tag_476\n      jump\t// in\n    tag_475:\n        /* \"#utility.yul\":25577:25579   */\n    tag_474:\n        /* \"#utility.yul\":25708:25709   */\n      dup3\n        /* \"#utility.yul\":25705:25706   */\n      dup3\n        /* \"#utility.yul\":25701:25710   */\n      add\n        /* \"#utility.yul\":25694:25710   */\n      swap1\n      pop\n        /* \"#utility.yul\":25455:25716   */\n      swap3\n      swap2\n      pop\n      pop\n      jump\t// out\n        /* \"#utility.yul\":25722:25913   */\n    tag_97:\n      0x00\n        /* \"#utility.yul\":25782:25802   */\n      tag_478\n        /* \"#utility.yul\":25800:25801   */\n      dup3\n        /* \"#utility.yul\":25782:25802   */\n      tag_419\n      jump\t// in\n    tag_478:\n        /* \"#utility.yul\":25777:25802   */\n      swap2\n      pop\n        /* \"#utility.yul\":25816:25836   */\n      tag_479\n        /* \"#utility.yul\":25834:25835   */\n      dup4\n        /* \"#utility.yul\":25816:25836   */\n      tag_419\n      jump\t// in\n    tag_479:\n        /* \"#utility.yul\":25811:25836   */\n      swap3\n      pop\n        /* \"#utility.yul\":25855:25856   */\n      dup3\n        /* \"#utility.yul\":25852:25853   */\n      dup3\n        /* \"#utility.yul\":25849:25857   */\n      lt\n        /* \"#utility.yul\":25846:25848   */\n      iszero\n      tag_480\n      jumpi\n        /* \"#utility.yul\":25860:25878   */\n      tag_481\n      tag_476\n      jump\t// in\n    tag_481:\n        /* \"#utility.yul\":25846:25848   */\n    tag_480:\n        /* \"#utility.yul\":25905:25906   */\n      dup3\n        /* \"#utility.yul\":25902:25903   */\n      dup3\n        /* \"#utility.yul\":25898:25907   */\n      sub\n        /* \"#utility.yul\":25890:25907   */\n      swap1\n      pop\n        /* \"#utility.yul\":25767:25913   */\n      swap3\n      swap2\n      pop\n      pop\n      jump\t// out\n        /* \"#utility.yul\":25919:26015   */\n    tag_299:\n      0x00\n        /* \"#utility.yul\":25985:26009   */\n      tag_483\n        /* \"#utility.yul\":26003:26008   */\n      dup3\n        /* \"#utility.yul\":25985:26009   */\n      tag_484\n      jump\t// in\n    tag_483:\n        /* \"#utility.yul\":25974:26009   */\n      swap1\n      pop\n        /* \"#utility.yul\":25964:26015   */\n      swap2\n      swap1\n      pop\n      jump\t// out\n        /* \"#utility.yul\":26021:26111   */\n    tag_320:\n      0x00\n        /* \"#utility.yul\":26098:26103   */\n      dup2\n        /* \"#utility.yul\":26091:26104   */\n      iszero\n        /* \"#utility.yul\":26084:26105   */\n      iszero\n        /* \"#utility.yul\":26073:26105   */\n      swap1\n      pop\n        /* \"#utility.yul\":26063:26111   */\n      swap2\n      swap1\n      pop\n      jump\t// out\n        /* \"#utility.yul\":26117:26260   */\n    tag_486:\n      0x00\n        /* \"#utility.yul\":26199:26204   */\n      dup2\n        /* \"#utility.yul\":26188:26204   */\n      swap1\n      pop\n        /* \"#utility.yul\":26205:26254   */\n      tag_488\n        /* \"#utility.yul\":26248:26253   */\n      dup3\n        /* \"#utility.yul\":26205:26254   */\n      tag_489\n      jump\t// in\n    tag_488:\n        /* \"#utility.yul\":26178:26260   */\n      swap2\n      swap1\n      pop\n      jump\t// out\n        /* \"#utility.yul\":26266:26399   */\n    tag_490:\n      0x00\n        /* \"#utility.yul\":26343:26348   */\n      dup2\n        /* \"#utility.yul\":26332:26348   */\n      swap1\n      pop\n        /* \"#utility.yul\":26349:26393   */\n      tag_492\n        /* \"#utility.yul\":26387:26392   */\n      dup3\n        /* \"#utility.yul\":26349:26393   */\n      tag_493\n      jump\t// in\n    tag_492:\n        /* \"#utility.yul\":26322:26399   */\n      swap2\n      swap1\n      pop\n      jump\t// out\n        /* \"#utility.yul\":26405:26531   */\n    tag_484:\n      0x00\n        /* \"#utility.yul\":26482:26524   */\n      0xffffffffffffffffffffffffffffffffffffffff\n        /* \"#utility.yul\":26475:26480   */\n      dup3\n        /* \"#utility.yul\":26471:26525   */\n      and\n        /* \"#utility.yul\":26460:26525   */\n      swap1\n      pop\n        /* \"#utility.yul\":26450:26531   */\n      swap2\n      swap1\n      pop\n      jump\t// out\n        /* \"#utility.yul\":26537:26614   */\n    tag_419:\n      0x00\n        /* \"#utility.yul\":26603:26608   */\n      dup2\n        /* \"#utility.yul\":26592:26608   */\n      swap1\n      pop\n        /* \"#utility.yul\":26582:26614   */\n      swap2\n      swap1\n      pop\n      jump\t// out\n        /* \"#utility.yul\":26620:26706   */\n    tag_426:\n      0x00\n        /* \"#utility.yul\":26695:26699   */\n      0xff\n        /* \"#utility.yul\":26688:26693   */\n      dup3\n        /* \"#utility.yul\":26684:26700   */\n      and\n        /* \"#utility.yul\":26673:26700   */\n      swap1\n      pop\n        /* \"#utility.yul\":26663:26706   */\n      swap2\n      swap1\n      pop\n      jump\t// out\n        /* \"#utility.yul\":26712:26855   */\n    tag_327:\n      0x00\n        /* \"#utility.yul\":26809:26849   */\n      tag_498\n        /* \"#utility.yul\":26843:26848   */\n      dup3\n        /* \"#utility.yul\":26809:26849   */\n      tag_486\n      jump\t// in\n    tag_498:\n        /* \"#utility.yul\":26796:26849   */\n      swap1\n      pop\n        /* \"#utility.yul\":26786:26855   */\n      swap2\n      swap1\n      pop\n      jump\t// out\n        /* \"#utility.yul\":26861:26994   */\n    tag_331:\n      0x00\n        /* \"#utility.yul\":26953:26988   */\n      tag_500\n        /* \"#utility.yul\":26982:26987   */\n      dup3\n        /* \"#utility.yul\":26953:26988   */\n      tag_490\n      jump\t// in\n    tag_500:\n        /* \"#utility.yul\":26940:26988   */\n      swap1\n      pop\n        /* \"#utility.yul\":26930:26994   */\n      swap2\n      swap1\n      pop\n      jump\t// out\n        /* \"#utility.yul\":27000:27307   */\n    tag_339:\n        /* \"#utility.yul\":27068:27069   */\n      0x00\n        /* \"#utility.yul\":27078:27191   */\n    tag_502:\n        /* \"#utility.yul\":27092:27098   */\n      dup4\n        /* \"#utility.yul\":27089:27090   */\n      dup2\n        /* \"#utility.yul\":27086:27099   */\n      lt\n        /* \"#utility.yul\":27078:27191   */\n      iszero\n      tag_504\n      jumpi\n        /* \"#utility.yul\":27177:27178   */\n      dup1\n        /* \"#utility.yul\":27172:27175   */\n      dup3\n        /* \"#utility.yul\":27168:27179   */\n      add\n        /* \"#utility.yul\":27162:27180   */\n      mload\n        /* \"#utility.yul\":27158:27159   */\n      dup2\n        /* \"#utility.yul\":27153:27156   */\n      dup5\n        /* \"#utility.yul\":27149:27160   */\n      add\n        /* \"#utility.yul\":27142:27181   */\n      mstore\n        /* \"#utility.yul\":27114:27116   */\n      0x20\n        /* \"#utility.yul\":27111:27112   */\n      dup2\n        /* \"#utility.yul\":27107:27117   */\n      add\n        /* \"#utility.yul\":27102:27117   */\n      swap1\n      pop\n        /* \"#utility.yul\":27078:27191   */\n      jump(tag_502)\n    tag_504:\n        /* \"#utility.yul\":27209:27215   */\n      dup4\n        /* \"#utility.yul\":27206:27207   */\n      dup2\n        /* \"#utility.yul\":27203:27216   */\n      gt\n        /* \"#utility.yul\":27200:27202   */\n      iszero\n      tag_505\n      jumpi\n        /* \"#utility.yul\":27289:27290   */\n      0x00\n        /* \"#utility.yul\":27280:27286   */\n      dup5\n        /* \"#utility.yul\":27275:27278   */\n      dup5\n        /* \"#utility.yul\":27271:27287   */\n      add\n        /* \"#utility.yul\":27264:27291   */\n      mstore\n        /* \"#utility.yul\":27200:27202   */\n    tag_505:\n        /* \"#utility.yul\":27049:27307   */\n      pop\n      pop\n      pop\n      pop\n      jump\t// out\n        /* \"#utility.yul\":27313:27633   */\n    tag_143:\n      0x00\n        /* \"#utility.yul\":27394:27395   */\n      0x02\n        /* \"#utility.yul\":27388:27392   */\n      dup3\n        /* \"#utility.yul\":27384:27396   */\n      div\n        /* \"#utility.yul\":27374:27396   */\n      swap1\n      pop\n        /* \"#utility.yul\":27441:27442   */\n      0x01\n        /* \"#utility.yul\":27435:27439   */\n      dup3\n        /* \"#utility.yul\":27431:27443   */\n      and\n        /* \"#utility.yul\":27462:27480   */\n      dup1\n        /* \"#utility.yul\":27452:27454   */\n      tag_507\n      jumpi\n        /* \"#utility.yul\":27518:27522   */\n      0x7f\n        /* \"#utility.yul\":27510:27516   */\n      dup3\n        /* \"#utility.yul\":27506:27523   */\n      and\n        /* \"#utility.yul\":27496:27523   */\n      swap2\n      pop\n        /* \"#utility.yul\":27452:27454   */\n    tag_507:\n        /* \"#utility.yul\":27580:27582   */\n      0x20\n        /* \"#utility.yul\":27572:27578   */\n      dup3\n        /* \"#utility.yul\":27569:27583   */\n      lt\n        /* \"#utility.yul\":27549:27567   */\n      dup2\n        /* \"#utility.yul\":27546:27584   */\n      eq\n        /* \"#utility.yul\":27543:27545   */\n      iszero\n      tag_508\n      jumpi\n        /* \"#utility.yul\":27599:27617   */\n      tag_509\n      tag_510\n      jump\t// in\n    tag_509:\n        /* \"#utility.yul\":27543:27545   */\n    tag_508:\n        /* \"#utility.yul\":27364:27633   */\n      pop\n      swap2\n      swap1\n      pop\n      jump\t// out\n        /* \"#utility.yul\":27639:27872   */\n    tag_104:\n      0x00\n        /* \"#utility.yul\":27701:27725   */\n      tag_512\n        /* \"#utility.yul\":27719:27724   */\n      dup3\n        /* \"#utility.yul\":27701:27725   */\n      tag_419\n      jump\t// in\n    tag_512:\n        /* \"#utility.yul\":27692:27725   */\n      swap2\n      pop\n        /* \"#utility.yul\":27747:27813   */\n      0xffffffffffffffffffffffffffffffffffffffffffffffffffffffffffffffff\n        /* \"#utility.yul\":27740:27745   */\n      dup3\n        /* \"#utility.yul\":27737:27814   */\n      eq\n        /* \"#utility.yul\":27734:27736   */\n      iszero\n      tag_513\n      jumpi\n        /* \"#utility.yul\":27817:27835   */\n      tag_514\n      tag_476\n      jump\t// in\n    tag_514:\n        /* \"#utility.yul\":27734:27736   */\n    tag_513:\n        /* \"#utility.yul\":27864:27865   */\n      0x01\n        /* \"#utility.yul\":27857:27862   */\n      dup3\n        /* \"#utility.yul\":27853:27866   */\n      add\n        /* \"#utility.yul\":27846:27866   */\n      swap1\n      pop\n        /* \"#utility.yul\":27682:27872   */\n      swap2\n      swap1\n      pop\n      jump\t// out\n        /* \"#utility.yul\":27878:28058   */\n    tag_476:\n        /* \"#utility.yul\":27926:28003   */\n      0x4e487b7100000000000000000000000000000000000000000000000000000000\n        /* \"#utility.yul\":27923:27924   */\n      0x00\n        /* \"#utility.yul\":27916:28004   */\n      mstore\n        /* \"#utility.yul\":28023:28027   */\n      0x11\n        /* \"#utility.yul\":28020:28021   */\n      0x04\n        /* \"#utility.yul\":28013:28028   */\n      mstore\n        /* \"#utility.yul\":28047:28051   */\n      0x24\n        /* \"#utility.yul\":28044:28045   */\n      0x00\n        /* \"#utility.yul\":28037:28052   */\n      revert\n        /* \"#utility.yul\":28064:28244   */\n    tag_516:\n        /* \"#utility.yul\":28112:28189   */\n      0x4e487b7100000000000000000000000000000000000000000000000000000000\n        /* \"#utility.yul\":28109:28110   */\n      0x00\n        /* \"#utility.yul\":28102:28190   */\n      mstore\n        /* \"#utility.yul\":28209:28213   */\n      0x21\n        /* \"#utility.yul\":28206:28207   */\n      0x04\n        /* \"#utility.yul\":28199:28214   */\n      mstore\n        /* \"#utility.yul\":28233:28237   */\n      0x24\n        /* \"#utility.yul\":28230:28231   */\n      0x00\n        /* \"#utility.yul\":28223:28238   */\n      revert\n        /* \"#utility.yul\":28250:28430   */\n    tag_510:\n        /* \"#utility.yul\":28298:28375   */\n      0x4e487b7100000000000000000000000000000000000000000000000000000000\n        /* \"#utility.yul\":28295:28296   */\n      0x00\n        /* \"#utility.yul\":28288:28376   */\n      mstore\n        /* \"#utility.yul\":28395:28399   */\n      0x22\n        /* \"#utility.yul\":28392:28393   */\n      0x04\n        /* \"#utility.yul\":28385:28400   */\n      mstore\n        /* \"#utility.yul\":28419:28423   */\n      0x24\n        /* \"#utility.yul\":28416:28417   */\n      0x00\n        /* \"#utility.yul\":28409:28424   */\n      revert\n        /* \"#utility.yul\":28436:28616   */\n    tag_460:\n        /* \"#utility.yul\":28484:28561   */\n      0x4e487b7100000000000000000000000000000000000000000000000000000000\n        /* \"#utility.yul\":28481:28482   */\n      0x00\n        /* \"#utility.yul\":28474:28562   */\n      mstore\n        /* \"#utility.yul\":28581:28585   */\n      0x41\n        /* \"#utility.yul\":28578:28579   */\n      0x04\n        /* \"#utility.yul\":28571:28586   */\n      mstore\n        /* \"#utility.yul\":28605:28609   */\n      0x24\n        /* \"#utility.yul\":28602:28603   */\n      0x00\n        /* \"#utility.yul\":28595:28610   */\n      revert\n        /* \"#utility.yul\":28622:28724   */\n    tag_341:\n      0x00\n        /* \"#utility.yul\":28714:28716   */\n      0x1f\n        /* \"#utility.yul\":28710:28717   */\n      not\n        /* \"#utility.yul\":28705:28707   */\n      0x1f\n        /* \"#utility.yul\":28698:28703   */\n      dup4\n        /* \"#utility.yul\":28694:28708   */\n      add\n        /* \"#utility.yul\":28690:28718   */\n      and\n        /* \"#utility.yul\":28680:28718   */\n      swap1\n      pop\n        /* \"#utility.yul\":28670:28724   */\n      swap2\n      swap1\n      pop\n      jump\t// out\n        /* \"#utility.yul\":28730:28851   */\n    tag_489:\n        /* \"#utility.yul\":28819:28820   */\n      0x04\n        /* \"#utility.yul\":28812:28817   */\n      dup2\n        /* \"#utility.yul\":28809:28821   */\n      lt\n        /* \"#utility.yul\":28799:28801   */\n      tag_522\n      jumpi\n        /* \"#utility.yul\":28825:28843   */\n      tag_523\n      tag_516\n      jump\t// in\n    tag_523:\n        /* \"#utility.yul\":28799:28801   */\n    tag_522:\n        /* \"#utility.yul\":28789:28851   */\n      pop\n      jump\t// out\n        /* \"#utility.yul\":28857:28973   */\n    tag_493:\n        /* \"#utility.yul\":28941:28942   */\n      0x03\n        /* \"#utility.yul\":28934:28939   */\n      dup2\n        /* \"#utility.yul\":28931:28943   */\n      lt\n        /* \"#utility.yul\":28921:28923   */\n      tag_525\n      jumpi\n        /* \"#utility.yul\":28947:28965   */\n      tag_526\n      tag_516\n      jump\t// in\n    tag_526:\n        /* \"#utility.yul\":28921:28923   */\n    tag_525:\n        /* \"#utility.yul\":28911:28973   */\n      pop\n      jump\t// out\n        /* \"#utility.yul\":28979:29101   */\n    tag_257:\n        /* \"#utility.yul\":29052:29076   */\n      tag_528\n        /* \"#utility.yul\":29070:29075   */\n      dup2\n        /* \"#utility.yul\":29052:29076   */\n      tag_299\n      jump\t// in\n    tag_528:\n        /* \"#utility.yul\":29045:29050   */\n      dup2\n        /* \"#utility.yul\":29042:29077   */\n      eq\n        /* \"#utility.yul\":29032:29034   */\n      tag_529\n      jumpi\n        /* \"#utility.yul\":29091:29092   */\n      0x00\n        /* \"#utility.yul\":29088:29089   */\n      dup1\n        /* \"#utility.yul\":29081:29093   */\n      revert\n        /* \"#utility.yul\":29032:29034   */\n    tag_529:\n        /* \"#utility.yul\":29022:29101   */\n      pop\n      jump\t// out\n        /* \"#utility.yul\":29107:29229   */\n    tag_264:\n        /* \"#utility.yul\":29180:29204   */\n      tag_531\n        /* \"#utility.yul\":29198:29203   */\n      dup2\n        /* \"#utility.yul\":29180:29204   */\n      tag_419\n      jump\t// in\n    tag_531:\n        /* \"#utility.yul\":29173:29178   */\n      dup2\n        /* \"#utility.yul\":29170:29205   */\n      eq\n        /* \"#utility.yul\":29160:29162   */\n      tag_532\n      jumpi\n        /* \"#utility.yul\":29219:29220   */\n      0x00\n        /* \"#utility.yul\":29216:29217   */\n      dup1\n        /* \"#utility.yul\":29209:29221   */\n      revert\n        /* \"#utility.yul\":29160:29162   */\n    tag_532:\n        /* \"#utility.yul\":29150:29229   */\n      pop\n      jump\t// out\n\n    auxdata: 0xa2646970667358221220683bfacd461cfbfe4b995c3cd1406baefb732d787699d678ee6172e9ab85c22c64736f6c63430008000033\n}\n",
				"bytecode": {
					"linkReferences": {},
					"object": "608060405260006005553480156200001657600080fd5b5061c3506200003a6200002e6200008e60201b60201c565b6200009660201b60201c565b80600481905550600454600260003373ffffffffffffffffffffffffffffffffffffffff1673ffffffffffffffffffffffffffffffffffffffff16815260200190815260200160002081905550506200015a565b600033905090565b60008060009054906101000a900473ffffffffffffffffffffffffffffffffffffffff169050816000806101000a81548173ffffffffffffffffffffffffffffffffffffffff021916908373ffffffffffffffffffffffffffffffffffffffff1602179055508173ffffffffffffffffffffffffffffffffffffffff168173ffffffffffffffffffffffffffffffffffffffff167f8be0079c531659141344cd1fd0a4f28419497f9722a3daafe3b4186f6b6457e060405160405180910390a35050565b612ee1806200016a6000396000f3fe608060405234801561001057600080fd5b50600436106101005760003560e01c806370a08231116100975780638da5cb5b116100665780638da5cb5b146102bf57806395d89b41146102dd578063a9059cbb146102fb578063f2fde38b1461032b57610100565b806370a0823114610225578063715018a6146102555780637aa9d3bb1461025f5780637c7b0ff41461028f57610100565b80632b63681c116100d35780632b63681c146101b3578063313ce567146101cf5780634fee13fc146101ed578063598647f81461020957610100565b806306fdde0314610105578063095ea7b3146101235780631a46ec821461015357806323b872dd14610183575b600080fd5b61010d610347565b60405161011a9190612974565b60405180910390f35b61013d600480360381019061013891906120ff565b610380565b60405161014a9190612959565b60405180910390f35b61016d60048036038101906101689190612074565b610472565b60405161017a9190612ab8565b60405180910390f35b61019d600480360381019061019891906120b0565b6104f9565b6040516101aa9190612959565b60405180910390f35b6101cd60048036038101906101c8919061217c565b61077f565b005b6101d761089f565b6040516101e49190612ad3565b60405180910390f35b610207600480360381019061020291906121a5565b6108a4565b005b610223600480360381019061021e91906121a5565b610a25565b005b61023f600480360381019061023a919061204b565b610c5c565b60405161024c9190612ab8565b60405180910390f35b61025d610ca5565b005b6102796004803603810190610274919061213b565b610cb9565b6040516102869190612937565b60405180910390f35b6102a960048036038101906102a4919061217c565b611380565b6040516102b69190612a96565b60405180910390f35b6102c7611990565b6040516102d4919061291c565b60405180910390f35b6102e56119b9565b6040516102f29190612974565b60405180910390f35b610315600480360381019061031091906120ff565b6119f2565b6040516103229190612959565b60405180910390f35b6103456004803603810190610340919061204b565b611b5b565b005b6040518060400160405280600781526020017f426572726965730000000000000000000000000000000000000000000000000081525081565b600081600360003373ffffffffffffffffffffffffffffffffffffffff1673ffffffffffffffffffffffffffffffffffffffff16815260200190815260200160002060008573ffffffffffffffffffffffffffffffffffffffff1673ffffffffffffffffffffffffffffffffffffffff168152602001908152602001600020819055508273ffffffffffffffffffffffffffffffffffffffff163373ffffffffffffffffffffffffffffffffffffffff167f8c5be1e5ebec7d5bd14f71427d1e84f3dd0314c0f7b2291e5b200ac8c7c3b925846040516104609190612ab8565b60405180910390a36001905092915050565b6000600360008473ffffffffffffffffffffffffffffffffffffffff1673ffffffffffffffffffffffffffffffffffffffff16815260200190815260200160002060008373ffffffffffffffffffffffffffffffffffffffff1673ffffffffffffffffffffffffffffffffffffffff16815260200190815260200160002054905092915050565b6000600260008573ffffffffffffffffffffffffffffffffffffffff1673ffffffffffffffffffffffffffffffffffffffff1681526020019081526020016000205482111561054757600080fd5b600360008573ffffffffffffffffffffffffffffffffffffffff1673ffffffffffffffffffffffffffffffffffffffff16815260200190815260200160002060003373ffffffffffffffffffffffffffffffffffffffff1673ffffffffffffffffffffffffffffffffffffffff168152602001908152602001600020548211156105d057600080fd5b81600260008673ffffffffffffffffffffffffffffffffffffffff1673ffffffffffffffffffffffffffffffffffffffff168152602001908152602001600020600082825461061f9190612c07565b9250508190555081600360008673ffffffffffffffffffffffffffffffffffffffff1673ffffffffffffffffffffffffffffffffffffffff16815260200190815260200160002060003373ffffffffffffffffffffffffffffffffffffffff1673ffffffffffffffffffffffffffffffffffffffff16815260200190815260200160002060008282546106b29190612c07565b9250508190555081600260008573ffffffffffffffffffffffffffffffffffffffff1673ffffffffffffffffffffffffffffffffffffffff16815260200190815260200160002060008282546107089190612bb1565b925050819055508273ffffffffffffffffffffffffffffffffffffffff168473ffffffffffffffffffffffffffffffffffffffff167fddf252ad1be2c89b69c2b068fc378daa952ba7f163c4a11628f55a4df523b3ef8460405161076c9190612ab8565b60405180910390a3600190509392505050565b6005600081548092919061079290612d3f565b9190505550600554600660006005548152602001908152602001600020600001819055506000600660006005548152602001908152602001600020600101819055503360066000600554815260200190815260200160002060020160010160006101000a81548173ffffffffffffffffffffffffffffffffffffffff021916908373ffffffffffffffffffffffffffffffffffffffff160217905550600160066000600554815260200190815260200160002060040160000160036101000a81548160ff02191690831515021790555042600660006005548152602001908152602001600020600d018190555080600660006005548152602001908152602001600020600e018190555050565b601281565b6006600083815260200190815260200160002060020160010160009054906101000a900473ffffffffffffffffffffffffffffffffffffffff1673ffffffffffffffffffffffffffffffffffffffff163373ffffffffffffffffffffffffffffffffffffffff161461094b576040517f08c379a000000000000000000000000000000000000000000000000000000000815260040161094290612a16565b60405180910390fd5b600115156006600084815260200190815260200160002060040160000160039054906101000a900460ff16151514156109b9576040517f08c379a00000000000000000000000000000000000000000000000000000000081526004016109b090612a36565b60405180910390fd5b60016006600084815260200190815260200160002060040160000160036101000a81548160ff0219169083151502179055504260066000848152602001908152602001600020600d01819055508060066000848152602001908152602001600020600e01819055505050565b610a2e82611bdf565b600115156006600084815260200190815260200160002060040160000160039054906101000a900460ff16151514610a9b576040517f08c379a0000000000000000000000000000000000000000000000000000000008152600401610a92906129f6565b60405180910390fd5b6006600083815260200190815260200160002060020160010160009054906101000a900473ffffffffffffffffffffffffffffffffffffffff1673ffffffffffffffffffffffffffffffffffffffff163373ffffffffffffffffffffffffffffffffffffffff161415610b43576040517f08c379a0000000000000000000000000000000000000000000000000000000008152600401610b3a906129b6565b60405180910390fd5b610b4c33610c5c565b8110610b8d576040517f08c379a0000000000000000000000000000000000000000000000000000000008152600401610b8490612996565b60405180910390fd5b60066000838152602001908152602001600020600101548111610be5576040517f08c379a0000000000000000000000000000000000000000000000000000000008152600401610bdc90612a76565b60405180910390fd5b806006600084815260200190815260200160002060010181905550336006600084815260200190815260200160002060020160000160006101000a81548173ffffffffffffffffffffffffffffffffffffffff021916908373ffffffffffffffffffffffffffffffffffffffff1602179055505050565b6000600260008373ffffffffffffffffffffffffffffffffffffffff1673ffffffffffffffffffffffffffffffffffffffff168152602001908152602001600020549050919050565b610cad611c8a565b610cb76000611d08565b565b6060806000805b8451811015611375576000858281518110610d04577f4e487b7100000000000000000000000000000000000000000000000000000000600052603260045260246000fd5b6020026020010151905060066000828152602001908152602001600020604051806101000160405290816000820154815260200160018201548152602001600282016040518060400160405290816000820160009054906101000a900473ffffffffffffffffffffffffffffffffffffffff1673ffffffffffffffffffffffffffffffffffffffff1673ffffffffffffffffffffffffffffffffffffffff1681526020016001820160009054906101000a900473ffffffffffffffffffffffffffffffffffffffff1673ffffffffffffffffffffffffffffffffffffffff1673ffffffffffffffffffffffffffffffffffffffff16815250508152602001600482016040518060a00160405290816000820160009054906101000a900460ff161515151581526020016000820160019054906101000a900460ff161515151581526020016000820160029054906101000a900460ff161515151581526020016000820160039054906101000a900460ff161515151581526020016000820160049054906101000a900460ff166002811115610ec8577f4e487b7100000000000000000000000000000000000000000000000000000000600052602160045260246000fd5b6002811115610f00577f4e487b7100000000000000000000000000000000000000000000000000000000600052602160045260246000fd5b81525050815260200160058201604051806080016040529081600082018054610f2890612d0d565b80601f0160208091040260200160405190810160405280929190818152602001828054610f5490612d0d565b8015610fa15780601f10610f7657610100808354040283529160200191610fa1565b820191906000526020600020905b815481529060010190602001808311610f8457829003601f168201915b50505050508152602001600182018054610fba90612d0d565b80601f0160208091040260200160405190810160405280929190818152602001828054610fe690612d0d565b80156110335780601f1061100857610100808354040283529160200191611033565b820191906000526020600020905b81548152906001019060200180831161101657829003601f168201915b50505050508152602001600282015481526020016003820154815250508152602001600982016040518060a001604052908160008201805461107490612d0d565b80601f01602080910402602001604051908101604052809291908181526020018280546110a090612d0d565b80156110ed5780601f106110c2576101008083540402835291602001916110ed565b820191906000526020600020905b8154815290600101906020018083116110d057829003601f168201915b5050505050815260200160018201805461110690612d0d565b80601f016020809104026020016040519081016040528092919081815260200182805461113290612d0d565b801561117f5780601f106111545761010080835404028352916020019161117f565b820191906000526020600020905b81548152906001019060200180831161116257829003601f168201915b5050505050815260200160028201805461119890612d0d565b80601f01602080910402602001604051908101604052809291908181526020018280546111c490612d0d565b80156112115780601f106111e657610100808354040283529160200191611211565b820191906000526020600020905b8154815290600101906020018083116111f457829003601f168201915b505050505081526020016003820160009054906101000a900460ff166003811115611265577f4e487b7100000000000000000000000000000000000000000000000000000000600052602160045260246000fd5b600381111561129d577f4e487b7100000000000000000000000000000000000000000000000000000000600052602160045260246000fd5b81526020016003820160019054906101000a900473ffffffffffffffffffffffffffffffffffffffff1673ffffffffffffffffffffffffffffffffffffffff1673ffffffffffffffffffffffffffffffffffffffff16815250508152602001600d8201548152602001600e82015481525050848481518110611348577f4e487b7100000000000000000000000000000000000000000000000000000000600052603260045260246000fd5b6020026020010181905250828061135e90612d3f565b93505050808061136d90612d3f565b915050610cc0565b508192505050919050565b611388611dd4565b60066000838152602001908152602001600020604051806101000160405290816000820154815260200160018201548152602001600282016040518060400160405290816000820160009054906101000a900473ffffffffffffffffffffffffffffffffffffffff1673ffffffffffffffffffffffffffffffffffffffff1673ffffffffffffffffffffffffffffffffffffffff1681526020016001820160009054906101000a900473ffffffffffffffffffffffffffffffffffffffff1673ffffffffffffffffffffffffffffffffffffffff1673ffffffffffffffffffffffffffffffffffffffff16815250508152602001600482016040518060a00160405290816000820160009054906101000a900460ff161515151581526020016000820160019054906101000a900460ff161515151581526020016000820160029054906101000a900460ff161515151581526020016000820160039054906101000a900460ff161515151581526020016000820160049054906101000a900460ff166002811115611542577f4e487b7100000000000000000000000000000000000000000000000000000000600052602160045260246000fd5b600281111561157a577f4e487b7100000000000000000000000000000000000000000000000000000000600052602160045260246000fd5b815250508152602001600582016040518060800160405290816000820180546115a290612d0d565b80601f01602080910402602001604051908101604052809291908181526020018280546115ce90612d0d565b801561161b5780601f106115f05761010080835404028352916020019161161b565b820191906000526020600020905b8154815290600101906020018083116115fe57829003601f168201915b5050505050815260200160018201805461163490612d0d565b80601f016020809104026020016040519081016040528092919081815260200182805461166090612d0d565b80156116ad5780601f10611682576101008083540402835291602001916116ad565b820191906000526020600020905b81548152906001019060200180831161169057829003601f168201915b50505050508152602001600282015481526020016003820154815250508152602001600982016040518060a00160405290816000820180546116ee90612d0d565b80601f016020809104026020016040519081016040528092919081815260200182805461171a90612d0d565b80156117675780601f1061173c57610100808354040283529160200191611767565b820191906000526020600020905b81548152906001019060200180831161174a57829003601f168201915b5050505050815260200160018201805461178090612d0d565b80601f01602080910402602001604051908101604052809291908181526020018280546117ac90612d0d565b80156117f95780601f106117ce576101008083540402835291602001916117f9565b820191906000526020600020905b8154815290600101906020018083116117dc57829003601f168201915b5050505050815260200160028201805461181290612d0d565b80601f016020809104026020016040519081016040528092919081815260200182805461183e90612d0d565b801561188b5780601f106118605761010080835404028352916020019161188b565b820191906000526020600020905b81548152906001019060200180831161186e57829003601f168201915b505050505081526020016003820160009054906101000a900460ff1660038111156118df577f4e487b7100000000000000000000000000000000000000000000000000000000600052602160045260246000fd5b6003811115611917577f4e487b7100000000000000000000000000000000000000000000000000000000600052602160045260246000fd5b81526020016003820160019054906101000a900473ffffffffffffffffffffffffffffffffffffffff1673ffffffffffffffffffffffffffffffffffffffff1673ffffffffffffffffffffffffffffffffffffffff16815250508152602001600d8201548152602001600e820154815250509050919050565b60008060009054906101000a900473ffffffffffffffffffffffffffffffffffffffff16905090565b6040518060400160405280600481526020017f424552590000000000000000000000000000000000000000000000000000000081525081565b6000600260003373ffffffffffffffffffffffffffffffffffffffff1673ffffffffffffffffffffffffffffffffffffffff16815260200190815260200160002054821115611a4057600080fd5b81600260003373ffffffffffffffffffffffffffffffffffffffff1673ffffffffffffffffffffffffffffffffffffffff1681526020019081526020016000206000828254611a8f9190612c07565b9250508190555081600260008573ffffffffffffffffffffffffffffffffffffffff1673ffffffffffffffffffffffffffffffffffffffff1681526020019081526020016000206000828254611ae59190612bb1565b925050819055508273ffffffffffffffffffffffffffffffffffffffff163373ffffffffffffffffffffffffffffffffffffffff167fddf252ad1be2c89b69c2b068fc378daa952ba7f163c4a11628f55a4df523b3ef84604051611b499190612ab8565b60405180910390a36001905092915050565b611b63611c8a565b600073ffffffffffffffffffffffffffffffffffffffff168173ffffffffffffffffffffffffffffffffffffffff161415611bd3576040517f08c379a0000000000000000000000000000000000000000000000000000000008152600401611bca906129d6565b60405180910390fd5b611bdc81611d08565b50565b600115156006600083815260200190815260200160002060040160000160039054906101000a900460ff161515148015611c4f57504260066000838152602001908152602001600020600e015460066000848152602001908152602001600020600d0154611c4d9190612bb1565b105b15611c875760006006600083815260200190815260200160002060040160000160036101000a81548160ff0219169083151502179055505b50565b611c92611dcc565b73ffffffffffffffffffffffffffffffffffffffff16611cb0611990565b73ffffffffffffffffffffffffffffffffffffffff1614611d06576040517f08c379a0000000000000000000000000000000000000000000000000000000008152600401611cfd90612a56565b60405180910390fd5b565b60008060009054906101000a900473ffffffffffffffffffffffffffffffffffffffff169050816000806101000a81548173ffffffffffffffffffffffffffffffffffffffff021916908373ffffffffffffffffffffffffffffffffffffffff1602179055508173ffffffffffffffffffffffffffffffffffffffff168173ffffffffffffffffffffffffffffffffffffffff167f8be0079c531659141344cd1fd0a4f28419497f9722a3daafe3b4186f6b6457e060405160405180910390a35050565b600033905090565b6040518061010001604052806000815260200160008152602001611df6611e31565b8152602001611e03611e77565b8152602001611e10611ee6565b8152602001611e1d611f0e565b815260200160008152602001600081525090565b6040518060400160405280600073ffffffffffffffffffffffffffffffffffffffff168152602001600073ffffffffffffffffffffffffffffffffffffffff1681525090565b6040518060a0016040528060001515815260200160001515815260200160001515815260200160001515815260200160006002811115611ee0577f4e487b7100000000000000000000000000000000000000000000000000000000600052602160045260246000fd5b81525090565b6040518060800160405280606081526020016060815260200160008152602001600081525090565b6040518060a0016040528060608152602001606081526020016060815260200160006003811115611f68577f4e487b7100000000000000000000000000000000000000000000000000000000600052602160045260246000fd5b8152602001600073ffffffffffffffffffffffffffffffffffffffff1681525090565b6000611f9e611f9984612b1f565b612aee565b90508083825260208201905082856020860282011115611fbd57600080fd5b60005b85811015611fed5781611fd38882612036565b845260208401935060208301925050600181019050611fc0565b5050509392505050565b60008135905061200681612e7d565b92915050565b600082601f83011261201d57600080fd5b813561202d848260208601611f8b565b91505092915050565b60008135905061204581612e94565b92915050565b60006020828403121561205d57600080fd5b600061206b84828501611ff7565b91505092915050565b6000806040838503121561208757600080fd5b600061209585828601611ff7565b92505060206120a685828601611ff7565b9150509250929050565b6000806000606084860312156120c557600080fd5b60006120d386828701611ff7565b93505060206120e486828701611ff7565b92505060406120f586828701612036565b9150509250925092565b6000806040838503121561211257600080fd5b600061212085828601611ff7565b925050602061213185828601612036565b9150509250929050565b60006020828403121561214d57600080fd5b600082013567ffffffffffffffff81111561216757600080fd5b6121738482850161200c565b91505092915050565b60006020828403121561218e57600080fd5b600061219c84828501612036565b91505092915050565b600080604083850312156121b857600080fd5b60006121c685828601612036565b92505060206121d785828601612036565b9150509250929050565b60006121ed83836125f4565b905092915050565b6121fe81612c3b565b82525050565b61220d81612c3b565b82525050565b600061221e82612b5b565b6122288185612b7e565b93508360208202850161223a85612b4b565b8060005b85811015612276578484038952815161225785826121e1565b945061226283612b71565b925060208a0199505060018101905061223e565b50829750879550505050505092915050565b61229181612c4d565b82525050565b6122a081612c4d565b82525050565b6122af81612cb6565b82525050565b6122be81612cc8565b82525050565b60006122cf82612b66565b6122d98185612b8f565b93506122e9818560208601612cda565b6122f281612e44565b840191505092915050565b600061230882612b66565b6123128185612ba0565b9350612322818560208601612cda565b61232b81612e44565b840191505092915050565b6000612343601a83612ba0565b91507f4e6f7420656e6f7567682062616c616e636520746f20626964210000000000006000830152602082019050919050565b6000612383602883612ba0565b91507f447269766572732063616e6e6f742062696420696e207468656972206f776e2060008301527f61756374696f6e210000000000000000000000000000000000000000000000006020830152604082019050919050565b60006123e9602683612ba0565b91507f4f776e61626c653a206e6577206f776e657220697320746865207a65726f206160008301527f64647265737300000000000000000000000000000000000000000000000000006020830152604082019050919050565b600061244f601d83612ba0565b91507f41756374696f6e2068617320616c72656164792066696e6973686564210000006000830152602082019050919050565b600061248f602383612ba0565b91507f4f6e6c7920447269766572732063616e2073746172742074686520617563746960008301527f6f6e2100000000000000000000000000000000000000000000000000000000006020830152604082019050919050565b60006124f5602383612ba0565b91507f41756374696f6e2068617320616c72656164792073746172746564206265666f60008301527f72652100000000000000000000000000000000000000000000000000000000006020830152604082019050919050565b600061255b602083612ba0565b91507f4f776e61626c653a2063616c6c6572206973206e6f7420746865206f776e65726000830152602082019050919050565b600061259b602c83612ba0565b91507f42696420686967686572207468616e207468652070726576696f75732068696760008301527f68657374206269646465722100000000000000000000000000000000000000006020830152604082019050919050565b60006101a08301600083015161260d60008601826128ef565b50602083015161262060208601826128ef565b506040830151612633604086018261283c565b50606083015161264660808601826127d4565b50608083015184820361012086015261265f828261276a565b91505060a083015184820361014086015261267a828261286b565b91505060c08301516126906101608601826128ef565b5060e08301516126a46101808601826128ef565b508091505092915050565b60006101a0830160008301516126c860008601826128ef565b5060208301516126db60208601826128ef565b5060408301516126ee604086018261283c565b50606083015161270160808601826127d4565b50608083015184820361012086015261271a828261276a565b91505060a0830151848203610140860152612735828261286b565b91505060c083015161274b6101608601826128ef565b5060e083015161275f6101808601826128ef565b508091505092915050565b6000608083016000830151848203600086015261278782826122c4565b915050602083015184820360208601526127a182826122c4565b91505060408301516127b660408601826128ef565b5060608301516127c960608601826128ef565b508091505092915050565b60a0820160008201516127ea6000850182612288565b5060208201516127fd6020850182612288565b5060408201516128106040850182612288565b5060608201516128236060850182612288565b50608082015161283660808501826122b5565b50505050565b60408201600082015161285260008501826121f5565b50602082015161286560208501826121f5565b50505050565b600060a083016000830151848203600086015261288882826122c4565b915050602083015184820360208601526128a282826122c4565b915050604083015184820360408601526128bc82826122c4565b91505060608301516128d160608601826122a6565b5060808301516128e460808601826121f5565b508091505092915050565b6128f881612c9f565b82525050565b61290781612c9f565b82525050565b61291681612ca9565b82525050565b60006020820190506129316000830184612204565b92915050565b600060208201905081810360008301526129518184612213565b905092915050565b600060208201905061296e6000830184612297565b92915050565b6000602082019050818103600083015261298e81846122fd565b905092915050565b600060208201905081810360008301526129af81612336565b9050919050565b600060208201905081810360008301526129cf81612376565b9050919050565b600060208201905081810360008301526129ef816123dc565b9050919050565b60006020820190508181036000830152612a0f81612442565b9050919050565b60006020820190508181036000830152612a2f81612482565b9050919050565b60006020820190508181036000830152612a4f816124e8565b9050919050565b60006020820190508181036000830152612a6f8161254e565b9050919050565b60006020820190508181036000830152612a8f8161258e565b9050919050565b60006020820190508181036000830152612ab081846126af565b905092915050565b6000602082019050612acd60008301846128fe565b92915050565b6000602082019050612ae8600083018461290d565b92915050565b6000604051905081810181811067ffffffffffffffff82111715612b1557612b14612e15565b5b8060405250919050565b600067ffffffffffffffff821115612b3a57612b39612e15565b5b602082029050602081019050919050565b6000819050602082019050919050565b600081519050919050565b600081519050919050565b6000602082019050919050565b600082825260208201905092915050565b600082825260208201905092915050565b600082825260208201905092915050565b6000612bbc82612c9f565b9150612bc783612c9f565b9250827fffffffffffffffffffffffffffffffffffffffffffffffffffffffffffffffff03821115612bfc57612bfb612d88565b5b828201905092915050565b6000612c1282612c9f565b9150612c1d83612c9f565b925082821015612c3057612c2f612d88565b5b828203905092915050565b6000612c4682612c7f565b9050919050565b60008115159050919050565b6000819050612c6782612e55565b919050565b6000819050612c7a82612e69565b919050565b600073ffffffffffffffffffffffffffffffffffffffff82169050919050565b6000819050919050565b600060ff82169050919050565b6000612cc182612c59565b9050919050565b6000612cd382612c6c565b9050919050565b60005b83811015612cf8578082015181840152602081019050612cdd565b83811115612d07576000848401525b50505050565b60006002820490506001821680612d2557607f821691505b60208210811415612d3957612d38612de6565b5b50919050565b6000612d4a82612c9f565b91507fffffffffffffffffffffffffffffffffffffffffffffffffffffffffffffffff821415612d7d57612d7c612d88565b5b600182019050919050565b7f4e487b7100000000000000000000000000000000000000000000000000000000600052601160045260246000fd5b7f4e487b7100000000000000000000000000000000000000000000000000000000600052602160045260246000fd5b7f4e487b7100000000000000000000000000000000000000000000000000000000600052602260045260246000fd5b7f4e487b7100000000000000000000000000000000000000000000000000000000600052604160045260246000fd5b6000601f19601f8301169050919050565b60048110612e6657612e65612db7565b5b50565b60038110612e7a57612e79612db7565b5b50565b612e8681612c3b565b8114612e9157600080fd5b50565b612e9d81612c9f565b8114612ea857600080fd5b5056fea2646970667358221220683bfacd461cfbfe4b995c3cd1406baefb732d787699d678ee6172e9ab85c22c64736f6c63430008000033",
					"opcodes": "PUSH1 0x80 PUSH1 0x40 MSTORE PUSH1 0x0 PUSH1 0x5 SSTORE CALLVALUE DUP1 ISZERO PUSH3 0x16 JUMPI PUSH1 0x0 DUP1 REVERT JUMPDEST POP PUSH2 0xC350 PUSH3 0x3A PUSH3 0x2E PUSH3 0x8E PUSH1 0x20 SHL PUSH1 0x20 SHR JUMP JUMPDEST PUSH3 0x96 PUSH1 0x20 SHL PUSH1 0x20 SHR JUMP JUMPDEST DUP1 PUSH1 0x4 DUP2 SWAP1 SSTORE POP PUSH1 0x4 SLOAD PUSH1 0x2 PUSH1 0x0 CALLER PUSH20 0xFFFFFFFFFFFFFFFFFFFFFFFFFFFFFFFFFFFFFFFF AND PUSH20 0xFFFFFFFFFFFFFFFFFFFFFFFFFFFFFFFFFFFFFFFF AND DUP2 MSTORE PUSH1 0x20 ADD SWAP1 DUP2 MSTORE PUSH1 0x20 ADD PUSH1 0x0 KECCAK256 DUP2 SWAP1 SSTORE POP POP PUSH3 0x15A JUMP JUMPDEST PUSH1 0x0 CALLER SWAP1 POP SWAP1 JUMP JUMPDEST PUSH1 0x0 DUP1 PUSH1 0x0 SWAP1 SLOAD SWAP1 PUSH2 0x100 EXP SWAP1 DIV PUSH20 0xFFFFFFFFFFFFFFFFFFFFFFFFFFFFFFFFFFFFFFFF AND SWAP1 POP DUP2 PUSH1 0x0 DUP1 PUSH2 0x100 EXP DUP2 SLOAD DUP2 PUSH20 0xFFFFFFFFFFFFFFFFFFFFFFFFFFFFFFFFFFFFFFFF MUL NOT AND SWAP1 DUP4 PUSH20 0xFFFFFFFFFFFFFFFFFFFFFFFFFFFFFFFFFFFFFFFF AND MUL OR SWAP1 SSTORE POP DUP2 PUSH20 0xFFFFFFFFFFFFFFFFFFFFFFFFFFFFFFFFFFFFFFFF AND DUP2 PUSH20 0xFFFFFFFFFFFFFFFFFFFFFFFFFFFFFFFFFFFFFFFF AND PUSH32 0x8BE0079C531659141344CD1FD0A4F28419497F9722A3DAAFE3B4186F6B6457E0 PUSH1 0x40 MLOAD PUSH1 0x40 MLOAD DUP1 SWAP2 SUB SWAP1 LOG3 POP POP JUMP JUMPDEST PUSH2 0x2EE1 DUP1 PUSH3 0x16A PUSH1 0x0 CODECOPY PUSH1 0x0 RETURN INVALID PUSH1 0x80 PUSH1 0x40 MSTORE CALLVALUE DUP1 ISZERO PUSH2 0x10 JUMPI PUSH1 0x0 DUP1 REVERT JUMPDEST POP PUSH1 0x4 CALLDATASIZE LT PUSH2 0x100 JUMPI PUSH1 0x0 CALLDATALOAD PUSH1 0xE0 SHR DUP1 PUSH4 0x70A08231 GT PUSH2 0x97 JUMPI DUP1 PUSH4 0x8DA5CB5B GT PUSH2 0x66 JUMPI DUP1 PUSH4 0x8DA5CB5B EQ PUSH2 0x2BF JUMPI DUP1 PUSH4 0x95D89B41 EQ PUSH2 0x2DD JUMPI DUP1 PUSH4 0xA9059CBB EQ PUSH2 0x2FB JUMPI DUP1 PUSH4 0xF2FDE38B EQ PUSH2 0x32B JUMPI PUSH2 0x100 JUMP JUMPDEST DUP1 PUSH4 0x70A08231 EQ PUSH2 0x225 JUMPI DUP1 PUSH4 0x715018A6 EQ PUSH2 0x255 JUMPI DUP1 PUSH4 0x7AA9D3BB EQ PUSH2 0x25F JUMPI DUP1 PUSH4 0x7C7B0FF4 EQ PUSH2 0x28F JUMPI PUSH2 0x100 JUMP JUMPDEST DUP1 PUSH4 0x2B63681C GT PUSH2 0xD3 JUMPI DUP1 PUSH4 0x2B63681C EQ PUSH2 0x1B3 JUMPI DUP1 PUSH4 0x313CE567 EQ PUSH2 0x1CF JUMPI DUP1 PUSH4 0x4FEE13FC EQ PUSH2 0x1ED JUMPI DUP1 PUSH4 0x598647F8 EQ PUSH2 0x209 JUMPI PUSH2 0x100 JUMP JUMPDEST DUP1 PUSH4 0x6FDDE03 EQ PUSH2 0x105 JUMPI DUP1 PUSH4 0x95EA7B3 EQ PUSH2 0x123 JUMPI DUP1 PUSH4 0x1A46EC82 EQ PUSH2 0x153 JUMPI DUP1 PUSH4 0x23B872DD EQ PUSH2 0x183 JUMPI JUMPDEST PUSH1 0x0 DUP1 REVERT JUMPDEST PUSH2 0x10D PUSH2 0x347 JUMP JUMPDEST PUSH1 0x40 MLOAD PUSH2 0x11A SWAP2 SWAP1 PUSH2 0x2974 JUMP JUMPDEST PUSH1 0x40 MLOAD DUP1 SWAP2 SUB SWAP1 RETURN JUMPDEST PUSH2 0x13D PUSH1 0x4 DUP1 CALLDATASIZE SUB DUP2 ADD SWAP1 PUSH2 0x138 SWAP2 SWAP1 PUSH2 0x20FF JUMP JUMPDEST PUSH2 0x380 JUMP JUMPDEST PUSH1 0x40 MLOAD PUSH2 0x14A SWAP2 SWAP1 PUSH2 0x2959 JUMP JUMPDEST PUSH1 0x40 MLOAD DUP1 SWAP2 SUB SWAP1 RETURN JUMPDEST PUSH2 0x16D PUSH1 0x4 DUP1 CALLDATASIZE SUB DUP2 ADD SWAP1 PUSH2 0x168 SWAP2 SWAP1 PUSH2 0x2074 JUMP JUMPDEST PUSH2 0x472 JUMP JUMPDEST PUSH1 0x40 MLOAD PUSH2 0x17A SWAP2 SWAP1 PUSH2 0x2AB8 JUMP JUMPDEST PUSH1 0x40 MLOAD DUP1 SWAP2 SUB SWAP1 RETURN JUMPDEST PUSH2 0x19D PUSH1 0x4 DUP1 CALLDATASIZE SUB DUP2 ADD SWAP1 PUSH2 0x198 SWAP2 SWAP1 PUSH2 0x20B0 JUMP JUMPDEST PUSH2 0x4F9 JUMP JUMPDEST PUSH1 0x40 MLOAD PUSH2 0x1AA SWAP2 SWAP1 PUSH2 0x2959 JUMP JUMPDEST PUSH1 0x40 MLOAD DUP1 SWAP2 SUB SWAP1 RETURN JUMPDEST PUSH2 0x1CD PUSH1 0x4 DUP1 CALLDATASIZE SUB DUP2 ADD SWAP1 PUSH2 0x1C8 SWAP2 SWAP1 PUSH2 0x217C JUMP JUMPDEST PUSH2 0x77F JUMP JUMPDEST STOP JUMPDEST PUSH2 0x1D7 PUSH2 0x89F JUMP JUMPDEST PUSH1 0x40 MLOAD PUSH2 0x1E4 SWAP2 SWAP1 PUSH2 0x2AD3 JUMP JUMPDEST PUSH1 0x40 MLOAD DUP1 SWAP2 SUB SWAP1 RETURN JUMPDEST PUSH2 0x207 PUSH1 0x4 DUP1 CALLDATASIZE SUB DUP2 ADD SWAP1 PUSH2 0x202 SWAP2 SWAP1 PUSH2 0x21A5 JUMP JUMPDEST PUSH2 0x8A4 JUMP JUMPDEST STOP JUMPDEST PUSH2 0x223 PUSH1 0x4 DUP1 CALLDATASIZE SUB DUP2 ADD SWAP1 PUSH2 0x21E SWAP2 SWAP1 PUSH2 0x21A5 JUMP JUMPDEST PUSH2 0xA25 JUMP JUMPDEST STOP JUMPDEST PUSH2 0x23F PUSH1 0x4 DUP1 CALLDATASIZE SUB DUP2 ADD SWAP1 PUSH2 0x23A SWAP2 SWAP1 PUSH2 0x204B JUMP JUMPDEST PUSH2 0xC5C JUMP JUMPDEST PUSH1 0x40 MLOAD PUSH2 0x24C SWAP2 SWAP1 PUSH2 0x2AB8 JUMP JUMPDEST PUSH1 0x40 MLOAD DUP1 SWAP2 SUB SWAP1 RETURN JUMPDEST PUSH2 0x25D PUSH2 0xCA5 JUMP JUMPDEST STOP JUMPDEST PUSH2 0x279 PUSH1 0x4 DUP1 CALLDATASIZE SUB DUP2 ADD SWAP1 PUSH2 0x274 SWAP2 SWAP1 PUSH2 0x213B JUMP JUMPDEST PUSH2 0xCB9 JUMP JUMPDEST PUSH1 0x40 MLOAD PUSH2 0x286 SWAP2 SWAP1 PUSH2 0x2937 JUMP JUMPDEST PUSH1 0x40 MLOAD DUP1 SWAP2 SUB SWAP1 RETURN JUMPDEST PUSH2 0x2A9 PUSH1 0x4 DUP1 CALLDATASIZE SUB DUP2 ADD SWAP1 PUSH2 0x2A4 SWAP2 SWAP1 PUSH2 0x217C JUMP JUMPDEST PUSH2 0x1380 JUMP JUMPDEST PUSH1 0x40 MLOAD PUSH2 0x2B6 SWAP2 SWAP1 PUSH2 0x2A96 JUMP JUMPDEST PUSH1 0x40 MLOAD DUP1 SWAP2 SUB SWAP1 RETURN JUMPDEST PUSH2 0x2C7 PUSH2 0x1990 JUMP JUMPDEST PUSH1 0x40 MLOAD PUSH2 0x2D4 SWAP2 SWAP1 PUSH2 0x291C JUMP JUMPDEST PUSH1 0x40 MLOAD DUP1 SWAP2 SUB SWAP1 RETURN JUMPDEST PUSH2 0x2E5 PUSH2 0x19B9 JUMP JUMPDEST PUSH1 0x40 MLOAD PUSH2 0x2F2 SWAP2 SWAP1 PUSH2 0x2974 JUMP JUMPDEST PUSH1 0x40 MLOAD DUP1 SWAP2 SUB SWAP1 RETURN JUMPDEST PUSH2 0x315 PUSH1 0x4 DUP1 CALLDATASIZE SUB DUP2 ADD SWAP1 PUSH2 0x310 SWAP2 SWAP1 PUSH2 0x20FF JUMP JUMPDEST PUSH2 0x19F2 JUMP JUMPDEST PUSH1 0x40 MLOAD PUSH2 0x322 SWAP2 SWAP1 PUSH2 0x2959 JUMP JUMPDEST PUSH1 0x40 MLOAD DUP1 SWAP2 SUB SWAP1 RETURN JUMPDEST PUSH2 0x345 PUSH1 0x4 DUP1 CALLDATASIZE SUB DUP2 ADD SWAP1 PUSH2 0x340 SWAP2 SWAP1 PUSH2 0x204B JUMP JUMPDEST PUSH2 0x1B5B JUMP JUMPDEST STOP JUMPDEST PUSH1 0x40 MLOAD DUP1 PUSH1 0x40 ADD PUSH1 0x40 MSTORE DUP1 PUSH1 0x7 DUP2 MSTORE PUSH1 0x20 ADD PUSH32 0x4265727269657300000000000000000000000000000000000000000000000000 DUP2 MSTORE POP DUP2 JUMP JUMPDEST PUSH1 0x0 DUP2 PUSH1 0x3 PUSH1 0x0 CALLER PUSH20 0xFFFFFFFFFFFFFFFFFFFFFFFFFFFFFFFFFFFFFFFF AND PUSH20 0xFFFFFFFFFFFFFFFFFFFFFFFFFFFFFFFFFFFFFFFF AND DUP2 MSTORE PUSH1 0x20 ADD SWAP1 DUP2 MSTORE PUSH1 0x20 ADD PUSH1 0x0 KECCAK256 PUSH1 0x0 DUP6 PUSH20 0xFFFFFFFFFFFFFFFFFFFFFFFFFFFFFFFFFFFFFFFF AND PUSH20 0xFFFFFFFFFFFFFFFFFFFFFFFFFFFFFFFFFFFFFFFF AND DUP2 MSTORE PUSH1 0x20 ADD SWAP1 DUP2 MSTORE PUSH1 0x20 ADD PUSH1 0x0 KECCAK256 DUP2 SWAP1 SSTORE POP DUP3 PUSH20 0xFFFFFFFFFFFFFFFFFFFFFFFFFFFFFFFFFFFFFFFF AND CALLER PUSH20 0xFFFFFFFFFFFFFFFFFFFFFFFFFFFFFFFFFFFFFFFF AND PUSH32 0x8C5BE1E5EBEC7D5BD14F71427D1E84F3DD0314C0F7B2291E5B200AC8C7C3B925 DUP5 PUSH1 0x40 MLOAD PUSH2 0x460 SWAP2 SWAP1 PUSH2 0x2AB8 JUMP JUMPDEST PUSH1 0x40 MLOAD DUP1 SWAP2 SUB SWAP1 LOG3 PUSH1 0x1 SWAP1 POP SWAP3 SWAP2 POP POP JUMP JUMPDEST PUSH1 0x0 PUSH1 0x3 PUSH1 0x0 DUP5 PUSH20 0xFFFFFFFFFFFFFFFFFFFFFFFFFFFFFFFFFFFFFFFF AND PUSH20 0xFFFFFFFFFFFFFFFFFFFFFFFFFFFFFFFFFFFFFFFF AND DUP2 MSTORE PUSH1 0x20 ADD SWAP1 DUP2 MSTORE PUSH1 0x20 ADD PUSH1 0x0 KECCAK256 PUSH1 0x0 DUP4 PUSH20 0xFFFFFFFFFFFFFFFFFFFFFFFFFFFFFFFFFFFFFFFF AND PUSH20 0xFFFFFFFFFFFFFFFFFFFFFFFFFFFFFFFFFFFFFFFF AND DUP2 MSTORE PUSH1 0x20 ADD SWAP1 DUP2 MSTORE PUSH1 0x20 ADD PUSH1 0x0 KECCAK256 SLOAD SWAP1 POP SWAP3 SWAP2 POP POP JUMP JUMPDEST PUSH1 0x0 PUSH1 0x2 PUSH1 0x0 DUP6 PUSH20 0xFFFFFFFFFFFFFFFFFFFFFFFFFFFFFFFFFFFFFFFF AND PUSH20 0xFFFFFFFFFFFFFFFFFFFFFFFFFFFFFFFFFFFFFFFF AND DUP2 MSTORE PUSH1 0x20 ADD SWAP1 DUP2 MSTORE PUSH1 0x20 ADD PUSH1 0x0 KECCAK256 SLOAD DUP3 GT ISZERO PUSH2 0x547 JUMPI PUSH1 0x0 DUP1 REVERT JUMPDEST PUSH1 0x3 PUSH1 0x0 DUP6 PUSH20 0xFFFFFFFFFFFFFFFFFFFFFFFFFFFFFFFFFFFFFFFF AND PUSH20 0xFFFFFFFFFFFFFFFFFFFFFFFFFFFFFFFFFFFFFFFF AND DUP2 MSTORE PUSH1 0x20 ADD SWAP1 DUP2 MSTORE PUSH1 0x20 ADD PUSH1 0x0 KECCAK256 PUSH1 0x0 CALLER PUSH20 0xFFFFFFFFFFFFFFFFFFFFFFFFFFFFFFFFFFFFFFFF AND PUSH20 0xFFFFFFFFFFFFFFFFFFFFFFFFFFFFFFFFFFFFFFFF AND DUP2 MSTORE PUSH1 0x20 ADD SWAP1 DUP2 MSTORE PUSH1 0x20 ADD PUSH1 0x0 KECCAK256 SLOAD DUP3 GT ISZERO PUSH2 0x5D0 JUMPI PUSH1 0x0 DUP1 REVERT JUMPDEST DUP2 PUSH1 0x2 PUSH1 0x0 DUP7 PUSH20 0xFFFFFFFFFFFFFFFFFFFFFFFFFFFFFFFFFFFFFFFF AND PUSH20 0xFFFFFFFFFFFFFFFFFFFFFFFFFFFFFFFFFFFFFFFF AND DUP2 MSTORE PUSH1 0x20 ADD SWAP1 DUP2 MSTORE PUSH1 0x20 ADD PUSH1 0x0 KECCAK256 PUSH1 0x0 DUP3 DUP3 SLOAD PUSH2 0x61F SWAP2 SWAP1 PUSH2 0x2C07 JUMP JUMPDEST SWAP3 POP POP DUP2 SWAP1 SSTORE POP DUP2 PUSH1 0x3 PUSH1 0x0 DUP7 PUSH20 0xFFFFFFFFFFFFFFFFFFFFFFFFFFFFFFFFFFFFFFFF AND PUSH20 0xFFFFFFFFFFFFFFFFFFFFFFFFFFFFFFFFFFFFFFFF AND DUP2 MSTORE PUSH1 0x20 ADD SWAP1 DUP2 MSTORE PUSH1 0x20 ADD PUSH1 0x0 KECCAK256 PUSH1 0x0 CALLER PUSH20 0xFFFFFFFFFFFFFFFFFFFFFFFFFFFFFFFFFFFFFFFF AND PUSH20 0xFFFFFFFFFFFFFFFFFFFFFFFFFFFFFFFFFFFFFFFF AND DUP2 MSTORE PUSH1 0x20 ADD SWAP1 DUP2 MSTORE PUSH1 0x20 ADD PUSH1 0x0 KECCAK256 PUSH1 0x0 DUP3 DUP3 SLOAD PUSH2 0x6B2 SWAP2 SWAP1 PUSH2 0x2C07 JUMP JUMPDEST SWAP3 POP POP DUP2 SWAP1 SSTORE POP DUP2 PUSH1 0x2 PUSH1 0x0 DUP6 PUSH20 0xFFFFFFFFFFFFFFFFFFFFFFFFFFFFFFFFFFFFFFFF AND PUSH20 0xFFFFFFFFFFFFFFFFFFFFFFFFFFFFFFFFFFFFFFFF AND DUP2 MSTORE PUSH1 0x20 ADD SWAP1 DUP2 MSTORE PUSH1 0x20 ADD PUSH1 0x0 KECCAK256 PUSH1 0x0 DUP3 DUP3 SLOAD PUSH2 0x708 SWAP2 SWAP1 PUSH2 0x2BB1 JUMP JUMPDEST SWAP3 POP POP DUP2 SWAP1 SSTORE POP DUP3 PUSH20 0xFFFFFFFFFFFFFFFFFFFFFFFFFFFFFFFFFFFFFFFF AND DUP5 PUSH20 0xFFFFFFFFFFFFFFFFFFFFFFFFFFFFFFFFFFFFFFFF AND PUSH32 0xDDF252AD1BE2C89B69C2B068FC378DAA952BA7F163C4A11628F55A4DF523B3EF DUP5 PUSH1 0x40 MLOAD PUSH2 0x76C SWAP2 SWAP1 PUSH2 0x2AB8 JUMP JUMPDEST PUSH1 0x40 MLOAD DUP1 SWAP2 SUB SWAP1 LOG3 PUSH1 0x1 SWAP1 POP SWAP4 SWAP3 POP POP POP JUMP JUMPDEST PUSH1 0x5 PUSH1 0x0 DUP2 SLOAD DUP1 SWAP3 SWAP2 SWAP1 PUSH2 0x792 SWAP1 PUSH2 0x2D3F JUMP JUMPDEST SWAP2 SWAP1 POP SSTORE POP PUSH1 0x5 SLOAD PUSH1 0x6 PUSH1 0x0 PUSH1 0x5 SLOAD DUP2 MSTORE PUSH1 0x20 ADD SWAP1 DUP2 MSTORE PUSH1 0x20 ADD PUSH1 0x0 KECCAK256 PUSH1 0x0 ADD DUP2 SWAP1 SSTORE POP PUSH1 0x0 PUSH1 0x6 PUSH1 0x0 PUSH1 0x5 SLOAD DUP2 MSTORE PUSH1 0x20 ADD SWAP1 DUP2 MSTORE PUSH1 0x20 ADD PUSH1 0x0 KECCAK256 PUSH1 0x1 ADD DUP2 SWAP1 SSTORE POP CALLER PUSH1 0x6 PUSH1 0x0 PUSH1 0x5 SLOAD DUP2 MSTORE PUSH1 0x20 ADD SWAP1 DUP2 MSTORE PUSH1 0x20 ADD PUSH1 0x0 KECCAK256 PUSH1 0x2 ADD PUSH1 0x1 ADD PUSH1 0x0 PUSH2 0x100 EXP DUP2 SLOAD DUP2 PUSH20 0xFFFFFFFFFFFFFFFFFFFFFFFFFFFFFFFFFFFFFFFF MUL NOT AND SWAP1 DUP4 PUSH20 0xFFFFFFFFFFFFFFFFFFFFFFFFFFFFFFFFFFFFFFFF AND MUL OR SWAP1 SSTORE POP PUSH1 0x1 PUSH1 0x6 PUSH1 0x0 PUSH1 0x5 SLOAD DUP2 MSTORE PUSH1 0x20 ADD SWAP1 DUP2 MSTORE PUSH1 0x20 ADD PUSH1 0x0 KECCAK256 PUSH1 0x4 ADD PUSH1 0x0 ADD PUSH1 0x3 PUSH2 0x100 EXP DUP2 SLOAD DUP2 PUSH1 0xFF MUL NOT AND SWAP1 DUP4 ISZERO ISZERO MUL OR SWAP1 SSTORE POP TIMESTAMP PUSH1 0x6 PUSH1 0x0 PUSH1 0x5 SLOAD DUP2 MSTORE PUSH1 0x20 ADD SWAP1 DUP2 MSTORE PUSH1 0x20 ADD PUSH1 0x0 KECCAK256 PUSH1 0xD ADD DUP2 SWAP1 SSTORE POP DUP1 PUSH1 0x6 PUSH1 0x0 PUSH1 0x5 SLOAD DUP2 MSTORE PUSH1 0x20 ADD SWAP1 DUP2 MSTORE PUSH1 0x20 ADD PUSH1 0x0 KECCAK256 PUSH1 0xE ADD DUP2 SWAP1 SSTORE POP POP JUMP JUMPDEST PUSH1 0x12 DUP2 JUMP JUMPDEST PUSH1 0x6 PUSH1 0x0 DUP4 DUP2 MSTORE PUSH1 0x20 ADD SWAP1 DUP2 MSTORE PUSH1 0x20 ADD PUSH1 0x0 KECCAK256 PUSH1 0x2 ADD PUSH1 0x1 ADD PUSH1 0x0 SWAP1 SLOAD SWAP1 PUSH2 0x100 EXP SWAP1 DIV PUSH20 0xFFFFFFFFFFFFFFFFFFFFFFFFFFFFFFFFFFFFFFFF AND PUSH20 0xFFFFFFFFFFFFFFFFFFFFFFFFFFFFFFFFFFFFFFFF AND CALLER PUSH20 0xFFFFFFFFFFFFFFFFFFFFFFFFFFFFFFFFFFFFFFFF AND EQ PUSH2 0x94B JUMPI PUSH1 0x40 MLOAD PUSH32 0x8C379A000000000000000000000000000000000000000000000000000000000 DUP2 MSTORE PUSH1 0x4 ADD PUSH2 0x942 SWAP1 PUSH2 0x2A16 JUMP JUMPDEST PUSH1 0x40 MLOAD DUP1 SWAP2 SUB SWAP1 REVERT JUMPDEST PUSH1 0x1 ISZERO ISZERO PUSH1 0x6 PUSH1 0x0 DUP5 DUP2 MSTORE PUSH1 0x20 ADD SWAP1 DUP2 MSTORE PUSH1 0x20 ADD PUSH1 0x0 KECCAK256 PUSH1 0x4 ADD PUSH1 0x0 ADD PUSH1 0x3 SWAP1 SLOAD SWAP1 PUSH2 0x100 EXP SWAP1 DIV PUSH1 0xFF AND ISZERO ISZERO EQ ISZERO PUSH2 0x9B9 JUMPI PUSH1 0x40 MLOAD PUSH32 0x8C379A000000000000000000000000000000000000000000000000000000000 DUP2 MSTORE PUSH1 0x4 ADD PUSH2 0x9B0 SWAP1 PUSH2 0x2A36 JUMP JUMPDEST PUSH1 0x40 MLOAD DUP1 SWAP2 SUB SWAP1 REVERT JUMPDEST PUSH1 0x1 PUSH1 0x6 PUSH1 0x0 DUP5 DUP2 MSTORE PUSH1 0x20 ADD SWAP1 DUP2 MSTORE PUSH1 0x20 ADD PUSH1 0x0 KECCAK256 PUSH1 0x4 ADD PUSH1 0x0 ADD PUSH1 0x3 PUSH2 0x100 EXP DUP2 SLOAD DUP2 PUSH1 0xFF MUL NOT AND SWAP1 DUP4 ISZERO ISZERO MUL OR SWAP1 SSTORE POP TIMESTAMP PUSH1 0x6 PUSH1 0x0 DUP5 DUP2 MSTORE PUSH1 0x20 ADD SWAP1 DUP2 MSTORE PUSH1 0x20 ADD PUSH1 0x0 KECCAK256 PUSH1 0xD ADD DUP2 SWAP1 SSTORE POP DUP1 PUSH1 0x6 PUSH1 0x0 DUP5 DUP2 MSTORE PUSH1 0x20 ADD SWAP1 DUP2 MSTORE PUSH1 0x20 ADD PUSH1 0x0 KECCAK256 PUSH1 0xE ADD DUP2 SWAP1 SSTORE POP POP POP JUMP JUMPDEST PUSH2 0xA2E DUP3 PUSH2 0x1BDF JUMP JUMPDEST PUSH1 0x1 ISZERO ISZERO PUSH1 0x6 PUSH1 0x0 DUP5 DUP2 MSTORE PUSH1 0x20 ADD SWAP1 DUP2 MSTORE PUSH1 0x20 ADD PUSH1 0x0 KECCAK256 PUSH1 0x4 ADD PUSH1 0x0 ADD PUSH1 0x3 SWAP1 SLOAD SWAP1 PUSH2 0x100 EXP SWAP1 DIV PUSH1 0xFF AND ISZERO ISZERO EQ PUSH2 0xA9B JUMPI PUSH1 0x40 MLOAD PUSH32 0x8C379A000000000000000000000000000000000000000000000000000000000 DUP2 MSTORE PUSH1 0x4 ADD PUSH2 0xA92 SWAP1 PUSH2 0x29F6 JUMP JUMPDEST PUSH1 0x40 MLOAD DUP1 SWAP2 SUB SWAP1 REVERT JUMPDEST PUSH1 0x6 PUSH1 0x0 DUP4 DUP2 MSTORE PUSH1 0x20 ADD SWAP1 DUP2 MSTORE PUSH1 0x20 ADD PUSH1 0x0 KECCAK256 PUSH1 0x2 ADD PUSH1 0x1 ADD PUSH1 0x0 SWAP1 SLOAD SWAP1 PUSH2 0x100 EXP SWAP1 DIV PUSH20 0xFFFFFFFFFFFFFFFFFFFFFFFFFFFFFFFFFFFFFFFF AND PUSH20 0xFFFFFFFFFFFFFFFFFFFFFFFFFFFFFFFFFFFFFFFF AND CALLER PUSH20 0xFFFFFFFFFFFFFFFFFFFFFFFFFFFFFFFFFFFFFFFF AND EQ ISZERO PUSH2 0xB43 JUMPI PUSH1 0x40 MLOAD PUSH32 0x8C379A000000000000000000000000000000000000000000000000000000000 DUP2 MSTORE PUSH1 0x4 ADD PUSH2 0xB3A SWAP1 PUSH2 0x29B6 JUMP JUMPDEST PUSH1 0x40 MLOAD DUP1 SWAP2 SUB SWAP1 REVERT JUMPDEST PUSH2 0xB4C CALLER PUSH2 0xC5C JUMP JUMPDEST DUP2 LT PUSH2 0xB8D JUMPI PUSH1 0x40 MLOAD PUSH32 0x8C379A000000000000000000000000000000000000000000000000000000000 DUP2 MSTORE PUSH1 0x4 ADD PUSH2 0xB84 SWAP1 PUSH2 0x2996 JUMP JUMPDEST PUSH1 0x40 MLOAD DUP1 SWAP2 SUB SWAP1 REVERT JUMPDEST PUSH1 0x6 PUSH1 0x0 DUP4 DUP2 MSTORE PUSH1 0x20 ADD SWAP1 DUP2 MSTORE PUSH1 0x20 ADD PUSH1 0x0 KECCAK256 PUSH1 0x1 ADD SLOAD DUP2 GT PUSH2 0xBE5 JUMPI PUSH1 0x40 MLOAD PUSH32 0x8C379A000000000000000000000000000000000000000000000000000000000 DUP2 MSTORE PUSH1 0x4 ADD PUSH2 0xBDC SWAP1 PUSH2 0x2A76 JUMP JUMPDEST PUSH1 0x40 MLOAD DUP1 SWAP2 SUB SWAP1 REVERT JUMPDEST DUP1 PUSH1 0x6 PUSH1 0x0 DUP5 DUP2 MSTORE PUSH1 0x20 ADD SWAP1 DUP2 MSTORE PUSH1 0x20 ADD PUSH1 0x0 KECCAK256 PUSH1 0x1 ADD DUP2 SWAP1 SSTORE POP CALLER PUSH1 0x6 PUSH1 0x0 DUP5 DUP2 MSTORE PUSH1 0x20 ADD SWAP1 DUP2 MSTORE PUSH1 0x20 ADD PUSH1 0x0 KECCAK256 PUSH1 0x2 ADD PUSH1 0x0 ADD PUSH1 0x0 PUSH2 0x100 EXP DUP2 SLOAD DUP2 PUSH20 0xFFFFFFFFFFFFFFFFFFFFFFFFFFFFFFFFFFFFFFFF MUL NOT AND SWAP1 DUP4 PUSH20 0xFFFFFFFFFFFFFFFFFFFFFFFFFFFFFFFFFFFFFFFF AND MUL OR SWAP1 SSTORE POP POP POP JUMP JUMPDEST PUSH1 0x0 PUSH1 0x2 PUSH1 0x0 DUP4 PUSH20 0xFFFFFFFFFFFFFFFFFFFFFFFFFFFFFFFFFFFFFFFF AND PUSH20 0xFFFFFFFFFFFFFFFFFFFFFFFFFFFFFFFFFFFFFFFF AND DUP2 MSTORE PUSH1 0x20 ADD SWAP1 DUP2 MSTORE PUSH1 0x20 ADD PUSH1 0x0 KECCAK256 SLOAD SWAP1 POP SWAP2 SWAP1 POP JUMP JUMPDEST PUSH2 0xCAD PUSH2 0x1C8A JUMP JUMPDEST PUSH2 0xCB7 PUSH1 0x0 PUSH2 0x1D08 JUMP JUMPDEST JUMP JUMPDEST PUSH1 0x60 DUP1 PUSH1 0x0 DUP1 JUMPDEST DUP5 MLOAD DUP2 LT ISZERO PUSH2 0x1375 JUMPI PUSH1 0x0 DUP6 DUP3 DUP2 MLOAD DUP2 LT PUSH2 0xD04 JUMPI PUSH32 0x4E487B7100000000000000000000000000000000000000000000000000000000 PUSH1 0x0 MSTORE PUSH1 0x32 PUSH1 0x4 MSTORE PUSH1 0x24 PUSH1 0x0 REVERT JUMPDEST PUSH1 0x20 MUL PUSH1 0x20 ADD ADD MLOAD SWAP1 POP PUSH1 0x6 PUSH1 0x0 DUP3 DUP2 MSTORE PUSH1 0x20 ADD SWAP1 DUP2 MSTORE PUSH1 0x20 ADD PUSH1 0x0 KECCAK256 PUSH1 0x40 MLOAD DUP1 PUSH2 0x100 ADD PUSH1 0x40 MSTORE SWAP1 DUP2 PUSH1 0x0 DUP3 ADD SLOAD DUP2 MSTORE PUSH1 0x20 ADD PUSH1 0x1 DUP3 ADD SLOAD DUP2 MSTORE PUSH1 0x20 ADD PUSH1 0x2 DUP3 ADD PUSH1 0x40 MLOAD DUP1 PUSH1 0x40 ADD PUSH1 0x40 MSTORE SWAP1 DUP2 PUSH1 0x0 DUP3 ADD PUSH1 0x0 SWAP1 SLOAD SWAP1 PUSH2 0x100 EXP SWAP1 DIV PUSH20 0xFFFFFFFFFFFFFFFFFFFFFFFFFFFFFFFFFFFFFFFF AND PUSH20 0xFFFFFFFFFFFFFFFFFFFFFFFFFFFFFFFFFFFFFFFF AND PUSH20 0xFFFFFFFFFFFFFFFFFFFFFFFFFFFFFFFFFFFFFFFF AND DUP2 MSTORE PUSH1 0x20 ADD PUSH1 0x1 DUP3 ADD PUSH1 0x0 SWAP1 SLOAD SWAP1 PUSH2 0x100 EXP SWAP1 DIV PUSH20 0xFFFFFFFFFFFFFFFFFFFFFFFFFFFFFFFFFFFFFFFF AND PUSH20 0xFFFFFFFFFFFFFFFFFFFFFFFFFFFFFFFFFFFFFFFF AND PUSH20 0xFFFFFFFFFFFFFFFFFFFFFFFFFFFFFFFFFFFFFFFF AND DUP2 MSTORE POP POP DUP2 MSTORE PUSH1 0x20 ADD PUSH1 0x4 DUP3 ADD PUSH1 0x40 MLOAD DUP1 PUSH1 0xA0 ADD PUSH1 0x40 MSTORE SWAP1 DUP2 PUSH1 0x0 DUP3 ADD PUSH1 0x0 SWAP1 SLOAD SWAP1 PUSH2 0x100 EXP SWAP1 DIV PUSH1 0xFF AND ISZERO ISZERO ISZERO ISZERO DUP2 MSTORE PUSH1 0x20 ADD PUSH1 0x0 DUP3 ADD PUSH1 0x1 SWAP1 SLOAD SWAP1 PUSH2 0x100 EXP SWAP1 DIV PUSH1 0xFF AND ISZERO ISZERO ISZERO ISZERO DUP2 MSTORE PUSH1 0x20 ADD PUSH1 0x0 DUP3 ADD PUSH1 0x2 SWAP1 SLOAD SWAP1 PUSH2 0x100 EXP SWAP1 DIV PUSH1 0xFF AND ISZERO ISZERO ISZERO ISZERO DUP2 MSTORE PUSH1 0x20 ADD PUSH1 0x0 DUP3 ADD PUSH1 0x3 SWAP1 SLOAD SWAP1 PUSH2 0x100 EXP SWAP1 DIV PUSH1 0xFF AND ISZERO ISZERO ISZERO ISZERO DUP2 MSTORE PUSH1 0x20 ADD PUSH1 0x0 DUP3 ADD PUSH1 0x4 SWAP1 SLOAD SWAP1 PUSH2 0x100 EXP SWAP1 DIV PUSH1 0xFF AND PUSH1 0x2 DUP2 GT ISZERO PUSH2 0xEC8 JUMPI PUSH32 0x4E487B7100000000000000000000000000000000000000000000000000000000 PUSH1 0x0 MSTORE PUSH1 0x21 PUSH1 0x4 MSTORE PUSH1 0x24 PUSH1 0x0 REVERT JUMPDEST PUSH1 0x2 DUP2 GT ISZERO PUSH2 0xF00 JUMPI PUSH32 0x4E487B7100000000000000000000000000000000000000000000000000000000 PUSH1 0x0 MSTORE PUSH1 0x21 PUSH1 0x4 MSTORE PUSH1 0x24 PUSH1 0x0 REVERT JUMPDEST DUP2 MSTORE POP POP DUP2 MSTORE PUSH1 0x20 ADD PUSH1 0x5 DUP3 ADD PUSH1 0x40 MLOAD DUP1 PUSH1 0x80 ADD PUSH1 0x40 MSTORE SWAP1 DUP2 PUSH1 0x0 DUP3 ADD DUP1 SLOAD PUSH2 0xF28 SWAP1 PUSH2 0x2D0D JUMP JUMPDEST DUP1 PUSH1 0x1F ADD PUSH1 0x20 DUP1 SWAP2 DIV MUL PUSH1 0x20 ADD PUSH1 0x40 MLOAD SWAP1 DUP2 ADD PUSH1 0x40 MSTORE DUP1 SWAP3 SWAP2 SWAP1 DUP2 DUP2 MSTORE PUSH1 0x20 ADD DUP3 DUP1 SLOAD PUSH2 0xF54 SWAP1 PUSH2 0x2D0D JUMP JUMPDEST DUP1 ISZERO PUSH2 0xFA1 JUMPI DUP1 PUSH1 0x1F LT PUSH2 0xF76 JUMPI PUSH2 0x100 DUP1 DUP4 SLOAD DIV MUL DUP4 MSTORE SWAP2 PUSH1 0x20 ADD SWAP2 PUSH2 0xFA1 JUMP JUMPDEST DUP3 ADD SWAP2 SWAP1 PUSH1 0x0 MSTORE PUSH1 0x20 PUSH1 0x0 KECCAK256 SWAP1 JUMPDEST DUP2 SLOAD DUP2 MSTORE SWAP1 PUSH1 0x1 ADD SWAP1 PUSH1 0x20 ADD DUP1 DUP4 GT PUSH2 0xF84 JUMPI DUP3 SWAP1 SUB PUSH1 0x1F AND DUP3 ADD SWAP2 JUMPDEST POP POP POP POP POP DUP2 MSTORE PUSH1 0x20 ADD PUSH1 0x1 DUP3 ADD DUP1 SLOAD PUSH2 0xFBA SWAP1 PUSH2 0x2D0D JUMP JUMPDEST DUP1 PUSH1 0x1F ADD PUSH1 0x20 DUP1 SWAP2 DIV MUL PUSH1 0x20 ADD PUSH1 0x40 MLOAD SWAP1 DUP2 ADD PUSH1 0x40 MSTORE DUP1 SWAP3 SWAP2 SWAP1 DUP2 DUP2 MSTORE PUSH1 0x20 ADD DUP3 DUP1 SLOAD PUSH2 0xFE6 SWAP1 PUSH2 0x2D0D JUMP JUMPDEST DUP1 ISZERO PUSH2 0x1033 JUMPI DUP1 PUSH1 0x1F LT PUSH2 0x1008 JUMPI PUSH2 0x100 DUP1 DUP4 SLOAD DIV MUL DUP4 MSTORE SWAP2 PUSH1 0x20 ADD SWAP2 PUSH2 0x1033 JUMP JUMPDEST DUP3 ADD SWAP2 SWAP1 PUSH1 0x0 MSTORE PUSH1 0x20 PUSH1 0x0 KECCAK256 SWAP1 JUMPDEST DUP2 SLOAD DUP2 MSTORE SWAP1 PUSH1 0x1 ADD SWAP1 PUSH1 0x20 ADD DUP1 DUP4 GT PUSH2 0x1016 JUMPI DUP3 SWAP1 SUB PUSH1 0x1F AND DUP3 ADD SWAP2 JUMPDEST POP POP POP POP POP DUP2 MSTORE PUSH1 0x20 ADD PUSH1 0x2 DUP3 ADD SLOAD DUP2 MSTORE PUSH1 0x20 ADD PUSH1 0x3 DUP3 ADD SLOAD DUP2 MSTORE POP POP DUP2 MSTORE PUSH1 0x20 ADD PUSH1 0x9 DUP3 ADD PUSH1 0x40 MLOAD DUP1 PUSH1 0xA0 ADD PUSH1 0x40 MSTORE SWAP1 DUP2 PUSH1 0x0 DUP3 ADD DUP1 SLOAD PUSH2 0x1074 SWAP1 PUSH2 0x2D0D JUMP JUMPDEST DUP1 PUSH1 0x1F ADD PUSH1 0x20 DUP1 SWAP2 DIV MUL PUSH1 0x20 ADD PUSH1 0x40 MLOAD SWAP1 DUP2 ADD PUSH1 0x40 MSTORE DUP1 SWAP3 SWAP2 SWAP1 DUP2 DUP2 MSTORE PUSH1 0x20 ADD DUP3 DUP1 SLOAD PUSH2 0x10A0 SWAP1 PUSH2 0x2D0D JUMP JUMPDEST DUP1 ISZERO PUSH2 0x10ED JUMPI DUP1 PUSH1 0x1F LT PUSH2 0x10C2 JUMPI PUSH2 0x100 DUP1 DUP4 SLOAD DIV MUL DUP4 MSTORE SWAP2 PUSH1 0x20 ADD SWAP2 PUSH2 0x10ED JUMP JUMPDEST DUP3 ADD SWAP2 SWAP1 PUSH1 0x0 MSTORE PUSH1 0x20 PUSH1 0x0 KECCAK256 SWAP1 JUMPDEST DUP2 SLOAD DUP2 MSTORE SWAP1 PUSH1 0x1 ADD SWAP1 PUSH1 0x20 ADD DUP1 DUP4 GT PUSH2 0x10D0 JUMPI DUP3 SWAP1 SUB PUSH1 0x1F AND DUP3 ADD SWAP2 JUMPDEST POP POP POP POP POP DUP2 MSTORE PUSH1 0x20 ADD PUSH1 0x1 DUP3 ADD DUP1 SLOAD PUSH2 0x1106 SWAP1 PUSH2 0x2D0D JUMP JUMPDEST DUP1 PUSH1 0x1F ADD PUSH1 0x20 DUP1 SWAP2 DIV MUL PUSH1 0x20 ADD PUSH1 0x40 MLOAD SWAP1 DUP2 ADD PUSH1 0x40 MSTORE DUP1 SWAP3 SWAP2 SWAP1 DUP2 DUP2 MSTORE PUSH1 0x20 ADD DUP3 DUP1 SLOAD PUSH2 0x1132 SWAP1 PUSH2 0x2D0D JUMP JUMPDEST DUP1 ISZERO PUSH2 0x117F JUMPI DUP1 PUSH1 0x1F LT PUSH2 0x1154 JUMPI PUSH2 0x100 DUP1 DUP4 SLOAD DIV MUL DUP4 MSTORE SWAP2 PUSH1 0x20 ADD SWAP2 PUSH2 0x117F JUMP JUMPDEST DUP3 ADD SWAP2 SWAP1 PUSH1 0x0 MSTORE PUSH1 0x20 PUSH1 0x0 KECCAK256 SWAP1 JUMPDEST DUP2 SLOAD DUP2 MSTORE SWAP1 PUSH1 0x1 ADD SWAP1 PUSH1 0x20 ADD DUP1 DUP4 GT PUSH2 0x1162 JUMPI DUP3 SWAP1 SUB PUSH1 0x1F AND DUP3 ADD SWAP2 JUMPDEST POP POP POP POP POP DUP2 MSTORE PUSH1 0x20 ADD PUSH1 0x2 DUP3 ADD DUP1 SLOAD PUSH2 0x1198 SWAP1 PUSH2 0x2D0D JUMP JUMPDEST DUP1 PUSH1 0x1F ADD PUSH1 0x20 DUP1 SWAP2 DIV MUL PUSH1 0x20 ADD PUSH1 0x40 MLOAD SWAP1 DUP2 ADD PUSH1 0x40 MSTORE DUP1 SWAP3 SWAP2 SWAP1 DUP2 DUP2 MSTORE PUSH1 0x20 ADD DUP3 DUP1 SLOAD PUSH2 0x11C4 SWAP1 PUSH2 0x2D0D JUMP JUMPDEST DUP1 ISZERO PUSH2 0x1211 JUMPI DUP1 PUSH1 0x1F LT PUSH2 0x11E6 JUMPI PUSH2 0x100 DUP1 DUP4 SLOAD DIV MUL DUP4 MSTORE SWAP2 PUSH1 0x20 ADD SWAP2 PUSH2 0x1211 JUMP JUMPDEST DUP3 ADD SWAP2 SWAP1 PUSH1 0x0 MSTORE PUSH1 0x20 PUSH1 0x0 KECCAK256 SWAP1 JUMPDEST DUP2 SLOAD DUP2 MSTORE SWAP1 PUSH1 0x1 ADD SWAP1 PUSH1 0x20 ADD DUP1 DUP4 GT PUSH2 0x11F4 JUMPI DUP3 SWAP1 SUB PUSH1 0x1F AND DUP3 ADD SWAP2 JUMPDEST POP POP POP POP POP DUP2 MSTORE PUSH1 0x20 ADD PUSH1 0x3 DUP3 ADD PUSH1 0x0 SWAP1 SLOAD SWAP1 PUSH2 0x100 EXP SWAP1 DIV PUSH1 0xFF AND PUSH1 0x3 DUP2 GT ISZERO PUSH2 0x1265 JUMPI PUSH32 0x4E487B7100000000000000000000000000000000000000000000000000000000 PUSH1 0x0 MSTORE PUSH1 0x21 PUSH1 0x4 MSTORE PUSH1 0x24 PUSH1 0x0 REVERT JUMPDEST PUSH1 0x3 DUP2 GT ISZERO PUSH2 0x129D JUMPI PUSH32 0x4E487B7100000000000000000000000000000000000000000000000000000000 PUSH1 0x0 MSTORE PUSH1 0x21 PUSH1 0x4 MSTORE PUSH1 0x24 PUSH1 0x0 REVERT JUMPDEST DUP2 MSTORE PUSH1 0x20 ADD PUSH1 0x3 DUP3 ADD PUSH1 0x1 SWAP1 SLOAD SWAP1 PUSH2 0x100 EXP SWAP1 DIV PUSH20 0xFFFFFFFFFFFFFFFFFFFFFFFFFFFFFFFFFFFFFFFF AND PUSH20 0xFFFFFFFFFFFFFFFFFFFFFFFFFFFFFFFFFFFFFFFF AND PUSH20 0xFFFFFFFFFFFFFFFFFFFFFFFFFFFFFFFFFFFFFFFF AND DUP2 MSTORE POP POP DUP2 MSTORE PUSH1 0x20 ADD PUSH1 0xD DUP3 ADD SLOAD DUP2 MSTORE PUSH1 0x20 ADD PUSH1 0xE DUP3 ADD SLOAD DUP2 MSTORE POP POP DUP5 DUP5 DUP2 MLOAD DUP2 LT PUSH2 0x1348 JUMPI PUSH32 0x4E487B7100000000000000000000000000000000000000000000000000000000 PUSH1 0x0 MSTORE PUSH1 0x32 PUSH1 0x4 MSTORE PUSH1 0x24 PUSH1 0x0 REVERT JUMPDEST PUSH1 0x20 MUL PUSH1 0x20 ADD ADD DUP2 SWAP1 MSTORE POP DUP3 DUP1 PUSH2 0x135E SWAP1 PUSH2 0x2D3F JUMP JUMPDEST SWAP4 POP POP POP DUP1 DUP1 PUSH2 0x136D SWAP1 PUSH2 0x2D3F JUMP JUMPDEST SWAP2 POP POP PUSH2 0xCC0 JUMP JUMPDEST POP DUP2 SWAP3 POP POP POP SWAP2 SWAP1 POP JUMP JUMPDEST PUSH2 0x1388 PUSH2 0x1DD4 JUMP JUMPDEST PUSH1 0x6 PUSH1 0x0 DUP4 DUP2 MSTORE PUSH1 0x20 ADD SWAP1 DUP2 MSTORE PUSH1 0x20 ADD PUSH1 0x0 KECCAK256 PUSH1 0x40 MLOAD DUP1 PUSH2 0x100 ADD PUSH1 0x40 MSTORE SWAP1 DUP2 PUSH1 0x0 DUP3 ADD SLOAD DUP2 MSTORE PUSH1 0x20 ADD PUSH1 0x1 DUP3 ADD SLOAD DUP2 MSTORE PUSH1 0x20 ADD PUSH1 0x2 DUP3 ADD PUSH1 0x40 MLOAD DUP1 PUSH1 0x40 ADD PUSH1 0x40 MSTORE SWAP1 DUP2 PUSH1 0x0 DUP3 ADD PUSH1 0x0 SWAP1 SLOAD SWAP1 PUSH2 0x100 EXP SWAP1 DIV PUSH20 0xFFFFFFFFFFFFFFFFFFFFFFFFFFFFFFFFFFFFFFFF AND PUSH20 0xFFFFFFFFFFFFFFFFFFFFFFFFFFFFFFFFFFFFFFFF AND PUSH20 0xFFFFFFFFFFFFFFFFFFFFFFFFFFFFFFFFFFFFFFFF AND DUP2 MSTORE PUSH1 0x20 ADD PUSH1 0x1 DUP3 ADD PUSH1 0x0 SWAP1 SLOAD SWAP1 PUSH2 0x100 EXP SWAP1 DIV PUSH20 0xFFFFFFFFFFFFFFFFFFFFFFFFFFFFFFFFFFFFFFFF AND PUSH20 0xFFFFFFFFFFFFFFFFFFFFFFFFFFFFFFFFFFFFFFFF AND PUSH20 0xFFFFFFFFFFFFFFFFFFFFFFFFFFFFFFFFFFFFFFFF AND DUP2 MSTORE POP POP DUP2 MSTORE PUSH1 0x20 ADD PUSH1 0x4 DUP3 ADD PUSH1 0x40 MLOAD DUP1 PUSH1 0xA0 ADD PUSH1 0x40 MSTORE SWAP1 DUP2 PUSH1 0x0 DUP3 ADD PUSH1 0x0 SWAP1 SLOAD SWAP1 PUSH2 0x100 EXP SWAP1 DIV PUSH1 0xFF AND ISZERO ISZERO ISZERO ISZERO DUP2 MSTORE PUSH1 0x20 ADD PUSH1 0x0 DUP3 ADD PUSH1 0x1 SWAP1 SLOAD SWAP1 PUSH2 0x100 EXP SWAP1 DIV PUSH1 0xFF AND ISZERO ISZERO ISZERO ISZERO DUP2 MSTORE PUSH1 0x20 ADD PUSH1 0x0 DUP3 ADD PUSH1 0x2 SWAP1 SLOAD SWAP1 PUSH2 0x100 EXP SWAP1 DIV PUSH1 0xFF AND ISZERO ISZERO ISZERO ISZERO DUP2 MSTORE PUSH1 0x20 ADD PUSH1 0x0 DUP3 ADD PUSH1 0x3 SWAP1 SLOAD SWAP1 PUSH2 0x100 EXP SWAP1 DIV PUSH1 0xFF AND ISZERO ISZERO ISZERO ISZERO DUP2 MSTORE PUSH1 0x20 ADD PUSH1 0x0 DUP3 ADD PUSH1 0x4 SWAP1 SLOAD SWAP1 PUSH2 0x100 EXP SWAP1 DIV PUSH1 0xFF AND PUSH1 0x2 DUP2 GT ISZERO PUSH2 0x1542 JUMPI PUSH32 0x4E487B7100000000000000000000000000000000000000000000000000000000 PUSH1 0x0 MSTORE PUSH1 0x21 PUSH1 0x4 MSTORE PUSH1 0x24 PUSH1 0x0 REVERT JUMPDEST PUSH1 0x2 DUP2 GT ISZERO PUSH2 0x157A JUMPI PUSH32 0x4E487B7100000000000000000000000000000000000000000000000000000000 PUSH1 0x0 MSTORE PUSH1 0x21 PUSH1 0x4 MSTORE PUSH1 0x24 PUSH1 0x0 REVERT JUMPDEST DUP2 MSTORE POP POP DUP2 MSTORE PUSH1 0x20 ADD PUSH1 0x5 DUP3 ADD PUSH1 0x40 MLOAD DUP1 PUSH1 0x80 ADD PUSH1 0x40 MSTORE SWAP1 DUP2 PUSH1 0x0 DUP3 ADD DUP1 SLOAD PUSH2 0x15A2 SWAP1 PUSH2 0x2D0D JUMP JUMPDEST DUP1 PUSH1 0x1F ADD PUSH1 0x20 DUP1 SWAP2 DIV MUL PUSH1 0x20 ADD PUSH1 0x40 MLOAD SWAP1 DUP2 ADD PUSH1 0x40 MSTORE DUP1 SWAP3 SWAP2 SWAP1 DUP2 DUP2 MSTORE PUSH1 0x20 ADD DUP3 DUP1 SLOAD PUSH2 0x15CE SWAP1 PUSH2 0x2D0D JUMP JUMPDEST DUP1 ISZERO PUSH2 0x161B JUMPI DUP1 PUSH1 0x1F LT PUSH2 0x15F0 JUMPI PUSH2 0x100 DUP1 DUP4 SLOAD DIV MUL DUP4 MSTORE SWAP2 PUSH1 0x20 ADD SWAP2 PUSH2 0x161B JUMP JUMPDEST DUP3 ADD SWAP2 SWAP1 PUSH1 0x0 MSTORE PUSH1 0x20 PUSH1 0x0 KECCAK256 SWAP1 JUMPDEST DUP2 SLOAD DUP2 MSTORE SWAP1 PUSH1 0x1 ADD SWAP1 PUSH1 0x20 ADD DUP1 DUP4 GT PUSH2 0x15FE JUMPI DUP3 SWAP1 SUB PUSH1 0x1F AND DUP3 ADD SWAP2 JUMPDEST POP POP POP POP POP DUP2 MSTORE PUSH1 0x20 ADD PUSH1 0x1 DUP3 ADD DUP1 SLOAD PUSH2 0x1634 SWAP1 PUSH2 0x2D0D JUMP JUMPDEST DUP1 PUSH1 0x1F ADD PUSH1 0x20 DUP1 SWAP2 DIV MUL PUSH1 0x20 ADD PUSH1 0x40 MLOAD SWAP1 DUP2 ADD PUSH1 0x40 MSTORE DUP1 SWAP3 SWAP2 SWAP1 DUP2 DUP2 MSTORE PUSH1 0x20 ADD DUP3 DUP1 SLOAD PUSH2 0x1660 SWAP1 PUSH2 0x2D0D JUMP JUMPDEST DUP1 ISZERO PUSH2 0x16AD JUMPI DUP1 PUSH1 0x1F LT PUSH2 0x1682 JUMPI PUSH2 0x100 DUP1 DUP4 SLOAD DIV MUL DUP4 MSTORE SWAP2 PUSH1 0x20 ADD SWAP2 PUSH2 0x16AD JUMP JUMPDEST DUP3 ADD SWAP2 SWAP1 PUSH1 0x0 MSTORE PUSH1 0x20 PUSH1 0x0 KECCAK256 SWAP1 JUMPDEST DUP2 SLOAD DUP2 MSTORE SWAP1 PUSH1 0x1 ADD SWAP1 PUSH1 0x20 ADD DUP1 DUP4 GT PUSH2 0x1690 JUMPI DUP3 SWAP1 SUB PUSH1 0x1F AND DUP3 ADD SWAP2 JUMPDEST POP POP POP POP POP DUP2 MSTORE PUSH1 0x20 ADD PUSH1 0x2 DUP3 ADD SLOAD DUP2 MSTORE PUSH1 0x20 ADD PUSH1 0x3 DUP3 ADD SLOAD DUP2 MSTORE POP POP DUP2 MSTORE PUSH1 0x20 ADD PUSH1 0x9 DUP3 ADD PUSH1 0x40 MLOAD DUP1 PUSH1 0xA0 ADD PUSH1 0x40 MSTORE SWAP1 DUP2 PUSH1 0x0 DUP3 ADD DUP1 SLOAD PUSH2 0x16EE SWAP1 PUSH2 0x2D0D JUMP JUMPDEST DUP1 PUSH1 0x1F ADD PUSH1 0x20 DUP1 SWAP2 DIV MUL PUSH1 0x20 ADD PUSH1 0x40 MLOAD SWAP1 DUP2 ADD PUSH1 0x40 MSTORE DUP1 SWAP3 SWAP2 SWAP1 DUP2 DUP2 MSTORE PUSH1 0x20 ADD DUP3 DUP1 SLOAD PUSH2 0x171A SWAP1 PUSH2 0x2D0D JUMP JUMPDEST DUP1 ISZERO PUSH2 0x1767 JUMPI DUP1 PUSH1 0x1F LT PUSH2 0x173C JUMPI PUSH2 0x100 DUP1 DUP4 SLOAD DIV MUL DUP4 MSTORE SWAP2 PUSH1 0x20 ADD SWAP2 PUSH2 0x1767 JUMP JUMPDEST DUP3 ADD SWAP2 SWAP1 PUSH1 0x0 MSTORE PUSH1 0x20 PUSH1 0x0 KECCAK256 SWAP1 JUMPDEST DUP2 SLOAD DUP2 MSTORE SWAP1 PUSH1 0x1 ADD SWAP1 PUSH1 0x20 ADD DUP1 DUP4 GT PUSH2 0x174A JUMPI DUP3 SWAP1 SUB PUSH1 0x1F AND DUP3 ADD SWAP2 JUMPDEST POP POP POP POP POP DUP2 MSTORE PUSH1 0x20 ADD PUSH1 0x1 DUP3 ADD DUP1 SLOAD PUSH2 0x1780 SWAP1 PUSH2 0x2D0D JUMP JUMPDEST DUP1 PUSH1 0x1F ADD PUSH1 0x20 DUP1 SWAP2 DIV MUL PUSH1 0x20 ADD PUSH1 0x40 MLOAD SWAP1 DUP2 ADD PUSH1 0x40 MSTORE DUP1 SWAP3 SWAP2 SWAP1 DUP2 DUP2 MSTORE PUSH1 0x20 ADD DUP3 DUP1 SLOAD PUSH2 0x17AC SWAP1 PUSH2 0x2D0D JUMP JUMPDEST DUP1 ISZERO PUSH2 0x17F9 JUMPI DUP1 PUSH1 0x1F LT PUSH2 0x17CE JUMPI PUSH2 0x100 DUP1 DUP4 SLOAD DIV MUL DUP4 MSTORE SWAP2 PUSH1 0x20 ADD SWAP2 PUSH2 0x17F9 JUMP JUMPDEST DUP3 ADD SWAP2 SWAP1 PUSH1 0x0 MSTORE PUSH1 0x20 PUSH1 0x0 KECCAK256 SWAP1 JUMPDEST DUP2 SLOAD DUP2 MSTORE SWAP1 PUSH1 0x1 ADD SWAP1 PUSH1 0x20 ADD DUP1 DUP4 GT PUSH2 0x17DC JUMPI DUP3 SWAP1 SUB PUSH1 0x1F AND DUP3 ADD SWAP2 JUMPDEST POP POP POP POP POP DUP2 MSTORE PUSH1 0x20 ADD PUSH1 0x2 DUP3 ADD DUP1 SLOAD PUSH2 0x1812 SWAP1 PUSH2 0x2D0D JUMP JUMPDEST DUP1 PUSH1 0x1F ADD PUSH1 0x20 DUP1 SWAP2 DIV MUL PUSH1 0x20 ADD PUSH1 0x40 MLOAD SWAP1 DUP2 ADD PUSH1 0x40 MSTORE DUP1 SWAP3 SWAP2 SWAP1 DUP2 DUP2 MSTORE PUSH1 0x20 ADD DUP3 DUP1 SLOAD PUSH2 0x183E SWAP1 PUSH2 0x2D0D JUMP JUMPDEST DUP1 ISZERO PUSH2 0x188B JUMPI DUP1 PUSH1 0x1F LT PUSH2 0x1860 JUMPI PUSH2 0x100 DUP1 DUP4 SLOAD DIV MUL DUP4 MSTORE SWAP2 PUSH1 0x20 ADD SWAP2 PUSH2 0x188B JUMP JUMPDEST DUP3 ADD SWAP2 SWAP1 PUSH1 0x0 MSTORE PUSH1 0x20 PUSH1 0x0 KECCAK256 SWAP1 JUMPDEST DUP2 SLOAD DUP2 MSTORE SWAP1 PUSH1 0x1 ADD SWAP1 PUSH1 0x20 ADD DUP1 DUP4 GT PUSH2 0x186E JUMPI DUP3 SWAP1 SUB PUSH1 0x1F AND DUP3 ADD SWAP2 JUMPDEST POP POP POP POP POP DUP2 MSTORE PUSH1 0x20 ADD PUSH1 0x3 DUP3 ADD PUSH1 0x0 SWAP1 SLOAD SWAP1 PUSH2 0x100 EXP SWAP1 DIV PUSH1 0xFF AND PUSH1 0x3 DUP2 GT ISZERO PUSH2 0x18DF JUMPI PUSH32 0x4E487B7100000000000000000000000000000000000000000000000000000000 PUSH1 0x0 MSTORE PUSH1 0x21 PUSH1 0x4 MSTORE PUSH1 0x24 PUSH1 0x0 REVERT JUMPDEST PUSH1 0x3 DUP2 GT ISZERO PUSH2 0x1917 JUMPI PUSH32 0x4E487B7100000000000000000000000000000000000000000000000000000000 PUSH1 0x0 MSTORE PUSH1 0x21 PUSH1 0x4 MSTORE PUSH1 0x24 PUSH1 0x0 REVERT JUMPDEST DUP2 MSTORE PUSH1 0x20 ADD PUSH1 0x3 DUP3 ADD PUSH1 0x1 SWAP1 SLOAD SWAP1 PUSH2 0x100 EXP SWAP1 DIV PUSH20 0xFFFFFFFFFFFFFFFFFFFFFFFFFFFFFFFFFFFFFFFF AND PUSH20 0xFFFFFFFFFFFFFFFFFFFFFFFFFFFFFFFFFFFFFFFF AND PUSH20 0xFFFFFFFFFFFFFFFFFFFFFFFFFFFFFFFFFFFFFFFF AND DUP2 MSTORE POP POP DUP2 MSTORE PUSH1 0x20 ADD PUSH1 0xD DUP3 ADD SLOAD DUP2 MSTORE PUSH1 0x20 ADD PUSH1 0xE DUP3 ADD SLOAD DUP2 MSTORE POP POP SWAP1 POP SWAP2 SWAP1 POP JUMP JUMPDEST PUSH1 0x0 DUP1 PUSH1 0x0 SWAP1 SLOAD SWAP1 PUSH2 0x100 EXP SWAP1 DIV PUSH20 0xFFFFFFFFFFFFFFFFFFFFFFFFFFFFFFFFFFFFFFFF AND SWAP1 POP SWAP1 JUMP JUMPDEST PUSH1 0x40 MLOAD DUP1 PUSH1 0x40 ADD PUSH1 0x40 MSTORE DUP1 PUSH1 0x4 DUP2 MSTORE PUSH1 0x20 ADD PUSH32 0x4245525900000000000000000000000000000000000000000000000000000000 DUP2 MSTORE POP DUP2 JUMP JUMPDEST PUSH1 0x0 PUSH1 0x2 PUSH1 0x0 CALLER PUSH20 0xFFFFFFFFFFFFFFFFFFFFFFFFFFFFFFFFFFFFFFFF AND PUSH20 0xFFFFFFFFFFFFFFFFFFFFFFFFFFFFFFFFFFFFFFFF AND DUP2 MSTORE PUSH1 0x20 ADD SWAP1 DUP2 MSTORE PUSH1 0x20 ADD PUSH1 0x0 KECCAK256 SLOAD DUP3 GT ISZERO PUSH2 0x1A40 JUMPI PUSH1 0x0 DUP1 REVERT JUMPDEST DUP2 PUSH1 0x2 PUSH1 0x0 CALLER PUSH20 0xFFFFFFFFFFFFFFFFFFFFFFFFFFFFFFFFFFFFFFFF AND PUSH20 0xFFFFFFFFFFFFFFFFFFFFFFFFFFFFFFFFFFFFFFFF AND DUP2 MSTORE PUSH1 0x20 ADD SWAP1 DUP2 MSTORE PUSH1 0x20 ADD PUSH1 0x0 KECCAK256 PUSH1 0x0 DUP3 DUP3 SLOAD PUSH2 0x1A8F SWAP2 SWAP1 PUSH2 0x2C07 JUMP JUMPDEST SWAP3 POP POP DUP2 SWAP1 SSTORE POP DUP2 PUSH1 0x2 PUSH1 0x0 DUP6 PUSH20 0xFFFFFFFFFFFFFFFFFFFFFFFFFFFFFFFFFFFFFFFF AND PUSH20 0xFFFFFFFFFFFFFFFFFFFFFFFFFFFFFFFFFFFFFFFF AND DUP2 MSTORE PUSH1 0x20 ADD SWAP1 DUP2 MSTORE PUSH1 0x20 ADD PUSH1 0x0 KECCAK256 PUSH1 0x0 DUP3 DUP3 SLOAD PUSH2 0x1AE5 SWAP2 SWAP1 PUSH2 0x2BB1 JUMP JUMPDEST SWAP3 POP POP DUP2 SWAP1 SSTORE POP DUP3 PUSH20 0xFFFFFFFFFFFFFFFFFFFFFFFFFFFFFFFFFFFFFFFF AND CALLER PUSH20 0xFFFFFFFFFFFFFFFFFFFFFFFFFFFFFFFFFFFFFFFF AND PUSH32 0xDDF252AD1BE2C89B69C2B068FC378DAA952BA7F163C4A11628F55A4DF523B3EF DUP5 PUSH1 0x40 MLOAD PUSH2 0x1B49 SWAP2 SWAP1 PUSH2 0x2AB8 JUMP JUMPDEST PUSH1 0x40 MLOAD DUP1 SWAP2 SUB SWAP1 LOG3 PUSH1 0x1 SWAP1 POP SWAP3 SWAP2 POP POP JUMP JUMPDEST PUSH2 0x1B63 PUSH2 0x1C8A JUMP JUMPDEST PUSH1 0x0 PUSH20 0xFFFFFFFFFFFFFFFFFFFFFFFFFFFFFFFFFFFFFFFF AND DUP2 PUSH20 0xFFFFFFFFFFFFFFFFFFFFFFFFFFFFFFFFFFFFFFFF AND EQ ISZERO PUSH2 0x1BD3 JUMPI PUSH1 0x40 MLOAD PUSH32 0x8C379A000000000000000000000000000000000000000000000000000000000 DUP2 MSTORE PUSH1 0x4 ADD PUSH2 0x1BCA SWAP1 PUSH2 0x29D6 JUMP JUMPDEST PUSH1 0x40 MLOAD DUP1 SWAP2 SUB SWAP1 REVERT JUMPDEST PUSH2 0x1BDC DUP2 PUSH2 0x1D08 JUMP JUMPDEST POP JUMP JUMPDEST PUSH1 0x1 ISZERO ISZERO PUSH1 0x6 PUSH1 0x0 DUP4 DUP2 MSTORE PUSH1 0x20 ADD SWAP1 DUP2 MSTORE PUSH1 0x20 ADD PUSH1 0x0 KECCAK256 PUSH1 0x4 ADD PUSH1 0x0 ADD PUSH1 0x3 SWAP1 SLOAD SWAP1 PUSH2 0x100 EXP SWAP1 DIV PUSH1 0xFF AND ISZERO ISZERO EQ DUP1 ISZERO PUSH2 0x1C4F JUMPI POP TIMESTAMP PUSH1 0x6 PUSH1 0x0 DUP4 DUP2 MSTORE PUSH1 0x20 ADD SWAP1 DUP2 MSTORE PUSH1 0x20 ADD PUSH1 0x0 KECCAK256 PUSH1 0xE ADD SLOAD PUSH1 0x6 PUSH1 0x0 DUP5 DUP2 MSTORE PUSH1 0x20 ADD SWAP1 DUP2 MSTORE PUSH1 0x20 ADD PUSH1 0x0 KECCAK256 PUSH1 0xD ADD SLOAD PUSH2 0x1C4D SWAP2 SWAP1 PUSH2 0x2BB1 JUMP JUMPDEST LT JUMPDEST ISZERO PUSH2 0x1C87 JUMPI PUSH1 0x0 PUSH1 0x6 PUSH1 0x0 DUP4 DUP2 MSTORE PUSH1 0x20 ADD SWAP1 DUP2 MSTORE PUSH1 0x20 ADD PUSH1 0x0 KECCAK256 PUSH1 0x4 ADD PUSH1 0x0 ADD PUSH1 0x3 PUSH2 0x100 EXP DUP2 SLOAD DUP2 PUSH1 0xFF MUL NOT AND SWAP1 DUP4 ISZERO ISZERO MUL OR SWAP1 SSTORE POP JUMPDEST POP JUMP JUMPDEST PUSH2 0x1C92 PUSH2 0x1DCC JUMP JUMPDEST PUSH20 0xFFFFFFFFFFFFFFFFFFFFFFFFFFFFFFFFFFFFFFFF AND PUSH2 0x1CB0 PUSH2 0x1990 JUMP JUMPDEST PUSH20 0xFFFFFFFFFFFFFFFFFFFFFFFFFFFFFFFFFFFFFFFF AND EQ PUSH2 0x1D06 JUMPI PUSH1 0x40 MLOAD PUSH32 0x8C379A000000000000000000000000000000000000000000000000000000000 DUP2 MSTORE PUSH1 0x4 ADD PUSH2 0x1CFD SWAP1 PUSH2 0x2A56 JUMP JUMPDEST PUSH1 0x40 MLOAD DUP1 SWAP2 SUB SWAP1 REVERT JUMPDEST JUMP JUMPDEST PUSH1 0x0 DUP1 PUSH1 0x0 SWAP1 SLOAD SWAP1 PUSH2 0x100 EXP SWAP1 DIV PUSH20 0xFFFFFFFFFFFFFFFFFFFFFFFFFFFFFFFFFFFFFFFF AND SWAP1 POP DUP2 PUSH1 0x0 DUP1 PUSH2 0x100 EXP DUP2 SLOAD DUP2 PUSH20 0xFFFFFFFFFFFFFFFFFFFFFFFFFFFFFFFFFFFFFFFF MUL NOT AND SWAP1 DUP4 PUSH20 0xFFFFFFFFFFFFFFFFFFFFFFFFFFFFFFFFFFFFFFFF AND MUL OR SWAP1 SSTORE POP DUP2 PUSH20 0xFFFFFFFFFFFFFFFFFFFFFFFFFFFFFFFFFFFFFFFF AND DUP2 PUSH20 0xFFFFFFFFFFFFFFFFFFFFFFFFFFFFFFFFFFFFFFFF AND PUSH32 0x8BE0079C531659141344CD1FD0A4F28419497F9722A3DAAFE3B4186F6B6457E0 PUSH1 0x40 MLOAD PUSH1 0x40 MLOAD DUP1 SWAP2 SUB SWAP1 LOG3 POP POP JUMP JUMPDEST PUSH1 0x0 CALLER SWAP1 POP SWAP1 JUMP JUMPDEST PUSH1 0x40 MLOAD DUP1 PUSH2 0x100 ADD PUSH1 0x40 MSTORE DUP1 PUSH1 0x0 DUP2 MSTORE PUSH1 0x20 ADD PUSH1 0x0 DUP2 MSTORE PUSH1 0x20 ADD PUSH2 0x1DF6 PUSH2 0x1E31 JUMP JUMPDEST DUP2 MSTORE PUSH1 0x20 ADD PUSH2 0x1E03 PUSH2 0x1E77 JUMP JUMPDEST DUP2 MSTORE PUSH1 0x20 ADD PUSH2 0x1E10 PUSH2 0x1EE6 JUMP JUMPDEST DUP2 MSTORE PUSH1 0x20 ADD PUSH2 0x1E1D PUSH2 0x1F0E JUMP JUMPDEST DUP2 MSTORE PUSH1 0x20 ADD PUSH1 0x0 DUP2 MSTORE PUSH1 0x20 ADD PUSH1 0x0 DUP2 MSTORE POP SWAP1 JUMP JUMPDEST PUSH1 0x40 MLOAD DUP1 PUSH1 0x40 ADD PUSH1 0x40 MSTORE DUP1 PUSH1 0x0 PUSH20 0xFFFFFFFFFFFFFFFFFFFFFFFFFFFFFFFFFFFFFFFF AND DUP2 MSTORE PUSH1 0x20 ADD PUSH1 0x0 PUSH20 0xFFFFFFFFFFFFFFFFFFFFFFFFFFFFFFFFFFFFFFFF AND DUP2 MSTORE POP SWAP1 JUMP JUMPDEST PUSH1 0x40 MLOAD DUP1 PUSH1 0xA0 ADD PUSH1 0x40 MSTORE DUP1 PUSH1 0x0 ISZERO ISZERO DUP2 MSTORE PUSH1 0x20 ADD PUSH1 0x0 ISZERO ISZERO DUP2 MSTORE PUSH1 0x20 ADD PUSH1 0x0 ISZERO ISZERO DUP2 MSTORE PUSH1 0x20 ADD PUSH1 0x0 ISZERO ISZERO DUP2 MSTORE PUSH1 0x20 ADD PUSH1 0x0 PUSH1 0x2 DUP2 GT ISZERO PUSH2 0x1EE0 JUMPI PUSH32 0x4E487B7100000000000000000000000000000000000000000000000000000000 PUSH1 0x0 MSTORE PUSH1 0x21 PUSH1 0x4 MSTORE PUSH1 0x24 PUSH1 0x0 REVERT JUMPDEST DUP2 MSTORE POP SWAP1 JUMP JUMPDEST PUSH1 0x40 MLOAD DUP1 PUSH1 0x80 ADD PUSH1 0x40 MSTORE DUP1 PUSH1 0x60 DUP2 MSTORE PUSH1 0x20 ADD PUSH1 0x60 DUP2 MSTORE PUSH1 0x20 ADD PUSH1 0x0 DUP2 MSTORE PUSH1 0x20 ADD PUSH1 0x0 DUP2 MSTORE POP SWAP1 JUMP JUMPDEST PUSH1 0x40 MLOAD DUP1 PUSH1 0xA0 ADD PUSH1 0x40 MSTORE DUP1 PUSH1 0x60 DUP2 MSTORE PUSH1 0x20 ADD PUSH1 0x60 DUP2 MSTORE PUSH1 0x20 ADD PUSH1 0x60 DUP2 MSTORE PUSH1 0x20 ADD PUSH1 0x0 PUSH1 0x3 DUP2 GT ISZERO PUSH2 0x1F68 JUMPI PUSH32 0x4E487B7100000000000000000000000000000000000000000000000000000000 PUSH1 0x0 MSTORE PUSH1 0x21 PUSH1 0x4 MSTORE PUSH1 0x24 PUSH1 0x0 REVERT JUMPDEST DUP2 MSTORE PUSH1 0x20 ADD PUSH1 0x0 PUSH20 0xFFFFFFFFFFFFFFFFFFFFFFFFFFFFFFFFFFFFFFFF AND DUP2 MSTORE POP SWAP1 JUMP JUMPDEST PUSH1 0x0 PUSH2 0x1F9E PUSH2 0x1F99 DUP5 PUSH2 0x2B1F JUMP JUMPDEST PUSH2 0x2AEE JUMP JUMPDEST SWAP1 POP DUP1 DUP4 DUP3 MSTORE PUSH1 0x20 DUP3 ADD SWAP1 POP DUP3 DUP6 PUSH1 0x20 DUP7 MUL DUP3 ADD GT ISZERO PUSH2 0x1FBD JUMPI PUSH1 0x0 DUP1 REVERT JUMPDEST PUSH1 0x0 JUMPDEST DUP6 DUP2 LT ISZERO PUSH2 0x1FED JUMPI DUP2 PUSH2 0x1FD3 DUP9 DUP3 PUSH2 0x2036 JUMP JUMPDEST DUP5 MSTORE PUSH1 0x20 DUP5 ADD SWAP4 POP PUSH1 0x20 DUP4 ADD SWAP3 POP POP PUSH1 0x1 DUP2 ADD SWAP1 POP PUSH2 0x1FC0 JUMP JUMPDEST POP POP POP SWAP4 SWAP3 POP POP POP JUMP JUMPDEST PUSH1 0x0 DUP2 CALLDATALOAD SWAP1 POP PUSH2 0x2006 DUP2 PUSH2 0x2E7D JUMP JUMPDEST SWAP3 SWAP2 POP POP JUMP JUMPDEST PUSH1 0x0 DUP3 PUSH1 0x1F DUP4 ADD SLT PUSH2 0x201D JUMPI PUSH1 0x0 DUP1 REVERT JUMPDEST DUP2 CALLDATALOAD PUSH2 0x202D DUP5 DUP3 PUSH1 0x20 DUP7 ADD PUSH2 0x1F8B JUMP JUMPDEST SWAP2 POP POP SWAP3 SWAP2 POP POP JUMP JUMPDEST PUSH1 0x0 DUP2 CALLDATALOAD SWAP1 POP PUSH2 0x2045 DUP2 PUSH2 0x2E94 JUMP JUMPDEST SWAP3 SWAP2 POP POP JUMP JUMPDEST PUSH1 0x0 PUSH1 0x20 DUP3 DUP5 SUB SLT ISZERO PUSH2 0x205D JUMPI PUSH1 0x0 DUP1 REVERT JUMPDEST PUSH1 0x0 PUSH2 0x206B DUP5 DUP3 DUP6 ADD PUSH2 0x1FF7 JUMP JUMPDEST SWAP2 POP POP SWAP3 SWAP2 POP POP JUMP JUMPDEST PUSH1 0x0 DUP1 PUSH1 0x40 DUP4 DUP6 SUB SLT ISZERO PUSH2 0x2087 JUMPI PUSH1 0x0 DUP1 REVERT JUMPDEST PUSH1 0x0 PUSH2 0x2095 DUP6 DUP3 DUP7 ADD PUSH2 0x1FF7 JUMP JUMPDEST SWAP3 POP POP PUSH1 0x20 PUSH2 0x20A6 DUP6 DUP3 DUP7 ADD PUSH2 0x1FF7 JUMP JUMPDEST SWAP2 POP POP SWAP3 POP SWAP3 SWAP1 POP JUMP JUMPDEST PUSH1 0x0 DUP1 PUSH1 0x0 PUSH1 0x60 DUP5 DUP7 SUB SLT ISZERO PUSH2 0x20C5 JUMPI PUSH1 0x0 DUP1 REVERT JUMPDEST PUSH1 0x0 PUSH2 0x20D3 DUP7 DUP3 DUP8 ADD PUSH2 0x1FF7 JUMP JUMPDEST SWAP4 POP POP PUSH1 0x20 PUSH2 0x20E4 DUP7 DUP3 DUP8 ADD PUSH2 0x1FF7 JUMP JUMPDEST SWAP3 POP POP PUSH1 0x40 PUSH2 0x20F5 DUP7 DUP3 DUP8 ADD PUSH2 0x2036 JUMP JUMPDEST SWAP2 POP POP SWAP3 POP SWAP3 POP SWAP3 JUMP JUMPDEST PUSH1 0x0 DUP1 PUSH1 0x40 DUP4 DUP6 SUB SLT ISZERO PUSH2 0x2112 JUMPI PUSH1 0x0 DUP1 REVERT JUMPDEST PUSH1 0x0 PUSH2 0x2120 DUP6 DUP3 DUP7 ADD PUSH2 0x1FF7 JUMP JUMPDEST SWAP3 POP POP PUSH1 0x20 PUSH2 0x2131 DUP6 DUP3 DUP7 ADD PUSH2 0x2036 JUMP JUMPDEST SWAP2 POP POP SWAP3 POP SWAP3 SWAP1 POP JUMP JUMPDEST PUSH1 0x0 PUSH1 0x20 DUP3 DUP5 SUB SLT ISZERO PUSH2 0x214D JUMPI PUSH1 0x0 DUP1 REVERT JUMPDEST PUSH1 0x0 DUP3 ADD CALLDATALOAD PUSH8 0xFFFFFFFFFFFFFFFF DUP2 GT ISZERO PUSH2 0x2167 JUMPI PUSH1 0x0 DUP1 REVERT JUMPDEST PUSH2 0x2173 DUP5 DUP3 DUP6 ADD PUSH2 0x200C JUMP JUMPDEST SWAP2 POP POP SWAP3 SWAP2 POP POP JUMP JUMPDEST PUSH1 0x0 PUSH1 0x20 DUP3 DUP5 SUB SLT ISZERO PUSH2 0x218E JUMPI PUSH1 0x0 DUP1 REVERT JUMPDEST PUSH1 0x0 PUSH2 0x219C DUP5 DUP3 DUP6 ADD PUSH2 0x2036 JUMP JUMPDEST SWAP2 POP POP SWAP3 SWAP2 POP POP JUMP JUMPDEST PUSH1 0x0 DUP1 PUSH1 0x40 DUP4 DUP6 SUB SLT ISZERO PUSH2 0x21B8 JUMPI PUSH1 0x0 DUP1 REVERT JUMPDEST PUSH1 0x0 PUSH2 0x21C6 DUP6 DUP3 DUP7 ADD PUSH2 0x2036 JUMP JUMPDEST SWAP3 POP POP PUSH1 0x20 PUSH2 0x21D7 DUP6 DUP3 DUP7 ADD PUSH2 0x2036 JUMP JUMPDEST SWAP2 POP POP SWAP3 POP SWAP3 SWAP1 POP JUMP JUMPDEST PUSH1 0x0 PUSH2 0x21ED DUP4 DUP4 PUSH2 0x25F4 JUMP JUMPDEST SWAP1 POP SWAP3 SWAP2 POP POP JUMP JUMPDEST PUSH2 0x21FE DUP2 PUSH2 0x2C3B JUMP JUMPDEST DUP3 MSTORE POP POP JUMP JUMPDEST PUSH2 0x220D DUP2 PUSH2 0x2C3B JUMP JUMPDEST DUP3 MSTORE POP POP JUMP JUMPDEST PUSH1 0x0 PUSH2 0x221E DUP3 PUSH2 0x2B5B JUMP JUMPDEST PUSH2 0x2228 DUP2 DUP6 PUSH2 0x2B7E JUMP JUMPDEST SWAP4 POP DUP4 PUSH1 0x20 DUP3 MUL DUP6 ADD PUSH2 0x223A DUP6 PUSH2 0x2B4B JUMP JUMPDEST DUP1 PUSH1 0x0 JUMPDEST DUP6 DUP2 LT ISZERO PUSH2 0x2276 JUMPI DUP5 DUP5 SUB DUP10 MSTORE DUP2 MLOAD PUSH2 0x2257 DUP6 DUP3 PUSH2 0x21E1 JUMP JUMPDEST SWAP5 POP PUSH2 0x2262 DUP4 PUSH2 0x2B71 JUMP JUMPDEST SWAP3 POP PUSH1 0x20 DUP11 ADD SWAP10 POP POP PUSH1 0x1 DUP2 ADD SWAP1 POP PUSH2 0x223E JUMP JUMPDEST POP DUP3 SWAP8 POP DUP8 SWAP6 POP POP POP POP POP POP SWAP3 SWAP2 POP POP JUMP JUMPDEST PUSH2 0x2291 DUP2 PUSH2 0x2C4D JUMP JUMPDEST DUP3 MSTORE POP POP JUMP JUMPDEST PUSH2 0x22A0 DUP2 PUSH2 0x2C4D JUMP JUMPDEST DUP3 MSTORE POP POP JUMP JUMPDEST PUSH2 0x22AF DUP2 PUSH2 0x2CB6 JUMP JUMPDEST DUP3 MSTORE POP POP JUMP JUMPDEST PUSH2 0x22BE DUP2 PUSH2 0x2CC8 JUMP JUMPDEST DUP3 MSTORE POP POP JUMP JUMPDEST PUSH1 0x0 PUSH2 0x22CF DUP3 PUSH2 0x2B66 JUMP JUMPDEST PUSH2 0x22D9 DUP2 DUP6 PUSH2 0x2B8F JUMP JUMPDEST SWAP4 POP PUSH2 0x22E9 DUP2 DUP6 PUSH1 0x20 DUP7 ADD PUSH2 0x2CDA JUMP JUMPDEST PUSH2 0x22F2 DUP2 PUSH2 0x2E44 JUMP JUMPDEST DUP5 ADD SWAP2 POP POP SWAP3 SWAP2 POP POP JUMP JUMPDEST PUSH1 0x0 PUSH2 0x2308 DUP3 PUSH2 0x2B66 JUMP JUMPDEST PUSH2 0x2312 DUP2 DUP6 PUSH2 0x2BA0 JUMP JUMPDEST SWAP4 POP PUSH2 0x2322 DUP2 DUP6 PUSH1 0x20 DUP7 ADD PUSH2 0x2CDA JUMP JUMPDEST PUSH2 0x232B DUP2 PUSH2 0x2E44 JUMP JUMPDEST DUP5 ADD SWAP2 POP POP SWAP3 SWAP2 POP POP JUMP JUMPDEST PUSH1 0x0 PUSH2 0x2343 PUSH1 0x1A DUP4 PUSH2 0x2BA0 JUMP JUMPDEST SWAP2 POP PUSH32 0x4E6F7420656E6F7567682062616C616E636520746F2062696421000000000000 PUSH1 0x0 DUP4 ADD MSTORE PUSH1 0x20 DUP3 ADD SWAP1 POP SWAP2 SWAP1 POP JUMP JUMPDEST PUSH1 0x0 PUSH2 0x2383 PUSH1 0x28 DUP4 PUSH2 0x2BA0 JUMP JUMPDEST SWAP2 POP PUSH32 0x447269766572732063616E6E6F742062696420696E207468656972206F776E20 PUSH1 0x0 DUP4 ADD MSTORE PUSH32 0x61756374696F6E21000000000000000000000000000000000000000000000000 PUSH1 0x20 DUP4 ADD MSTORE PUSH1 0x40 DUP3 ADD SWAP1 POP SWAP2 SWAP1 POP JUMP JUMPDEST PUSH1 0x0 PUSH2 0x23E9 PUSH1 0x26 DUP4 PUSH2 0x2BA0 JUMP JUMPDEST SWAP2 POP PUSH32 0x4F776E61626C653A206E6577206F776E657220697320746865207A65726F2061 PUSH1 0x0 DUP4 ADD MSTORE PUSH32 0x6464726573730000000000000000000000000000000000000000000000000000 PUSH1 0x20 DUP4 ADD MSTORE PUSH1 0x40 DUP3 ADD SWAP1 POP SWAP2 SWAP1 POP JUMP JUMPDEST PUSH1 0x0 PUSH2 0x244F PUSH1 0x1D DUP4 PUSH2 0x2BA0 JUMP JUMPDEST SWAP2 POP PUSH32 0x41756374696F6E2068617320616C72656164792066696E697368656421000000 PUSH1 0x0 DUP4 ADD MSTORE PUSH1 0x20 DUP3 ADD SWAP1 POP SWAP2 SWAP1 POP JUMP JUMPDEST PUSH1 0x0 PUSH2 0x248F PUSH1 0x23 DUP4 PUSH2 0x2BA0 JUMP JUMPDEST SWAP2 POP PUSH32 0x4F6E6C7920447269766572732063616E20737461727420746865206175637469 PUSH1 0x0 DUP4 ADD MSTORE PUSH32 0x6F6E210000000000000000000000000000000000000000000000000000000000 PUSH1 0x20 DUP4 ADD MSTORE PUSH1 0x40 DUP3 ADD SWAP1 POP SWAP2 SWAP1 POP JUMP JUMPDEST PUSH1 0x0 PUSH2 0x24F5 PUSH1 0x23 DUP4 PUSH2 0x2BA0 JUMP JUMPDEST SWAP2 POP PUSH32 0x41756374696F6E2068617320616C72656164792073746172746564206265666F PUSH1 0x0 DUP4 ADD MSTORE PUSH32 0x7265210000000000000000000000000000000000000000000000000000000000 PUSH1 0x20 DUP4 ADD MSTORE PUSH1 0x40 DUP3 ADD SWAP1 POP SWAP2 SWAP1 POP JUMP JUMPDEST PUSH1 0x0 PUSH2 0x255B PUSH1 0x20 DUP4 PUSH2 0x2BA0 JUMP JUMPDEST SWAP2 POP PUSH32 0x4F776E61626C653A2063616C6C6572206973206E6F7420746865206F776E6572 PUSH1 0x0 DUP4 ADD MSTORE PUSH1 0x20 DUP3 ADD SWAP1 POP SWAP2 SWAP1 POP JUMP JUMPDEST PUSH1 0x0 PUSH2 0x259B PUSH1 0x2C DUP4 PUSH2 0x2BA0 JUMP JUMPDEST SWAP2 POP PUSH32 0x42696420686967686572207468616E207468652070726576696F757320686967 PUSH1 0x0 DUP4 ADD MSTORE PUSH32 0x6865737420626964646572210000000000000000000000000000000000000000 PUSH1 0x20 DUP4 ADD MSTORE PUSH1 0x40 DUP3 ADD SWAP1 POP SWAP2 SWAP1 POP JUMP JUMPDEST PUSH1 0x0 PUSH2 0x1A0 DUP4 ADD PUSH1 0x0 DUP4 ADD MLOAD PUSH2 0x260D PUSH1 0x0 DUP7 ADD DUP3 PUSH2 0x28EF JUMP JUMPDEST POP PUSH1 0x20 DUP4 ADD MLOAD PUSH2 0x2620 PUSH1 0x20 DUP7 ADD DUP3 PUSH2 0x28EF JUMP JUMPDEST POP PUSH1 0x40 DUP4 ADD MLOAD PUSH2 0x2633 PUSH1 0x40 DUP7 ADD DUP3 PUSH2 0x283C JUMP JUMPDEST POP PUSH1 0x60 DUP4 ADD MLOAD PUSH2 0x2646 PUSH1 0x80 DUP7 ADD DUP3 PUSH2 0x27D4 JUMP JUMPDEST POP PUSH1 0x80 DUP4 ADD MLOAD DUP5 DUP3 SUB PUSH2 0x120 DUP7 ADD MSTORE PUSH2 0x265F DUP3 DUP3 PUSH2 0x276A JUMP JUMPDEST SWAP2 POP POP PUSH1 0xA0 DUP4 ADD MLOAD DUP5 DUP3 SUB PUSH2 0x140 DUP7 ADD MSTORE PUSH2 0x267A DUP3 DUP3 PUSH2 0x286B JUMP JUMPDEST SWAP2 POP POP PUSH1 0xC0 DUP4 ADD MLOAD PUSH2 0x2690 PUSH2 0x160 DUP7 ADD DUP3 PUSH2 0x28EF JUMP JUMPDEST POP PUSH1 0xE0 DUP4 ADD MLOAD PUSH2 0x26A4 PUSH2 0x180 DUP7 ADD DUP3 PUSH2 0x28EF JUMP JUMPDEST POP DUP1 SWAP2 POP POP SWAP3 SWAP2 POP POP JUMP JUMPDEST PUSH1 0x0 PUSH2 0x1A0 DUP4 ADD PUSH1 0x0 DUP4 ADD MLOAD PUSH2 0x26C8 PUSH1 0x0 DUP7 ADD DUP3 PUSH2 0x28EF JUMP JUMPDEST POP PUSH1 0x20 DUP4 ADD MLOAD PUSH2 0x26DB PUSH1 0x20 DUP7 ADD DUP3 PUSH2 0x28EF JUMP JUMPDEST POP PUSH1 0x40 DUP4 ADD MLOAD PUSH2 0x26EE PUSH1 0x40 DUP7 ADD DUP3 PUSH2 0x283C JUMP JUMPDEST POP PUSH1 0x60 DUP4 ADD MLOAD PUSH2 0x2701 PUSH1 0x80 DUP7 ADD DUP3 PUSH2 0x27D4 JUMP JUMPDEST POP PUSH1 0x80 DUP4 ADD MLOAD DUP5 DUP3 SUB PUSH2 0x120 DUP7 ADD MSTORE PUSH2 0x271A DUP3 DUP3 PUSH2 0x276A JUMP JUMPDEST SWAP2 POP POP PUSH1 0xA0 DUP4 ADD MLOAD DUP5 DUP3 SUB PUSH2 0x140 DUP7 ADD MSTORE PUSH2 0x2735 DUP3 DUP3 PUSH2 0x286B JUMP JUMPDEST SWAP2 POP POP PUSH1 0xC0 DUP4 ADD MLOAD PUSH2 0x274B PUSH2 0x160 DUP7 ADD DUP3 PUSH2 0x28EF JUMP JUMPDEST POP PUSH1 0xE0 DUP4 ADD MLOAD PUSH2 0x275F PUSH2 0x180 DUP7 ADD DUP3 PUSH2 0x28EF JUMP JUMPDEST POP DUP1 SWAP2 POP POP SWAP3 SWAP2 POP POP JUMP JUMPDEST PUSH1 0x0 PUSH1 0x80 DUP4 ADD PUSH1 0x0 DUP4 ADD MLOAD DUP5 DUP3 SUB PUSH1 0x0 DUP7 ADD MSTORE PUSH2 0x2787 DUP3 DUP3 PUSH2 0x22C4 JUMP JUMPDEST SWAP2 POP POP PUSH1 0x20 DUP4 ADD MLOAD DUP5 DUP3 SUB PUSH1 0x20 DUP7 ADD MSTORE PUSH2 0x27A1 DUP3 DUP3 PUSH2 0x22C4 JUMP JUMPDEST SWAP2 POP POP PUSH1 0x40 DUP4 ADD MLOAD PUSH2 0x27B6 PUSH1 0x40 DUP7 ADD DUP3 PUSH2 0x28EF JUMP JUMPDEST POP PUSH1 0x60 DUP4 ADD MLOAD PUSH2 0x27C9 PUSH1 0x60 DUP7 ADD DUP3 PUSH2 0x28EF JUMP JUMPDEST POP DUP1 SWAP2 POP POP SWAP3 SWAP2 POP POP JUMP JUMPDEST PUSH1 0xA0 DUP3 ADD PUSH1 0x0 DUP3 ADD MLOAD PUSH2 0x27EA PUSH1 0x0 DUP6 ADD DUP3 PUSH2 0x2288 JUMP JUMPDEST POP PUSH1 0x20 DUP3 ADD MLOAD PUSH2 0x27FD PUSH1 0x20 DUP6 ADD DUP3 PUSH2 0x2288 JUMP JUMPDEST POP PUSH1 0x40 DUP3 ADD MLOAD PUSH2 0x2810 PUSH1 0x40 DUP6 ADD DUP3 PUSH2 0x2288 JUMP JUMPDEST POP PUSH1 0x60 DUP3 ADD MLOAD PUSH2 0x2823 PUSH1 0x60 DUP6 ADD DUP3 PUSH2 0x2288 JUMP JUMPDEST POP PUSH1 0x80 DUP3 ADD MLOAD PUSH2 0x2836 PUSH1 0x80 DUP6 ADD DUP3 PUSH2 0x22B5 JUMP JUMPDEST POP POP POP POP JUMP JUMPDEST PUSH1 0x40 DUP3 ADD PUSH1 0x0 DUP3 ADD MLOAD PUSH2 0x2852 PUSH1 0x0 DUP6 ADD DUP3 PUSH2 0x21F5 JUMP JUMPDEST POP PUSH1 0x20 DUP3 ADD MLOAD PUSH2 0x2865 PUSH1 0x20 DUP6 ADD DUP3 PUSH2 0x21F5 JUMP JUMPDEST POP POP POP POP JUMP JUMPDEST PUSH1 0x0 PUSH1 0xA0 DUP4 ADD PUSH1 0x0 DUP4 ADD MLOAD DUP5 DUP3 SUB PUSH1 0x0 DUP7 ADD MSTORE PUSH2 0x2888 DUP3 DUP3 PUSH2 0x22C4 JUMP JUMPDEST SWAP2 POP POP PUSH1 0x20 DUP4 ADD MLOAD DUP5 DUP3 SUB PUSH1 0x20 DUP7 ADD MSTORE PUSH2 0x28A2 DUP3 DUP3 PUSH2 0x22C4 JUMP JUMPDEST SWAP2 POP POP PUSH1 0x40 DUP4 ADD MLOAD DUP5 DUP3 SUB PUSH1 0x40 DUP7 ADD MSTORE PUSH2 0x28BC DUP3 DUP3 PUSH2 0x22C4 JUMP JUMPDEST SWAP2 POP POP PUSH1 0x60 DUP4 ADD MLOAD PUSH2 0x28D1 PUSH1 0x60 DUP7 ADD DUP3 PUSH2 0x22A6 JUMP JUMPDEST POP PUSH1 0x80 DUP4 ADD MLOAD PUSH2 0x28E4 PUSH1 0x80 DUP7 ADD DUP3 PUSH2 0x21F5 JUMP JUMPDEST POP DUP1 SWAP2 POP POP SWAP3 SWAP2 POP POP JUMP JUMPDEST PUSH2 0x28F8 DUP2 PUSH2 0x2C9F JUMP JUMPDEST DUP3 MSTORE POP POP JUMP JUMPDEST PUSH2 0x2907 DUP2 PUSH2 0x2C9F JUMP JUMPDEST DUP3 MSTORE POP POP JUMP JUMPDEST PUSH2 0x2916 DUP2 PUSH2 0x2CA9 JUMP JUMPDEST DUP3 MSTORE POP POP JUMP JUMPDEST PUSH1 0x0 PUSH1 0x20 DUP3 ADD SWAP1 POP PUSH2 0x2931 PUSH1 0x0 DUP4 ADD DUP5 PUSH2 0x2204 JUMP JUMPDEST SWAP3 SWAP2 POP POP JUMP JUMPDEST PUSH1 0x0 PUSH1 0x20 DUP3 ADD SWAP1 POP DUP2 DUP2 SUB PUSH1 0x0 DUP4 ADD MSTORE PUSH2 0x2951 DUP2 DUP5 PUSH2 0x2213 JUMP JUMPDEST SWAP1 POP SWAP3 SWAP2 POP POP JUMP JUMPDEST PUSH1 0x0 PUSH1 0x20 DUP3 ADD SWAP1 POP PUSH2 0x296E PUSH1 0x0 DUP4 ADD DUP5 PUSH2 0x2297 JUMP JUMPDEST SWAP3 SWAP2 POP POP JUMP JUMPDEST PUSH1 0x0 PUSH1 0x20 DUP3 ADD SWAP1 POP DUP2 DUP2 SUB PUSH1 0x0 DUP4 ADD MSTORE PUSH2 0x298E DUP2 DUP5 PUSH2 0x22FD JUMP JUMPDEST SWAP1 POP SWAP3 SWAP2 POP POP JUMP JUMPDEST PUSH1 0x0 PUSH1 0x20 DUP3 ADD SWAP1 POP DUP2 DUP2 SUB PUSH1 0x0 DUP4 ADD MSTORE PUSH2 0x29AF DUP2 PUSH2 0x2336 JUMP JUMPDEST SWAP1 POP SWAP2 SWAP1 POP JUMP JUMPDEST PUSH1 0x0 PUSH1 0x20 DUP3 ADD SWAP1 POP DUP2 DUP2 SUB PUSH1 0x0 DUP4 ADD MSTORE PUSH2 0x29CF DUP2 PUSH2 0x2376 JUMP JUMPDEST SWAP1 POP SWAP2 SWAP1 POP JUMP JUMPDEST PUSH1 0x0 PUSH1 0x20 DUP3 ADD SWAP1 POP DUP2 DUP2 SUB PUSH1 0x0 DUP4 ADD MSTORE PUSH2 0x29EF DUP2 PUSH2 0x23DC JUMP JUMPDEST SWAP1 POP SWAP2 SWAP1 POP JUMP JUMPDEST PUSH1 0x0 PUSH1 0x20 DUP3 ADD SWAP1 POP DUP2 DUP2 SUB PUSH1 0x0 DUP4 ADD MSTORE PUSH2 0x2A0F DUP2 PUSH2 0x2442 JUMP JUMPDEST SWAP1 POP SWAP2 SWAP1 POP JUMP JUMPDEST PUSH1 0x0 PUSH1 0x20 DUP3 ADD SWAP1 POP DUP2 DUP2 SUB PUSH1 0x0 DUP4 ADD MSTORE PUSH2 0x2A2F DUP2 PUSH2 0x2482 JUMP JUMPDEST SWAP1 POP SWAP2 SWAP1 POP JUMP JUMPDEST PUSH1 0x0 PUSH1 0x20 DUP3 ADD SWAP1 POP DUP2 DUP2 SUB PUSH1 0x0 DUP4 ADD MSTORE PUSH2 0x2A4F DUP2 PUSH2 0x24E8 JUMP JUMPDEST SWAP1 POP SWAP2 SWAP1 POP JUMP JUMPDEST PUSH1 0x0 PUSH1 0x20 DUP3 ADD SWAP1 POP DUP2 DUP2 SUB PUSH1 0x0 DUP4 ADD MSTORE PUSH2 0x2A6F DUP2 PUSH2 0x254E JUMP JUMPDEST SWAP1 POP SWAP2 SWAP1 POP JUMP JUMPDEST PUSH1 0x0 PUSH1 0x20 DUP3 ADD SWAP1 POP DUP2 DUP2 SUB PUSH1 0x0 DUP4 ADD MSTORE PUSH2 0x2A8F DUP2 PUSH2 0x258E JUMP JUMPDEST SWAP1 POP SWAP2 SWAP1 POP JUMP JUMPDEST PUSH1 0x0 PUSH1 0x20 DUP3 ADD SWAP1 POP DUP2 DUP2 SUB PUSH1 0x0 DUP4 ADD MSTORE PUSH2 0x2AB0 DUP2 DUP5 PUSH2 0x26AF JUMP JUMPDEST SWAP1 POP SWAP3 SWAP2 POP POP JUMP JUMPDEST PUSH1 0x0 PUSH1 0x20 DUP3 ADD SWAP1 POP PUSH2 0x2ACD PUSH1 0x0 DUP4 ADD DUP5 PUSH2 0x28FE JUMP JUMPDEST SWAP3 SWAP2 POP POP JUMP JUMPDEST PUSH1 0x0 PUSH1 0x20 DUP3 ADD SWAP1 POP PUSH2 0x2AE8 PUSH1 0x0 DUP4 ADD DUP5 PUSH2 0x290D JUMP JUMPDEST SWAP3 SWAP2 POP POP JUMP JUMPDEST PUSH1 0x0 PUSH1 0x40 MLOAD SWAP1 POP DUP2 DUP2 ADD DUP2 DUP2 LT PUSH8 0xFFFFFFFFFFFFFFFF DUP3 GT OR ISZERO PUSH2 0x2B15 JUMPI PUSH2 0x2B14 PUSH2 0x2E15 JUMP JUMPDEST JUMPDEST DUP1 PUSH1 0x40 MSTORE POP SWAP2 SWAP1 POP JUMP JUMPDEST PUSH1 0x0 PUSH8 0xFFFFFFFFFFFFFFFF DUP3 GT ISZERO PUSH2 0x2B3A JUMPI PUSH2 0x2B39 PUSH2 0x2E15 JUMP JUMPDEST JUMPDEST PUSH1 0x20 DUP3 MUL SWAP1 POP PUSH1 0x20 DUP2 ADD SWAP1 POP SWAP2 SWAP1 POP JUMP JUMPDEST PUSH1 0x0 DUP2 SWAP1 POP PUSH1 0x20 DUP3 ADD SWAP1 POP SWAP2 SWAP1 POP JUMP JUMPDEST PUSH1 0x0 DUP2 MLOAD SWAP1 POP SWAP2 SWAP1 POP JUMP JUMPDEST PUSH1 0x0 DUP2 MLOAD SWAP1 POP SWAP2 SWAP1 POP JUMP JUMPDEST PUSH1 0x0 PUSH1 0x20 DUP3 ADD SWAP1 POP SWAP2 SWAP1 POP JUMP JUMPDEST PUSH1 0x0 DUP3 DUP3 MSTORE PUSH1 0x20 DUP3 ADD SWAP1 POP SWAP3 SWAP2 POP POP JUMP JUMPDEST PUSH1 0x0 DUP3 DUP3 MSTORE PUSH1 0x20 DUP3 ADD SWAP1 POP SWAP3 SWAP2 POP POP JUMP JUMPDEST PUSH1 0x0 DUP3 DUP3 MSTORE PUSH1 0x20 DUP3 ADD SWAP1 POP SWAP3 SWAP2 POP POP JUMP JUMPDEST PUSH1 0x0 PUSH2 0x2BBC DUP3 PUSH2 0x2C9F JUMP JUMPDEST SWAP2 POP PUSH2 0x2BC7 DUP4 PUSH2 0x2C9F JUMP JUMPDEST SWAP3 POP DUP3 PUSH32 0xFFFFFFFFFFFFFFFFFFFFFFFFFFFFFFFFFFFFFFFFFFFFFFFFFFFFFFFFFFFFFFFF SUB DUP3 GT ISZERO PUSH2 0x2BFC JUMPI PUSH2 0x2BFB PUSH2 0x2D88 JUMP JUMPDEST JUMPDEST DUP3 DUP3 ADD SWAP1 POP SWAP3 SWAP2 POP POP JUMP JUMPDEST PUSH1 0x0 PUSH2 0x2C12 DUP3 PUSH2 0x2C9F JUMP JUMPDEST SWAP2 POP PUSH2 0x2C1D DUP4 PUSH2 0x2C9F JUMP JUMPDEST SWAP3 POP DUP3 DUP3 LT ISZERO PUSH2 0x2C30 JUMPI PUSH2 0x2C2F PUSH2 0x2D88 JUMP JUMPDEST JUMPDEST DUP3 DUP3 SUB SWAP1 POP SWAP3 SWAP2 POP POP JUMP JUMPDEST PUSH1 0x0 PUSH2 0x2C46 DUP3 PUSH2 0x2C7F JUMP JUMPDEST SWAP1 POP SWAP2 SWAP1 POP JUMP JUMPDEST PUSH1 0x0 DUP2 ISZERO ISZERO SWAP1 POP SWAP2 SWAP1 POP JUMP JUMPDEST PUSH1 0x0 DUP2 SWAP1 POP PUSH2 0x2C67 DUP3 PUSH2 0x2E55 JUMP JUMPDEST SWAP2 SWAP1 POP JUMP JUMPDEST PUSH1 0x0 DUP2 SWAP1 POP PUSH2 0x2C7A DUP3 PUSH2 0x2E69 JUMP JUMPDEST SWAP2 SWAP1 POP JUMP JUMPDEST PUSH1 0x0 PUSH20 0xFFFFFFFFFFFFFFFFFFFFFFFFFFFFFFFFFFFFFFFF DUP3 AND SWAP1 POP SWAP2 SWAP1 POP JUMP JUMPDEST PUSH1 0x0 DUP2 SWAP1 POP SWAP2 SWAP1 POP JUMP JUMPDEST PUSH1 0x0 PUSH1 0xFF DUP3 AND SWAP1 POP SWAP2 SWAP1 POP JUMP JUMPDEST PUSH1 0x0 PUSH2 0x2CC1 DUP3 PUSH2 0x2C59 JUMP JUMPDEST SWAP1 POP SWAP2 SWAP1 POP JUMP JUMPDEST PUSH1 0x0 PUSH2 0x2CD3 DUP3 PUSH2 0x2C6C JUMP JUMPDEST SWAP1 POP SWAP2 SWAP1 POP JUMP JUMPDEST PUSH1 0x0 JUMPDEST DUP4 DUP2 LT ISZERO PUSH2 0x2CF8 JUMPI DUP1 DUP3 ADD MLOAD DUP2 DUP5 ADD MSTORE PUSH1 0x20 DUP2 ADD SWAP1 POP PUSH2 0x2CDD JUMP JUMPDEST DUP4 DUP2 GT ISZERO PUSH2 0x2D07 JUMPI PUSH1 0x0 DUP5 DUP5 ADD MSTORE JUMPDEST POP POP POP POP JUMP JUMPDEST PUSH1 0x0 PUSH1 0x2 DUP3 DIV SWAP1 POP PUSH1 0x1 DUP3 AND DUP1 PUSH2 0x2D25 JUMPI PUSH1 0x7F DUP3 AND SWAP2 POP JUMPDEST PUSH1 0x20 DUP3 LT DUP2 EQ ISZERO PUSH2 0x2D39 JUMPI PUSH2 0x2D38 PUSH2 0x2DE6 JUMP JUMPDEST JUMPDEST POP SWAP2 SWAP1 POP JUMP JUMPDEST PUSH1 0x0 PUSH2 0x2D4A DUP3 PUSH2 0x2C9F JUMP JUMPDEST SWAP2 POP PUSH32 0xFFFFFFFFFFFFFFFFFFFFFFFFFFFFFFFFFFFFFFFFFFFFFFFFFFFFFFFFFFFFFFFF DUP3 EQ ISZERO PUSH2 0x2D7D JUMPI PUSH2 0x2D7C PUSH2 0x2D88 JUMP JUMPDEST JUMPDEST PUSH1 0x1 DUP3 ADD SWAP1 POP SWAP2 SWAP1 POP JUMP JUMPDEST PUSH32 0x4E487B7100000000000000000000000000000000000000000000000000000000 PUSH1 0x0 MSTORE PUSH1 0x11 PUSH1 0x4 MSTORE PUSH1 0x24 PUSH1 0x0 REVERT JUMPDEST PUSH32 0x4E487B7100000000000000000000000000000000000000000000000000000000 PUSH1 0x0 MSTORE PUSH1 0x21 PUSH1 0x4 MSTORE PUSH1 0x24 PUSH1 0x0 REVERT JUMPDEST PUSH32 0x4E487B7100000000000000000000000000000000000000000000000000000000 PUSH1 0x0 MSTORE PUSH1 0x22 PUSH1 0x4 MSTORE PUSH1 0x24 PUSH1 0x0 REVERT JUMPDEST PUSH32 0x4E487B7100000000000000000000000000000000000000000000000000000000 PUSH1 0x0 MSTORE PUSH1 0x41 PUSH1 0x4 MSTORE PUSH1 0x24 PUSH1 0x0 REVERT JUMPDEST PUSH1 0x0 PUSH1 0x1F NOT PUSH1 0x1F DUP4 ADD AND SWAP1 POP SWAP2 SWAP1 POP JUMP JUMPDEST PUSH1 0x4 DUP2 LT PUSH2 0x2E66 JUMPI PUSH2 0x2E65 PUSH2 0x2DB7 JUMP JUMPDEST JUMPDEST POP JUMP JUMPDEST PUSH1 0x3 DUP2 LT PUSH2 0x2E7A JUMPI PUSH2 0x2E79 PUSH2 0x2DB7 JUMP JUMPDEST JUMPDEST POP JUMP JUMPDEST PUSH2 0x2E86 DUP2 PUSH2 0x2C3B JUMP JUMPDEST DUP2 EQ PUSH2 0x2E91 JUMPI PUSH1 0x0 DUP1 REVERT JUMPDEST POP JUMP JUMPDEST PUSH2 0x2E9D DUP2 PUSH2 0x2C9F JUMP JUMPDEST DUP2 EQ PUSH2 0x2EA8 JUMPI PUSH1 0x0 DUP1 REVERT JUMPDEST POP JUMP INVALID LOG2 PUSH5 0x6970667358 0x22 SLT KECCAK256 PUSH9 0x3BFACD461CFBFE4B99 0x5C EXTCODECOPY 0xD1 BLOCKHASH PUSH12 0xAEFB732D787699D678EE6172 0xE9 0xAB DUP6 0xC2 0x2C PUSH5 0x736F6C6343 STOP ADDMOD STOP STOP CALLER "
				},
				"gasEstimates": {
					"creation": {
						"codeDepositCost": "2400200",
						"executionCost": "infinite",
						"totalCost": "infinite"
					},
					"external": {
						"allowanceOf(address,address)": "infinite",
						"approve(address,uint256)": "infinite",
						"balanceOf(address)": "1564",
						"bid(uint256,uint256)": "infinite",
						"decimals()": "380",
						"getAllRides(uint256[])": "infinite",
						"getRide(uint256)": "infinite",
						"name()": "infinite",
						"owner()": "1244",
						"publishRide(uint256)": "infinite",
						"renounceOwnership()": "24443",
						"startAuction(uint256,uint256)": "infinite",
						"symbol()": "infinite",
						"transfer(address,uint256)": "infinite",
						"transferFrom(address,address,uint256)": "infinite",
						"transferOwnership(address)": "24835"
					},
					"internal": {
						"checkValidity(uint256)": "infinite"
					}
				},
				"methodIdentifiers": {
					"allowanceOf(address,address)": "1a46ec82",
					"approve(address,uint256)": "095ea7b3",
					"balanceOf(address)": "70a08231",
					"bid(uint256,uint256)": "598647f8",
					"decimals()": "313ce567",
					"getAllRides(uint256[])": "7aa9d3bb",
					"getRide(uint256)": "7c7b0ff4",
					"name()": "06fdde03",
					"owner()": "8da5cb5b",
					"publishRide(uint256)": "2b63681c",
					"renounceOwnership()": "715018a6",
					"startAuction(uint256,uint256)": "4fee13fc",
					"symbol()": "95d89b41",
					"transfer(address,uint256)": "a9059cbb",
					"transferFrom(address,address,uint256)": "23b872dd",
					"transferOwnership(address)": "f2fde38b"
				}
			},
			"storageLayout": {
				"storage": [
					{
						"astId": 7,
						"contract": "contracts/auctionride.sol:AuctionRide",
						"label": "_owner",
						"offset": 0,
						"slot": "0",
						"type": "t_address"
					},
					{
						"astId": 375,
						"contract": "contracts/auctionride.sol:AuctionRide",
						"label": "_vehicles",
						"offset": 0,
						"slot": "1",
						"type": "t_mapping(t_address,t_struct(VEHICLE_INFO)370_storage)"
					},
					{
						"astId": 165,
						"contract": "contracts/auctionride.sol:AuctionRide",
						"label": "balances",
						"offset": 0,
						"slot": "2",
						"type": "t_mapping(t_address,t_uint256)"
					},
					{
						"astId": 171,
						"contract": "contracts/auctionride.sol:AuctionRide",
						"label": "allowed",
						"offset": 0,
						"slot": "3",
						"type": "t_mapping(t_address,t_mapping(t_address,t_uint256))"
					},
					{
						"astId": 173,
						"contract": "contracts/auctionride.sol:AuctionRide",
						"label": "totalSupply_",
						"offset": 0,
						"slot": "4",
						"type": "t_uint256"
					},
					{
						"astId": 392,
						"contract": "contracts/auctionride.sol:AuctionRide",
						"label": "rideCount",
						"offset": 0,
						"slot": "5",
						"type": "t_uint256"
					},
					{
						"astId": 448,
						"contract": "contracts/auctionride.sol:AuctionRide",
						"label": "_rides",
						"offset": 0,
						"slot": "6",
						"type": "t_mapping(t_uint256,t_struct(RIDE)443_storage)"
					}
				],
				"types": {
					"t_address": {
						"encoding": "inplace",
						"label": "address",
						"numberOfBytes": "20"
					},
					"t_bool": {
						"encoding": "inplace",
						"label": "bool",
						"numberOfBytes": "1"
					},
					"t_enum(VEHICLE_TYPE)358": {
						"encoding": "inplace",
						"label": "enum Vehicle.VEHICLE_TYPE",
						"numberOfBytes": "1"
					},
					"t_enum(appUser)396": {
						"encoding": "inplace",
						"label": "enum AuctionRide.appUser",
						"numberOfBytes": "1"
					},
					"t_mapping(t_address,t_mapping(t_address,t_uint256))": {
						"encoding": "mapping",
						"key": "t_address",
						"label": "mapping(address => mapping(address => uint256))",
						"numberOfBytes": "32",
						"value": "t_mapping(t_address,t_uint256)"
					},
					"t_mapping(t_address,t_struct(VEHICLE_INFO)370_storage)": {
						"encoding": "mapping",
						"key": "t_address",
						"label": "mapping(address => struct Vehicle.VEHICLE_INFO)",
						"numberOfBytes": "32",
						"value": "t_struct(VEHICLE_INFO)370_storage"
					},
					"t_mapping(t_address,t_uint256)": {
						"encoding": "mapping",
						"key": "t_address",
						"label": "mapping(address => uint256)",
						"numberOfBytes": "32",
						"value": "t_uint256"
					},
					"t_mapping(t_uint256,t_struct(RIDE)443_storage)": {
						"encoding": "mapping",
						"key": "t_uint256",
						"label": "mapping(uint256 => struct AuctionRide.RIDE)",
						"numberOfBytes": "32",
						"value": "t_struct(RIDE)443_storage"
					},
					"t_string_storage": {
						"encoding": "bytes",
						"label": "string",
						"numberOfBytes": "32"
					},
					"t_struct(RIDE)443_storage": {
						"encoding": "inplace",
						"label": "struct AuctionRide.RIDE",
						"members": [
							{
								"astId": 424,
								"contract": "contracts/auctionride.sol:AuctionRide",
								"label": "id",
								"offset": 0,
								"slot": "0",
								"type": "t_uint256"
							},
							{
								"astId": 426,
								"contract": "contracts/auctionride.sol:AuctionRide",
								"label": "latestHighestBid",
								"offset": 0,
								"slot": "1",
								"type": "t_uint256"
							},
							{
								"astId": 429,
								"contract": "contracts/auctionride.sol:AuctionRide",
								"label": "users",
								"offset": 0,
								"slot": "2",
								"type": "t_struct(USERS)401_storage"
							},
							{
								"astId": 432,
								"contract": "contracts/auctionride.sol:AuctionRide",
								"label": "status",
								"offset": 0,
								"slot": "4",
								"type": "t_struct(STATUS)413_storage"
							},
							{
								"astId": 435,
								"contract": "contracts/auctionride.sol:AuctionRide",
								"label": "ride",
								"offset": 0,
								"slot": "5",
								"type": "t_struct(RIDE_DETAILS)422_storage"
							},
							{
								"astId": 438,
								"contract": "contracts/auctionride.sol:AuctionRide",
								"label": "vehicle",
								"offset": 0,
								"slot": "9",
								"type": "t_struct(VEHICLE_INFO)370_storage"
							},
							{
								"astId": 440,
								"contract": "contracts/auctionride.sol:AuctionRide",
								"label": "timeOfPosting",
								"offset": 0,
								"slot": "13",
								"type": "t_uint256"
							},
							{
								"astId": 442,
								"contract": "contracts/auctionride.sol:AuctionRide",
								"label": "secondsUntilAuctionEnds",
								"offset": 0,
								"slot": "14",
								"type": "t_uint256"
							}
						],
						"numberOfBytes": "480"
					},
					"t_struct(RIDE_DETAILS)422_storage": {
						"encoding": "inplace",
						"label": "struct AuctionRide.RIDE_DETAILS",
						"members": [
							{
								"astId": 415,
								"contract": "contracts/auctionride.sol:AuctionRide",
								"label": "pickup",
								"offset": 0,
								"slot": "0",
								"type": "t_string_storage"
							},
							{
								"astId": 417,
								"contract": "contracts/auctionride.sol:AuctionRide",
								"label": "destination",
								"offset": 0,
								"slot": "1",
								"type": "t_string_storage"
							},
							{
								"astId": 419,
								"contract": "contracts/auctionride.sol:AuctionRide",
								"label": "distance",
								"offset": 0,
								"slot": "2",
								"type": "t_uint256"
							},
							{
								"astId": 421,
								"contract": "contracts/auctionride.sol:AuctionRide",
								"label": "price",
								"offset": 0,
								"slot": "3",
								"type": "t_uint256"
							}
						],
						"numberOfBytes": "128"
					},
					"t_struct(STATUS)413_storage": {
						"encoding": "inplace",
						"label": "struct AuctionRide.STATUS",
						"members": [
							{
								"astId": 403,
								"contract": "contracts/auctionride.sol:AuctionRide",
								"label": "isCancelled",
								"offset": 0,
								"slot": "0",
								"type": "t_bool"
							},
							{
								"astId": 405,
								"contract": "contracts/auctionride.sol:AuctionRide",
								"label": "isComplete",
								"offset": 1,
								"slot": "0",
								"type": "t_bool"
							},
							{
								"astId": 407,
								"contract": "contracts/auctionride.sol:AuctionRide",
								"label": "isConfirmed",
								"offset": 2,
								"slot": "0",
								"type": "t_bool"
							},
							{
								"astId": 409,
								"contract": "contracts/auctionride.sol:AuctionRide",
								"label": "isAuctionGoingOn",
								"offset": 3,
								"slot": "0",
								"type": "t_bool"
							},
							{
								"astId": 412,
								"contract": "contracts/auctionride.sol:AuctionRide",
								"label": "wasCancelledBy",
								"offset": 4,
								"slot": "0",
								"type": "t_enum(appUser)396"
							}
						],
						"numberOfBytes": "32"
					},
					"t_struct(USERS)401_storage": {
						"encoding": "inplace",
						"label": "struct AuctionRide.USERS",
						"members": [
							{
								"astId": 398,
								"contract": "contracts/auctionride.sol:AuctionRide",
								"label": "customer",
								"offset": 0,
								"slot": "0",
								"type": "t_address"
							},
							{
								"astId": 400,
								"contract": "contracts/auctionride.sol:AuctionRide",
								"label": "driver",
								"offset": 0,
								"slot": "1",
								"type": "t_address"
							}
						],
						"numberOfBytes": "64"
					},
					"t_struct(VEHICLE_INFO)370_storage": {
						"encoding": "inplace",
						"label": "struct Vehicle.VEHICLE_INFO",
						"members": [
							{
								"astId": 360,
								"contract": "contracts/auctionride.sol:AuctionRide",
								"label": "vehicle_no",
								"offset": 0,
								"slot": "0",
								"type": "t_string_storage"
							},
							{
								"astId": 362,
								"contract": "contracts/auctionride.sol:AuctionRide",
								"label": "RC",
								"offset": 0,
								"slot": "1",
								"type": "t_string_storage"
							},
							{
								"astId": 364,
								"contract": "contracts/auctionride.sol:AuctionRide",
								"label": "vehicle_images",
								"offset": 0,
								"slot": "2",
								"type": "t_string_storage"
							},
							{
								"astId": 367,
								"contract": "contracts/auctionride.sol:AuctionRide",
								"label": "vehicle_type",
								"offset": 0,
								"slot": "3",
								"type": "t_enum(VEHICLE_TYPE)358"
							},
							{
								"astId": 369,
								"contract": "contracts/auctionride.sol:AuctionRide",
								"label": "driver",
								"offset": 1,
								"slot": "3",
								"type": "t_address"
							}
						],
						"numberOfBytes": "128"
					},
					"t_uint256": {
						"encoding": "inplace",
						"label": "uint256",
						"numberOfBytes": "32"
					}
				}
			},
			"userdoc": {
				"kind": "user",
				"methods": {},
				"version": 1
			}
		}
	}
}