{
  "contractName": "Driver",
  "abi": [
    {
      "anonymous": false,
      "inputs": [
        {
          "indexed": true,
          "internalType": "address",
          "name": "previousOwner",
          "type": "address"
        },
        {
          "indexed": true,
          "internalType": "address",
          "name": "newOwner",
          "type": "address"
        }
      ],
      "name": "OwnershipTransferred",
      "type": "event"
    },
    {
      "inputs": [
        {
          "internalType": "address",
          "name": "",
          "type": "address"
        }
      ],
      "name": "drivers",
      "outputs": [
        {
          "internalType": "uint256",
          "name": "id",
          "type": "uint256"
        },
        {
          "internalType": "string",
          "name": "name",
          "type": "string"
        },
        {
          "internalType": "string",
          "name": "dob",
          "type": "string"
        },
        {
          "internalType": "string",
          "name": "curAddress",
          "type": "string"
        },
        {
          "internalType": "string",
          "name": "govtID",
          "type": "string"
        },
        {
          "internalType": "string",
          "name": "picture",
          "type": "string"
        },
        {
          "internalType": "string",
          "name": "DL",
          "type": "string"
        },
        {
          "internalType": "address",
          "name": "wallet",
          "type": "address"
        }
      ],
      "stateMutability": "view",
      "type": "function"
    },
    {
      "inputs": [],
      "name": "owner",
      "outputs": [
        {
          "internalType": "address",
          "name": "",
          "type": "address"
        }
      ],
      "stateMutability": "view",
      "type": "function"
    },
    {
      "inputs": [],
      "name": "renounceOwnership",
      "outputs": [],
      "stateMutability": "nonpayable",
      "type": "function"
    },
    {
      "inputs": [
        {
          "internalType": "address",
          "name": "newOwner",
          "type": "address"
        }
      ],
      "name": "transferOwnership",
      "outputs": [],
      "stateMutability": "nonpayable",
      "type": "function"
    },
    {
      "inputs": [
        {
          "internalType": "string",
          "name": "_name",
          "type": "string"
        },
        {
          "internalType": "string",
          "name": "_dob",
          "type": "string"
        },
        {
          "internalType": "string",
          "name": "_curAddress",
          "type": "string"
        },
        {
          "internalType": "string",
          "name": "_govtId",
          "type": "string"
        },
        {
          "internalType": "string",
          "name": "_picture",
          "type": "string"
        },
        {
          "internalType": "string",
          "name": "_dl",
          "type": "string"
        }
      ],
      "name": "createDriver",
      "outputs": [
        {
          "internalType": "address",
          "name": "",
          "type": "address"
        }
      ],
      "stateMutability": "nonpayable",
      "type": "function"
    },
    {
      "inputs": [
        {
          "internalType": "address",
          "name": "_walletAddr",
          "type": "address"
        }
      ],
      "name": "getDriver",
      "outputs": [
        {
          "components": [
            {
              "internalType": "uint256",
              "name": "id",
              "type": "uint256"
            },
            {
              "internalType": "string",
              "name": "name",
              "type": "string"
            },
            {
              "internalType": "string",
              "name": "dob",
              "type": "string"
            },
            {
              "internalType": "string",
              "name": "curAddress",
              "type": "string"
            },
            {
              "internalType": "string",
              "name": "govtID",
              "type": "string"
            },
            {
              "internalType": "string",
              "name": "picture",
              "type": "string"
            },
            {
              "internalType": "string",
              "name": "DL",
              "type": "string"
            },
            {
              "internalType": "address",
              "name": "wallet",
              "type": "address"
            }
          ],
          "internalType": "struct Driver.DRIVER",
          "name": "",
          "type": "tuple"
        }
      ],
      "stateMutability": "view",
      "type": "function"
    }
  ],
  "bytecode": "0x6080604052600060015534801561001557600080fd5b5061003261002761003760201b60201c565b61003f60201b60201c565b610103565b600033905090565b60008060009054906101000a900473ffffffffffffffffffffffffffffffffffffffff169050816000806101000a81548173ffffffffffffffffffffffffffffffffffffffff021916908373ffffffffffffffffffffffffffffffffffffffff1602179055508173ffffffffffffffffffffffffffffffffffffffff168173ffffffffffffffffffffffffffffffffffffffff167f8be0079c531659141344cd1fd0a4f28419497f9722a3daafe3b4186f6b6457e060405160405180910390a35050565b6114db806101126000396000f3fe608060405234801561001057600080fd5b50600436106100625760003560e01c80631a977d1c146100675780634aa601861461009757806365c301ab146100ce578063715018a6146100fe5780638da5cb5b14610108578063f2fde38b14610126575b600080fd5b610081600480360381019061007c9190610e04565b610142565b60405161008e9190611144565b60405180910390f35b6100b160048036038101906100ac9190610ddb565b610291565b6040516100c59897969594939291906111c1565b60405180910390f35b6100e860048036038101906100e39190610ddb565b610629565b6040516100f5919061119f565b60405180910390f35b610106610a55565b005b610110610a69565b60405161011d9190611144565b60405180910390f35b610140600480360381019061013b9190610ddb565b610a92565b005b600060016000815480929190610157906113a7565b91905055506000600260003373ffffffffffffffffffffffffffffffffffffffff1673ffffffffffffffffffffffffffffffffffffffff16815260200190815260200160002090506001548160000181905550878160010190805190602001906101c2929190610c60565b50868160020190805190602001906101db929190610c60565b50858160030190805190602001906101f4929190610c60565b508481600401908051906020019061020d929190610c60565b5082816006019080519060200190610226929190610c60565b508381600501908051906020019061023f929190610c60565b50338160070160006101000a81548173ffffffffffffffffffffffffffffffffffffffff021916908373ffffffffffffffffffffffffffffffffffffffff160217905550339150509695505050505050565b60026020528060005260406000206000915090508060000154908060010180546102ba90611375565b80601f01602080910402602001604051908101604052809291908181526020018280546102e690611375565b80156103335780601f1061030857610100808354040283529160200191610333565b820191906000526020600020905b81548152906001019060200180831161031657829003601f168201915b50505050509080600201805461034890611375565b80601f016020809104026020016040519081016040528092919081815260200182805461037490611375565b80156103c15780601f10610396576101008083540402835291602001916103c1565b820191906000526020600020905b8154815290600101906020018083116103a457829003601f168201915b5050505050908060030180546103d690611375565b80601f016020809104026020016040519081016040528092919081815260200182805461040290611375565b801561044f5780601f106104245761010080835404028352916020019161044f565b820191906000526020600020905b81548152906001019060200180831161043257829003601f168201915b50505050509080600401805461046490611375565b80601f016020809104026020016040519081016040528092919081815260200182805461049090611375565b80156104dd5780601f106104b2576101008083540402835291602001916104dd565b820191906000526020600020905b8154815290600101906020018083116104c057829003601f168201915b5050505050908060050180546104f290611375565b80601f016020809104026020016040519081016040528092919081815260200182805461051e90611375565b801561056b5780601f106105405761010080835404028352916020019161056b565b820191906000526020600020905b81548152906001019060200180831161054e57829003601f168201915b50505050509080600601805461058090611375565b80601f01602080910402602001604051908101604052809291908181526020018280546105ac90611375565b80156105f95780601f106105ce576101008083540402835291602001916105f9565b820191906000526020600020905b8154815290600101906020018083116105dc57829003601f168201915b5050505050908060070160009054906101000a900473ffffffffffffffffffffffffffffffffffffffff16905088565b610631610ce6565b6000600260008473ffffffffffffffffffffffffffffffffffffffff1673ffffffffffffffffffffffffffffffffffffffff168152602001908152602001600020604051806101000160405290816000820154815260200160018201805461069890611375565b80601f01602080910402602001604051908101604052809291908181526020018280546106c490611375565b80156107115780601f106106e657610100808354040283529160200191610711565b820191906000526020600020905b8154815290600101906020018083116106f457829003601f168201915b5050505050815260200160028201805461072a90611375565b80601f016020809104026020016040519081016040528092919081815260200182805461075690611375565b80156107a35780601f10610778576101008083540402835291602001916107a3565b820191906000526020600020905b81548152906001019060200180831161078657829003601f168201915b505050505081526020016003820180546107bc90611375565b80601f01602080910402602001604051908101604052809291908181526020018280546107e890611375565b80156108355780601f1061080a57610100808354040283529160200191610835565b820191906000526020600020905b81548152906001019060200180831161081857829003601f168201915b5050505050815260200160048201805461084e90611375565b80601f016020809104026020016040519081016040528092919081815260200182805461087a90611375565b80156108c75780601f1061089c576101008083540402835291602001916108c7565b820191906000526020600020905b8154815290600101906020018083116108aa57829003601f168201915b505050505081526020016005820180546108e090611375565b80601f016020809104026020016040519081016040528092919081815260200182805461090c90611375565b80156109595780601f1061092e57610100808354040283529160200191610959565b820191906000526020600020905b81548152906001019060200180831161093c57829003601f168201915b5050505050815260200160068201805461097290611375565b80601f016020809104026020016040519081016040528092919081815260200182805461099e90611375565b80156109eb5780601f106109c0576101008083540402835291602001916109eb565b820191906000526020600020905b8154815290600101906020018083116109ce57829003601f168201915b505050505081526020016007820160009054906101000a900473ffffffffffffffffffffffffffffffffffffffff1673ffffffffffffffffffffffffffffffffffffffff1673ffffffffffffffffffffffffffffffffffffffff1681525050905080915050919050565b610a5d610b16565b610a676000610b94565b565b60008060009054906101000a900473ffffffffffffffffffffffffffffffffffffffff16905090565b610a9a610b16565b600073ffffffffffffffffffffffffffffffffffffffff168173ffffffffffffffffffffffffffffffffffffffff161415610b0a576040517f08c379a0000000000000000000000000000000000000000000000000000000008152600401610b019061115f565b60405180910390fd5b610b1381610b94565b50565b610b1e610c58565b73ffffffffffffffffffffffffffffffffffffffff16610b3c610a69565b73ffffffffffffffffffffffffffffffffffffffff1614610b92576040517f08c379a0000000000000000000000000000000000000000000000000000000008152600401610b899061117f565b60405180910390fd5b565b60008060009054906101000a900473ffffffffffffffffffffffffffffffffffffffff169050816000806101000a81548173ffffffffffffffffffffffffffffffffffffffff021916908373ffffffffffffffffffffffffffffffffffffffff1602179055508173ffffffffffffffffffffffffffffffffffffffff168173ffffffffffffffffffffffffffffffffffffffff167f8be0079c531659141344cd1fd0a4f28419497f9722a3daafe3b4186f6b6457e060405160405180910390a35050565b600033905090565b828054610c6c90611375565b90600052602060002090601f016020900481019282610c8e5760008555610cd5565b82601f10610ca757805160ff1916838001178555610cd5565b82800160010185558215610cd5579182015b82811115610cd4578251825591602001919060010190610cb9565b5b509050610ce29190610d41565b5090565b60405180610100016040528060008152602001606081526020016060815260200160608152602001606081526020016060815260200160608152602001600073ffffffffffffffffffffffffffffffffffffffff1681525090565b5b80821115610d5a576000816000905550600101610d42565b5090565b6000610d71610d6c8461129a565b611269565b905082815260208101848484011115610d8957600080fd5b610d94848285611333565b509392505050565b600081359050610dab8161148e565b92915050565b600082601f830112610dc257600080fd5b8135610dd2848260208601610d5e565b91505092915050565b600060208284031215610ded57600080fd5b6000610dfb84828501610d9c565b91505092915050565b60008060008060008060c08789031215610e1d57600080fd5b600087013567ffffffffffffffff811115610e3757600080fd5b610e4389828a01610db1565b965050602087013567ffffffffffffffff811115610e6057600080fd5b610e6c89828a01610db1565b955050604087013567ffffffffffffffff811115610e8957600080fd5b610e9589828a01610db1565b945050606087013567ffffffffffffffff811115610eb257600080fd5b610ebe89828a01610db1565b935050608087013567ffffffffffffffff811115610edb57600080fd5b610ee789828a01610db1565b92505060a087013567ffffffffffffffff811115610f0457600080fd5b610f1089828a01610db1565b9150509295509295509295565b610f26816112f7565b82525050565b610f35816112f7565b82525050565b6000610f46826112ca565b610f5081856112d5565b9350610f60818560208601611342565b610f698161147d565b840191505092915050565b6000610f7f826112ca565b610f8981856112e6565b9350610f99818560208601611342565b610fa28161147d565b840191505092915050565b6000610fba6026836112e6565b91507f4f776e61626c653a206e6577206f776e657220697320746865207a65726f206160008301527f64647265737300000000000000000000000000000000000000000000000000006020830152604082019050919050565b60006110206020836112e6565b91507f4f776e61626c653a2063616c6c6572206973206e6f7420746865206f776e65726000830152602082019050919050565b60006101008301600083015161106c6000860182611126565b50602083015184820360208601526110848282610f3b565b9150506040830151848203604086015261109e8282610f3b565b915050606083015184820360608601526110b88282610f3b565b915050608083015184820360808601526110d28282610f3b565b91505060a083015184820360a08601526110ec8282610f3b565b91505060c083015184820360c08601526111068282610f3b565b91505060e083015161111b60e0860182610f1d565b508091505092915050565b61112f81611329565b82525050565b61113e81611329565b82525050565b60006020820190506111596000830184610f2c565b92915050565b6000602082019050818103600083015261117881610fad565b9050919050565b6000602082019050818103600083015261119881611013565b9050919050565b600060208201905081810360008301526111b98184611053565b905092915050565b6000610100820190506111d7600083018b611135565b81810360208301526111e9818a610f74565b905081810360408301526111fd8189610f74565b905081810360608301526112118188610f74565b905081810360808301526112258187610f74565b905081810360a08301526112398186610f74565b905081810360c083015261124d8185610f74565b905061125c60e0830184610f2c565b9998505050505050505050565b6000604051905081810181811067ffffffffffffffff821117156112905761128f61144e565b5b8060405250919050565b600067ffffffffffffffff8211156112b5576112b461144e565b5b601f19601f8301169050602081019050919050565b600081519050919050565b600082825260208201905092915050565b600082825260208201905092915050565b600061130282611309565b9050919050565b600073ffffffffffffffffffffffffffffffffffffffff82169050919050565b6000819050919050565b82818337600083830152505050565b60005b83811015611360578082015181840152602081019050611345565b8381111561136f576000848401525b50505050565b6000600282049050600182168061138d57607f821691505b602082108114156113a1576113a061141f565b5b50919050565b60006113b282611329565b91507fffffffffffffffffffffffffffffffffffffffffffffffffffffffffffffffff8214156113e5576113e46113f0565b5b600182019050919050565b7f4e487b7100000000000000000000000000000000000000000000000000000000600052601160045260246000fd5b7f4e487b7100000000000000000000000000000000000000000000000000000000600052602260045260246000fd5b7f4e487b7100000000000000000000000000000000000000000000000000000000600052604160045260246000fd5b6000601f19601f8301169050919050565b611497816112f7565b81146114a257600080fd5b5056fea264697066735822122041e894b83d99b762c8882ed019723e95ae29a56a5beb1f35bb3f7503b39af7c764736f6c63430008000033",
  "immutableReferences": {},
  "source": "// SPDX-License-Identifier: MIT\r\n\r\npragma solidity 0.8.0;\r\n\r\nimport \"@openzeppelin/contracts/access/Ownable.sol\";\r\n\r\ncontract Driver is Ownable {\r\n    \r\n    uint256 driver_count  = 0 ;\r\n\r\n    struct DRIVER {\r\n        uint256 id;\r\n        string name;\r\n        string dob;\r\n        string curAddress;\r\n        string govtID;\r\n        string picture;\r\n        string DL;\r\n        address wallet;\r\n    }\r\n\r\n    mapping(address => DRIVER) public drivers;\r\n    \r\n    function createDriver(string memory _name,string memory _dob,string memory _curAddress,string memory _govtId,string memory _picture,string memory _dl)\r\n        public\r\n        returns (address)\r\n    {   \r\n\r\n        driver_count++;\r\n\r\n        DRIVER storage driver = drivers[msg.sender];\r\n\r\n        driver.id = driver_count;\r\n        driver.name = _name;\r\n        driver.dob = _dob;\r\n        driver.curAddress = _curAddress;\r\n        driver.govtID = _govtId;\r\n        driver.DL = _dl;\r\n        driver.picture = _picture;\r\n        driver.wallet = msg.sender;\r\n\r\n        return msg.sender;\r\n    }\r\n\r\n    function getDriver(address _walletAddr)\r\n        public\r\n        view\r\n        returns (DRIVER memory)\r\n    {\r\n        DRIVER memory driver = drivers[_walletAddr];\r\n        return driver;\r\n    }\r\n}\r\n    ",
  "sourcePath": "D:\\CODING\\BLOCKCHAIN\\P2P Riide Sharing\\contracts\\Driver.sol",
  "compiler": {
    "name": "solc",
    "version": "0.8.0+commit.c7dfd78e.Emscripten.clang"
  },
  "schemaVersion": "3.4.4",
  "updatedAt": "2023-02-25T03:41:49.787Z",
  "devdoc": {
    "kind": "dev",
    "methods": {
      "owner()": {
        "details": "Returns the address of the current owner."
      },
      "renounceOwnership()": {
        "details": "Leaves the contract without owner. It will not be possible to call `onlyOwner` functions anymore. Can only be called by the current owner. NOTE: Renouncing ownership will leave the contract without an owner, thereby removing any functionality that is only available to the owner."
      },
      "transferOwnership(address)": {
        "details": "Transfers ownership of the contract to a new account (`newOwner`). Can only be called by the current owner."
      }
    },
    "version": 1
  },
  "userdoc": {
    "kind": "user",
    "methods": {},
    "version": 1
  }
}