{
  "contractName": "Ride",
  "abi": [
    {
      "inputs": [
        {
          "internalType": "address",
          "name": "_token",
          "type": "address"
        }
      ],
      "stateMutability": "nonpayable",
      "type": "constructor"
    },
    {
      "anonymous": false,
      "inputs": [
        {
          "indexed": true,
          "internalType": "address",
          "name": "previousOwner",
          "type": "address"
        },
        {
          "indexed": true,
          "internalType": "address",
          "name": "newOwner",
          "type": "address"
        }
      ],
      "name": "OwnershipTransferred",
      "type": "event"
    },
    {
      "inputs": [
        {
          "internalType": "string",
          "name": "_name",
          "type": "string"
        },
        {
          "internalType": "string",
          "name": "_email",
          "type": "string"
        },
        {
          "internalType": "string",
          "name": "_dob",
          "type": "string"
        },
        {
          "internalType": "string",
          "name": "_govtId",
          "type": "string"
        },
        {
          "internalType": "string",
          "name": "_picture",
          "type": "string"
        }
      ],
      "name": "createCustomer",
      "outputs": [
        {
          "internalType": "address",
          "name": "",
          "type": "address"
        }
      ],
      "stateMutability": "nonpayable",
      "type": "function"
    },
    {
      "inputs": [
        {
          "internalType": "string",
          "name": "_name",
          "type": "string"
        },
        {
          "internalType": "string",
          "name": "_dob",
          "type": "string"
        },
        {
          "internalType": "string",
          "name": "_curAddress",
          "type": "string"
        },
        {
          "internalType": "string",
          "name": "_govtId",
          "type": "string"
        },
        {
          "internalType": "string",
          "name": "_picture",
          "type": "string"
        },
        {
          "internalType": "string",
          "name": "_dl",
          "type": "string"
        }
      ],
      "name": "createDriver",
      "outputs": [
        {
          "internalType": "address",
          "name": "",
          "type": "address"
        }
      ],
      "stateMutability": "nonpayable",
      "type": "function"
    },
    {
      "inputs": [
        {
          "internalType": "address",
          "name": "",
          "type": "address"
        }
      ],
      "name": "customers",
      "outputs": [
        {
          "internalType": "uint256",
          "name": "id",
          "type": "uint256"
        },
        {
          "internalType": "string",
          "name": "name",
          "type": "string"
        },
        {
          "internalType": "string",
          "name": "email",
          "type": "string"
        },
        {
          "internalType": "string",
          "name": "dob",
          "type": "string"
        },
        {
          "internalType": "string",
          "name": "govtId",
          "type": "string"
        },
        {
          "internalType": "string",
          "name": "picture",
          "type": "string"
        },
        {
          "internalType": "address",
          "name": "wallet",
          "type": "address"
        }
      ],
      "stateMutability": "view",
      "type": "function",
      "constant": true
    },
    {
      "inputs": [
        {
          "internalType": "address",
          "name": "",
          "type": "address"
        }
      ],
      "name": "drivers",
      "outputs": [
        {
          "internalType": "uint256",
          "name": "id",
          "type": "uint256"
        },
        {
          "internalType": "string",
          "name": "name",
          "type": "string"
        },
        {
          "internalType": "string",
          "name": "dob",
          "type": "string"
        },
        {
          "internalType": "string",
          "name": "curAddress",
          "type": "string"
        },
        {
          "internalType": "string",
          "name": "govtID",
          "type": "string"
        },
        {
          "internalType": "string",
          "name": "picture",
          "type": "string"
        },
        {
          "internalType": "string",
          "name": "DL",
          "type": "string"
        },
        {
          "internalType": "address",
          "name": "wallet",
          "type": "address"
        }
      ],
      "stateMutability": "view",
      "type": "function",
      "constant": true
    },
    {
      "inputs": [
        {
          "internalType": "address",
          "name": "_walletAddr",
          "type": "address"
        }
      ],
      "name": "getCustomer",
      "outputs": [
        {
          "components": [
            {
              "internalType": "uint256",
              "name": "id",
              "type": "uint256"
            },
            {
              "internalType": "string",
              "name": "name",
              "type": "string"
            },
            {
              "internalType": "string",
              "name": "email",
              "type": "string"
            },
            {
              "internalType": "string",
              "name": "dob",
              "type": "string"
            },
            {
              "internalType": "string",
              "name": "govtId",
              "type": "string"
            },
            {
              "internalType": "string",
              "name": "picture",
              "type": "string"
            },
            {
              "internalType": "address",
              "name": "wallet",
              "type": "address"
            }
          ],
          "internalType": "struct Customer.CUSTOMER",
          "name": "",
          "type": "tuple"
        }
      ],
      "stateMutability": "view",
      "type": "function",
      "constant": true
    },
    {
      "inputs": [
        {
          "internalType": "address",
          "name": "_walletAddr",
          "type": "address"
        }
      ],
      "name": "getDriver",
      "outputs": [
        {
          "components": [
            {
              "internalType": "uint256",
              "name": "id",
              "type": "uint256"
            },
            {
              "internalType": "string",
              "name": "name",
              "type": "string"
            },
            {
              "internalType": "string",
              "name": "dob",
              "type": "string"
            },
            {
              "internalType": "string",
              "name": "curAddress",
              "type": "string"
            },
            {
              "internalType": "string",
              "name": "govtID",
              "type": "string"
            },
            {
              "internalType": "string",
              "name": "picture",
              "type": "string"
            },
            {
              "internalType": "string",
              "name": "DL",
              "type": "string"
            },
            {
              "internalType": "address",
              "name": "wallet",
              "type": "address"
            }
          ],
          "internalType": "struct Driver.DRIVER",
          "name": "",
          "type": "tuple"
        }
      ],
      "stateMutability": "view",
      "type": "function",
      "constant": true
    },
    {
      "inputs": [],
      "name": "owner",
      "outputs": [
        {
          "internalType": "address",
          "name": "",
          "type": "address"
        }
      ],
      "stateMutability": "view",
      "type": "function",
      "constant": true
    },
    {
      "inputs": [],
      "name": "renounceOwnership",
      "outputs": [],
      "stateMutability": "nonpayable",
      "type": "function"
    },
    {
      "inputs": [
        {
          "internalType": "address",
          "name": "newOwner",
          "type": "address"
        }
      ],
      "name": "transferOwnership",
      "outputs": [],
      "stateMutability": "nonpayable",
      "type": "function"
    },
    {
      "inputs": [
        {
          "internalType": "string",
          "name": "name",
          "type": "string"
        },
        {
          "internalType": "string",
          "name": "email",
          "type": "string"
        },
        {
          "internalType": "string",
          "name": "password",
          "type": "string"
        },
        {
          "internalType": "uint256",
          "name": "phone",
          "type": "uint256"
        }
      ],
      "name": "registerCitizen",
      "outputs": [],
      "stateMutability": "nonpayable",
      "type": "function"
    },
    {
      "inputs": [
        {
          "internalType": "uint256",
          "name": "cid",
          "type": "uint256"
        }
      ],
      "name": "viewCitizen",
      "outputs": [
        {
          "internalType": "string",
          "name": "",
          "type": "string"
        },
        {
          "internalType": "string",
          "name": "",
          "type": "string"
        },
        {
          "internalType": "uint256",
          "name": "",
          "type": "uint256"
        },
        {
          "internalType": "address",
          "name": "",
          "type": "address"
        }
      ],
      "stateMutability": "view",
      "type": "function",
      "constant": true
    },
    {
      "inputs": [
        {
          "internalType": "string",
          "name": "email",
          "type": "string"
        },
        {
          "internalType": "string",
          "name": "password",
          "type": "string"
        }
      ],
      "name": "LoginCitizen",
      "outputs": [
        {
          "internalType": "uint256",
          "name": "",
          "type": "uint256"
        }
      ],
      "stateMutability": "view",
      "type": "function",
      "constant": true
    },
    {
      "inputs": [
        {
          "components": [
            {
              "internalType": "string",
              "name": "pickup",
              "type": "string"
            },
            {
              "internalType": "string",
              "name": "destination",
              "type": "string"
            },
            {
              "internalType": "uint256",
              "name": "distance",
              "type": "uint256"
            },
            {
              "internalType": "uint256",
              "name": "price",
              "type": "uint256"
            }
          ],
          "internalType": "struct Ride.RIDE_DETAILS",
          "name": "_rideDetails",
          "type": "tuple"
        }
      ],
      "name": "postRide",
      "outputs": [
        {
          "internalType": "uint256",
          "name": "",
          "type": "uint256"
        }
      ],
      "stateMutability": "nonpayable",
      "type": "function"
    },
    {
      "inputs": [
        {
          "internalType": "uint256",
          "name": "_rideId",
          "type": "uint256"
        }
      ],
      "name": "bookRide",
      "outputs": [],
      "stateMutability": "nonpayable",
      "type": "function"
    },
    {
      "inputs": [
        {
          "internalType": "uint256[]",
          "name": "rideIds",
          "type": "uint256[]"
        }
      ],
      "name": "getAllRides",
      "outputs": [
        {
          "components": [
            {
              "internalType": "uint256",
              "name": "id",
              "type": "uint256"
            },
            {
              "internalType": "address",
              "name": "driver",
              "type": "address"
            },
            {
              "internalType": "address",
              "name": "customer",
              "type": "address"
            },
            {
              "internalType": "enum Ride.RIDE_STATUS",
              "name": "status",
              "type": "uint8"
            },
            {
              "components": [
                {
                  "internalType": "string",
                  "name": "pickup",
                  "type": "string"
                },
                {
                  "internalType": "string",
                  "name": "destination",
                  "type": "string"
                },
                {
                  "internalType": "uint256",
                  "name": "distance",
                  "type": "uint256"
                },
                {
                  "internalType": "uint256",
                  "name": "price",
                  "type": "uint256"
                }
              ],
              "internalType": "struct Ride.RIDE_DETAILS",
              "name": "ride",
              "type": "tuple"
            },
            {
              "internalType": "uint256",
              "name": "timestamp",
              "type": "uint256"
            }
          ],
          "internalType": "struct Ride.RIDE[]",
          "name": "",
          "type": "tuple[]"
        }
      ],
      "stateMutability": "view",
      "type": "function",
      "constant": true
    },
    {
      "inputs": [
        {
          "internalType": "uint256",
          "name": "_rideId",
          "type": "uint256"
        }
      ],
      "name": "fetchRide",
      "outputs": [
        {
          "components": [
            {
              "internalType": "uint256",
              "name": "id",
              "type": "uint256"
            },
            {
              "internalType": "address",
              "name": "driver",
              "type": "address"
            },
            {
              "internalType": "address",
              "name": "customer",
              "type": "address"
            },
            {
              "internalType": "enum Ride.RIDE_STATUS",
              "name": "status",
              "type": "uint8"
            },
            {
              "components": [
                {
                  "internalType": "string",
                  "name": "pickup",
                  "type": "string"
                },
                {
                  "internalType": "string",
                  "name": "destination",
                  "type": "string"
                },
                {
                  "internalType": "uint256",
                  "name": "distance",
                  "type": "uint256"
                },
                {
                  "internalType": "uint256",
                  "name": "price",
                  "type": "uint256"
                }
              ],
              "internalType": "struct Ride.RIDE_DETAILS",
              "name": "ride",
              "type": "tuple"
            },
            {
              "internalType": "uint256",
              "name": "timestamp",
              "type": "uint256"
            }
          ],
          "internalType": "struct Ride.RIDE",
          "name": "",
          "type": "tuple"
        }
      ],
      "stateMutability": "view",
      "type": "function",
      "constant": true
    },
    {
      "inputs": [
        {
          "internalType": "uint256",
          "name": "_rideId",
          "type": "uint256"
        }
      ],
      "name": "cancelRide",
      "outputs": [],
      "stateMutability": "nonpayable",
      "type": "function"
    },
    {
      "inputs": [
        {
          "internalType": "uint256",
          "name": "_rideId",
          "type": "uint256"
        }
      ],
      "name": "completeRide",
      "outputs": [],
      "stateMutability": "nonpayable",
      "type": "function"
    },
    {
      "inputs": [],
      "name": "getRideCount",
      "outputs": [
        {
          "internalType": "uint256",
          "name": "",
          "type": "uint256"
        }
      ],
      "stateMutability": "view",
      "type": "function",
      "constant": true
    },
    {
      "inputs": [
        {
          "internalType": "uint256",
          "name": "_secondsUntilAuctionEnds",
          "type": "uint256"
        },
        {
          "components": [
            {
              "internalType": "string",
              "name": "pickup",
              "type": "string"
            },
            {
              "internalType": "string",
              "name": "destination",
              "type": "string"
            },
            {
              "internalType": "uint256",
              "name": "distance",
              "type": "uint256"
            },
            {
              "internalType": "uint256",
              "name": "price",
              "type": "uint256"
            }
          ],
          "internalType": "struct Ride.RIDE_DETAILS",
          "name": "_details",
          "type": "tuple"
        }
      ],
      "name": "addToAuction",
      "outputs": [
        {
          "internalType": "uint256",
          "name": "",
          "type": "uint256"
        }
      ],
      "stateMutability": "nonpayable",
      "type": "function"
    },
    {
      "inputs": [],
      "name": "getBalanceOfAddress",
      "outputs": [
        {
          "internalType": "uint256",
          "name": "",
          "type": "uint256"
        }
      ],
      "stateMutability": "view",
      "type": "function",
      "constant": true
    },
    {
      "inputs": [
        {
          "internalType": "uint256",
          "name": "bidamt",
          "type": "uint256"
        }
      ],
      "name": "transferThisFrom",
      "outputs": [],
      "stateMutability": "payable",
      "type": "function",
      "payable": true
    },
    {
      "inputs": [
        {
          "internalType": "uint256",
          "name": "_auctionId",
          "type": "uint256"
        },
        {
          "internalType": "uint256",
          "name": "bidamt",
          "type": "uint256"
        }
      ],
      "name": "bid",
      "outputs": [],
      "stateMutability": "payable",
      "type": "function",
      "payable": true
    },
    {
      "inputs": [
        {
          "internalType": "uint256[]",
          "name": "rideIds",
          "type": "uint256[]"
        }
      ],
      "name": "getAllAuctions",
      "outputs": [
        {
          "components": [
            {
              "internalType": "uint256",
              "name": "id",
              "type": "uint256"
            },
            {
              "internalType": "uint256",
              "name": "latestHighestBid",
              "type": "uint256"
            },
            {
              "internalType": "address",
              "name": "currentBidder",
              "type": "address"
            },
            {
              "internalType": "address",
              "name": "driver",
              "type": "address"
            },
            {
              "internalType": "bool",
              "name": "isAuctionGoingOn",
              "type": "bool"
            },
            {
              "components": [
                {
                  "internalType": "string",
                  "name": "pickup",
                  "type": "string"
                },
                {
                  "internalType": "string",
                  "name": "destination",
                  "type": "string"
                },
                {
                  "internalType": "uint256",
                  "name": "distance",
                  "type": "uint256"
                },
                {
                  "internalType": "uint256",
                  "name": "price",
                  "type": "uint256"
                }
              ],
              "internalType": "struct Ride.RIDE_DETAILS",
              "name": "ride",
              "type": "tuple"
            },
            {
              "internalType": "uint256",
              "name": "timeOfPosting",
              "type": "uint256"
            },
            {
              "internalType": "uint256",
              "name": "secondsUntilAuctionEnds",
              "type": "uint256"
            }
          ],
          "internalType": "struct Ride.AUCTION[]",
          "name": "",
          "type": "tuple[]"
        }
      ],
      "stateMutability": "view",
      "type": "function",
      "constant": true
    },
    {
      "inputs": [
        {
          "internalType": "uint256",
          "name": "_auctionId",
          "type": "uint256"
        }
      ],
      "name": "fetchAuction",
      "outputs": [
        {
          "components": [
            {
              "internalType": "uint256",
              "name": "id",
              "type": "uint256"
            },
            {
              "internalType": "uint256",
              "name": "latestHighestBid",
              "type": "uint256"
            },
            {
              "internalType": "address",
              "name": "currentBidder",
              "type": "address"
            },
            {
              "internalType": "address",
              "name": "driver",
              "type": "address"
            },
            {
              "internalType": "bool",
              "name": "isAuctionGoingOn",
              "type": "bool"
            },
            {
              "components": [
                {
                  "internalType": "string",
                  "name": "pickup",
                  "type": "string"
                },
                {
                  "internalType": "string",
                  "name": "destination",
                  "type": "string"
                },
                {
                  "internalType": "uint256",
                  "name": "distance",
                  "type": "uint256"
                },
                {
                  "internalType": "uint256",
                  "name": "price",
                  "type": "uint256"
                }
              ],
              "internalType": "struct Ride.RIDE_DETAILS",
              "name": "ride",
              "type": "tuple"
            },
            {
              "internalType": "uint256",
              "name": "timeOfPosting",
              "type": "uint256"
            },
            {
              "internalType": "uint256",
              "name": "secondsUntilAuctionEnds",
              "type": "uint256"
            }
          ],
          "internalType": "struct Ride.AUCTION",
          "name": "",
          "type": "tuple"
        }
      ],
      "stateMutability": "view",
      "type": "function",
      "constant": true
    }
  ],
  "bytecode": "0x6080604052600060015560006003556000600b553480156200002057600080fd5b5060405162005e1838038062005e188339818101604052810190620000469190620001a1565b620000666200005a620000be60201b60201c565b620000c660201b60201c565b80600760006101000a81548173ffffffffffffffffffffffffffffffffffffffff021916908373ffffffffffffffffffffffffffffffffffffffff16021790555060006005819055506000600681905550506200021b565b600033905090565b60008060009054906101000a900473ffffffffffffffffffffffffffffffffffffffff169050816000806101000a81548173ffffffffffffffffffffffffffffffffffffffff021916908373ffffffffffffffffffffffffffffffffffffffff1602179055508173ffffffffffffffffffffffffffffffffffffffff168173ffffffffffffffffffffffffffffffffffffffff167f8be0079c531659141344cd1fd0a4f28419497f9722a3daafe3b4186f6b6457e060405160405180910390a35050565b6000815190506200019b8162000201565b92915050565b600060208284031215620001b457600080fd5b6000620001c4848285016200018a565b91505092915050565b6000620001da82620001e1565b9050919050565b600073ffffffffffffffffffffffffffffffffffffffff82169050919050565b6200020c81620001cd565b81146200021857600080fd5b50565b615bed806200022b6000396000f3fe6080604052600436106101665760003560e01c80637aa9d3bb116100d1578063bb67fe801161008a578063cb949e5111610064578063cb949e511461058e578063e8a1dade146105cb578063f2fde38b14610608578063f8fd2fa21461063157610166565b8063bb67fe80146104ff578063c416dd0b1461053c578063c69b2cf61461056557610166565b80637aa9d3bb146103dd5780638959a5d11461041a5780638da5cb5b14610445578063984dbb1314610470578063a6f07b2914610499578063b7628575146104c257610166565b80634aa60186116101235780634aa60186146102af578063598647f8146102f35780635e68bca11461030f57806365c301ab1461034c578063715018a6146103895780637195e124146103a057610166565b8063155026121461016b5780631a977d1c14610196578063336989ae146101d3578063359585e6146102165780634275ffb414610253578063458c7a4214610293575b600080fd5b34801561017757600080fd5b5061018061066e565b60405161018d9190615670565b60405180910390f35b3480156101a257600080fd5b506101bd60048036038101906101b891906145d6565b610720565b6040516101ca9190615356565b60405180910390f35b3480156101df57600080fd5b506101fa60048036038101906101f591906143e8565b61086f565b60405161020d979695949392919061568b565b60405180910390f35b34801561022257600080fd5b5061023d6004803603810190610238919061447b565b610b79565b60405161024a9190615670565b60405180910390f35b34801561025f57600080fd5b5061027a600480360381019061027591906147db565b610c3d565b60405161028a9493929190615415565b60405180910390f35b6102ad60048036038101906102a891906147db565b610de4565b005b3480156102bb57600080fd5b506102d660048036038101906102d191906143e8565b610e99565b6040516102ea98979695949392919061571d565b60405180910390f35b61030d60048036038101906103089190614881565b611231565b005b34801561031b57600080fd5b506103366004803603810190610331919061479a565b611694565b6040516103439190615670565b60405180910390f35b34801561035857600080fd5b50610373600480360381019061036e91906143e8565b611983565b604051610380919061562c565b60405180910390f35b34801561039557600080fd5b5061039e611daf565b005b3480156103ac57600080fd5b506103c760048036038101906103c291906147db565b611dc3565b6040516103d491906155e8565b60405180910390f35b3480156103e957600080fd5b5061040460048036038101906103ff9190614411565b61202c565b60405161041191906153f3565b60405180910390f35b34801561042657600080fd5b5061042f6123a3565b60405161043c9190615670565b60405180910390f35b34801561045157600080fd5b5061045a6123ad565b6040516104679190615356565b60405180910390f35b34801561047c57600080fd5b50610497600480360381019061049291906146ef565b6123d6565b005b3480156104a557600080fd5b506104c060048036038101906104bb91906147db565b61250e565b005b3480156104ce57600080fd5b506104e960048036038101906104e49190614411565b6127d2565b6040516104f691906153d1565b60405180910390f35b34801561050b57600080fd5b50610526600480360381019061052191906147db565b612af2565b604051610533919061564e565b60405180910390f35b34801561054857600080fd5b50610563600480360381019061055e91906147db565b612e0d565b005b34801561057157600080fd5b5061058c600480360381019061058791906147db565b613076565b005b34801561059a57600080fd5b506105b560048036038101906105b091906143e8565b613304565b6040516105c2919061560a565b60405180910390f35b3480156105d757600080fd5b506105f260048036038101906105ed919061482d565b61369d565b6040516105ff9190615670565b60405180910390f35b34801561061457600080fd5b5061062f600480360381019061062a91906143e8565b6138c9565b005b34801561063d57600080fd5b50610658600480360381019061065391906144e7565b61394d565b6040516106659190615356565b60405180910390f35b6000600760009054906101000a900473ffffffffffffffffffffffffffffffffffffffff1673ffffffffffffffffffffffffffffffffffffffff166370a08231336040518263ffffffff1660e01b81526004016106cb9190615356565b60206040518083038186803b1580156106e357600080fd5b505afa1580156106f7573d6000803e3d6000fd5b505050506040513d601f19601f8201168201806040525081019061071b9190614804565b905090565b60006001600081548092919061073590615a48565b91905055506000600260003373ffffffffffffffffffffffffffffffffffffffff1673ffffffffffffffffffffffffffffffffffffffff16815260200190815260200160002090506001548160000181905550878160010190805190602001906107a0929190613f60565b50868160020190805190602001906107b9929190613f60565b50858160030190805190602001906107d2929190613f60565b50848160040190805190602001906107eb929190613f60565b5082816006019080519060200190610804929190613f60565b508381600501908051906020019061081d929190613f60565b50338160070160006101000a81548173ffffffffffffffffffffffffffffffffffffffff021916908373ffffffffffffffffffffffffffffffffffffffff160217905550339150509695505050505050565b600460205280600052604060002060009150905080600001549080600101805461089890615a16565b80601f01602080910402602001604051908101604052809291908181526020018280546108c490615a16565b80156109115780601f106108e657610100808354040283529160200191610911565b820191906000526020600020905b8154815290600101906020018083116108f457829003601f168201915b50505050509080600201805461092690615a16565b80601f016020809104026020016040519081016040528092919081815260200182805461095290615a16565b801561099f5780601f106109745761010080835404028352916020019161099f565b820191906000526020600020905b81548152906001019060200180831161098257829003601f168201915b5050505050908060030180546109b490615a16565b80601f01602080910402602001604051908101604052809291908181526020018280546109e090615a16565b8015610a2d5780601f10610a0257610100808354040283529160200191610a2d565b820191906000526020600020905b815481529060010190602001808311610a1057829003601f168201915b505050505090806004018054610a4290615a16565b80601f0160208091040260200160405190810160405280929190818152602001828054610a6e90615a16565b8015610abb5780601f10610a9057610100808354040283529160200191610abb565b820191906000526020600020905b815481529060010190602001808311610a9e57829003601f168201915b505050505090806005018054610ad090615a16565b80601f0160208091040260200160405190810160405280929190818152602001828054610afc90615a16565b8015610b495780601f10610b1e57610100808354040283529160200191610b49565b820191906000526020600020905b815481529060010190602001808311610b2c57829003601f168201915b5050505050908060060160009054906101000a900473ffffffffffffffffffffffffffffffffffffffff16905087565b600080600190505b600b548111610c31578380519060200120600a6000838152602001908152602001600020600201604051610bb5919061533f565b6040518091039020148015610bfa57508280519060200120600a6000838152602001908152602001600020600301604051610bf0919061533f565b6040518091039020145b15610c1e57600a600082815260200190815260200160002060000154915050610c37565b8080610c2990615a48565b915050610b81565b60009150505b92915050565b606080600080600a6000868152602001908152602001600020600101600a6000878152602001908152602001600020600201600a600088815260200190815260200160002060040154600a600089815260200190815260200160002060050160009054906101000a900473ffffffffffffffffffffffffffffffffffffffff16838054610cc990615a16565b80601f0160208091040260200160405190810160405280929190818152602001828054610cf590615a16565b8015610d425780601f10610d1757610100808354040283529160200191610d42565b820191906000526020600020905b815481529060010190602001808311610d2557829003601f168201915b50505050509350828054610d5590615a16565b80601f0160208091040260200160405190810160405280929190818152602001828054610d8190615a16565b8015610dce5780601f10610da357610100808354040283529160200191610dce565b820191906000526020600020905b815481529060010190602001808311610db157829003601f168201915b5050505050925093509350935093509193509193565b600760009054906101000a900473ffffffffffffffffffffffffffffffffffffffff1673ffffffffffffffffffffffffffffffffffffffff166323b872dd3330846040518463ffffffff1660e01b8152600401610e4393929190615371565b602060405180830381600087803b158015610e5d57600080fd5b505af1158015610e71573d6000803e3d6000fd5b505050506040513d601f19601f82011682018060405250810190610e959190614452565b5050565b6002602052806000526040600020600091509050806000015490806001018054610ec290615a16565b80601f0160208091040260200160405190810160405280929190818152602001828054610eee90615a16565b8015610f3b5780601f10610f1057610100808354040283529160200191610f3b565b820191906000526020600020905b815481529060010190602001808311610f1e57829003601f168201915b505050505090806002018054610f5090615a16565b80601f0160208091040260200160405190810160405280929190818152602001828054610f7c90615a16565b8015610fc95780601f10610f9e57610100808354040283529160200191610fc9565b820191906000526020600020905b815481529060010190602001808311610fac57829003601f168201915b505050505090806003018054610fde90615a16565b80601f016020809104026020016040519081016040528092919081815260200182805461100a90615a16565b80156110575780601f1061102c57610100808354040283529160200191611057565b820191906000526020600020905b81548152906001019060200180831161103a57829003601f168201915b50505050509080600401805461106c90615a16565b80601f016020809104026020016040519081016040528092919081815260200182805461109890615a16565b80156110e55780601f106110ba576101008083540402835291602001916110e5565b820191906000526020600020905b8154815290600101906020018083116110c857829003601f168201915b5050505050908060050180546110fa90615a16565b80601f016020809104026020016040519081016040528092919081815260200182805461112690615a16565b80156111735780601f1061114857610100808354040283529160200191611173565b820191906000526020600020905b81548152906001019060200180831161115657829003601f168201915b50505050509080600601805461118890615a16565b80601f01602080910402602001604051908101604052809291908181526020018280546111b490615a16565b80156112015780601f106111d657610100808354040283529160200191611201565b820191906000526020600020905b8154815290600101906020018083116111e457829003601f168201915b5050505050908060070160009054906101000a900473ffffffffffffffffffffffffffffffffffffffff16905088565b61123a82613d6d565b6000600960008481526020019081526020016000209050600115158160030160149054906101000a900460ff161515146112a9576040517f08c379a00000000000000000000000000000000000000000000000000000000081526004016112a0906154e8565b60405180910390fd5b8060030160009054906101000a900473ffffffffffffffffffffffffffffffffffffffff1673ffffffffffffffffffffffffffffffffffffffff163373ffffffffffffffffffffffffffffffffffffffff16141561133c576040517f08c379a0000000000000000000000000000000000000000000000000000000008152600401611333906154a8565b60405180910390fd5b600760009054906101000a900473ffffffffffffffffffffffffffffffffffffffff1673ffffffffffffffffffffffffffffffffffffffff166370a08231336040518263ffffffff1660e01b81526004016113979190615356565b60206040518083038186803b1580156113af57600080fd5b505afa1580156113c3573d6000803e3d6000fd5b505050506040513d601f19601f820116820180604052508101906113e79190614804565b8210611428576040517f08c379a000000000000000000000000000000000000000000000000000000000815260040161141f90615488565b60405180910390fd5b8060010154821161146e576040517f08c379a0000000000000000000000000000000000000000000000000000000008152600401611465906155a8565b60405180910390fd5b60008160020160009054906101000a900473ffffffffffffffffffffffffffffffffffffffff16905060008260010154905060008360010181905550600760009054906101000a900473ffffffffffffffffffffffffffffffffffffffff1673ffffffffffffffffffffffffffffffffffffffff166323b872dd3330876040518463ffffffff1660e01b815260040161150993929190615371565b602060405180830381600087803b15801561152357600080fd5b505af1158015611537573d6000803e3d6000fd5b505050506040513d601f19601f8201168201806040525081019061155b9190614452565b50600073ffffffffffffffffffffffffffffffffffffffff168273ffffffffffffffffffffffffffffffffffffffff161461164157600760009054906101000a900473ffffffffffffffffffffffffffffffffffffffff1673ffffffffffffffffffffffffffffffffffffffff1663a9059cbb83836040518363ffffffff1660e01b81526004016115ed9291906153a8565b602060405180830381600087803b15801561160757600080fd5b505af115801561161b573d6000803e3d6000fd5b505050506040513d601f19601f8201168201806040525081019061163f9190614452565b505b838360010181905550338360020160006101000a81548173ffffffffffffffffffffffffffffffffffffffff021916908373ffffffffffffffffffffffffffffffffffffffff1602179055505050505050565b600080600260003373ffffffffffffffffffffffffffffffffffffffff1673ffffffffffffffffffffffffffffffffffffffff168152602001908152602001600020600001541161171a576040517f08c379a000000000000000000000000000000000000000000000000000000000815260040161171190615588565b60405180910390fd5b6005600081548092919061172d90615a48565b919050555061173a613fe6565b60055481600001818152505033816020019073ffffffffffffffffffffffffffffffffffffffff16908173ffffffffffffffffffffffffffffffffffffffff16815250506000816060019060038111156117bd577f4e487b7100000000000000000000000000000000000000000000000000000000600052602160045260246000fd5b908160038111156117f7577f4e487b7100000000000000000000000000000000000000000000000000000000600052602160045260246000fd5b81525050828160800181905250428160a0018181525050806008600060055481526020019081526020016000206000820151816000015560208201518160010160006101000a81548173ffffffffffffffffffffffffffffffffffffffff021916908373ffffffffffffffffffffffffffffffffffffffff16021790555060408201518160020160006101000a81548173ffffffffffffffffffffffffffffffffffffffff021916908373ffffffffffffffffffffffffffffffffffffffff16021790555060608201518160020160146101000a81548160ff0219169083600381111561190d577f4e487b7100000000000000000000000000000000000000000000000000000000600052602160045260246000fd5b02179055506080820151816003016000820151816000019080519060200190611937929190613f60565b506020820151816001019080519060200190611954929190613f60565b506040820151816002015560608201518160030155505060a08201518160070155905050600554915050919050565b61198b614086565b6000600260008473ffffffffffffffffffffffffffffffffffffffff1673ffffffffffffffffffffffffffffffffffffffff16815260200190815260200160002060405180610100016040529081600082015481526020016001820180546119f290615a16565b80601f0160208091040260200160405190810160405280929190818152602001828054611a1e90615a16565b8015611a6b5780601f10611a4057610100808354040283529160200191611a6b565b820191906000526020600020905b815481529060010190602001808311611a4e57829003601f168201915b50505050508152602001600282018054611a8490615a16565b80601f0160208091040260200160405190810160405280929190818152602001828054611ab090615a16565b8015611afd5780601f10611ad257610100808354040283529160200191611afd565b820191906000526020600020905b815481529060010190602001808311611ae057829003601f168201915b50505050508152602001600382018054611b1690615a16565b80601f0160208091040260200160405190810160405280929190818152602001828054611b4290615a16565b8015611b8f5780601f10611b6457610100808354040283529160200191611b8f565b820191906000526020600020905b815481529060010190602001808311611b7257829003601f168201915b50505050508152602001600482018054611ba890615a16565b80601f0160208091040260200160405190810160405280929190818152602001828054611bd490615a16565b8015611c215780601f10611bf657610100808354040283529160200191611c21565b820191906000526020600020905b815481529060010190602001808311611c0457829003601f168201915b50505050508152602001600582018054611c3a90615a16565b80601f0160208091040260200160405190810160405280929190818152602001828054611c6690615a16565b8015611cb35780601f10611c8857610100808354040283529160200191611cb3565b820191906000526020600020905b815481529060010190602001808311611c9657829003601f168201915b50505050508152602001600682018054611ccc90615a16565b80601f0160208091040260200160405190810160405280929190818152602001828054611cf890615a16565b8015611d455780601f10611d1a57610100808354040283529160200191611d45565b820191906000526020600020905b815481529060010190602001808311611d2857829003601f168201915b505050505081526020016007820160009054906101000a900473ffffffffffffffffffffffffffffffffffffffff1673ffffffffffffffffffffffffffffffffffffffff1673ffffffffffffffffffffffffffffffffffffffff1681525050905080915050919050565b611db7613e16565b611dc16000613e94565b565b611dcb6140e1565b600960008381526020019081526020016000206040518061010001604052908160008201548152602001600182015481526020016002820160009054906101000a900473ffffffffffffffffffffffffffffffffffffffff1673ffffffffffffffffffffffffffffffffffffffff1673ffffffffffffffffffffffffffffffffffffffff1681526020016003820160009054906101000a900473ffffffffffffffffffffffffffffffffffffffff1673ffffffffffffffffffffffffffffffffffffffff1673ffffffffffffffffffffffffffffffffffffffff1681526020016003820160149054906101000a900460ff1615151515815260200160048201604051806080016040529081600082018054611ee590615a16565b80601f0160208091040260200160405190810160405280929190818152602001828054611f1190615a16565b8015611f5e5780601f10611f3357610100808354040283529160200191611f5e565b820191906000526020600020905b815481529060010190602001808311611f4157829003601f168201915b50505050508152602001600182018054611f7790615a16565b80601f0160208091040260200160405190810160405280929190818152602001828054611fa390615a16565b8015611ff05780601f10611fc557610100808354040283529160200191611ff0565b820191906000526020600020905b815481529060010190602001808311611fd357829003601f168201915b50505050508152602001600282015481526020016003820154815250508152602001600882015481526020016009820154815250509050919050565b6060806000805b8451811015612398576000858281518110612077577f4e487b7100000000000000000000000000000000000000000000000000000000600052603260045260246000fd5b60200260200101519050600860008281526020019081526020016000206040518060c0016040529081600082015481526020016001820160009054906101000a900473ffffffffffffffffffffffffffffffffffffffff1673ffffffffffffffffffffffffffffffffffffffff1673ffffffffffffffffffffffffffffffffffffffff1681526020016002820160009054906101000a900473ffffffffffffffffffffffffffffffffffffffff1673ffffffffffffffffffffffffffffffffffffffff1673ffffffffffffffffffffffffffffffffffffffff1681526020016002820160149054906101000a900460ff1660038111156121a0577f4e487b7100000000000000000000000000000000000000000000000000000000600052602160045260246000fd5b60038111156121d8577f4e487b7100000000000000000000000000000000000000000000000000000000600052602160045260246000fd5b8152602001600382016040518060800160405290816000820180546121fc90615a16565b80601f016020809104026020016040519081016040528092919081815260200182805461222890615a16565b80156122755780601f1061224a57610100808354040283529160200191612275565b820191906000526020600020905b81548152906001019060200180831161225857829003601f168201915b5050505050815260200160018201805461228e90615a16565b80601f01602080910402602001604051908101604052809291908181526020018280546122ba90615a16565b80156123075780601f106122dc57610100808354040283529160200191612307565b820191906000526020600020905b8154815290600101906020018083116122ea57829003601f168201915b5050505050815260200160028201548152602001600382015481525050815260200160078201548152505084848151811061236b577f4e487b7100000000000000000000000000000000000000000000000000000000600052603260045260246000fd5b6020026020010181905250828061238190615a48565b93505050808061239090615a48565b915050612033565b508192505050919050565b6000600554905090565b60008060009054906101000a900473ffffffffffffffffffffffffffffffffffffffff16905090565b600b60008154809291906123e990615a48565b919050555083600a6000600b548152602001908152602001600020600101908051906020019061241a929190613f60565b5082600a6000600b5481526020019081526020016000206002019080519060200190612447929190613f60565b5081600a6000600b5481526020019081526020016000206003019080519060200190612474929190613f60565b5080600a6000600b5481526020019081526020016000206004018190555033600a6000600b54815260200190815260200160002060050160006101000a81548173ffffffffffffffffffffffffffffffffffffffff021916908373ffffffffffffffffffffffffffffffffffffffff160217905550600b54600a6000600b5481526020019081526020016000206000018190555050505050565b806000600860008381526020019081526020016000206000015411612568576040517f08c379a000000000000000000000000000000000000000000000000000000000815260040161255f90615548565b60405180910390fd5b600160038111156125a2577f4e487b7100000000000000000000000000000000000000000000000000000000600052602160045260246000fd5b6008600084815260200190815260200160002060020160149054906101000a900460ff1660038111156125fe577f4e487b7100000000000000000000000000000000000000000000000000000000600052602160045260246000fd5b1461263e576040517f08c379a000000000000000000000000000000000000000000000000000000000815260040161263590615508565b60405180910390fd5b3373ffffffffffffffffffffffffffffffffffffffff166008600084815260200190815260200160002060020160009054906101000a900473ffffffffffffffffffffffffffffffffffffffff1673ffffffffffffffffffffffffffffffffffffffff16148061270f57503373ffffffffffffffffffffffffffffffffffffffff166008600084815260200190815260200160002060010160009054906101000a900473ffffffffffffffffffffffffffffffffffffffff1673ffffffffffffffffffffffffffffffffffffffff16145b61274e576040517f08c379a000000000000000000000000000000000000000000000000000000000815260040161274590615528565b60405180910390fd5b60026008600084815260200190815260200160002060020160146101000a81548160ff021916908360038111156127ae577f4e487b7100000000000000000000000000000000000000000000000000000000600052602160045260246000fd5b02179055504260086000848152602001908152602001600020600701819055505050565b6060806000805b8451811015612ae757600085828151811061281d577f4e487b7100000000000000000000000000000000000000000000000000000000600052603260045260246000fd5b60200260200101519050600960008281526020019081526020016000206040518061010001604052908160008201548152602001600182015481526020016002820160009054906101000a900473ffffffffffffffffffffffffffffffffffffffff1673ffffffffffffffffffffffffffffffffffffffff1673ffffffffffffffffffffffffffffffffffffffff1681526020016003820160009054906101000a900473ffffffffffffffffffffffffffffffffffffffff1673ffffffffffffffffffffffffffffffffffffffff1673ffffffffffffffffffffffffffffffffffffffff1681526020016003820160149054906101000a900460ff161515151581526020016004820160405180608001604052908160008201805461294190615a16565b80601f016020809104026020016040519081016040528092919081815260200182805461296d90615a16565b80156129ba5780601f1061298f576101008083540402835291602001916129ba565b820191906000526020600020905b81548152906001019060200180831161299d57829003601f168201915b505050505081526020016001820180546129d390615a16565b80601f01602080910402602001604051908101604052809291908181526020018280546129ff90615a16565b8015612a4c5780601f10612a2157610100808354040283529160200191612a4c565b820191906000526020600020905b815481529060010190602001808311612a2f57829003601f168201915b5050505050815260200160028201548152602001600382015481525050815260200160088201548152602001600982015481525050848481518110612aba577f4e487b7100000000000000000000000000000000000000000000000000000000600052603260045260246000fd5b60200260200101819052508280612ad090615a48565b935050508080612adf90615a48565b9150506127d9565b508192505050919050565b612afa613fe6565b816000600860008381526020019081526020016000206000015411612b54576040517f08c379a0000000000000000000000000000000000000000000000000000000008152600401612b4b90615548565b60405180910390fd5b600860008481526020019081526020016000206040518060c0016040529081600082015481526020016001820160009054906101000a900473ffffffffffffffffffffffffffffffffffffffff1673ffffffffffffffffffffffffffffffffffffffff1673ffffffffffffffffffffffffffffffffffffffff1681526020016002820160009054906101000a900473ffffffffffffffffffffffffffffffffffffffff1673ffffffffffffffffffffffffffffffffffffffff1673ffffffffffffffffffffffffffffffffffffffff1681526020016002820160149054906101000a900460ff166003811115612c73577f4e487b7100000000000000000000000000000000000000000000000000000000600052602160045260246000fd5b6003811115612cab577f4e487b7100000000000000000000000000000000000000000000000000000000600052602160045260246000fd5b815260200160038201604051806080016040529081600082018054612ccf90615a16565b80601f0160208091040260200160405190810160405280929190818152602001828054612cfb90615a16565b8015612d485780601f10612d1d57610100808354040283529160200191612d48565b820191906000526020600020905b815481529060010190602001808311612d2b57829003601f168201915b50505050508152602001600182018054612d6190615a16565b80601f0160208091040260200160405190810160405280929190818152602001828054612d8d90615a16565b8015612dda5780601f10612daf57610100808354040283529160200191612dda565b820191906000526020600020905b815481529060010190602001808311612dbd57829003601f168201915b50505050508152602001600282015481526020016003820154815250508152602001600782015481525050915050919050565b60016003811115612e47577f4e487b7100000000000000000000000000000000000000000000000000000000600052602160045260246000fd5b6008600083815260200190815260200160002060020160149054906101000a900460ff166003811115612ea3577f4e487b7100000000000000000000000000000000000000000000000000000000600052602160045260246000fd5b14612ee3576040517f08c379a0000000000000000000000000000000000000000000000000000000008152600401612eda90615508565b60405180910390fd5b3373ffffffffffffffffffffffffffffffffffffffff166008600083815260200190815260200160002060020160009054906101000a900473ffffffffffffffffffffffffffffffffffffffff1673ffffffffffffffffffffffffffffffffffffffff161480612fb457503373ffffffffffffffffffffffffffffffffffffffff166008600083815260200190815260200160002060010160009054906101000a900473ffffffffffffffffffffffffffffffffffffffff1673ffffffffffffffffffffffffffffffffffffffff16145b612ff3576040517f08c379a0000000000000000000000000000000000000000000000000000000008152600401612fea90615528565b60405180910390fd5b60036008600083815260200190815260200160002060020160146101000a81548160ff02191690836003811115613053577f4e487b7100000000000000000000000000000000000000000000000000000000600052602160045260246000fd5b021790555042600860008381526020019081526020016000206007018190555050565b8060006008600083815260200190815260200160002060000154116130d0576040517f08c379a00000000000000000000000000000000000000000000000000000000081526004016130c790615548565b60405180910390fd5b6000600460003373ffffffffffffffffffffffffffffffffffffffff1673ffffffffffffffffffffffffffffffffffffffff1681526020019081526020016000206000015411613155576040517f08c379a000000000000000000000000000000000000000000000000000000000815260040161314c906155c8565b60405180910390fd5b6000600381111561318f577f4e487b7100000000000000000000000000000000000000000000000000000000600052602160045260246000fd5b6008600084815260200190815260200160002060020160149054906101000a900460ff1660038111156131eb577f4e487b7100000000000000000000000000000000000000000000000000000000600052602160045260246000fd5b1461322b576040517f08c379a000000000000000000000000000000000000000000000000000000000815260040161322290615468565b60405180910390fd5b336008600084815260200190815260200160002060020160006101000a81548173ffffffffffffffffffffffffffffffffffffffff021916908373ffffffffffffffffffffffffffffffffffffffff16021790555060016008600084815260200190815260200160002060020160146101000a81548160ff021916908360038111156132e0577f4e487b7100000000000000000000000000000000000000000000000000000000600052602160045260246000fd5b02179055504260086000848152602001908152602001600020600701819055505050565b61330c61415a565b6000600460008473ffffffffffffffffffffffffffffffffffffffff1673ffffffffffffffffffffffffffffffffffffffff1681526020019081526020016000206040518060e00160405290816000820154815260200160018201805461337290615a16565b80601f016020809104026020016040519081016040528092919081815260200182805461339e90615a16565b80156133eb5780601f106133c0576101008083540402835291602001916133eb565b820191906000526020600020905b8154815290600101906020018083116133ce57829003601f168201915b5050505050815260200160028201805461340490615a16565b80601f016020809104026020016040519081016040528092919081815260200182805461343090615a16565b801561347d5780601f106134525761010080835404028352916020019161347d565b820191906000526020600020905b81548152906001019060200180831161346057829003601f168201915b5050505050815260200160038201805461349690615a16565b80601f01602080910402602001604051908101604052809291908181526020018280546134c290615a16565b801561350f5780601f106134e45761010080835404028352916020019161350f565b820191906000526020600020905b8154815290600101906020018083116134f257829003601f168201915b5050505050815260200160048201805461352890615a16565b80601f016020809104026020016040519081016040528092919081815260200182805461355490615a16565b80156135a15780601f10613576576101008083540402835291602001916135a1565b820191906000526020600020905b81548152906001019060200180831161358457829003601f168201915b505050505081526020016005820180546135ba90615a16565b80601f01602080910402602001604051908101604052809291908181526020018280546135e690615a16565b80156136335780601f1061360857610100808354040283529160200191613633565b820191906000526020600020905b81548152906001019060200180831161361657829003601f168201915b505050505081526020016006820160009054906101000a900473ffffffffffffffffffffffffffffffffffffffff1673ffffffffffffffffffffffffffffffffffffffff1673ffffffffffffffffffffffffffffffffffffffff1681525050905080915050919050565b6000600660008154809291906136b290615a48565b91905055506136bf6140e1565b60065481600001818152505060008160200181815250506000816040019073ffffffffffffffffffffffffffffffffffffffff16908173ffffffffffffffffffffffffffffffffffffffff168152505033816060019073ffffffffffffffffffffffffffffffffffffffff16908173ffffffffffffffffffffffffffffffffffffffff16815250506001816080019015159081151581525050828160a00181905250428160c0018181525050838160e001818152505080600960006006548152602001908152602001600020600082015181600001556020820151816001015560408201518160020160006101000a81548173ffffffffffffffffffffffffffffffffffffffff021916908373ffffffffffffffffffffffffffffffffffffffff16021790555060608201518160030160006101000a81548173ffffffffffffffffffffffffffffffffffffffff021916908373ffffffffffffffffffffffffffffffffffffffff16021790555060808201518160030160146101000a81548160ff02191690831515021790555060a0820151816004016000820151816000019080519060200190613872929190613f60565b50602082015181600101908051906020019061388f929190613f60565b506040820151816002015560608201518160030155505060c0820151816008015560e0820151816009015590505060065491505092915050565b6138d1613e16565b600073ffffffffffffffffffffffffffffffffffffffff168173ffffffffffffffffffffffffffffffffffffffff161415613941576040517f08c379a0000000000000000000000000000000000000000000000000000000008152600401613938906154c8565b60405180910390fd5b61394a81613e94565b50565b60006003600081548092919061396290615a48565b91905055506000600460003373ffffffffffffffffffffffffffffffffffffffff1673ffffffffffffffffffffffffffffffffffffffff1681526020019081526020016000206040518060e0016040529081600082015481526020016001820180546139cd90615a16565b80601f01602080910402602001604051908101604052809291908181526020018280546139f990615a16565b8015613a465780601f10613a1b57610100808354040283529160200191613a46565b820191906000526020600020905b815481529060010190602001808311613a2957829003601f168201915b50505050508152602001600282018054613a5f90615a16565b80601f0160208091040260200160405190810160405280929190818152602001828054613a8b90615a16565b8015613ad85780601f10613aad57610100808354040283529160200191613ad8565b820191906000526020600020905b815481529060010190602001808311613abb57829003601f168201915b50505050508152602001600382018054613af190615a16565b80601f0160208091040260200160405190810160405280929190818152602001828054613b1d90615a16565b8015613b6a5780601f10613b3f57610100808354040283529160200191613b6a565b820191906000526020600020905b815481529060010190602001808311613b4d57829003601f168201915b50505050508152602001600482018054613b8390615a16565b80601f0160208091040260200160405190810160405280929190818152602001828054613baf90615a16565b8015613bfc5780601f10613bd157610100808354040283529160200191613bfc565b820191906000526020600020905b815481529060010190602001808311613bdf57829003601f168201915b50505050508152602001600582018054613c1590615a16565b80601f0160208091040260200160405190810160405280929190818152602001828054613c4190615a16565b8015613c8e5780601f10613c6357610100808354040283529160200191613c8e565b820191906000526020600020905b815481529060010190602001808311613c7157829003601f168201915b505050505081526020016006820160009054906101000a900473ffffffffffffffffffffffffffffffffffffffff1673ffffffffffffffffffffffffffffffffffffffff1673ffffffffffffffffffffffffffffffffffffffff16815250509050600354816000018181525050868160200181905250858160400181905250848160600181905250838160800181905250828160a00181905250338160c0019073ffffffffffffffffffffffffffffffffffffffff16908173ffffffffffffffffffffffffffffffffffffffff16815250503391505095945050505050565b600115156009600083815260200190815260200160002060030160149054906101000a900460ff161515148015613dde5750426009600060065481526020019081526020016000206009015460096000600654815260200190815260200160002060080154613ddc9190615911565b105b15613e135760006009600083815260200190815260200160002060030160146101000a81548160ff0219169083151502179055505b50565b613e1e613f58565b73ffffffffffffffffffffffffffffffffffffffff16613e3c6123ad565b73ffffffffffffffffffffffffffffffffffffffff1614613e92576040517f08c379a0000000000000000000000000000000000000000000000000000000008152600401613e8990615568565b60405180910390fd5b565b60008060009054906101000a900473ffffffffffffffffffffffffffffffffffffffff169050816000806101000a81548173ffffffffffffffffffffffffffffffffffffffff021916908373ffffffffffffffffffffffffffffffffffffffff1602179055508173ffffffffffffffffffffffffffffffffffffffff168173ffffffffffffffffffffffffffffffffffffffff167f8be0079c531659141344cd1fd0a4f28419497f9722a3daafe3b4186f6b6457e060405160405180910390a35050565b600033905090565b828054613f6c90615a16565b90600052602060002090601f016020900481019282613f8e5760008555613fd5565b82601f10613fa757805160ff1916838001178555613fd5565b82800160010185558215613fd5579182015b82811115613fd4578251825591602001919060010190613fb9565b5b509050613fe291906141ad565b5090565b6040518060c0016040528060008152602001600073ffffffffffffffffffffffffffffffffffffffff168152602001600073ffffffffffffffffffffffffffffffffffffffff1681526020016000600381111561406c577f4e487b7100000000000000000000000000000000000000000000000000000000600052602160045260246000fd5b81526020016140796141ca565b8152602001600081525090565b60405180610100016040528060008152602001606081526020016060815260200160608152602001606081526020016060815260200160608152602001600073ffffffffffffffffffffffffffffffffffffffff1681525090565b6040518061010001604052806000815260200160008152602001600073ffffffffffffffffffffffffffffffffffffffff168152602001600073ffffffffffffffffffffffffffffffffffffffff1681526020016000151581526020016141466141ca565b815260200160008152602001600081525090565b6040518060e00160405280600081526020016060815260200160608152602001606081526020016060815260200160608152602001600073ffffffffffffffffffffffffffffffffffffffff1681525090565b5b808211156141c65760008160009055506001016141ae565b5090565b6040518060800160405280606081526020016060815260200160008152602001600081525090565b6000614205614200846157f6565b6157c5565b9050808382526020820190508285602086028201111561422457600080fd5b60005b85811015614254578161423a88826143be565b845260208401935060208301925050600181019050614227565b5050509392505050565b600061427161426c84615822565b6157c5565b90508281526020810184848401111561428957600080fd5b6142948482856159d4565b509392505050565b6000813590506142ab81615b72565b92915050565b600082601f8301126142c257600080fd5b81356142d28482602086016141f2565b91505092915050565b6000815190506142ea81615b89565b92915050565b600082601f83011261430157600080fd5b813561431184826020860161425e565b91505092915050565b60006080828403121561432c57600080fd5b61433660806157c5565b9050600082013567ffffffffffffffff81111561435257600080fd5b61435e848285016142f0565b600083015250602082013567ffffffffffffffff81111561437e57600080fd5b61438a848285016142f0565b602083015250604061439e848285016143be565b60408301525060606143b2848285016143be565b60608301525092915050565b6000813590506143cd81615ba0565b92915050565b6000815190506143e281615ba0565b92915050565b6000602082840312156143fa57600080fd5b60006144088482850161429c565b91505092915050565b60006020828403121561442357600080fd5b600082013567ffffffffffffffff81111561443d57600080fd5b614449848285016142b1565b91505092915050565b60006020828403121561446457600080fd5b6000614472848285016142db565b91505092915050565b6000806040838503121561448e57600080fd5b600083013567ffffffffffffffff8111156144a857600080fd5b6144b4858286016142f0565b925050602083013567ffffffffffffffff8111156144d157600080fd5b6144dd858286016142f0565b9150509250929050565b600080600080600060a086880312156144ff57600080fd5b600086013567ffffffffffffffff81111561451957600080fd5b614525888289016142f0565b955050602086013567ffffffffffffffff81111561454257600080fd5b61454e888289016142f0565b945050604086013567ffffffffffffffff81111561456b57600080fd5b614577888289016142f0565b935050606086013567ffffffffffffffff81111561459457600080fd5b6145a0888289016142f0565b925050608086013567ffffffffffffffff8111156145bd57600080fd5b6145c9888289016142f0565b9150509295509295909350565b60008060008060008060c087890312156145ef57600080fd5b600087013567ffffffffffffffff81111561460957600080fd5b61461589828a016142f0565b965050602087013567ffffffffffffffff81111561463257600080fd5b61463e89828a016142f0565b955050604087013567ffffffffffffffff81111561465b57600080fd5b61466789828a016142f0565b945050606087013567ffffffffffffffff81111561468457600080fd5b61469089828a016142f0565b935050608087013567ffffffffffffffff8111156146ad57600080fd5b6146b989828a016142f0565b92505060a087013567ffffffffffffffff8111156146d657600080fd5b6146e289828a016142f0565b9150509295509295509295565b6000806000806080858703121561470557600080fd5b600085013567ffffffffffffffff81111561471f57600080fd5b61472b878288016142f0565b945050602085013567ffffffffffffffff81111561474857600080fd5b614754878288016142f0565b935050604085013567ffffffffffffffff81111561477157600080fd5b61477d878288016142f0565b925050606061478e878288016143be565b91505092959194509250565b6000602082840312156147ac57600080fd5b600082013567ffffffffffffffff8111156147c657600080fd5b6147d28482850161431a565b91505092915050565b6000602082840312156147ed57600080fd5b60006147fb848285016143be565b91505092915050565b60006020828403121561481657600080fd5b6000614824848285016143d3565b91505092915050565b6000806040838503121561484057600080fd5b600061484e858286016143be565b925050602083013567ffffffffffffffff81111561486b57600080fd5b6148778582860161431a565b9150509250929050565b6000806040838503121561489457600080fd5b60006148a2858286016143be565b92505060206148b3858286016143be565b9150509250929050565b60006148c98383614eba565b905092915050565b60006148dd83836151a5565b905092915050565b6148ee81615967565b82525050565b6148fd81615967565b82525050565b600061490e82615887565b61491881856158c2565b93508360208202850161492a85615852565b8060005b85811015614966578484038952815161494785826148bd565b9450614952836158a8565b925060208a0199505060018101905061492e565b50829750879550505050505092915050565b600061498382615892565b61498d81856158d3565b93508360208202850161499f85615862565b8060005b858110156149db57848403895281516149bc85826148d1565b94506149c7836158b5565b925060208a019950506001810190506149a3565b50829750879550505050505092915050565b6149f681615979565b82525050565b60008154614a0981615a16565b614a1381866158e4565b94506001821660008114614a2e5760018114614a3f57614a72565b60ff19831686528186019350614a72565b614a4885615872565b60005b83811015614a6a57815481890152600182019150602081019050614a4b565b838801955050505b50505092915050565b614a84816159c2565b82525050565b6000614a958261589d565b614a9f81856158ef565b9350614aaf8185602086016159e3565b614ab881615b4d565b840191505092915050565b6000614ace8261589d565b614ad88185615900565b9350614ae88185602086016159e3565b614af181615b4d565b840191505092915050565b6000614b09601683615900565b91507f205269646520416c726561647920426f6f6b65642021000000000000000000006000830152602082019050919050565b6000614b49601a83615900565b91507f4e6f7420656e6f7567682062616c616e636520746f20626964210000000000006000830152602082019050919050565b6000614b89602883615900565b91507f447269766572732063616e6e6f742062696420696e207468656972206f776e2060008301527f61756374696f6e210000000000000000000000000000000000000000000000006020830152604082019050919050565b6000614bef602683615900565b91507f4f776e61626c653a206e6577206f776e657220697320746865207a65726f206160008301527f64647265737300000000000000000000000000000000000000000000000000006020830152604082019050919050565b6000614c55601d83615900565b91507f41756374696f6e2068617320616c72656164792066696e6973686564210000006000830152602082019050919050565b6000614c95602883615900565b91507f2052696465204e6f7420426f6f6b656420796574206f72205269646520436f6d60008301527f706c6574656420210000000000000000000000000000000000000000000000006020830152604082019050919050565b6000614cfb603d83615900565b91507f526964652063616e2062652063616e63656c6c6564206279207468652072696460008301527f6520637573746f6d6572206f7220647269766572206f6e6c79202121200000006020830152604082019050919050565b6000614d61601783615900565b91507f204e6f20537563682052696465204578697374732021200000000000000000006000830152602082019050919050565b6000614da1602083615900565b91507f4f776e61626c653a2063616c6c6572206973206e6f7420746865206f776e65726000830152602082019050919050565b6000614de1601d83615900565b91507f4e6f20726567697374657265642064726976657220466f756e642021210000006000830152602082019050919050565b6000614e21602c83615900565b91507f42696420686967686572207468616e207468652070726576696f75732068696760008301527f68657374206269646465722100000000000000000000000000000000000000006020830152604082019050919050565b6000614e87601f83615900565b91507f4e6f207265676973746572656420437573746f6d657220466f756e64202121006000830152602082019050919050565b600061010083016000830151614ed36000860182615321565b506020830151614ee66020860182615321565b506040830151614ef960408601826148e5565b506060830151614f0c60608601826148e5565b506080830151614f1f60808601826149ed565b5060a083015184820360a0860152614f3782826152b7565b91505060c0830151614f4c60c0860182615321565b5060e0830151614f5f60e0860182615321565b508091505092915050565b600061010083016000830151614f836000860182615321565b506020830151614f966020860182615321565b506040830151614fa960408601826148e5565b506060830151614fbc60608601826148e5565b506080830151614fcf60808601826149ed565b5060a083015184820360a0860152614fe782826152b7565b91505060c0830151614ffc60c0860182615321565b5060e083015161500f60e0860182615321565b508091505092915050565b600060e0830160008301516150326000860182615321565b506020830151848203602086015261504a8282614a8a565b915050604083015184820360408601526150648282614a8a565b9150506060830151848203606086015261507e8282614a8a565b915050608083015184820360808601526150988282614a8a565b91505060a083015184820360a08601526150b28282614a8a565b91505060c08301516150c760c08601826148e5565b508091505092915050565b6000610100830160008301516150eb6000860182615321565b50602083015184820360208601526151038282614a8a565b9150506040830151848203604086015261511d8282614a8a565b915050606083015184820360608601526151378282614a8a565b915050608083015184820360808601526151518282614a8a565b91505060a083015184820360a086015261516b8282614a8a565b91505060c083015184820360c08601526151858282614a8a565b91505060e083015161519a60e08601826148e5565b508091505092915050565b600060c0830160008301516151bd6000860182615321565b5060208301516151d060208601826148e5565b5060408301516151e360408601826148e5565b5060608301516151f66060860182614a7b565b506080830151848203608086015261520e82826152b7565b91505060a083015161522360a0860182615321565b508091505092915050565b600060c0830160008301516152466000860182615321565b50602083015161525960208601826148e5565b50604083015161526c60408601826148e5565b50606083015161527f6060860182614a7b565b506080830151848203608086015261529782826152b7565b91505060a08301516152ac60a0860182615321565b508091505092915050565b600060808301600083015184820360008601526152d48282614a8a565b915050602083015184820360208601526152ee8282614a8a565b91505060408301516153036040860182615321565b5060608301516153166060860182615321565b508091505092915050565b61532a816159b8565b82525050565b615339816159b8565b82525050565b600061534b82846149fc565b915081905092915050565b600060208201905061536b60008301846148f4565b92915050565b600060608201905061538660008301866148f4565b61539360208301856148f4565b6153a06040830184615330565b949350505050565b60006040820190506153bd60008301856148f4565b6153ca6020830184615330565b9392505050565b600060208201905081810360008301526153eb8184614903565b905092915050565b6000602082019050818103600083015261540d8184614978565b905092915050565b6000608082019050818103600083015261542f8187614ac3565b905081810360208301526154438186614ac3565b90506154526040830185615330565b61545f60608301846148f4565b95945050505050565b6000602082019050818103600083015261548181614afc565b9050919050565b600060208201905081810360008301526154a181614b3c565b9050919050565b600060208201905081810360008301526154c181614b7c565b9050919050565b600060208201905081810360008301526154e181614be2565b9050919050565b6000602082019050818103600083015261550181614c48565b9050919050565b6000602082019050818103600083015261552181614c88565b9050919050565b6000602082019050818103600083015261554181614cee565b9050919050565b6000602082019050818103600083015261556181614d54565b9050919050565b6000602082019050818103600083015261558181614d94565b9050919050565b600060208201905081810360008301526155a181614dd4565b9050919050565b600060208201905081810360008301526155c181614e14565b9050919050565b600060208201905081810360008301526155e181614e7a565b9050919050565b600060208201905081810360008301526156028184614f6a565b905092915050565b60006020820190508181036000830152615624818461501a565b905092915050565b6000602082019050818103600083015261564681846150d2565b905092915050565b60006020820190508181036000830152615668818461522e565b905092915050565b60006020820190506156856000830184615330565b92915050565b600060e0820190506156a0600083018a615330565b81810360208301526156b28189614ac3565b905081810360408301526156c68188614ac3565b905081810360608301526156da8187614ac3565b905081810360808301526156ee8186614ac3565b905081810360a08301526157028185614ac3565b905061571160c08301846148f4565b98975050505050505050565b600061010082019050615733600083018b615330565b8181036020830152615745818a614ac3565b905081810360408301526157598189614ac3565b9050818103606083015261576d8188614ac3565b905081810360808301526157818187614ac3565b905081810360a08301526157958186614ac3565b905081810360c08301526157a98185614ac3565b90506157b860e08301846148f4565b9998505050505050505050565b6000604051905081810181811067ffffffffffffffff821117156157ec576157eb615b1e565b5b8060405250919050565b600067ffffffffffffffff82111561581157615810615b1e565b5b602082029050602081019050919050565b600067ffffffffffffffff82111561583d5761583c615b1e565b5b601f19601f8301169050602081019050919050565b6000819050602082019050919050565b6000819050602082019050919050565b60008190508160005260206000209050919050565b600081519050919050565b600081519050919050565b600081519050919050565b6000602082019050919050565b6000602082019050919050565b600082825260208201905092915050565b600082825260208201905092915050565b600081905092915050565b600082825260208201905092915050565b600082825260208201905092915050565b600061591c826159b8565b9150615927836159b8565b9250827fffffffffffffffffffffffffffffffffffffffffffffffffffffffffffffffff0382111561595c5761595b615a91565b5b828201905092915050565b600061597282615998565b9050919050565b60008115159050919050565b600081905061599382615b5e565b919050565b600073ffffffffffffffffffffffffffffffffffffffff82169050919050565b6000819050919050565b60006159cd82615985565b9050919050565b82818337600083830152505050565b60005b83811015615a015780820151818401526020810190506159e6565b83811115615a10576000848401525b50505050565b60006002820490506001821680615a2e57607f821691505b60208210811415615a4257615a41615aef565b5b50919050565b6000615a53826159b8565b91507fffffffffffffffffffffffffffffffffffffffffffffffffffffffffffffffff821415615a8657615a85615a91565b5b600182019050919050565b7f4e487b7100000000000000000000000000000000000000000000000000000000600052601160045260246000fd5b7f4e487b7100000000000000000000000000000000000000000000000000000000600052602160045260246000fd5b7f4e487b7100000000000000000000000000000000000000000000000000000000600052602260045260246000fd5b7f4e487b7100000000000000000000000000000000000000000000000000000000600052604160045260246000fd5b6000601f19601f8301169050919050565b60048110615b6f57615b6e615ac0565b5b50565b615b7b81615967565b8114615b8657600080fd5b50565b615b9281615979565b8114615b9d57600080fd5b50565b615ba9816159b8565b8114615bb457600080fd5b5056fea2646970667358221220122af0c6e609db4d5a5e22517e353226b5790ed5144f048e9ad6ad15774553a364736f6c63430008000033",
  "immutableReferences": {},
  "source": "// SPDX-License-Identifier: MIT\r\npragma solidity 0.8.0;\r\npragma experimental ABIEncoderV2;\r\n\r\nimport \"@openzeppelin/contracts/access/Ownable.sol\";\r\nimport \"./TOKENX.sol\";\r\nimport \"./Driver.sol\";\r\nimport \"./Customer.sol\";\r\n\r\ncontract Ride is Ownable, Driver , Customer{\r\n\r\n    uint256 rideCount;\r\n    uint256 auctionCount;\r\n\r\n    enum RIDE_STATUS { POSTED , CONFIRMED , CANCELLED , COMPLETED }\r\n        \r\n    TOKENX tradeToken;\r\n\r\n    struct USER{\r\n        uint _citId;\r\n        string _name;\r\n        string _email;\r\n        string _password;\r\n        uint _phone;\r\n        address _accAddress;\r\n        // should you store the address or not that is the quest\r\n    }\r\n    \r\n\r\n    constructor(address _token) {\r\n        tradeToken = TOKENX(payable(_token));\r\n        rideCount = 0;\r\n        auctionCount = 0;\r\n    }\r\n\r\n\r\n    struct RIDE_DETAILS {\r\n        string pickup;\r\n        string destination;\r\n        uint256 distance;\r\n        uint256 price;\r\n    }\r\n\r\n    struct RIDE {\r\n        uint id;\r\n        address driver ;\r\n        address customer ;\r\n        RIDE_STATUS status;\r\n        RIDE_DETAILS ride; \r\n        uint256 timestamp;\r\n    }\r\n\r\n    struct AUCTION{\r\n        uint id;\r\n        uint latestHighestBid;\r\n        address currentBidder;\r\n        address driver;\r\n        bool isAuctionGoingOn;\r\n        RIDE_DETAILS ride; \r\n        uint256 timeOfPosting;\r\n        uint256 secondsUntilAuctionEnds;\r\n    }\r\n\r\n    mapping(uint256 => RIDE) private Rides;\r\n    mapping(uint256 => AUCTION) private Auctions;\r\n    mapping(uint =>USER) private loginData;\r\n    uint userCount = 0;\r\n    ///@dev checks if the ride is present or not\r\n    modifier checkRide(uint256 _rideId) {\r\n        require(Rides[_rideId].id>0,\" No Such Ride Exists ! \");\r\n        _;\r\n    }\r\n\r\n\r\n    function registerCitizen(string memory name,string memory email ,string memory password ,uint phone ) public {\r\n        \r\n        userCount++;\r\n        loginData[userCount]._name = name;\r\n        loginData[userCount]._email = email;\r\n        loginData[userCount]._password = password;\r\n        loginData[userCount]._phone = phone ;\r\n        loginData[userCount]._accAddress = msg.sender;\r\n        // should you store the address of the curr user \r\n        // create a mapping for address to password\r\n        loginData[userCount]._citId = userCount;\r\n        //increment the citizencount then the value \r\n\r\n    }\r\n\r\n    function viewCitizen(uint cid) public view returns(string memory,string memory,uint,address){\r\n        return(loginData[cid]._name,loginData[cid]._email,loginData[cid]._phone,loginData[cid]._accAddress);\r\n    }\r\n    function LoginCitizen(string memory email,string memory password) public view returns(uint){\r\n        // start with checking if email exists in logindata \r\n        // check for authentication \r\n        uint i ;\r\n        for( i = 1;i<=userCount;i++){\r\n            if((keccak256(bytes(loginData[i]._email)) == keccak256(bytes(email))) \r\n            && (keccak256(bytes(loginData[i]._password)) == keccak256(bytes(password)))){\r\n                \r\n                return loginData[i]._citId;\r\n            }     \r\n        }\r\n        \r\n        return 0;\r\n    }\r\n\r\n\r\n\r\n    function postRide(RIDE_DETAILS memory _rideDetails)\r\n        public\r\n        returns (uint256)\r\n    {\r\n        require(drivers[msg.sender].id>0 ,\"No registered driver Found !!\");\r\n\r\n\r\n        rideCount++;\r\n\r\n        RIDE memory cur_ride;\r\n        \r\n        cur_ride.id = rideCount;\r\n        cur_ride.driver = msg.sender;\r\n        cur_ride.status = RIDE_STATUS.POSTED;\r\n        cur_ride.ride =_rideDetails;\r\n        cur_ride.timestamp = block.timestamp;\r\n\r\n        Rides[rideCount] = cur_ride;\r\n\r\n        return rideCount;\r\n    }\r\n\r\n    function bookRide(uint256 _rideId) public checkRide(_rideId){\r\n        // this needs to be a customer to get the details \r\n        require(customers[msg.sender].id>0 ,\"No registered Customer Found !!\");\r\n        require(Rides[_rideId].status==RIDE_STATUS.POSTED,\" Ride Already Booked !\");\r\n\r\n        Rides[_rideId].customer = msg.sender;\r\n        Rides[_rideId].status = RIDE_STATUS.CONFIRMED;\r\n        Rides[_rideId].timestamp = block.timestamp;\r\n        // return _rideId;\r\n    }\r\n\r\n    function getAllRides(uint256[] memory rideIds)\r\n        public\r\n        view\r\n        returns (RIDE[] memory)\r\n    {\r\n        RIDE[] memory allRides;\r\n        uint256 count = 0;\r\n\r\n        for (uint256 i = 0; i < rideIds.length; i++) {\r\n            uint256 rideId = rideIds[i];\r\n            allRides[count] = Rides[rideId];\r\n            count++;\r\n        }\r\n\r\n        return allRides;\r\n    }\r\n\r\n    function fetchRide(uint256 _rideId) public view checkRide(_rideId) returns (RIDE memory) {\r\n        return Rides[_rideId];\r\n    }\r\n\r\n    function cancelRide(uint _rideId) public checkRide(_rideId){\r\n        \r\n        require(Rides[_rideId].status == RIDE_STATUS.CONFIRMED,\" Ride Not Booked yet or Ride Completed !\");\r\n        require((Rides[_rideId].customer == msg.sender || Rides[_rideId].driver == msg.sender), \"Ride can be cancelled by the ride customer or driver only !! \");\r\n\r\n        Rides[_rideId].status = RIDE_STATUS.CANCELLED;\r\n        Rides[_rideId].timestamp = block.timestamp;\r\n\r\n    }\r\n\r\n    function completeRide(uint256 _rideId) public {\r\n\r\n        require(Rides[_rideId].status == RIDE_STATUS.CONFIRMED,\" Ride Not Booked yet or Ride Completed !\");\r\n        require((Rides[_rideId].customer == msg.sender || Rides[_rideId].driver == msg.sender), \"Ride can be cancelled by the ride customer or driver only !! \");\r\n\r\n        Rides[_rideId].status = RIDE_STATUS.COMPLETED;\r\n        Rides[_rideId].timestamp = block.timestamp;\r\n        \r\n    }\r\n\r\n    function getRideCount() public view returns(uint256) {\r\n        return rideCount;\r\n    }\r\n\r\n\r\n    function addToAuction(uint256 _secondsUntilAuctionEnds , RIDE_DETAILS memory _details)\r\n        public\r\n        returns (uint256)\r\n    {\r\n        auctionCount++;\r\n        AUCTION memory curAuc;\r\n        curAuc.id = auctionCount;\r\n        curAuc.latestHighestBid = 0;\r\n        curAuc.currentBidder = address(0);\r\n        curAuc.driver = msg.sender;\r\n        curAuc.isAuctionGoingOn = true;\r\n        curAuc.ride = _details;\r\n        curAuc.timeOfPosting = block.timestamp;\r\n        curAuc.secondsUntilAuctionEnds = _secondsUntilAuctionEnds;\r\n\r\n        Auctions[auctionCount] = curAuc;\r\n\r\n        return auctionCount;\r\n    }\r\n\r\n    function getBalanceOfAddress() public view returns(uint256){\r\n        return tradeToken.balanceOf(msg.sender);\r\n    }\r\n\r\n    function transferThisFrom(uint256 bidamt) public payable{\r\n        tradeToken.transferFrom(msg.sender,address(this),bidamt);\r\n    }\r\n\r\n    function bid(uint256  _auctionId, uint256 bidamt) public payable{\r\n\r\n        checkValidity(_auctionId);\r\n\r\n        AUCTION storage act = Auctions[_auctionId];\r\n\r\n        require(act.isAuctionGoingOn == true, \"Auction has already finished!\");\r\n        require(msg.sender != act.driver, \"Drivers cannot bid in their own auction!\");\r\n        require(bidamt < tradeToken.balanceOf(msg.sender), \"Not enough balance to bid!\");\r\n        require(bidamt > act.latestHighestBid, \"Bid higher than the previous highest bidder!\");\r\n\r\n\r\n        // get the previous bidder \r\n        address currentBidder = act.currentBidder;\r\n        uint256 prevBidPrice = act.latestHighestBid;\r\n        act.latestHighestBid = 0;\r\n\r\n        //  get the tokens from the current highest bidder and keep it with the contract\r\n        tradeToken.transferFrom(msg.sender,address(this),bidamt);\r\n\r\n        // transfer the amount back from the contract to the previous bidder \r\n        if(currentBidder != address(0)){\r\n            tradeToken.transfer(currentBidder, prevBidPrice);\r\n        }\r\n        act.latestHighestBid = bidamt;\r\n        act.currentBidder = msg.sender;\r\n\r\n    }\r\n\r\n    function checkValidity (uint256 _auctionId) private {\r\n        if((Auctions[_auctionId].isAuctionGoingOn == true) && (Auctions[auctionCount].timeOfPosting + Auctions[auctionCount].secondsUntilAuctionEnds < block.timestamp)){\r\n            Auctions[_auctionId].isAuctionGoingOn = false;\r\n        }\r\n    }\r\n    // we need to book the cancel the auction or complete it \r\n\r\n    function getAllAuctions(uint256[] memory rideIds)\r\n        public\r\n        view\r\n        returns (AUCTION[] memory)\r\n    {\r\n        AUCTION[] memory allAuctions;\r\n        uint256 count = 0;\r\n\r\n        for (uint256 i = 0; i < rideIds.length; i++) {\r\n            uint256 rideId = rideIds[i];\r\n            allAuctions[count] = Auctions[rideId];\r\n            count++;\r\n        }\r\n\r\n        return allAuctions;\r\n    }\r\n\r\n    function fetchAuction(uint256 _auctionId) public view returns (AUCTION memory) {\r\n        return Auctions[_auctionId];\r\n    }\r\n\r\n}\r\n\r\n",
  "sourcePath": "D:\\CODING\\BLOCKCHAIN\\P2P Riide Sharing\\contracts\\Ride.sol",
  "compiler": {
    "name": "solc",
    "version": "0.8.0+commit.c7dfd78e.Emscripten.clang"
  },
  "schemaVersion": "3.4.4",
  "updatedAt": "2023-02-25T03:41:56.499Z",
  "networkType": "ethereum",
  "devdoc": {
    "kind": "dev",
    "methods": {
      "owner()": {
        "details": "Returns the address of the current owner."
      },
      "renounceOwnership()": {
        "details": "Leaves the contract without owner. It will not be possible to call `onlyOwner` functions anymore. Can only be called by the current owner. NOTE: Renouncing ownership will leave the contract without an owner, thereby removing any functionality that is only available to the owner."
      },
      "transferOwnership(address)": {
        "details": "Transfers ownership of the contract to a new account (`newOwner`). Can only be called by the current owner."
      }
    },
    "version": 1
  },
  "userdoc": {
    "kind": "user",
    "methods": {},
    "version": 1
  }
}