{
  "contractName": "Vehicle",
  "abi": [
    {
      "anonymous": false,
      "inputs": [
        {
          "indexed": true,
          "internalType": "address",
          "name": "previousOwner",
          "type": "address"
        },
        {
          "indexed": true,
          "internalType": "address",
          "name": "newOwner",
          "type": "address"
        }
      ],
      "name": "OwnershipTransferred",
      "type": "event"
    },
    {
      "inputs": [],
      "name": "owner",
      "outputs": [
        {
          "internalType": "address",
          "name": "",
          "type": "address"
        }
      ],
      "stateMutability": "view",
      "type": "function"
    },
    {
      "inputs": [],
      "name": "renounceOwnership",
      "outputs": [],
      "stateMutability": "nonpayable",
      "type": "function"
    },
    {
      "inputs": [
        {
          "internalType": "address",
          "name": "newOwner",
          "type": "address"
        }
      ],
      "name": "transferOwnership",
      "outputs": [],
      "stateMutability": "nonpayable",
      "type": "function"
    },
    {
      "inputs": [
        {
          "internalType": "address",
          "name": "driver",
          "type": "address"
        },
        {
          "components": [
            {
              "internalType": "string",
              "name": "vehicle_no",
              "type": "string"
            },
            {
              "internalType": "string",
              "name": "RC",
              "type": "string"
            },
            {
              "internalType": "string",
              "name": "vehicle_images",
              "type": "string"
            },
            {
              "internalType": "enum Vehicle.VEHICLE_TYPE",
              "name": "vehicle_type",
              "type": "uint8"
            }
          ],
          "internalType": "struct Vehicle.VEHICLE_INFO",
          "name": "_vehicle",
          "type": "tuple"
        }
      ],
      "name": "addVehicle",
      "outputs": [],
      "stateMutability": "nonpayable",
      "type": "function"
    },
    {
      "inputs": [
        {
          "internalType": "address",
          "name": "driver",
          "type": "address"
        },
        {
          "components": [
            {
              "internalType": "string",
              "name": "vehicle_no",
              "type": "string"
            },
            {
              "internalType": "string",
              "name": "RC",
              "type": "string"
            },
            {
              "internalType": "string",
              "name": "vehicle_images",
              "type": "string"
            },
            {
              "internalType": "enum Vehicle.VEHICLE_TYPE",
              "name": "vehicle_type",
              "type": "uint8"
            }
          ],
          "internalType": "struct Vehicle.VEHICLE_INFO",
          "name": "_vehicle",
          "type": "tuple"
        }
      ],
      "name": "updateVehicle",
      "outputs": [],
      "stateMutability": "nonpayable",
      "type": "function"
    },
    {
      "inputs": [
        {
          "internalType": "address",
          "name": "driver",
          "type": "address"
        }
      ],
      "name": "getVehicle",
      "outputs": [
        {
          "components": [
            {
              "internalType": "string",
              "name": "vehicle_no",
              "type": "string"
            },
            {
              "internalType": "string",
              "name": "RC",
              "type": "string"
            },
            {
              "internalType": "string",
              "name": "vehicle_images",
              "type": "string"
            },
            {
              "internalType": "enum Vehicle.VEHICLE_TYPE",
              "name": "vehicle_type",
              "type": "uint8"
            }
          ],
          "internalType": "struct Vehicle.VEHICLE_INFO",
          "name": "",
          "type": "tuple"
        }
      ],
      "stateMutability": "view",
      "type": "function"
    }
  ],
  "bytecode": "0x608060405234801561001057600080fd5b5061002d61002261003260201b60201c565b61003a60201b60201c565b6100fe565b600033905090565b60008060009054906101000a900473ffffffffffffffffffffffffffffffffffffffff169050816000806101000a81548173ffffffffffffffffffffffffffffffffffffffff021916908373ffffffffffffffffffffffffffffffffffffffff1602179055508173ffffffffffffffffffffffffffffffffffffffff168173ffffffffffffffffffffffffffffffffffffffff167f8be0079c531659141344cd1fd0a4f28419497f9722a3daafe3b4186f6b6457e060405160405180910390a35050565b610eed8061010d6000396000f3fe608060405234801561001057600080fd5b50600436106100625760003560e01c8063715018a6146100675780637ca8fbcf14610071578063860f78421461008d5780638da5cb5b146100a9578063a93ab101146100c7578063f2fde38b146100f7575b600080fd5b61006f610113565b005b61008b60048036038101906100869190610a46565b610127565b005b6100a760048036038101906100a29190610a46565b61022f565b005b6100b1610337565b6040516100be9190610c08565b60405180910390f35b6100e160048036038101906100dc9190610a1d565b610360565b6040516100ee9190610c63565b60405180910390f35b610111600480360381019061010c9190610a1d565b6105fe565b005b61011b610682565b6101256000610700565b565b61012f610682565b6101376107cc565b81905080600160008573ffffffffffffffffffffffffffffffffffffffff1673ffffffffffffffffffffffffffffffffffffffff168152602001908152602001600020600082015181600001908051906020019061019692919061082c565b5060208201518160010190805190602001906101b392919061082c565b5060408201518160020190805190602001906101d092919061082c565b5060608201518160030160006101000a81548160ff02191690836003811115610222577f4e487b7100000000000000000000000000000000000000000000000000000000600052602160045260246000fd5b0217905550905050505050565b610237610682565b61023f6107cc565b81905080600160008573ffffffffffffffffffffffffffffffffffffffff1673ffffffffffffffffffffffffffffffffffffffff168152602001908152602001600020600082015181600001908051906020019061029e92919061082c565b5060208201518160010190805190602001906102bb92919061082c565b5060408201518160020190805190602001906102d892919061082c565b5060608201518160030160006101000a81548160ff0219169083600381111561032a577f4e487b7100000000000000000000000000000000000000000000000000000000600052602160045260246000fd5b0217905550905050505050565b60008060009054906101000a900473ffffffffffffffffffffffffffffffffffffffff16905090565b6103686107cc565b610370610682565b600160008373ffffffffffffffffffffffffffffffffffffffff1673ffffffffffffffffffffffffffffffffffffffff1681526020019081526020016000206040518060800160405290816000820180546103ca90610dac565b80601f01602080910402602001604051908101604052809291908181526020018280546103f690610dac565b80156104435780601f1061041857610100808354040283529160200191610443565b820191906000526020600020905b81548152906001019060200180831161042657829003601f168201915b5050505050815260200160018201805461045c90610dac565b80601f016020809104026020016040519081016040528092919081815260200182805461048890610dac565b80156104d55780601f106104aa576101008083540402835291602001916104d5565b820191906000526020600020905b8154815290600101906020018083116104b857829003601f168201915b505050505081526020016002820180546104ee90610dac565b80601f016020809104026020016040519081016040528092919081815260200182805461051a90610dac565b80156105675780601f1061053c57610100808354040283529160200191610567565b820191906000526020600020905b81548152906001019060200180831161054a57829003601f168201915b505050505081526020016003820160009054906101000a900460ff1660038111156105bb577f4e487b7100000000000000000000000000000000000000000000000000000000600052602160045260246000fd5b60038111156105f3577f4e487b7100000000000000000000000000000000000000000000000000000000600052602160045260246000fd5b815250509050919050565b610606610682565b600073ffffffffffffffffffffffffffffffffffffffff168173ffffffffffffffffffffffffffffffffffffffff161415610676576040517f08c379a000000000000000000000000000000000000000000000000000000000815260040161066d90610c23565b60405180910390fd5b61067f81610700565b50565b61068a6107c4565b73ffffffffffffffffffffffffffffffffffffffff166106a8610337565b73ffffffffffffffffffffffffffffffffffffffff16146106fe576040517f08c379a00000000000000000000000000000000000000000000000000000000081526004016106f590610c43565b60405180910390fd5b565b60008060009054906101000a900473ffffffffffffffffffffffffffffffffffffffff169050816000806101000a81548173ffffffffffffffffffffffffffffffffffffffff021916908373ffffffffffffffffffffffffffffffffffffffff1602179055508173ffffffffffffffffffffffffffffffffffffffff168173ffffffffffffffffffffffffffffffffffffffff167f8be0079c531659141344cd1fd0a4f28419497f9722a3daafe3b4186f6b6457e060405160405180910390a35050565b600033905090565b604051806080016040528060608152602001606081526020016060815260200160006003811115610826577f4e487b7100000000000000000000000000000000000000000000000000000000600052602160045260246000fd5b81525090565b82805461083890610dac565b90600052602060002090601f01602090048101928261085a57600085556108a1565b82601f1061087357805160ff19168380011785556108a1565b828001600101855582156108a1579182015b828111156108a0578251825591602001919060010190610885565b5b5090506108ae91906108b2565b5090565b5b808211156108cb5760008160009055506001016108b3565b5090565b60006108e26108dd84610cb6565b610c85565b9050828152602081018484840111156108fa57600080fd5b610905848285610d6a565b509392505050565b60008135905061091c81610e90565b92915050565b60008135905061093181610ea7565b92915050565b600082601f83011261094857600080fd5b81356109588482602086016108cf565b91505092915050565b60006080828403121561097357600080fd5b61097d6080610c85565b9050600082013567ffffffffffffffff81111561099957600080fd5b6109a584828501610937565b600083015250602082013567ffffffffffffffff8111156109c557600080fd5b6109d184828501610937565b602083015250604082013567ffffffffffffffff8111156109f157600080fd5b6109fd84828501610937565b6040830152506060610a1184828501610922565b60608301525092915050565b600060208284031215610a2f57600080fd5b6000610a3d8482850161090d565b91505092915050565b60008060408385031215610a5957600080fd5b6000610a678582860161090d565b925050602083013567ffffffffffffffff811115610a8457600080fd5b610a9085828601610961565b9150509250929050565b610aa381610d13565b82525050565b610ab281610d58565b82525050565b6000610ac382610ce6565b610acd8185610cf1565b9350610add818560208601610d79565b610ae681610e6b565b840191505092915050565b6000610afe602683610d02565b91507f4f776e61626c653a206e6577206f776e657220697320746865207a65726f206160008301527f64647265737300000000000000000000000000000000000000000000000000006020830152604082019050919050565b6000610b64602083610d02565b91507f4f776e61626c653a2063616c6c6572206973206e6f7420746865206f776e65726000830152602082019050919050565b60006080830160008301518482036000860152610bb48282610ab8565b91505060208301518482036020860152610bce8282610ab8565b91505060408301518482036040860152610be88282610ab8565b9150506060830151610bfd6060860182610aa9565b508091505092915050565b6000602082019050610c1d6000830184610a9a565b92915050565b60006020820190508181036000830152610c3c81610af1565b9050919050565b60006020820190508181036000830152610c5c81610b57565b9050919050565b60006020820190508181036000830152610c7d8184610b97565b905092915050565b6000604051905081810181811067ffffffffffffffff82111715610cac57610cab610e3c565b5b8060405250919050565b600067ffffffffffffffff821115610cd157610cd0610e3c565b5b601f19601f8301169050602081019050919050565b600081519050919050565b600082825260208201905092915050565b600082825260208201905092915050565b6000610d1e82610d38565b9050919050565b6000819050610d3382610e7c565b919050565b600073ffffffffffffffffffffffffffffffffffffffff82169050919050565b6000610d6382610d25565b9050919050565b82818337600083830152505050565b60005b83811015610d97578082015181840152602081019050610d7c565b83811115610da6576000848401525b50505050565b60006002820490506001821680610dc457607f821691505b60208210811415610dd857610dd7610e0d565b5b50919050565b7f4e487b7100000000000000000000000000000000000000000000000000000000600052602160045260246000fd5b7f4e487b7100000000000000000000000000000000000000000000000000000000600052602260045260246000fd5b7f4e487b7100000000000000000000000000000000000000000000000000000000600052604160045260246000fd5b6000601f19601f8301169050919050565b60048110610e8d57610e8c610dde565b5b50565b610e9981610d13565b8114610ea457600080fd5b50565b60048110610eb457600080fd5b5056fea26469706673582212204f986f2c05597b407e1cf86b521f2325792f46ae1f4de7d61a1cb986f28d056764736f6c63430008000033",
  "immutableReferences": {},
  "source": "pragma solidity 0.8.0;\r\n\r\nimport \"@openzeppelin/contracts/access/Ownable.sol\";\r\n\r\ncontract Vehicle is Ownable {\r\n    \r\n    enum VEHICLE_TYPE{\r\n        MINI,\r\n        PRIME,\r\n        SEDAN,\r\n        SUV\r\n    }\r\n\r\n    struct VEHICLE_INFO{\r\n        string vehicle_no;\r\n        string RC;\r\n        string vehicle_images;\r\n        VEHICLE_TYPE vehicle_type;\r\n    }\r\n\r\n    mapping(address => VEHICLE_INFO) internal _vehicles;\r\n    function addVehicle(address driver,VEHICLE_INFO memory _vehicle)\r\n        public\r\n        onlyOwner\r\n    {\r\n        VEHICLE_INFO memory vehicle;\r\n        vehicle = _vehicle;\r\n        _vehicles[driver] = vehicle;\r\n    }\r\n\r\n    function updateVehicle(address driver, VEHICLE_INFO memory _vehicle)\r\n        public\r\n        onlyOwner\r\n    {\r\n        VEHICLE_INFO memory vehicle;\r\n        vehicle = _vehicle;\r\n        _vehicles[driver] = vehicle;\r\n    }\r\n\r\n    function getVehicle(address driver)\r\n        public\r\n        view\r\n        onlyOwner\r\n        returns (VEHICLE_INFO memory)\r\n    {\r\n        return _vehicles[driver];\r\n    }\r\n}",
  "sourcePath": "D:\\CODING\\BLOCKCHAIN\\P2P Riide Sharing\\contracts\\Vehicle.sol",
  "compiler": {
    "name": "solc",
    "version": "0.8.0+commit.c7dfd78e.Emscripten.clang"
  },
  "schemaVersion": "3.4.4",
  "updatedAt": "2023-02-25T03:41:50.037Z",
  "devdoc": {
    "kind": "dev",
    "methods": {
      "owner()": {
        "details": "Returns the address of the current owner."
      },
      "renounceOwnership()": {
        "details": "Leaves the contract without owner. It will not be possible to call `onlyOwner` functions anymore. Can only be called by the current owner. NOTE: Renouncing ownership will leave the contract without an owner, thereby removing any functionality that is only available to the owner."
      },
      "transferOwnership(address)": {
        "details": "Transfers ownership of the contract to a new account (`newOwner`). Can only be called by the current owner."
      }
    },
    "version": 1
  },
  "userdoc": {
    "kind": "user",
    "methods": {},
    "version": 1
  }
}