{
  "contractName": "Customer",
  "abi": [
    {
      "anonymous": false,
      "inputs": [
        {
          "indexed": true,
          "internalType": "address",
          "name": "previousOwner",
          "type": "address"
        },
        {
          "indexed": true,
          "internalType": "address",
          "name": "newOwner",
          "type": "address"
        }
      ],
      "name": "OwnershipTransferred",
      "type": "event"
    },
    {
      "inputs": [
        {
          "internalType": "address",
          "name": "",
          "type": "address"
        }
      ],
      "name": "customers",
      "outputs": [
        {
          "internalType": "uint256",
          "name": "id",
          "type": "uint256"
        },
        {
          "internalType": "string",
          "name": "name",
          "type": "string"
        },
        {
          "internalType": "string",
          "name": "email",
          "type": "string"
        },
        {
          "internalType": "string",
          "name": "dob",
          "type": "string"
        },
        {
          "internalType": "string",
          "name": "govtId",
          "type": "string"
        },
        {
          "internalType": "string",
          "name": "picture",
          "type": "string"
        },
        {
          "internalType": "address",
          "name": "wallet",
          "type": "address"
        }
      ],
      "stateMutability": "view",
      "type": "function"
    },
    {
      "inputs": [],
      "name": "owner",
      "outputs": [
        {
          "internalType": "address",
          "name": "",
          "type": "address"
        }
      ],
      "stateMutability": "view",
      "type": "function"
    },
    {
      "inputs": [],
      "name": "renounceOwnership",
      "outputs": [],
      "stateMutability": "nonpayable",
      "type": "function"
    },
    {
      "inputs": [
        {
          "internalType": "address",
          "name": "newOwner",
          "type": "address"
        }
      ],
      "name": "transferOwnership",
      "outputs": [],
      "stateMutability": "nonpayable",
      "type": "function"
    },
    {
      "inputs": [
        {
          "internalType": "string",
          "name": "_name",
          "type": "string"
        },
        {
          "internalType": "string",
          "name": "_email",
          "type": "string"
        },
        {
          "internalType": "string",
          "name": "_dob",
          "type": "string"
        },
        {
          "internalType": "string",
          "name": "_govtId",
          "type": "string"
        },
        {
          "internalType": "string",
          "name": "_picture",
          "type": "string"
        }
      ],
      "name": "createCustomer",
      "outputs": [
        {
          "internalType": "address",
          "name": "",
          "type": "address"
        }
      ],
      "stateMutability": "nonpayable",
      "type": "function"
    },
    {
      "inputs": [
        {
          "internalType": "address",
          "name": "_walletAddr",
          "type": "address"
        }
      ],
      "name": "getCustomer",
      "outputs": [
        {
          "components": [
            {
              "internalType": "uint256",
              "name": "id",
              "type": "uint256"
            },
            {
              "internalType": "string",
              "name": "name",
              "type": "string"
            },
            {
              "internalType": "string",
              "name": "email",
              "type": "string"
            },
            {
              "internalType": "string",
              "name": "dob",
              "type": "string"
            },
            {
              "internalType": "string",
              "name": "govtId",
              "type": "string"
            },
            {
              "internalType": "string",
              "name": "picture",
              "type": "string"
            },
            {
              "internalType": "address",
              "name": "wallet",
              "type": "address"
            }
          ],
          "internalType": "struct Customer.CUSTOMER",
          "name": "",
          "type": "tuple"
        }
      ],
      "stateMutability": "view",
      "type": "function"
    }
  ],
  "bytecode": "0x6080604052600060015534801561001557600080fd5b5061003261002761003760201b60201c565b61003f60201b60201c565b610103565b600033905090565b60008060009054906101000a900473ffffffffffffffffffffffffffffffffffffffff169050816000806101000a81548173ffffffffffffffffffffffffffffffffffffffff021916908373ffffffffffffffffffffffffffffffffffffffff1602179055508173ffffffffffffffffffffffffffffffffffffffff168173ffffffffffffffffffffffffffffffffffffffff167f8be0079c531659141344cd1fd0a4f28419497f9722a3daafe3b4186f6b6457e060405160405180910390a35050565b611584806101126000396000f3fe608060405234801561001057600080fd5b50600436106100625760003560e01c8063336989ae14610067578063715018a61461009d5780638da5cb5b146100a7578063cb949e51146100c5578063f2fde38b146100f5578063f8fd2fa214610111575b600080fd5b610081600480360381019061007c9190610edf565b610141565b6040516100949796959493929190611280565b60405180910390f35b6100a561044b565b005b6100af61045f565b6040516100bc9190611203565b60405180910390f35b6100df60048036038101906100da9190610edf565b610488565b6040516100ec919061125e565b60405180910390f35b61010f600480360381019061010a9190610edf565b610821565b005b61012b60048036038101906101269190610f08565b6108a5565b6040516101389190611203565b60405180910390f35b600260205280600052604060002060009150905080600001549080600101805461016a9061141e565b80601f01602080910402602001604051908101604052809291908181526020018280546101969061141e565b80156101e35780601f106101b8576101008083540402835291602001916101e3565b820191906000526020600020905b8154815290600101906020018083116101c657829003601f168201915b5050505050908060020180546101f89061141e565b80601f01602080910402602001604051908101604052809291908181526020018280546102249061141e565b80156102715780601f1061024657610100808354040283529160200191610271565b820191906000526020600020905b81548152906001019060200180831161025457829003601f168201915b5050505050908060030180546102869061141e565b80601f01602080910402602001604051908101604052809291908181526020018280546102b29061141e565b80156102ff5780601f106102d4576101008083540402835291602001916102ff565b820191906000526020600020905b8154815290600101906020018083116102e257829003601f168201915b5050505050908060040180546103149061141e565b80601f01602080910402602001604051908101604052809291908181526020018280546103409061141e565b801561038d5780601f106103625761010080835404028352916020019161038d565b820191906000526020600020905b81548152906001019060200180831161037057829003601f168201915b5050505050908060050180546103a29061141e565b80601f01602080910402602001604051908101604052809291908181526020018280546103ce9061141e565b801561041b5780601f106103f05761010080835404028352916020019161041b565b820191906000526020600020905b8154815290600101906020018083116103fe57829003601f168201915b5050505050908060060160009054906101000a900473ffffffffffffffffffffffffffffffffffffffff16905087565b610453610cc5565b61045d6000610d43565b565b60008060009054906101000a900473ffffffffffffffffffffffffffffffffffffffff16905090565b610490610e0f565b6000600260008473ffffffffffffffffffffffffffffffffffffffff1673ffffffffffffffffffffffffffffffffffffffff1681526020019081526020016000206040518060e0016040529081600082015481526020016001820180546104f69061141e565b80601f01602080910402602001604051908101604052809291908181526020018280546105229061141e565b801561056f5780601f106105445761010080835404028352916020019161056f565b820191906000526020600020905b81548152906001019060200180831161055257829003601f168201915b505050505081526020016002820180546105889061141e565b80601f01602080910402602001604051908101604052809291908181526020018280546105b49061141e565b80156106015780601f106105d657610100808354040283529160200191610601565b820191906000526020600020905b8154815290600101906020018083116105e457829003601f168201915b5050505050815260200160038201805461061a9061141e565b80601f01602080910402602001604051908101604052809291908181526020018280546106469061141e565b80156106935780601f1061066857610100808354040283529160200191610693565b820191906000526020600020905b81548152906001019060200180831161067657829003601f168201915b505050505081526020016004820180546106ac9061141e565b80601f01602080910402602001604051908101604052809291908181526020018280546106d89061141e565b80156107255780601f106106fa57610100808354040283529160200191610725565b820191906000526020600020905b81548152906001019060200180831161070857829003601f168201915b5050505050815260200160058201805461073e9061141e565b80601f016020809104026020016040519081016040528092919081815260200182805461076a9061141e565b80156107b75780601f1061078c576101008083540402835291602001916107b7565b820191906000526020600020905b81548152906001019060200180831161079a57829003601f168201915b505050505081526020016006820160009054906101000a900473ffffffffffffffffffffffffffffffffffffffff1673ffffffffffffffffffffffffffffffffffffffff1673ffffffffffffffffffffffffffffffffffffffff1681525050905080915050919050565b610829610cc5565b600073ffffffffffffffffffffffffffffffffffffffff168173ffffffffffffffffffffffffffffffffffffffff161415610899576040517f08c379a00000000000000000000000000000000000000000000000000000000081526004016108909061121e565b60405180910390fd5b6108a281610d43565b50565b6000600160008154809291906108ba90611450565b91905055506000600260003373ffffffffffffffffffffffffffffffffffffffff1673ffffffffffffffffffffffffffffffffffffffff1681526020019081526020016000206040518060e0016040529081600082015481526020016001820180546109259061141e565b80601f01602080910402602001604051908101604052809291908181526020018280546109519061141e565b801561099e5780601f106109735761010080835404028352916020019161099e565b820191906000526020600020905b81548152906001019060200180831161098157829003601f168201915b505050505081526020016002820180546109b79061141e565b80601f01602080910402602001604051908101604052809291908181526020018280546109e39061141e565b8015610a305780601f10610a0557610100808354040283529160200191610a30565b820191906000526020600020905b815481529060010190602001808311610a1357829003601f168201915b50505050508152602001600382018054610a499061141e565b80601f0160208091040260200160405190810160405280929190818152602001828054610a759061141e565b8015610ac25780601f10610a9757610100808354040283529160200191610ac2565b820191906000526020600020905b815481529060010190602001808311610aa557829003601f168201915b50505050508152602001600482018054610adb9061141e565b80601f0160208091040260200160405190810160405280929190818152602001828054610b079061141e565b8015610b545780601f10610b2957610100808354040283529160200191610b54565b820191906000526020600020905b815481529060010190602001808311610b3757829003601f168201915b50505050508152602001600582018054610b6d9061141e565b80601f0160208091040260200160405190810160405280929190818152602001828054610b999061141e565b8015610be65780601f10610bbb57610100808354040283529160200191610be6565b820191906000526020600020905b815481529060010190602001808311610bc957829003601f168201915b505050505081526020016006820160009054906101000a900473ffffffffffffffffffffffffffffffffffffffff1673ffffffffffffffffffffffffffffffffffffffff1673ffffffffffffffffffffffffffffffffffffffff16815250509050600154816000018181525050868160200181905250858160400181905250848160600181905250838160800181905250828160a00181905250338160c0019073ffffffffffffffffffffffffffffffffffffffff16908173ffffffffffffffffffffffffffffffffffffffff16815250503391505095945050505050565b610ccd610e07565b73ffffffffffffffffffffffffffffffffffffffff16610ceb61045f565b73ffffffffffffffffffffffffffffffffffffffff1614610d41576040517f08c379a0000000000000000000000000000000000000000000000000000000008152600401610d389061123e565b60405180910390fd5b565b60008060009054906101000a900473ffffffffffffffffffffffffffffffffffffffff169050816000806101000a81548173ffffffffffffffffffffffffffffffffffffffff021916908373ffffffffffffffffffffffffffffffffffffffff1602179055508173ffffffffffffffffffffffffffffffffffffffff168173ffffffffffffffffffffffffffffffffffffffff167f8be0079c531659141344cd1fd0a4f28419497f9722a3daafe3b4186f6b6457e060405160405180910390a35050565b600033905090565b6040518060e00160405280600081526020016060815260200160608152602001606081526020016060815260200160608152602001600073ffffffffffffffffffffffffffffffffffffffff1681525090565b6000610e75610e7084611343565b611312565b905082815260208101848484011115610e8d57600080fd5b610e988482856113dc565b509392505050565b600081359050610eaf81611537565b92915050565b600082601f830112610ec657600080fd5b8135610ed6848260208601610e62565b91505092915050565b600060208284031215610ef157600080fd5b6000610eff84828501610ea0565b91505092915050565b600080600080600060a08688031215610f2057600080fd5b600086013567ffffffffffffffff811115610f3a57600080fd5b610f4688828901610eb5565b955050602086013567ffffffffffffffff811115610f6357600080fd5b610f6f88828901610eb5565b945050604086013567ffffffffffffffff811115610f8c57600080fd5b610f9888828901610eb5565b935050606086013567ffffffffffffffff811115610fb557600080fd5b610fc188828901610eb5565b925050608086013567ffffffffffffffff811115610fde57600080fd5b610fea88828901610eb5565b9150509295509295909350565b611000816113a0565b82525050565b61100f816113a0565b82525050565b600061102082611373565b61102a818561137e565b935061103a8185602086016113eb565b61104381611526565b840191505092915050565b600061105982611373565b611063818561138f565b93506110738185602086016113eb565b61107c81611526565b840191505092915050565b600061109460268361138f565b91507f4f776e61626c653a206e6577206f776e657220697320746865207a65726f206160008301527f64647265737300000000000000000000000000000000000000000000000000006020830152604082019050919050565b60006110fa60208361138f565b91507f4f776e61626c653a2063616c6c6572206973206e6f7420746865206f776e65726000830152602082019050919050565b600060e08301600083015161114560008601826111e5565b506020830151848203602086015261115d8282611015565b915050604083015184820360408601526111778282611015565b915050606083015184820360608601526111918282611015565b915050608083015184820360808601526111ab8282611015565b91505060a083015184820360a08601526111c58282611015565b91505060c08301516111da60c0860182610ff7565b508091505092915050565b6111ee816113d2565b82525050565b6111fd816113d2565b82525050565b60006020820190506112186000830184611006565b92915050565b6000602082019050818103600083015261123781611087565b9050919050565b60006020820190508181036000830152611257816110ed565b9050919050565b60006020820190508181036000830152611278818461112d565b905092915050565b600060e082019050611295600083018a6111f4565b81810360208301526112a7818961104e565b905081810360408301526112bb818861104e565b905081810360608301526112cf818761104e565b905081810360808301526112e3818661104e565b905081810360a08301526112f7818561104e565b905061130660c0830184611006565b98975050505050505050565b6000604051905081810181811067ffffffffffffffff82111715611339576113386114f7565b5b8060405250919050565b600067ffffffffffffffff82111561135e5761135d6114f7565b5b601f19601f8301169050602081019050919050565b600081519050919050565b600082825260208201905092915050565b600082825260208201905092915050565b60006113ab826113b2565b9050919050565b600073ffffffffffffffffffffffffffffffffffffffff82169050919050565b6000819050919050565b82818337600083830152505050565b60005b838110156114095780820151818401526020810190506113ee565b83811115611418576000848401525b50505050565b6000600282049050600182168061143657607f821691505b6020821081141561144a576114496114c8565b5b50919050565b600061145b826113d2565b91507fffffffffffffffffffffffffffffffffffffffffffffffffffffffffffffffff82141561148e5761148d611499565b5b600182019050919050565b7f4e487b7100000000000000000000000000000000000000000000000000000000600052601160045260246000fd5b7f4e487b7100000000000000000000000000000000000000000000000000000000600052602260045260246000fd5b7f4e487b7100000000000000000000000000000000000000000000000000000000600052604160045260246000fd5b6000601f19601f8301169050919050565b611540816113a0565b811461154b57600080fd5b5056fea2646970667358221220f5f329a2b246d5c0632c624fcb3074dd89be1e100012a6c92df0fe61ed73fbd764736f6c63430008000033",
  "immutableReferences": {},
  "source": "// SPDX-License-Identifier: MIT\r\npragma solidity 0.8.0;\r\n\r\nimport \"@openzeppelin/contracts/access/Ownable.sol\";\r\n\r\ncontract Customer is Ownable {\r\n    uint256 customer_count = 0;\r\n    struct CUSTOMER {\r\n        uint256 id;\r\n        string name;\r\n        string email;\r\n        string dob;\r\n        string govtId;\r\n        string picture;\r\n        address wallet;\r\n    }\r\n\r\n    mapping(address => CUSTOMER) public customers;\r\n\r\n    function createCustomer(string memory _name,string memory _email,string memory _dob,string memory _govtId,string memory _picture)\r\n        public\r\n        returns (address)\r\n    {   \r\n\r\n        customer_count++;\r\n\r\n        CUSTOMER memory customer = customers[msg.sender];\r\n\r\n        customer.id = customer_count;\r\n        customer.name = _name;\r\n        customer.email = _email;\r\n        customer.dob = _dob;\r\n        customer.govtId = _govtId;\r\n        customer.picture = _picture;\r\n        customer.wallet = msg.sender;\r\n\r\n        return msg.sender;\r\n    }\r\n\r\n    function getCustomer(address _walletAddr)\r\n        public\r\n        view\r\n        returns (CUSTOMER memory)\r\n    {\r\n        CUSTOMER memory customer = customers[_walletAddr];\r\n        return customer;\r\n    }\r\n\r\n    \r\n}\r\n",
  "sourcePath": "D:\\CODING\\BLOCKCHAIN\\P2P Riide Sharing\\contracts\\Customer.sol",
  "compiler": {
    "name": "solc",
    "version": "0.8.0+commit.c7dfd78e.Emscripten.clang"
  },
  "schemaVersion": "3.4.4",
  "updatedAt": "2023-02-25T03:41:49.752Z",
  "devdoc": {
    "kind": "dev",
    "methods": {
      "owner()": {
        "details": "Returns the address of the current owner."
      },
      "renounceOwnership()": {
        "details": "Leaves the contract without owner. It will not be possible to call `onlyOwner` functions anymore. Can only be called by the current owner. NOTE: Renouncing ownership will leave the contract without an owner, thereby removing any functionality that is only available to the owner."
      },
      "transferOwnership(address)": {
        "details": "Transfers ownership of the contract to a new account (`newOwner`). Can only be called by the current owner."
      }
    },
    "version": 1
  },
  "userdoc": {
    "kind": "user",
    "methods": {},
    "version": 1
  }
}